{
	"contracts/PokemonTDToken.sol": {
		"PokemonTDToken": {
			"abi": [
				{
					"inputs": [],
					"stateMutability": "nonpayable",
					"type": "constructor"
				},
				{
					"anonymous": false,
					"inputs": [
						{
							"indexed": false,
							"internalType": "uint256",
							"name": "amount",
							"type": "uint256"
						}
					],
					"name": "Bought",
					"type": "event"
				},
				{
					"anonymous": false,
					"inputs": [
						{
							"indexed": false,
							"internalType": "uint256",
							"name": "amount",
							"type": "uint256"
						}
					],
					"name": "Sold",
					"type": "event"
				},
				{
					"inputs": [],
					"name": "buy",
					"outputs": [],
					"stateMutability": "payable",
					"type": "function"
				},
				{
					"inputs": [
						{
							"internalType": "uint256",
							"name": "_amount",
							"type": "uint256"
						}
					],
					"name": "sell",
					"outputs": [],
					"stateMutability": "nonpayable",
					"type": "function"
				},
				{
					"inputs": [],
					"name": "token",
					"outputs": [
						{
							"internalType": "contract Token",
							"name": "",
							"type": "address"
						}
					],
					"stateMutability": "view",
					"type": "function"
				}
			],
			"devdoc": {
				"kind": "dev",
				"methods": {},
				"version": 1
			},
			"evm": {
				"assembly": "    /* \"contracts/PokemonTDToken.sol\":106:1254  contract PokemonTDToken {... */\n  mstore(0x40, 0x80)\n    /* \"contracts/PokemonTDToken.sol\":258:345  constructor() {... */\n  callvalue\n  dup1\n  iszero\n  tag_1\n  jumpi\n  0x00\n  dup1\n  revert\ntag_1:\n  pop\n    /* \"contracts/PokemonTDToken.sol\":290:305  new BaseToken() */\n  mload(0x40)\n  tag_4\n  swap1\n  tag_5\n  jump\t// in\ntag_4:\n  mload(0x40)\n  dup1\n  swap2\n  sub\n  swap1\n  0x00\n  create\n  dup1\n  iszero\n  dup1\n  iszero\n  tag_6\n  jumpi\n  returndatasize\n  0x00\n  dup1\n  returndatacopy\n  revert(0x00, returndatasize)\ntag_6:\n  pop\n    /* \"contracts/PokemonTDToken.sol\":282:287  token */\n  0x00\n  dup1\n    /* \"contracts/PokemonTDToken.sol\":282:305  token = new BaseToken() */\n  0x0100\n  exp\n  dup2\n  sload\n  dup2\n  0xffffffffffffffffffffffffffffffffffffffff\n  mul\n  not\n  and\n  swap1\n  dup4\n  0xffffffffffffffffffffffffffffffffffffffff\n  and\n  mul\n  or\n  swap1\n  sstore\n  pop\n    /* \"contracts/PokemonTDToken.sol\":333:338  10000 */\n  0x2710\n    /* \"contracts/PokemonTDToken.sol\":315:330  uintOfEthCanBuy */\n  0x01\n    /* \"contracts/PokemonTDToken.sol\":315:338  uintOfEthCanBuy = 10000 */\n  dup2\n  swap1\n  sstore\n  pop\n    /* \"contracts/PokemonTDToken.sol\":106:1254  contract PokemonTDToken {... */\n  jump(tag_7)\ntag_5:\n  dataSize(sub_1)\n  dup1\n  dataOffset(sub_1)\n  dup4\n  codecopy\n  add\n  swap1\n  jump\t// out\ntag_7:\n  dataSize(sub_0)\n  dup1\n  dataOffset(sub_0)\n  0x00\n  codecopy\n  0x00\n  return\nstop\n\nsub_0: assembly {\n        /* \"contracts/PokemonTDToken.sol\":106:1254  contract PokemonTDToken {... */\n      mstore(0x40, 0x80)\n      jumpi(tag_1, lt(calldatasize, 0x04))\n      shr(0xe0, calldataload(0x00))\n      dup1\n      0xa6f2ae3a\n      eq\n      tag_2\n      jumpi\n      dup1\n      0xe4849b32\n      eq\n      tag_3\n      jumpi\n      dup1\n      0xfc0c546a\n      eq\n      tag_4\n      jumpi\n    tag_1:\n      0x00\n      dup1\n      revert\n        /* \"contracts/PokemonTDToken.sol\":351:845  function buy() payable public {... */\n    tag_2:\n      tag_5\n      tag_6\n      jump\t// in\n    tag_5:\n      stop\n        /* \"contracts/PokemonTDToken.sol\":851:1251  function sell(uint256 _amount) public {... */\n    tag_3:\n      callvalue\n      dup1\n      iszero\n      tag_7\n      jumpi\n      0x00\n      dup1\n      revert\n    tag_7:\n      pop\n      tag_8\n      0x04\n      dup1\n      calldatasize\n      sub\n      dup2\n      add\n      swap1\n      tag_9\n      swap2\n      swap1\n      tag_10\n      jump\t// in\n    tag_9:\n      tag_11\n      jump\t// in\n    tag_8:\n      stop\n        /* \"contracts/PokemonTDToken.sol\":137:155  Token public token */\n    tag_4:\n      callvalue\n      dup1\n      iszero\n      tag_12\n      jumpi\n      0x00\n      dup1\n      revert\n    tag_12:\n      pop\n      tag_13\n      tag_14\n      jump\t// in\n    tag_13:\n      mload(0x40)\n      tag_15\n      swap2\n      swap1\n      tag_16\n      jump\t// in\n    tag_15:\n      mload(0x40)\n      dup1\n      swap2\n      sub\n      swap1\n      return\n        /* \"contracts/PokemonTDToken.sol\":351:845  function buy() payable public {... */\n    tag_6:\n        /* \"contracts/PokemonTDToken.sol\":391:408  uint256 amountBuy */\n      0x00\n        /* \"contracts/PokemonTDToken.sol\":411:420  msg.value */\n      callvalue\n        /* \"contracts/PokemonTDToken.sol\":391:420  uint256 amountBuy = msg.value */\n      swap1\n      pop\n        /* \"contracts/PokemonTDToken.sol\":430:447  uint256 pkBalance */\n      0x00\n        /* \"contracts/PokemonTDToken.sol\":450:455  token */\n      dup1\n      0x00\n      swap1\n      sload\n      swap1\n      0x0100\n      exp\n      swap1\n      div\n      0xffffffffffffffffffffffffffffffffffffffff\n      and\n        /* \"contracts/PokemonTDToken.sol\":450:465  token.balanceOf */\n      0xffffffffffffffffffffffffffffffffffffffff\n      and\n      0x70a08231\n        /* \"contracts/PokemonTDToken.sol\":474:478  this */\n      address\n        /* \"contracts/PokemonTDToken.sol\":450:480  token.balanceOf(address(this)) */\n      mload(0x40)\n      dup3\n      0xffffffff\n      and\n      0xe0\n      shl\n      dup2\n      mstore\n      0x04\n      add\n      tag_18\n      swap2\n      swap1\n      tag_19\n      jump\t// in\n    tag_18:\n      0x20\n      mload(0x40)\n      dup1\n      dup4\n      sub\n      dup2\n      0x00\n      dup8\n      dup1\n      extcodesize\n      iszero\n      dup1\n      iszero\n      tag_20\n      jumpi\n      0x00\n      dup1\n      revert\n    tag_20:\n      pop\n      gas\n      call\n      iszero\n      dup1\n      iszero\n      tag_22\n      jumpi\n      returndatasize\n      0x00\n      dup1\n      returndatacopy\n      revert(0x00, returndatasize)\n    tag_22:\n      pop\n      pop\n      pop\n      pop\n      mload(0x40)\n      returndatasize\n      not(0x1f)\n      0x1f\n      dup3\n      add\n      and\n      dup3\n      add\n      dup1\n      0x40\n      mstore\n      pop\n      dup2\n      add\n      swap1\n      tag_23\n      swap2\n      swap1\n      tag_24\n      jump\t// in\n    tag_23:\n        /* \"contracts/PokemonTDToken.sol\":430:480  uint256 pkBalance = token.balanceOf(address(this)) */\n      swap1\n      pop\n        /* \"contracts/PokemonTDToken.sol\":491:517  uint256 amountBuyTokenSize */\n      0x00\n        /* \"contracts/PokemonTDToken.sol\":532:547  uintOfEthCanBuy */\n      sload(0x01)\n        /* \"contracts/PokemonTDToken.sol\":520:529  msg.value */\n      callvalue\n        /* \"contracts/PokemonTDToken.sol\":520:547  msg.value * uintOfEthCanBuy */\n      tag_25\n      swap2\n      swap1\n      tag_26\n      jump\t// in\n    tag_25:\n        /* \"contracts/PokemonTDToken.sol\":491:547  uint256 amountBuyTokenSize = msg.value * uintOfEthCanBuy */\n      swap1\n      pop\n        /* \"contracts/PokemonTDToken.sol\":578:579  0 */\n      0x00\n        /* \"contracts/PokemonTDToken.sol\":566:575  amountBuy */\n      dup4\n        /* \"contracts/PokemonTDToken.sol\":566:579  amountBuy > 0 */\n      gt\n        /* \"contracts/PokemonTDToken.sol\":558:616  require(amountBuy > 0, \"You need to mention Ether to buy\") */\n      tag_27\n      jumpi\n      mload(0x40)\n      0x08c379a000000000000000000000000000000000000000000000000000000000\n      dup2\n      mstore\n      0x04\n      add\n      tag_28\n      swap1\n      tag_29\n      jump\t// in\n    tag_28:\n      mload(0x40)\n      dup1\n      swap2\n      sub\n      swap1\n      revert\n    tag_27:\n        /* \"contracts/PokemonTDToken.sol\":656:665  pkBalance */\n      dup2\n        /* \"contracts/PokemonTDToken.sol\":634:652  amountBuyTokenSize */\n      dup2\n        /* \"contracts/PokemonTDToken.sol\":634:665  amountBuyTokenSize <= pkBalance */\n      gt\n      iszero\n        /* \"contracts/PokemonTDToken.sol\":626:695  require(amountBuyTokenSize <= pkBalance, \"Not Enough PokemonTD Left\") */\n      tag_30\n      jumpi\n      mload(0x40)\n      0x08c379a000000000000000000000000000000000000000000000000000000000\n      dup2\n      mstore\n      0x04\n      add\n      tag_31\n      swap1\n      tag_32\n      jump\t// in\n    tag_31:\n      mload(0x40)\n      dup1\n      swap2\n      sub\n      swap1\n      revert\n    tag_30:\n        /* \"contracts/PokemonTDToken.sol\":706:711  token */\n      0x00\n      dup1\n      sload\n      swap1\n      0x0100\n      exp\n      swap1\n      div\n      0xffffffffffffffffffffffffffffffffffffffff\n      and\n        /* \"contracts/PokemonTDToken.sol\":706:720  token.transfer */\n      0xffffffffffffffffffffffffffffffffffffffff\n      and\n      0xa9059cbb\n        /* \"contracts/PokemonTDToken.sol\":721:731  msg.sender */\n      caller\n        /* \"contracts/PokemonTDToken.sol\":733:751  amountBuyTokenSize */\n      dup4\n        /* \"contracts/PokemonTDToken.sol\":706:752  token.transfer(msg.sender, amountBuyTokenSize) */\n      mload(0x40)\n      dup4\n      0xffffffff\n      and\n      0xe0\n      shl\n      dup2\n      mstore\n      0x04\n      add\n      tag_33\n      swap3\n      swap2\n      swap1\n      tag_34\n      jump\t// in\n    tag_33:\n      0x20\n      mload(0x40)\n      dup1\n      dup4\n      sub\n      dup2\n      0x00\n      dup8\n      dup1\n      extcodesize\n      iszero\n      dup1\n      iszero\n      tag_35\n      jumpi\n      0x00\n      dup1\n      revert\n    tag_35:\n      pop\n      gas\n      call\n      iszero\n      dup1\n      iszero\n      tag_37\n      jumpi\n      returndatasize\n      0x00\n      dup1\n      returndatacopy\n      revert(0x00, returndatasize)\n    tag_37:\n      pop\n      pop\n      pop\n      pop\n      mload(0x40)\n      returndatasize\n      not(0x1f)\n      0x1f\n      dup3\n      add\n      and\n      dup3\n      add\n      dup1\n      0x40\n      mstore\n      pop\n      dup2\n      add\n      swap1\n      tag_38\n      swap2\n      swap1\n      tag_39\n      jump\t// in\n    tag_38:\n      pop\n        /* \"contracts/PokemonTDToken.sol\":762:767  token */\n      0x00\n      dup1\n      sload\n      swap1\n      0x0100\n      exp\n      swap1\n      div\n      0xffffffffffffffffffffffffffffffffffffffff\n      and\n        /* \"contracts/PokemonTDToken.sol\":762:786  token.transferEthToOwner */\n      0xffffffffffffffffffffffffffffffffffffffff\n      and\n      0xce7c5d7f\n        /* \"contracts/PokemonTDToken.sol\":787:796  amountBuy */\n      dup5\n        /* \"contracts/PokemonTDToken.sol\":762:797  token.transferEthToOwner(amountBuy) */\n      mload(0x40)\n      dup3\n      0xffffffff\n      and\n      0xe0\n      shl\n      dup2\n      mstore\n      0x04\n      add\n      tag_40\n      swap2\n      swap1\n      tag_41\n      jump\t// in\n    tag_40:\n      0x20\n      mload(0x40)\n      dup1\n      dup4\n      sub\n      dup2\n      0x00\n      dup8\n      dup1\n      extcodesize\n      iszero\n      dup1\n      iszero\n      tag_42\n      jumpi\n      0x00\n      dup1\n      revert\n    tag_42:\n      pop\n      gas\n      call\n      iszero\n      dup1\n      iszero\n      tag_44\n      jumpi\n      returndatasize\n      0x00\n      dup1\n      returndatacopy\n      revert(0x00, returndatasize)\n    tag_44:\n      pop\n      pop\n      pop\n      pop\n      mload(0x40)\n      returndatasize\n      not(0x1f)\n      0x1f\n      dup3\n      add\n      and\n      dup3\n      add\n      dup1\n      0x40\n      mstore\n      pop\n      dup2\n      add\n      swap1\n      tag_45\n      swap2\n      swap1\n      tag_39\n      jump\t// in\n    tag_45:\n      pop\n        /* \"contracts/PokemonTDToken.sol\":812:838  Bought(amountBuyTokenSize) */\n      0x4e08ba899977cf7d4c2964bce71c6b9a7ef76ee5166a4c1249a1e08016e33ef1\n        /* \"contracts/PokemonTDToken.sol\":819:837  amountBuyTokenSize */\n      dup2\n        /* \"contracts/PokemonTDToken.sol\":812:838  Bought(amountBuyTokenSize) */\n      mload(0x40)\n      tag_46\n      swap2\n      swap1\n      tag_41\n      jump\t// in\n    tag_46:\n      mload(0x40)\n      dup1\n      swap2\n      sub\n      swap1\n      log1\n        /* \"contracts/PokemonTDToken.sol\":381:845  {... */\n      pop\n      pop\n      pop\n        /* \"contracts/PokemonTDToken.sol\":351:845  function buy() payable public {... */\n      jump\t// out\n        /* \"contracts/PokemonTDToken.sol\":851:1251  function sell(uint256 _amount) public {... */\n    tag_11:\n        /* \"contracts/PokemonTDToken.sol\":917:918  0 */\n      0x00\n        /* \"contracts/PokemonTDToken.sol\":907:914  _amount */\n      dup2\n        /* \"contracts/PokemonTDToken.sol\":907:918  _amount > 0 */\n      gt\n        /* \"contracts/PokemonTDToken.sol\":899:959  require(_amount > 0, \"You need to mention PokemonTD amount\") */\n      tag_48\n      jumpi\n      mload(0x40)\n      0x08c379a000000000000000000000000000000000000000000000000000000000\n      dup2\n      mstore\n      0x04\n      add\n      tag_49\n      swap1\n      tag_50\n      jump\t// in\n    tag_49:\n      mload(0x40)\n      dup1\n      swap2\n      sub\n      swap1\n      revert\n    tag_48:\n        /* \"contracts/PokemonTDToken.sol\":969:986  uint256 allowance */\n      0x00\n        /* \"contracts/PokemonTDToken.sol\":989:994  token */\n      dup1\n      0x00\n      swap1\n      sload\n      swap1\n      0x0100\n      exp\n      swap1\n      div\n      0xffffffffffffffffffffffffffffffffffffffff\n      and\n        /* \"contracts/PokemonTDToken.sol\":989:1004  token.allowance */\n      0xffffffffffffffffffffffffffffffffffffffff\n      and\n      0xdd62ed3e\n        /* \"contracts/PokemonTDToken.sol\":1005:1015  msg.sender */\n      caller\n        /* \"contracts/PokemonTDToken.sol\":1025:1029  this */\n      address\n        /* \"contracts/PokemonTDToken.sol\":989:1031  token.allowance(msg.sender, address(this)) */\n      mload(0x40)\n      dup4\n      0xffffffff\n      and\n      0xe0\n      shl\n      dup2\n      mstore\n      0x04\n      add\n      tag_51\n      swap3\n      swap2\n      swap1\n      tag_52\n      jump\t// in\n    tag_51:\n      0x20\n      mload(0x40)\n      dup1\n      dup4\n      sub\n      dup2\n      0x00\n      dup8\n      dup1\n      extcodesize\n      iszero\n      dup1\n      iszero\n      tag_53\n      jumpi\n      0x00\n      dup1\n      revert\n    tag_53:\n      pop\n      gas\n      call\n      iszero\n      dup1\n      iszero\n      tag_55\n      jumpi\n      returndatasize\n      0x00\n      dup1\n      returndatacopy\n      revert(0x00, returndatasize)\n    tag_55:\n      pop\n      pop\n      pop\n      pop\n      mload(0x40)\n      returndatasize\n      not(0x1f)\n      0x1f\n      dup3\n      add\n      and\n      dup3\n      add\n      dup1\n      0x40\n      mstore\n      pop\n      dup2\n      add\n      swap1\n      tag_56\n      swap2\n      swap1\n      tag_24\n      jump\t// in\n    tag_56:\n        /* \"contracts/PokemonTDToken.sol\":969:1031  uint256 allowance = token.allowance(msg.sender, address(this)) */\n      swap1\n      pop\n        /* \"contracts/PokemonTDToken.sol\":1061:1068  _amount */\n      dup2\n        /* \"contracts/PokemonTDToken.sol\":1049:1058  allowance */\n      dup2\n        /* \"contracts/PokemonTDToken.sol\":1049:1068  allowance > _amount */\n      gt\n        /* \"contracts/PokemonTDToken.sol\":1041:1105  require(allowance > _amount, \"Please check the token allowance\") */\n      tag_57\n      jumpi\n      mload(0x40)\n      0x08c379a000000000000000000000000000000000000000000000000000000000\n      dup2\n      mstore\n      0x04\n      add\n      tag_58\n      swap1\n      tag_59\n      jump\t// in\n    tag_58:\n      mload(0x40)\n      dup1\n      swap2\n      sub\n      swap1\n      revert\n    tag_57:\n        /* \"contracts/PokemonTDToken.sol\":1115:1120  token */\n      0x00\n      dup1\n      sload\n      swap1\n      0x0100\n      exp\n      swap1\n      div\n      0xffffffffffffffffffffffffffffffffffffffff\n      and\n        /* \"contracts/PokemonTDToken.sol\":1115:1133  token.transferFrom */\n      0xffffffffffffffffffffffffffffffffffffffff\n      and\n      0x23b872dd\n        /* \"contracts/PokemonTDToken.sol\":1134:1144  msg.sender */\n      caller\n        /* \"contracts/PokemonTDToken.sol\":1154:1158  this */\n      address\n        /* \"contracts/PokemonTDToken.sol\":1161:1168  _amount */\n      dup6\n        /* \"contracts/PokemonTDToken.sol\":1115:1169  token.transferFrom(msg.sender, address(this), _amount) */\n      mload(0x40)\n      dup5\n      0xffffffff\n      and\n      0xe0\n      shl\n      dup2\n      mstore\n      0x04\n      add\n      tag_60\n      swap4\n      swap3\n      swap2\n      swap1\n      tag_61\n      jump\t// in\n    tag_60:\n      0x20\n      mload(0x40)\n      dup1\n      dup4\n      sub\n      dup2\n      0x00\n      dup8\n      dup1\n      extcodesize\n      iszero\n      dup1\n      iszero\n      tag_62\n      jumpi\n      0x00\n      dup1\n      revert\n    tag_62:\n      pop\n      gas\n      call\n      iszero\n      dup1\n      iszero\n      tag_64\n      jumpi\n      returndatasize\n      0x00\n      dup1\n      returndatacopy\n      revert(0x00, returndatasize)\n    tag_64:\n      pop\n      pop\n      pop\n      pop\n      mload(0x40)\n      returndatasize\n      not(0x1f)\n      0x1f\n      dup3\n      add\n      and\n      dup3\n      add\n      dup1\n      0x40\n      mstore\n      pop\n      dup2\n      add\n      swap1\n      tag_65\n      swap2\n      swap1\n      tag_39\n      jump\t// in\n    tag_65:\n      pop\n        /* \"contracts/PokemonTDToken.sol\":1187:1197  msg.sender */\n      caller\n        /* \"contracts/PokemonTDToken.sol\":1179:1207  payable(msg.sender).transfer */\n      0xffffffffffffffffffffffffffffffffffffffff\n      and\n        /* \"contracts/PokemonTDToken.sol\":1179:1216  payable(msg.sender).transfer(_amount) */\n      0x08fc\n        /* \"contracts/PokemonTDToken.sol\":1208:1215  _amount */\n      dup4\n        /* \"contracts/PokemonTDToken.sol\":1179:1216  payable(msg.sender).transfer(_amount) */\n      swap1\n      dup2\n      iszero\n      mul\n      swap1\n      mload(0x40)\n      0x00\n      mload(0x40)\n      dup1\n      dup4\n      sub\n      dup2\n      dup6\n      dup9\n      dup9\n      call\n      swap4\n      pop\n      pop\n      pop\n      pop\n      iszero\n      dup1\n      iszero\n      tag_67\n      jumpi\n      returndatasize\n      0x00\n      dup1\n      returndatacopy\n      revert(0x00, returndatasize)\n    tag_67:\n      pop\n        /* \"contracts/PokemonTDToken.sol\":1231:1244  Sold(_amount) */\n      0x92f64ca637d023f354075a4be751b169c1a8a9ccb6d33cdd0cb3520543995727\n        /* \"contracts/PokemonTDToken.sol\":1236:1243  _amount */\n      dup3\n        /* \"contracts/PokemonTDToken.sol\":1231:1244  Sold(_amount) */\n      mload(0x40)\n      tag_68\n      swap2\n      swap1\n      tag_41\n      jump\t// in\n    tag_68:\n      mload(0x40)\n      dup1\n      swap2\n      sub\n      swap1\n      log1\n        /* \"contracts/PokemonTDToken.sol\":889:1251  {... */\n      pop\n        /* \"contracts/PokemonTDToken.sol\":851:1251  function sell(uint256 _amount) public {... */\n      pop\n      jump\t// out\n        /* \"contracts/PokemonTDToken.sol\":137:155  Token public token */\n    tag_14:\n      0x00\n      dup1\n      sload\n      swap1\n      0x0100\n      exp\n      swap1\n      div\n      0xffffffffffffffffffffffffffffffffffffffff\n      and\n      dup2\n      jump\t// out\n        /* \"#utility.yul\":7:144   */\n    tag_70:\n        /* \"#utility.yul\":61:66   */\n      0x00\n        /* \"#utility.yul\":92:98   */\n      dup2\n        /* \"#utility.yul\":86:99   */\n      mload\n        /* \"#utility.yul\":77:99   */\n      swap1\n      pop\n        /* \"#utility.yul\":108:138   */\n      tag_72\n        /* \"#utility.yul\":132:137   */\n      dup2\n        /* \"#utility.yul\":108:138   */\n      tag_73\n      jump\t// in\n    tag_72:\n        /* \"#utility.yul\":7:144   */\n      swap3\n      swap2\n      pop\n      pop\n      jump\t// out\n        /* \"#utility.yul\":150:289   */\n    tag_74:\n        /* \"#utility.yul\":196:201   */\n      0x00\n        /* \"#utility.yul\":234:240   */\n      dup2\n        /* \"#utility.yul\":221:241   */\n      calldataload\n        /* \"#utility.yul\":212:241   */\n      swap1\n      pop\n        /* \"#utility.yul\":250:283   */\n      tag_76\n        /* \"#utility.yul\":277:282   */\n      dup2\n        /* \"#utility.yul\":250:283   */\n      tag_77\n      jump\t// in\n    tag_76:\n        /* \"#utility.yul\":150:289   */\n      swap3\n      swap2\n      pop\n      pop\n      jump\t// out\n        /* \"#utility.yul\":295:438   */\n    tag_78:\n        /* \"#utility.yul\":352:357   */\n      0x00\n        /* \"#utility.yul\":383:389   */\n      dup2\n        /* \"#utility.yul\":377:390   */\n      mload\n        /* \"#utility.yul\":368:390   */\n      swap1\n      pop\n        /* \"#utility.yul\":399:432   */\n      tag_80\n        /* \"#utility.yul\":426:431   */\n      dup2\n        /* \"#utility.yul\":399:432   */\n      tag_77\n      jump\t// in\n    tag_80:\n        /* \"#utility.yul\":295:438   */\n      swap3\n      swap2\n      pop\n      pop\n      jump\t// out\n        /* \"#utility.yul\":444:789   */\n    tag_39:\n        /* \"#utility.yul\":511:517   */\n      0x00\n        /* \"#utility.yul\":560:562   */\n      0x20\n        /* \"#utility.yul\":548:557   */\n      dup3\n        /* \"#utility.yul\":539:546   */\n      dup5\n        /* \"#utility.yul\":535:558   */\n      sub\n        /* \"#utility.yul\":531:563   */\n      slt\n        /* \"#utility.yul\":528:647   */\n      iszero\n      tag_82\n      jumpi\n        /* \"#utility.yul\":566:645   */\n      tag_83\n      tag_84\n      jump\t// in\n    tag_83:\n        /* \"#utility.yul\":528:647   */\n    tag_82:\n        /* \"#utility.yul\":686:687   */\n      0x00\n        /* \"#utility.yul\":711:772   */\n      tag_85\n        /* \"#utility.yul\":764:771   */\n      dup5\n        /* \"#utility.yul\":755:761   */\n      dup3\n        /* \"#utility.yul\":744:753   */\n      dup6\n        /* \"#utility.yul\":740:762   */\n      add\n        /* \"#utility.yul\":711:772   */\n      tag_70\n      jump\t// in\n    tag_85:\n        /* \"#utility.yul\":701:772   */\n      swap2\n      pop\n        /* \"#utility.yul\":657:782   */\n      pop\n        /* \"#utility.yul\":444:789   */\n      swap3\n      swap2\n      pop\n      pop\n      jump\t// out\n        /* \"#utility.yul\":795:1124   */\n    tag_10:\n        /* \"#utility.yul\":854:860   */\n      0x00\n        /* \"#utility.yul\":903:905   */\n      0x20\n        /* \"#utility.yul\":891:900   */\n      dup3\n        /* \"#utility.yul\":882:889   */\n      dup5\n        /* \"#utility.yul\":878:901   */\n      sub\n        /* \"#utility.yul\":874:906   */\n      slt\n        /* \"#utility.yul\":871:990   */\n      iszero\n      tag_87\n      jumpi\n        /* \"#utility.yul\":909:988   */\n      tag_88\n      tag_84\n      jump\t// in\n    tag_88:\n        /* \"#utility.yul\":871:990   */\n    tag_87:\n        /* \"#utility.yul\":1029:1030   */\n      0x00\n        /* \"#utility.yul\":1054:1107   */\n      tag_89\n        /* \"#utility.yul\":1099:1106   */\n      dup5\n        /* \"#utility.yul\":1090:1096   */\n      dup3\n        /* \"#utility.yul\":1079:1088   */\n      dup6\n        /* \"#utility.yul\":1075:1097   */\n      add\n        /* \"#utility.yul\":1054:1107   */\n      tag_74\n      jump\t// in\n    tag_89:\n        /* \"#utility.yul\":1044:1107   */\n      swap2\n      pop\n        /* \"#utility.yul\":1000:1117   */\n      pop\n        /* \"#utility.yul\":795:1124   */\n      swap3\n      swap2\n      pop\n      pop\n      jump\t// out\n        /* \"#utility.yul\":1130:1481   */\n    tag_24:\n        /* \"#utility.yul\":1200:1206   */\n      0x00\n        /* \"#utility.yul\":1249:1251   */\n      0x20\n        /* \"#utility.yul\":1237:1246   */\n      dup3\n        /* \"#utility.yul\":1228:1235   */\n      dup5\n        /* \"#utility.yul\":1224:1247   */\n      sub\n        /* \"#utility.yul\":1220:1252   */\n      slt\n        /* \"#utility.yul\":1217:1336   */\n      iszero\n      tag_91\n      jumpi\n        /* \"#utility.yul\":1255:1334   */\n      tag_92\n      tag_84\n      jump\t// in\n    tag_92:\n        /* \"#utility.yul\":1217:1336   */\n    tag_91:\n        /* \"#utility.yul\":1375:1376   */\n      0x00\n        /* \"#utility.yul\":1400:1464   */\n      tag_93\n        /* \"#utility.yul\":1456:1463   */\n      dup5\n        /* \"#utility.yul\":1447:1453   */\n      dup3\n        /* \"#utility.yul\":1436:1445   */\n      dup6\n        /* \"#utility.yul\":1432:1454   */\n      add\n        /* \"#utility.yul\":1400:1464   */\n      tag_78\n      jump\t// in\n    tag_93:\n        /* \"#utility.yul\":1390:1464   */\n      swap2\n      pop\n        /* \"#utility.yul\":1346:1474   */\n      pop\n        /* \"#utility.yul\":1130:1481   */\n      swap3\n      swap2\n      pop\n      pop\n      jump\t// out\n        /* \"#utility.yul\":1487:1605   */\n    tag_94:\n        /* \"#utility.yul\":1574:1598   */\n      tag_96\n        /* \"#utility.yul\":1592:1597   */\n      dup2\n        /* \"#utility.yul\":1574:1598   */\n      tag_97\n      jump\t// in\n    tag_96:\n        /* \"#utility.yul\":1569:1572   */\n      dup3\n        /* \"#utility.yul\":1562:1599   */\n      mstore\n        /* \"#utility.yul\":1487:1605   */\n      pop\n      pop\n      jump\t// out\n        /* \"#utility.yul\":1611:1768   */\n    tag_98:\n        /* \"#utility.yul\":1711:1761   */\n      tag_100\n        /* \"#utility.yul\":1755:1760   */\n      dup2\n        /* \"#utility.yul\":1711:1761   */\n      tag_101\n      jump\t// in\n    tag_100:\n        /* \"#utility.yul\":1706:1709   */\n      dup3\n        /* \"#utility.yul\":1699:1762   */\n      mstore\n        /* \"#utility.yul\":1611:1768   */\n      pop\n      pop\n      jump\t// out\n        /* \"#utility.yul\":1774:2140   */\n    tag_102:\n        /* \"#utility.yul\":1916:1919   */\n      0x00\n        /* \"#utility.yul\":1937:2004   */\n      tag_104\n        /* \"#utility.yul\":2001:2003   */\n      0x20\n        /* \"#utility.yul\":1996:1999   */\n      dup4\n        /* \"#utility.yul\":1937:2004   */\n      tag_105\n      jump\t// in\n    tag_104:\n        /* \"#utility.yul\":1930:2004   */\n      swap2\n      pop\n        /* \"#utility.yul\":2013:2106   */\n      tag_106\n        /* \"#utility.yul\":2102:2105   */\n      dup3\n        /* \"#utility.yul\":2013:2106   */\n      tag_107\n      jump\t// in\n    tag_106:\n        /* \"#utility.yul\":2131:2133   */\n      0x20\n        /* \"#utility.yul\":2126:2129   */\n      dup3\n        /* \"#utility.yul\":2122:2134   */\n      add\n        /* \"#utility.yul\":2115:2134   */\n      swap1\n      pop\n        /* \"#utility.yul\":1774:2140   */\n      swap2\n      swap1\n      pop\n      jump\t// out\n        /* \"#utility.yul\":2146:2512   */\n    tag_108:\n        /* \"#utility.yul\":2288:2291   */\n      0x00\n        /* \"#utility.yul\":2309:2376   */\n      tag_110\n        /* \"#utility.yul\":2373:2375   */\n      0x24\n        /* \"#utility.yul\":2368:2371   */\n      dup4\n        /* \"#utility.yul\":2309:2376   */\n      tag_105\n      jump\t// in\n    tag_110:\n        /* \"#utility.yul\":2302:2376   */\n      swap2\n      pop\n        /* \"#utility.yul\":2385:2478   */\n      tag_111\n        /* \"#utility.yul\":2474:2477   */\n      dup3\n        /* \"#utility.yul\":2385:2478   */\n      tag_112\n      jump\t// in\n    tag_111:\n        /* \"#utility.yul\":2503:2505   */\n      0x40\n        /* \"#utility.yul\":2498:2501   */\n      dup3\n        /* \"#utility.yul\":2494:2506   */\n      add\n        /* \"#utility.yul\":2487:2506   */\n      swap1\n      pop\n        /* \"#utility.yul\":2146:2512   */\n      swap2\n      swap1\n      pop\n      jump\t// out\n        /* \"#utility.yul\":2518:2884   */\n    tag_113:\n        /* \"#utility.yul\":2660:2663   */\n      0x00\n        /* \"#utility.yul\":2681:2748   */\n      tag_115\n        /* \"#utility.yul\":2745:2747   */\n      0x20\n        /* \"#utility.yul\":2740:2743   */\n      dup4\n        /* \"#utility.yul\":2681:2748   */\n      tag_105\n      jump\t// in\n    tag_115:\n        /* \"#utility.yul\":2674:2748   */\n      swap2\n      pop\n        /* \"#utility.yul\":2757:2850   */\n      tag_116\n        /* \"#utility.yul\":2846:2849   */\n      dup3\n        /* \"#utility.yul\":2757:2850   */\n      tag_117\n      jump\t// in\n    tag_116:\n        /* \"#utility.yul\":2875:2877   */\n      0x20\n        /* \"#utility.yul\":2870:2873   */\n      dup3\n        /* \"#utility.yul\":2866:2878   */\n      add\n        /* \"#utility.yul\":2859:2878   */\n      swap1\n      pop\n        /* \"#utility.yul\":2518:2884   */\n      swap2\n      swap1\n      pop\n      jump\t// out\n        /* \"#utility.yul\":2890:3256   */\n    tag_118:\n        /* \"#utility.yul\":3032:3035   */\n      0x00\n        /* \"#utility.yul\":3053:3120   */\n      tag_120\n        /* \"#utility.yul\":3117:3119   */\n      0x19\n        /* \"#utility.yul\":3112:3115   */\n      dup4\n        /* \"#utility.yul\":3053:3120   */\n      tag_105\n      jump\t// in\n    tag_120:\n        /* \"#utility.yul\":3046:3120   */\n      swap2\n      pop\n        /* \"#utility.yul\":3129:3222   */\n      tag_121\n        /* \"#utility.yul\":3218:3221   */\n      dup3\n        /* \"#utility.yul\":3129:3222   */\n      tag_122\n      jump\t// in\n    tag_121:\n        /* \"#utility.yul\":3247:3249   */\n      0x20\n        /* \"#utility.yul\":3242:3245   */\n      dup3\n        /* \"#utility.yul\":3238:3250   */\n      add\n        /* \"#utility.yul\":3231:3250   */\n      swap1\n      pop\n        /* \"#utility.yul\":2890:3256   */\n      swap2\n      swap1\n      pop\n      jump\t// out\n        /* \"#utility.yul\":3262:3380   */\n    tag_123:\n        /* \"#utility.yul\":3349:3373   */\n      tag_125\n        /* \"#utility.yul\":3367:3372   */\n      dup2\n        /* \"#utility.yul\":3349:3373   */\n      tag_126\n      jump\t// in\n    tag_125:\n        /* \"#utility.yul\":3344:3347   */\n      dup3\n        /* \"#utility.yul\":3337:3374   */\n      mstore\n        /* \"#utility.yul\":3262:3380   */\n      pop\n      pop\n      jump\t// out\n        /* \"#utility.yul\":3386:3608   */\n    tag_19:\n        /* \"#utility.yul\":3479:3483   */\n      0x00\n        /* \"#utility.yul\":3517:3519   */\n      0x20\n        /* \"#utility.yul\":3506:3515   */\n      dup3\n        /* \"#utility.yul\":3502:3520   */\n      add\n        /* \"#utility.yul\":3494:3520   */\n      swap1\n      pop\n        /* \"#utility.yul\":3530:3601   */\n      tag_128\n        /* \"#utility.yul\":3598:3599   */\n      0x00\n        /* \"#utility.yul\":3587:3596   */\n      dup4\n        /* \"#utility.yul\":3583:3600   */\n      add\n        /* \"#utility.yul\":3574:3580   */\n      dup5\n        /* \"#utility.yul\":3530:3601   */\n      tag_94\n      jump\t// in\n    tag_128:\n        /* \"#utility.yul\":3386:3608   */\n      swap3\n      swap2\n      pop\n      pop\n      jump\t// out\n        /* \"#utility.yul\":3614:3946   */\n    tag_52:\n        /* \"#utility.yul\":3735:3739   */\n      0x00\n        /* \"#utility.yul\":3773:3775   */\n      0x40\n        /* \"#utility.yul\":3762:3771   */\n      dup3\n        /* \"#utility.yul\":3758:3776   */\n      add\n        /* \"#utility.yul\":3750:3776   */\n      swap1\n      pop\n        /* \"#utility.yul\":3786:3857   */\n      tag_130\n        /* \"#utility.yul\":3854:3855   */\n      0x00\n        /* \"#utility.yul\":3843:3852   */\n      dup4\n        /* \"#utility.yul\":3839:3856   */\n      add\n        /* \"#utility.yul\":3830:3836   */\n      dup6\n        /* \"#utility.yul\":3786:3857   */\n      tag_94\n      jump\t// in\n    tag_130:\n        /* \"#utility.yul\":3867:3939   */\n      tag_131\n        /* \"#utility.yul\":3935:3937   */\n      0x20\n        /* \"#utility.yul\":3924:3933   */\n      dup4\n        /* \"#utility.yul\":3920:3938   */\n      add\n        /* \"#utility.yul\":3911:3917   */\n      dup5\n        /* \"#utility.yul\":3867:3939   */\n      tag_94\n      jump\t// in\n    tag_131:\n        /* \"#utility.yul\":3614:3946   */\n      swap4\n      swap3\n      pop\n      pop\n      pop\n      jump\t// out\n        /* \"#utility.yul\":3952:4394   */\n    tag_61:\n        /* \"#utility.yul\":4101:4105   */\n      0x00\n        /* \"#utility.yul\":4139:4141   */\n      0x60\n        /* \"#utility.yul\":4128:4137   */\n      dup3\n        /* \"#utility.yul\":4124:4142   */\n      add\n        /* \"#utility.yul\":4116:4142   */\n      swap1\n      pop\n        /* \"#utility.yul\":4152:4223   */\n      tag_133\n        /* \"#utility.yul\":4220:4221   */\n      0x00\n        /* \"#utility.yul\":4209:4218   */\n      dup4\n        /* \"#utility.yul\":4205:4222   */\n      add\n        /* \"#utility.yul\":4196:4202   */\n      dup7\n        /* \"#utility.yul\":4152:4223   */\n      tag_94\n      jump\t// in\n    tag_133:\n        /* \"#utility.yul\":4233:4305   */\n      tag_134\n        /* \"#utility.yul\":4301:4303   */\n      0x20\n        /* \"#utility.yul\":4290:4299   */\n      dup4\n        /* \"#utility.yul\":4286:4304   */\n      add\n        /* \"#utility.yul\":4277:4283   */\n      dup6\n        /* \"#utility.yul\":4233:4305   */\n      tag_94\n      jump\t// in\n    tag_134:\n        /* \"#utility.yul\":4315:4387   */\n      tag_135\n        /* \"#utility.yul\":4383:4385   */\n      0x40\n        /* \"#utility.yul\":4372:4381   */\n      dup4\n        /* \"#utility.yul\":4368:4386   */\n      add\n        /* \"#utility.yul\":4359:4365   */\n      dup5\n        /* \"#utility.yul\":4315:4387   */\n      tag_123\n      jump\t// in\n    tag_135:\n        /* \"#utility.yul\":3952:4394   */\n      swap5\n      swap4\n      pop\n      pop\n      pop\n      pop\n      jump\t// out\n        /* \"#utility.yul\":4400:4732   */\n    tag_34:\n        /* \"#utility.yul\":4521:4525   */\n      0x00\n        /* \"#utility.yul\":4559:4561   */\n      0x40\n        /* \"#utility.yul\":4548:4557   */\n      dup3\n        /* \"#utility.yul\":4544:4562   */\n      add\n        /* \"#utility.yul\":4536:4562   */\n      swap1\n      pop\n        /* \"#utility.yul\":4572:4643   */\n      tag_137\n        /* \"#utility.yul\":4640:4641   */\n      0x00\n        /* \"#utility.yul\":4629:4638   */\n      dup4\n        /* \"#utility.yul\":4625:4642   */\n      add\n        /* \"#utility.yul\":4616:4622   */\n      dup6\n        /* \"#utility.yul\":4572:4643   */\n      tag_94\n      jump\t// in\n    tag_137:\n        /* \"#utility.yul\":4653:4725   */\n      tag_138\n        /* \"#utility.yul\":4721:4723   */\n      0x20\n        /* \"#utility.yul\":4710:4719   */\n      dup4\n        /* \"#utility.yul\":4706:4724   */\n      add\n        /* \"#utility.yul\":4697:4703   */\n      dup5\n        /* \"#utility.yul\":4653:4725   */\n      tag_123\n      jump\t// in\n    tag_138:\n        /* \"#utility.yul\":4400:4732   */\n      swap4\n      swap3\n      pop\n      pop\n      pop\n      jump\t// out\n        /* \"#utility.yul\":4738:4986   */\n    tag_16:\n        /* \"#utility.yul\":4844:4848   */\n      0x00\n        /* \"#utility.yul\":4882:4884   */\n      0x20\n        /* \"#utility.yul\":4871:4880   */\n      dup3\n        /* \"#utility.yul\":4867:4885   */\n      add\n        /* \"#utility.yul\":4859:4885   */\n      swap1\n      pop\n        /* \"#utility.yul\":4895:4979   */\n      tag_140\n        /* \"#utility.yul\":4976:4977   */\n      0x00\n        /* \"#utility.yul\":4965:4974   */\n      dup4\n        /* \"#utility.yul\":4961:4978   */\n      add\n        /* \"#utility.yul\":4952:4958   */\n      dup5\n        /* \"#utility.yul\":4895:4979   */\n      tag_98\n      jump\t// in\n    tag_140:\n        /* \"#utility.yul\":4738:4986   */\n      swap3\n      swap2\n      pop\n      pop\n      jump\t// out\n        /* \"#utility.yul\":4992:5411   */\n    tag_59:\n        /* \"#utility.yul\":5158:5162   */\n      0x00\n        /* \"#utility.yul\":5196:5198   */\n      0x20\n        /* \"#utility.yul\":5185:5194   */\n      dup3\n        /* \"#utility.yul\":5181:5199   */\n      add\n        /* \"#utility.yul\":5173:5199   */\n      swap1\n      pop\n        /* \"#utility.yul\":5245:5254   */\n      dup2\n        /* \"#utility.yul\":5239:5243   */\n      dup2\n        /* \"#utility.yul\":5235:5255   */\n      sub\n        /* \"#utility.yul\":5231:5232   */\n      0x00\n        /* \"#utility.yul\":5220:5229   */\n      dup4\n        /* \"#utility.yul\":5216:5233   */\n      add\n        /* \"#utility.yul\":5209:5256   */\n      mstore\n        /* \"#utility.yul\":5273:5404   */\n      tag_142\n        /* \"#utility.yul\":5399:5403   */\n      dup2\n        /* \"#utility.yul\":5273:5404   */\n      tag_102\n      jump\t// in\n    tag_142:\n        /* \"#utility.yul\":5265:5404   */\n      swap1\n      pop\n        /* \"#utility.yul\":4992:5411   */\n      swap2\n      swap1\n      pop\n      jump\t// out\n        /* \"#utility.yul\":5417:5836   */\n    tag_50:\n        /* \"#utility.yul\":5583:5587   */\n      0x00\n        /* \"#utility.yul\":5621:5623   */\n      0x20\n        /* \"#utility.yul\":5610:5619   */\n      dup3\n        /* \"#utility.yul\":5606:5624   */\n      add\n        /* \"#utility.yul\":5598:5624   */\n      swap1\n      pop\n        /* \"#utility.yul\":5670:5679   */\n      dup2\n        /* \"#utility.yul\":5664:5668   */\n      dup2\n        /* \"#utility.yul\":5660:5680   */\n      sub\n        /* \"#utility.yul\":5656:5657   */\n      0x00\n        /* \"#utility.yul\":5645:5654   */\n      dup4\n        /* \"#utility.yul\":5641:5658   */\n      add\n        /* \"#utility.yul\":5634:5681   */\n      mstore\n        /* \"#utility.yul\":5698:5829   */\n      tag_144\n        /* \"#utility.yul\":5824:5828   */\n      dup2\n        /* \"#utility.yul\":5698:5829   */\n      tag_108\n      jump\t// in\n    tag_144:\n        /* \"#utility.yul\":5690:5829   */\n      swap1\n      pop\n        /* \"#utility.yul\":5417:5836   */\n      swap2\n      swap1\n      pop\n      jump\t// out\n        /* \"#utility.yul\":5842:6261   */\n    tag_29:\n        /* \"#utility.yul\":6008:6012   */\n      0x00\n        /* \"#utility.yul\":6046:6048   */\n      0x20\n        /* \"#utility.yul\":6035:6044   */\n      dup3\n        /* \"#utility.yul\":6031:6049   */\n      add\n        /* \"#utility.yul\":6023:6049   */\n      swap1\n      pop\n        /* \"#utility.yul\":6095:6104   */\n      dup2\n        /* \"#utility.yul\":6089:6093   */\n      dup2\n        /* \"#utility.yul\":6085:6105   */\n      sub\n        /* \"#utility.yul\":6081:6082   */\n      0x00\n        /* \"#utility.yul\":6070:6079   */\n      dup4\n        /* \"#utility.yul\":6066:6083   */\n      add\n        /* \"#utility.yul\":6059:6106   */\n      mstore\n        /* \"#utility.yul\":6123:6254   */\n      tag_146\n        /* \"#utility.yul\":6249:6253   */\n      dup2\n        /* \"#utility.yul\":6123:6254   */\n      tag_113\n      jump\t// in\n    tag_146:\n        /* \"#utility.yul\":6115:6254   */\n      swap1\n      pop\n        /* \"#utility.yul\":5842:6261   */\n      swap2\n      swap1\n      pop\n      jump\t// out\n        /* \"#utility.yul\":6267:6686   */\n    tag_32:\n        /* \"#utility.yul\":6433:6437   */\n      0x00\n        /* \"#utility.yul\":6471:6473   */\n      0x20\n        /* \"#utility.yul\":6460:6469   */\n      dup3\n        /* \"#utility.yul\":6456:6474   */\n      add\n        /* \"#utility.yul\":6448:6474   */\n      swap1\n      pop\n        /* \"#utility.yul\":6520:6529   */\n      dup2\n        /* \"#utility.yul\":6514:6518   */\n      dup2\n        /* \"#utility.yul\":6510:6530   */\n      sub\n        /* \"#utility.yul\":6506:6507   */\n      0x00\n        /* \"#utility.yul\":6495:6504   */\n      dup4\n        /* \"#utility.yul\":6491:6508   */\n      add\n        /* \"#utility.yul\":6484:6531   */\n      mstore\n        /* \"#utility.yul\":6548:6679   */\n      tag_148\n        /* \"#utility.yul\":6674:6678   */\n      dup2\n        /* \"#utility.yul\":6548:6679   */\n      tag_118\n      jump\t// in\n    tag_148:\n        /* \"#utility.yul\":6540:6679   */\n      swap1\n      pop\n        /* \"#utility.yul\":6267:6686   */\n      swap2\n      swap1\n      pop\n      jump\t// out\n        /* \"#utility.yul\":6692:6914   */\n    tag_41:\n        /* \"#utility.yul\":6785:6789   */\n      0x00\n        /* \"#utility.yul\":6823:6825   */\n      0x20\n        /* \"#utility.yul\":6812:6821   */\n      dup3\n        /* \"#utility.yul\":6808:6826   */\n      add\n        /* \"#utility.yul\":6800:6826   */\n      swap1\n      pop\n        /* \"#utility.yul\":6836:6907   */\n      tag_150\n        /* \"#utility.yul\":6904:6905   */\n      0x00\n        /* \"#utility.yul\":6893:6902   */\n      dup4\n        /* \"#utility.yul\":6889:6906   */\n      add\n        /* \"#utility.yul\":6880:6886   */\n      dup5\n        /* \"#utility.yul\":6836:6907   */\n      tag_123\n      jump\t// in\n    tag_150:\n        /* \"#utility.yul\":6692:6914   */\n      swap3\n      swap2\n      pop\n      pop\n      jump\t// out\n        /* \"#utility.yul\":7001:7170   */\n    tag_105:\n        /* \"#utility.yul\":7085:7096   */\n      0x00\n        /* \"#utility.yul\":7119:7125   */\n      dup3\n        /* \"#utility.yul\":7114:7117   */\n      dup3\n        /* \"#utility.yul\":7107:7126   */\n      mstore\n        /* \"#utility.yul\":7159:7163   */\n      0x20\n        /* \"#utility.yul\":7154:7157   */\n      dup3\n        /* \"#utility.yul\":7150:7164   */\n      add\n        /* \"#utility.yul\":7135:7164   */\n      swap1\n      pop\n        /* \"#utility.yul\":7001:7170   */\n      swap3\n      swap2\n      pop\n      pop\n      jump\t// out\n        /* \"#utility.yul\":7176:7524   */\n    tag_26:\n        /* \"#utility.yul\":7216:7223   */\n      0x00\n        /* \"#utility.yul\":7239:7259   */\n      tag_155\n        /* \"#utility.yul\":7257:7258   */\n      dup3\n        /* \"#utility.yul\":7239:7259   */\n      tag_126\n      jump\t// in\n    tag_155:\n        /* \"#utility.yul\":7234:7259   */\n      swap2\n      pop\n        /* \"#utility.yul\":7273:7293   */\n      tag_156\n        /* \"#utility.yul\":7291:7292   */\n      dup4\n        /* \"#utility.yul\":7273:7293   */\n      tag_126\n      jump\t// in\n    tag_156:\n        /* \"#utility.yul\":7268:7293   */\n      swap3\n      pop\n        /* \"#utility.yul\":7461:7462   */\n      dup2\n        /* \"#utility.yul\":7393:7459   */\n      0xffffffffffffffffffffffffffffffffffffffffffffffffffffffffffffffff\n        /* \"#utility.yul\":7389:7463   */\n      div\n        /* \"#utility.yul\":7386:7387   */\n      dup4\n        /* \"#utility.yul\":7383:7464   */\n      gt\n        /* \"#utility.yul\":7378:7379   */\n      dup3\n        /* \"#utility.yul\":7371:7380   */\n      iszero\n        /* \"#utility.yul\":7364:7381   */\n      iszero\n        /* \"#utility.yul\":7360:7465   */\n      and\n        /* \"#utility.yul\":7357:7488   */\n      iszero\n      tag_157\n      jumpi\n        /* \"#utility.yul\":7468:7486   */\n      tag_158\n      tag_159\n      jump\t// in\n    tag_158:\n        /* \"#utility.yul\":7357:7488   */\n    tag_157:\n        /* \"#utility.yul\":7516:7517   */\n      dup3\n        /* \"#utility.yul\":7513:7514   */\n      dup3\n        /* \"#utility.yul\":7509:7518   */\n      mul\n        /* \"#utility.yul\":7498:7518   */\n      swap1\n      pop\n        /* \"#utility.yul\":7176:7524   */\n      swap3\n      swap2\n      pop\n      pop\n      jump\t// out\n        /* \"#utility.yul\":7530:7626   */\n    tag_97:\n        /* \"#utility.yul\":7567:7574   */\n      0x00\n        /* \"#utility.yul\":7596:7620   */\n      tag_161\n        /* \"#utility.yul\":7614:7619   */\n      dup3\n        /* \"#utility.yul\":7596:7620   */\n      tag_162\n      jump\t// in\n    tag_161:\n        /* \"#utility.yul\":7585:7620   */\n      swap1\n      pop\n        /* \"#utility.yul\":7530:7626   */\n      swap2\n      swap1\n      pop\n      jump\t// out\n        /* \"#utility.yul\":7632:7722   */\n    tag_163:\n        /* \"#utility.yul\":7666:7673   */\n      0x00\n        /* \"#utility.yul\":7709:7714   */\n      dup2\n        /* \"#utility.yul\":7702:7715   */\n      iszero\n        /* \"#utility.yul\":7695:7716   */\n      iszero\n        /* \"#utility.yul\":7684:7716   */\n      swap1\n      pop\n        /* \"#utility.yul\":7632:7722   */\n      swap2\n      swap1\n      pop\n      jump\t// out\n        /* \"#utility.yul\":7728:7854   */\n    tag_162:\n        /* \"#utility.yul\":7765:7772   */\n      0x00\n        /* \"#utility.yul\":7805:7847   */\n      0xffffffffffffffffffffffffffffffffffffffff\n        /* \"#utility.yul\":7798:7803   */\n      dup3\n        /* \"#utility.yul\":7794:7848   */\n      and\n        /* \"#utility.yul\":7783:7848   */\n      swap1\n      pop\n        /* \"#utility.yul\":7728:7854   */\n      swap2\n      swap1\n      pop\n      jump\t// out\n        /* \"#utility.yul\":7860:7937   */\n    tag_126:\n        /* \"#utility.yul\":7897:7904   */\n      0x00\n        /* \"#utility.yul\":7926:7931   */\n      dup2\n        /* \"#utility.yul\":7915:7931   */\n      swap1\n      pop\n        /* \"#utility.yul\":7860:7937   */\n      swap2\n      swap1\n      pop\n      jump\t// out\n        /* \"#utility.yul\":7943:8082   */\n    tag_101:\n        /* \"#utility.yul\":8006:8015   */\n      0x00\n        /* \"#utility.yul\":8039:8076   */\n      tag_168\n        /* \"#utility.yul\":8070:8075   */\n      dup3\n        /* \"#utility.yul\":8039:8076   */\n      tag_169\n      jump\t// in\n    tag_168:\n        /* \"#utility.yul\":8026:8076   */\n      swap1\n      pop\n        /* \"#utility.yul\":7943:8082   */\n      swap2\n      swap1\n      pop\n      jump\t// out\n        /* \"#utility.yul\":8088:8214   */\n    tag_169:\n        /* \"#utility.yul\":8138:8147   */\n      0x00\n        /* \"#utility.yul\":8171:8208   */\n      tag_171\n        /* \"#utility.yul\":8202:8207   */\n      dup3\n        /* \"#utility.yul\":8171:8208   */\n      tag_172\n      jump\t// in\n    tag_171:\n        /* \"#utility.yul\":8158:8208   */\n      swap1\n      pop\n        /* \"#utility.yul\":8088:8214   */\n      swap2\n      swap1\n      pop\n      jump\t// out\n        /* \"#utility.yul\":8220:8333   */\n    tag_172:\n        /* \"#utility.yul\":8270:8279   */\n      0x00\n        /* \"#utility.yul\":8303:8327   */\n      tag_174\n        /* \"#utility.yul\":8321:8326   */\n      dup3\n        /* \"#utility.yul\":8303:8327   */\n      tag_162\n      jump\t// in\n    tag_174:\n        /* \"#utility.yul\":8290:8327   */\n      swap1\n      pop\n        /* \"#utility.yul\":8220:8333   */\n      swap2\n      swap1\n      pop\n      jump\t// out\n        /* \"#utility.yul\":8339:8519   */\n    tag_159:\n        /* \"#utility.yul\":8387:8464   */\n      0x4e487b7100000000000000000000000000000000000000000000000000000000\n        /* \"#utility.yul\":8384:8385   */\n      0x00\n        /* \"#utility.yul\":8377:8465   */\n      mstore\n        /* \"#utility.yul\":8484:8488   */\n      0x11\n        /* \"#utility.yul\":8481:8482   */\n      0x04\n        /* \"#utility.yul\":8474:8489   */\n      mstore\n        /* \"#utility.yul\":8508:8512   */\n      0x24\n        /* \"#utility.yul\":8505:8506   */\n      0x00\n        /* \"#utility.yul\":8498:8513   */\n      revert\n        /* \"#utility.yul\":8648:8765   */\n    tag_84:\n        /* \"#utility.yul\":8757:8758   */\n      0x00\n        /* \"#utility.yul\":8754:8755   */\n      dup1\n        /* \"#utility.yul\":8747:8759   */\n      revert\n        /* \"#utility.yul\":8771:8953   */\n    tag_107:\n        /* \"#utility.yul\":8911:8945   */\n      0x506c6561736520636865636b2074686520746f6b656e20616c6c6f77616e6365\n        /* \"#utility.yul\":8907:8908   */\n      0x00\n        /* \"#utility.yul\":8899:8905   */\n      dup3\n        /* \"#utility.yul\":8895:8909   */\n      add\n        /* \"#utility.yul\":8888:8946   */\n      mstore\n        /* \"#utility.yul\":8771:8953   */\n      pop\n      jump\t// out\n        /* \"#utility.yul\":8959:9182   */\n    tag_112:\n        /* \"#utility.yul\":9099:9133   */\n      0x596f75206e65656420746f206d656e74696f6e20506f6b656d6f6e544420616d\n        /* \"#utility.yul\":9095:9096   */\n      0x00\n        /* \"#utility.yul\":9087:9093   */\n      dup3\n        /* \"#utility.yul\":9083:9097   */\n      add\n        /* \"#utility.yul\":9076:9134   */\n      mstore\n        /* \"#utility.yul\":9168:9174   */\n      0x6f756e7400000000000000000000000000000000000000000000000000000000\n        /* \"#utility.yul\":9163:9165   */\n      0x20\n        /* \"#utility.yul\":9155:9161   */\n      dup3\n        /* \"#utility.yul\":9151:9166   */\n      add\n        /* \"#utility.yul\":9144:9175   */\n      mstore\n        /* \"#utility.yul\":8959:9182   */\n      pop\n      jump\t// out\n        /* \"#utility.yul\":9188:9370   */\n    tag_117:\n        /* \"#utility.yul\":9328:9362   */\n      0x596f75206e65656420746f206d656e74696f6e20457468657220746f20627579\n        /* \"#utility.yul\":9324:9325   */\n      0x00\n        /* \"#utility.yul\":9316:9322   */\n      dup3\n        /* \"#utility.yul\":9312:9326   */\n      add\n        /* \"#utility.yul\":9305:9363   */\n      mstore\n        /* \"#utility.yul\":9188:9370   */\n      pop\n      jump\t// out\n        /* \"#utility.yul\":9376:9551   */\n    tag_122:\n        /* \"#utility.yul\":9516:9543   */\n      0x4e6f7420456e6f75676820506f6b656d6f6e5444204c65667400000000000000\n        /* \"#utility.yul\":9512:9513   */\n      0x00\n        /* \"#utility.yul\":9504:9510   */\n      dup3\n        /* \"#utility.yul\":9500:9514   */\n      add\n        /* \"#utility.yul\":9493:9544   */\n      mstore\n        /* \"#utility.yul\":9376:9551   */\n      pop\n      jump\t// out\n        /* \"#utility.yul\":9557:9673   */\n    tag_73:\n        /* \"#utility.yul\":9627:9648   */\n      tag_184\n        /* \"#utility.yul\":9642:9647   */\n      dup2\n        /* \"#utility.yul\":9627:9648   */\n      tag_163\n      jump\t// in\n    tag_184:\n        /* \"#utility.yul\":9620:9625   */\n      dup2\n        /* \"#utility.yul\":9617:9649   */\n      eq\n        /* \"#utility.yul\":9607:9667   */\n      tag_185\n      jumpi\n        /* \"#utility.yul\":9663:9664   */\n      0x00\n        /* \"#utility.yul\":9660:9661   */\n      dup1\n        /* \"#utility.yul\":9653:9665   */\n      revert\n        /* \"#utility.yul\":9607:9667   */\n    tag_185:\n        /* \"#utility.yul\":9557:9673   */\n      pop\n      jump\t// out\n        /* \"#utility.yul\":9679:9801   */\n    tag_77:\n        /* \"#utility.yul\":9752:9776   */\n      tag_187\n        /* \"#utility.yul\":9770:9775   */\n      dup2\n        /* \"#utility.yul\":9752:9776   */\n      tag_126\n      jump\t// in\n    tag_187:\n        /* \"#utility.yul\":9745:9750   */\n      dup2\n        /* \"#utility.yul\":9742:9777   */\n      eq\n        /* \"#utility.yul\":9732:9795   */\n      tag_188\n      jumpi\n        /* \"#utility.yul\":9791:9792   */\n      0x00\n        /* \"#utility.yul\":9788:9789   */\n      dup1\n        /* \"#utility.yul\":9781:9793   */\n      revert\n        /* \"#utility.yul\":9732:9795   */\n    tag_188:\n        /* \"#utility.yul\":9679:9801   */\n      pop\n      jump\t// out\n\n    auxdata: 0xa2646970667358221220c4c3747285fe74f9bf2ace40272d555ec31b939868d34f8a433da331765c6e3d64736f6c63430008070033\n}\n\nsub_1: assembly {\n        /* \"contracts/BaseToken.sol\":80:3131  contract BaseToken is Token {... */\n      mstore(0x40, 0x80)\n        /* \"contracts/BaseToken.sol\":324:353  string public version = \"1.0\" */\n      mload(0x40)\n      dup1\n      0x40\n      add\n      0x40\n      mstore\n      dup1\n      0x03\n      dup2\n      mstore\n      0x20\n      add\n      0x312e300000000000000000000000000000000000000000000000000000000000\n      dup2\n      mstore\n      pop\n      0x06\n      swap1\n      dup1\n      mload\n      swap1\n      0x20\n      add\n      swap1\n      tag_1\n      swap3\n      swap2\n      swap1\n      tag_2\n      jump\t// in\n    tag_1:\n      pop\n        /* \"contracts/BaseToken.sol\":596:829  constructor() {... */\n      callvalue\n      dup1\n      iszero\n      tag_3\n      jumpi\n      0x00\n      dup1\n      revert\n    tag_3:\n      pop\n        /* \"contracts/BaseToken.sol\":637:645  10 ether */\n      0x8ac7230489e80000\n        /* \"contracts/BaseToken.sol\":620:634  totalSupplyVal */\n      0x02\n        /* \"contracts/BaseToken.sol\":620:645  totalSupplyVal = 10 ether */\n      dup2\n      swap1\n      sstore\n      pop\n        /* \"contracts/BaseToken.sol\":677:687  msg.sender */\n      caller\n        /* \"contracts/BaseToken.sol\":655:666  fundsWallet */\n      0x07\n      0x00\n        /* \"contracts/BaseToken.sol\":655:688  fundsWallet = payable(msg.sender) */\n      0x0100\n      exp\n      dup2\n      sload\n      dup2\n      0xffffffffffffffffffffffffffffffffffffffff\n      mul\n      not\n      and\n      swap1\n      dup4\n      0xffffffffffffffffffffffffffffffffffffffff\n      and\n      mul\n      or\n      swap1\n      sstore\n      pop\n        /* \"contracts/BaseToken.sol\":722:736  totalSupplyVal */\n      sload(0x02)\n        /* \"contracts/BaseToken.sol\":698:706  balances */\n      0x00\n        /* \"contracts/BaseToken.sol\":698:719  balances[fundsWallet] */\n      dup1\n        /* \"contracts/BaseToken.sol\":707:718  fundsWallet */\n      0x07\n      0x00\n      swap1\n      sload\n      swap1\n      0x0100\n      exp\n      swap1\n      div\n      0xffffffffffffffffffffffffffffffffffffffff\n      and\n        /* \"contracts/BaseToken.sol\":698:719  balances[fundsWallet] */\n      0xffffffffffffffffffffffffffffffffffffffff\n      and\n      0xffffffffffffffffffffffffffffffffffffffff\n      and\n      dup2\n      mstore\n      0x20\n      add\n      swap1\n      dup2\n      mstore\n      0x20\n      add\n      0x00\n      keccak256\n        /* \"contracts/BaseToken.sol\":698:736  balances[fundsWallet] = totalSupplyVal */\n      dup2\n      swap1\n      sstore\n      pop\n        /* \"contracts/BaseToken.sol\":746:764  name = \"PokemonTD\" */\n      mload(0x40)\n      dup1\n      0x40\n      add\n      0x40\n      mstore\n      dup1\n      0x09\n      dup2\n      mstore\n      0x20\n      add\n      0x506f6b656d6f6e54440000000000000000000000000000000000000000000000\n      dup2\n      mstore\n      pop\n        /* \"contracts/BaseToken.sol\":746:750  name */\n      0x03\n        /* \"contracts/BaseToken.sol\":746:764  name = \"PokemonTD\" */\n      swap1\n      dup1\n      mload\n      swap1\n      0x20\n      add\n      swap1\n      tag_6\n      swap3\n      swap2\n      swap1\n      tag_2\n      jump\t// in\n    tag_6:\n      pop\n        /* \"contracts/BaseToken.sol\":774:789  symbol = \"PKTD\" */\n      mload(0x40)\n      dup1\n      0x40\n      add\n      0x40\n      mstore\n      dup1\n      0x04\n      dup2\n      mstore\n      0x20\n      add\n      0x504b544400000000000000000000000000000000000000000000000000000000\n      dup2\n      mstore\n      pop\n        /* \"contracts/BaseToken.sol\":774:780  symbol */\n      0x04\n        /* \"contracts/BaseToken.sol\":774:789  symbol = \"PKTD\" */\n      swap1\n      dup1\n      mload\n      swap1\n      0x20\n      add\n      swap1\n      tag_7\n      swap3\n      swap2\n      swap1\n      tag_2\n      jump\t// in\n    tag_7:\n      pop\n        /* \"contracts/BaseToken.sol\":817:822  10000 */\n      0x2710\n        /* \"contracts/BaseToken.sol\":799:814  uintOfEthCanBuy */\n      0x08\n        /* \"contracts/BaseToken.sol\":799:822  uintOfEthCanBuy = 10000 */\n      dup2\n      swap1\n      sstore\n      pop\n        /* \"contracts/BaseToken.sol\":80:3131  contract BaseToken is Token {... */\n      jump(tag_8)\n    tag_2:\n      dup3\n      dup1\n      sload\n      tag_9\n      swap1\n      tag_10\n      jump\t// in\n    tag_9:\n      swap1\n      0x00\n      mstore\n      keccak256(0x00, 0x20)\n      swap1\n      0x1f\n      add\n      0x20\n      swap1\n      div\n      dup2\n      add\n      swap3\n      dup3\n      tag_12\n      jumpi\n      0x00\n      dup6\n      sstore\n      jump(tag_11)\n    tag_12:\n      dup3\n      0x1f\n      lt\n      tag_13\n      jumpi\n      dup1\n      mload\n      not(0xff)\n      and\n      dup4\n      dup1\n      add\n      or\n      dup6\n      sstore\n      jump(tag_11)\n    tag_13:\n      dup3\n      dup1\n      add\n      0x01\n      add\n      dup6\n      sstore\n      dup3\n      iszero\n      tag_11\n      jumpi\n      swap2\n      dup3\n      add\n    tag_14:\n      dup3\n      dup2\n      gt\n      iszero\n      tag_15\n      jumpi\n      dup3\n      mload\n      dup3\n      sstore\n      swap2\n      0x20\n      add\n      swap2\n      swap1\n      0x01\n      add\n      swap1\n      jump(tag_14)\n    tag_15:\n    tag_11:\n      pop\n      swap1\n      pop\n      tag_16\n      swap2\n      swap1\n      tag_17\n      jump\t// in\n    tag_16:\n      pop\n      swap1\n      jump\t// out\n    tag_17:\n    tag_18:\n      dup1\n      dup3\n      gt\n      iszero\n      tag_19\n      jumpi\n      0x00\n      dup2\n      0x00\n      swap1\n      sstore\n      pop\n      0x01\n      add\n      jump(tag_18)\n    tag_19:\n      pop\n      swap1\n      jump\t// out\n        /* \"#utility.yul\":7:327   */\n    tag_10:\n        /* \"#utility.yul\":51:57   */\n      0x00\n        /* \"#utility.yul\":88:89   */\n      0x02\n        /* \"#utility.yul\":82:86   */\n      dup3\n        /* \"#utility.yul\":78:90   */\n      div\n        /* \"#utility.yul\":68:90   */\n      swap1\n      pop\n        /* \"#utility.yul\":135:136   */\n      0x01\n        /* \"#utility.yul\":129:133   */\n      dup3\n        /* \"#utility.yul\":125:137   */\n      and\n        /* \"#utility.yul\":156:174   */\n      dup1\n        /* \"#utility.yul\":146:227   */\n      tag_22\n      jumpi\n        /* \"#utility.yul\":212:216   */\n      0x7f\n        /* \"#utility.yul\":204:210   */\n      dup3\n        /* \"#utility.yul\":200:217   */\n      and\n        /* \"#utility.yul\":190:217   */\n      swap2\n      pop\n        /* \"#utility.yul\":146:227   */\n    tag_22:\n        /* \"#utility.yul\":274:276   */\n      0x20\n        /* \"#utility.yul\":266:272   */\n      dup3\n        /* \"#utility.yul\":263:277   */\n      lt\n        /* \"#utility.yul\":243:261   */\n      dup2\n        /* \"#utility.yul\":240:278   */\n      eq\n        /* \"#utility.yul\":237:321   */\n      iszero\n      tag_23\n      jumpi\n        /* \"#utility.yul\":293:311   */\n      tag_24\n      tag_25\n      jump\t// in\n    tag_24:\n        /* \"#utility.yul\":237:321   */\n    tag_23:\n        /* \"#utility.yul\":58:327   */\n      pop\n        /* \"#utility.yul\":7:327   */\n      swap2\n      swap1\n      pop\n      jump\t// out\n        /* \"#utility.yul\":333:513   */\n    tag_25:\n        /* \"#utility.yul\":381:458   */\n      0x4e487b7100000000000000000000000000000000000000000000000000000000\n        /* \"#utility.yul\":378:379   */\n      0x00\n        /* \"#utility.yul\":371:459   */\n      mstore\n        /* \"#utility.yul\":478:482   */\n      0x22\n        /* \"#utility.yul\":475:476   */\n      0x04\n        /* \"#utility.yul\":468:483   */\n      mstore\n        /* \"#utility.yul\":502:506   */\n      0x24\n        /* \"#utility.yul\":499:500   */\n      0x00\n        /* \"#utility.yul\":492:507   */\n      revert\n        /* \"contracts/BaseToken.sol\":80:3131  contract BaseToken is Token {... */\n    tag_8:\n      dataSize(sub_0)\n      dup1\n      dataOffset(sub_0)\n      0x00\n      codecopy\n      0x00\n      return\n    stop\n\n    sub_0: assembly {\n            /* \"contracts/BaseToken.sol\":80:3131  contract BaseToken is Token {... */\n          mstore(0x40, 0x80)\n          callvalue\n          dup1\n          iszero\n          tag_1\n          jumpi\n          0x00\n          dup1\n          revert\n        tag_1:\n          pop\n          jumpi(tag_2, lt(calldatasize, 0x04))\n          shr(0xe0, calldataload(0x00))\n          dup1\n          0x54fd4d50\n          gt\n          tag_16\n          jumpi\n          dup1\n          0xa9059cbb\n          gt\n          tag_17\n          jumpi\n          dup1\n          0xa9059cbb\n          eq\n          tag_12\n          jumpi\n          dup1\n          0xb73fd792\n          eq\n          tag_13\n          jumpi\n          dup1\n          0xce7c5d7f\n          eq\n          tag_14\n          jumpi\n          dup1\n          0xdd62ed3e\n          eq\n          tag_15\n          jumpi\n          jump(tag_2)\n        tag_17:\n          dup1\n          0x54fd4d50\n          eq\n          tag_9\n          jumpi\n          dup1\n          0x70a08231\n          eq\n          tag_10\n          jumpi\n          dup1\n          0x95d89b41\n          eq\n          tag_11\n          jumpi\n          jump(tag_2)\n        tag_16:\n          dup1\n          0x06fdde03\n          eq\n          tag_3\n          jumpi\n          dup1\n          0x095ea7b3\n          eq\n          tag_4\n          jumpi\n          dup1\n          0x18160ddd\n          eq\n          tag_5\n          jumpi\n          dup1\n          0x2194f3a2\n          eq\n          tag_6\n          jumpi\n          dup1\n          0x23b872dd\n          eq\n          tag_7\n          jumpi\n          dup1\n          0x313ce567\n          eq\n          tag_8\n          jumpi\n        tag_2:\n          0x00\n          dup1\n          revert\n            /* \"contracts/BaseToken.sol\":247:265  string public name */\n        tag_3:\n          tag_18\n          tag_19\n          jump\t// in\n        tag_18:\n          mload(0x40)\n          tag_20\n          swap2\n          swap1\n          tag_21\n          jump\t// in\n        tag_20:\n          mload(0x40)\n          dup1\n          swap2\n          sub\n          swap1\n          return\n            /* \"contracts/BaseToken.sol\":2755:2973  function approve(address _spender, uint256 _value) public override returns(bool success) {... */\n        tag_4:\n          tag_22\n          0x04\n          dup1\n          calldatasize\n          sub\n          dup2\n          add\n          swap1\n          tag_23\n          swap2\n          swap1\n          tag_24\n          jump\t// in\n        tag_23:\n          tag_25\n          jump\t// in\n        tag_22:\n          mload(0x40)\n          tag_26\n          swap2\n          swap1\n          tag_27\n          jump\t// in\n        tag_26:\n          mload(0x40)\n          dup1\n          swap2\n          sub\n          swap1\n          return\n            /* \"contracts/BaseToken.sol\":1666:1773  function totalSupply() public override view returns (uint256 supply) {... */\n        tag_5:\n          tag_28\n          tag_29\n          jump\t// in\n        tag_28:\n          mload(0x40)\n          tag_30\n          swap2\n          swap1\n          tag_31\n          jump\t// in\n        tag_30:\n          mload(0x40)\n          dup1\n          swap2\n          sub\n          swap1\n          return\n            /* \"contracts/BaseToken.sol\":359:393  address payable public fundsWallet */\n        tag_6:\n          tag_32\n          tag_33\n          jump\t// in\n        tag_32:\n          mload(0x40)\n          tag_34\n          swap2\n          swap1\n          tag_35\n          jump\t// in\n        tag_34:\n          mload(0x40)\n          dup1\n          swap2\n          sub\n          swap1\n          return\n            /* \"contracts/BaseToken.sol\":1936:2537  function transferFrom(address _from, address _to, uint256 _value) public override returns(bool success) {... */\n        tag_7:\n          tag_36\n          0x04\n          dup1\n          calldatasize\n          sub\n          dup2\n          add\n          swap1\n          tag_37\n          swap2\n          swap1\n          tag_38\n          jump\t// in\n        tag_37:\n          tag_39\n          jump\t// in\n        tag_36:\n          mload(0x40)\n          tag_40\n          swap2\n          swap1\n          tag_27\n          jump\t// in\n        tag_40:\n          mload(0x40)\n          dup1\n          swap2\n          sub\n          swap1\n          return\n            /* \"contracts/BaseToken.sol\":297:318  uint8 public decimals */\n        tag_8:\n          tag_41\n          tag_42\n          jump\t// in\n        tag_41:\n          mload(0x40)\n          tag_43\n          swap2\n          swap1\n          tag_44\n          jump\t// in\n        tag_43:\n          mload(0x40)\n          dup1\n          swap2\n          sub\n          swap1\n          return\n            /* \"contracts/BaseToken.sol\":324:353  string public version = \"1.0\" */\n        tag_9:\n          tag_45\n          tag_46\n          jump\t// in\n        tag_45:\n          mload(0x40)\n          tag_47\n          swap2\n          swap1\n          tag_21\n          jump\t// in\n        tag_47:\n          mload(0x40)\n          dup1\n          swap2\n          sub\n          swap1\n          return\n            /* \"contracts/BaseToken.sol\":2543:2749  function balanceOf(address _owner) public view override returns(uint256 _balance) {... */\n        tag_10:\n          tag_48\n          0x04\n          dup1\n          calldatasize\n          sub\n          dup2\n          add\n          swap1\n          tag_49\n          swap2\n          swap1\n          tag_50\n          jump\t// in\n        tag_49:\n          tag_51\n          jump\t// in\n        tag_48:\n          mload(0x40)\n          tag_52\n          swap2\n          swap1\n          tag_31\n          jump\t// in\n        tag_52:\n          mload(0x40)\n          dup1\n          swap2\n          sub\n          swap1\n          return\n            /* \"contracts/BaseToken.sol\":271:291  string public symbol */\n        tag_11:\n          tag_53\n          tag_54\n          jump\t// in\n        tag_53:\n          mload(0x40)\n          tag_55\n          swap2\n          swap1\n          tag_21\n          jump\t// in\n        tag_55:\n          mload(0x40)\n          dup1\n          swap2\n          sub\n          swap1\n          return\n            /* \"contracts/BaseToken.sol\":1249:1660  function transfer(address _to, uint256 _value) public override returns (bool success) {... */\n        tag_12:\n          tag_56\n          0x04\n          dup1\n          calldatasize\n          sub\n          dup2\n          add\n          swap1\n          tag_57\n          swap2\n          swap1\n          tag_24\n          jump\t// in\n        tag_57:\n          tag_58\n          jump\t// in\n        tag_56:\n          mload(0x40)\n          tag_59\n          swap2\n          swap1\n          tag_27\n          jump\t// in\n        tag_59:\n          mload(0x40)\n          dup1\n          swap2\n          sub\n          swap1\n          return\n            /* \"contracts/BaseToken.sol\":212:241  uint256 public totalSupplyVal */\n        tag_13:\n          tag_60\n          tag_61\n          jump\t// in\n        tag_60:\n          mload(0x40)\n          tag_62\n          swap2\n          swap1\n          tag_31\n          jump\t// in\n        tag_62:\n          mload(0x40)\n          dup1\n          swap2\n          sub\n          swap1\n          return\n            /* \"contracts/BaseToken.sol\":1779:1930  function transferEthToOwner(uint256 _amount) public override returns (bool success) {... */\n        tag_14:\n          tag_63\n          0x04\n          dup1\n          calldatasize\n          sub\n          dup2\n          add\n          swap1\n          tag_64\n          swap2\n          swap1\n          tag_65\n          jump\t// in\n        tag_64:\n          tag_66\n          jump\t// in\n        tag_63:\n          mload(0x40)\n          tag_67\n          swap2\n          swap1\n          tag_27\n          jump\t// in\n        tag_67:\n          mload(0x40)\n          dup1\n          swap2\n          sub\n          swap1\n          return\n            /* \"contracts/BaseToken.sol\":2979:3128  function allowance(address _owner, address _spender) public override view returns(uint256 remaining){... */\n        tag_15:\n          tag_68\n          0x04\n          dup1\n          calldatasize\n          sub\n          dup2\n          add\n          swap1\n          tag_69\n          swap2\n          swap1\n          tag_70\n          jump\t// in\n        tag_69:\n          tag_71\n          jump\t// in\n        tag_68:\n          mload(0x40)\n          tag_72\n          swap2\n          swap1\n          tag_31\n          jump\t// in\n        tag_72:\n          mload(0x40)\n          dup1\n          swap2\n          sub\n          swap1\n          return\n            /* \"contracts/BaseToken.sol\":247:265  string public name */\n        tag_19:\n          0x03\n          dup1\n          sload\n          tag_73\n          swap1\n          tag_74\n          jump\t// in\n        tag_73:\n          dup1\n          0x1f\n          add\n          0x20\n          dup1\n          swap2\n          div\n          mul\n          0x20\n          add\n          mload(0x40)\n          swap1\n          dup2\n          add\n          0x40\n          mstore\n          dup1\n          swap3\n          swap2\n          swap1\n          dup2\n          dup2\n          mstore\n          0x20\n          add\n          dup3\n          dup1\n          sload\n          tag_75\n          swap1\n          tag_74\n          jump\t// in\n        tag_75:\n          dup1\n          iszero\n          tag_76\n          jumpi\n          dup1\n          0x1f\n          lt\n          tag_77\n          jumpi\n          0x0100\n          dup1\n          dup4\n          sload\n          div\n          mul\n          dup4\n          mstore\n          swap2\n          0x20\n          add\n          swap2\n          jump(tag_76)\n        tag_77:\n          dup3\n          add\n          swap2\n          swap1\n          0x00\n          mstore\n          keccak256(0x00, 0x20)\n          swap1\n        tag_78:\n          dup2\n          sload\n          dup2\n          mstore\n          swap1\n          0x01\n          add\n          swap1\n          0x20\n          add\n          dup1\n          dup4\n          gt\n          tag_78\n          jumpi\n          dup3\n          swap1\n          sub\n          0x1f\n          and\n          dup3\n          add\n          swap2\n        tag_76:\n          pop\n          pop\n          pop\n          pop\n          pop\n          dup2\n          jump\t// out\n            /* \"contracts/BaseToken.sol\":2755:2973  function approve(address _spender, uint256 _value) public override returns(bool success) {... */\n        tag_25:\n            /* \"contracts/BaseToken.sol\":2830:2842  bool success */\n          0x00\n            /* \"contracts/BaseToken.sol\":2886:2892  _value */\n          dup2\n            /* \"contracts/BaseToken.sol\":2854:2861  allowed */\n          0x01\n            /* \"contracts/BaseToken.sol\":2854:2873  allowed[msg.sender] */\n          0x00\n            /* \"contracts/BaseToken.sol\":2862:2872  msg.sender */\n          caller\n            /* \"contracts/BaseToken.sol\":2854:2873  allowed[msg.sender] */\n          0xffffffffffffffffffffffffffffffffffffffff\n          and\n          0xffffffffffffffffffffffffffffffffffffffff\n          and\n          dup2\n          mstore\n          0x20\n          add\n          swap1\n          dup2\n          mstore\n          0x20\n          add\n          0x00\n          keccak256\n            /* \"contracts/BaseToken.sol\":2854:2883  allowed[msg.sender][_spender] */\n          0x00\n            /* \"contracts/BaseToken.sol\":2874:2882  _spender */\n          dup6\n            /* \"contracts/BaseToken.sol\":2854:2883  allowed[msg.sender][_spender] */\n          0xffffffffffffffffffffffffffffffffffffffff\n          and\n          0xffffffffffffffffffffffffffffffffffffffff\n          and\n          dup2\n          mstore\n          0x20\n          add\n          swap1\n          dup2\n          mstore\n          0x20\n          add\n          0x00\n          keccak256\n            /* \"contracts/BaseToken.sol\":2854:2892  allowed[msg.sender][_spender] = _value */\n          dup2\n          swap1\n          sstore\n          pop\n            /* \"contracts/BaseToken.sol\":2928:2936  _spender */\n          dup3\n            /* \"contracts/BaseToken.sol\":2907:2945  Approval(msg.sender, _spender, _value) */\n          0xffffffffffffffffffffffffffffffffffffffff\n          and\n            /* \"contracts/BaseToken.sol\":2916:2926  msg.sender */\n          caller\n            /* \"contracts/BaseToken.sol\":2907:2945  Approval(msg.sender, _spender, _value) */\n          0xffffffffffffffffffffffffffffffffffffffff\n          and\n          0x8c5be1e5ebec7d5bd14f71427d1e84f3dd0314c0f7b2291e5b200ac8c7c3b925\n            /* \"contracts/BaseToken.sol\":2938:2944  _value */\n          dup5\n            /* \"contracts/BaseToken.sol\":2907:2945  Approval(msg.sender, _spender, _value) */\n          mload(0x40)\n          tag_80\n          swap2\n          swap1\n          tag_31\n          jump\t// in\n        tag_80:\n          mload(0x40)\n          dup1\n          swap2\n          sub\n          swap1\n          log3\n            /* \"contracts/BaseToken.sol\":2962:2966  true */\n          0x01\n            /* \"contracts/BaseToken.sol\":2955:2966  return true */\n          swap1\n          pop\n            /* \"contracts/BaseToken.sol\":2755:2973  function approve(address _spender, uint256 _value) public override returns(bool success) {... */\n          swap3\n          swap2\n          pop\n          pop\n          jump\t// out\n            /* \"contracts/BaseToken.sol\":1666:1773  function totalSupply() public override view returns (uint256 supply) {... */\n        tag_29:\n            /* \"contracts/BaseToken.sol\":1719:1733  uint256 supply */\n          0x00\n            /* \"contracts/BaseToken.sol\":1752:1766  totalSupplyVal */\n          sload(0x02)\n            /* \"contracts/BaseToken.sol\":1745:1766  return totalSupplyVal */\n          swap1\n          pop\n            /* \"contracts/BaseToken.sol\":1666:1773  function totalSupply() public override view returns (uint256 supply) {... */\n          swap1\n          jump\t// out\n            /* \"contracts/BaseToken.sol\":359:393  address payable public fundsWallet */\n        tag_33:\n          0x07\n          0x00\n          swap1\n          sload\n          swap1\n          0x0100\n          exp\n          swap1\n          div\n          0xffffffffffffffffffffffffffffffffffffffff\n          and\n          dup2\n          jump\t// out\n            /* \"contracts/BaseToken.sol\":1936:2537  function transferFrom(address _from, address _to, uint256 _value) public override returns(bool success) {... */\n        tag_39:\n            /* \"contracts/BaseToken.sol\":2026:2038  bool success */\n          0x00\n            /* \"contracts/BaseToken.sol\":2067:2068  0 */\n          dup1\n            /* \"contracts/BaseToken.sol\":2058:2064  _value */\n          dup3\n            /* \"contracts/BaseToken.sol\":2058:2068  _value > 0 */\n          gt\n            /* \"contracts/BaseToken.sol\":2050:2113  require(_value > 0, \"value is lower than 1, you cant transfer\") */\n          tag_83\n          jumpi\n          mload(0x40)\n          0x08c379a000000000000000000000000000000000000000000000000000000000\n          dup2\n          mstore\n          0x04\n          add\n          tag_84\n          swap1\n          tag_85\n          jump\t// in\n        tag_84:\n          mload(0x40)\n          dup1\n          swap2\n          sub\n          swap1\n          revert\n        tag_83:\n            /* \"contracts/BaseToken.sol\":2150:2156  _value */\n          dup2\n            /* \"contracts/BaseToken.sol\":2131:2139  balances */\n          0x00\n            /* \"contracts/BaseToken.sol\":2131:2146  balances[_from] */\n          dup1\n            /* \"contracts/BaseToken.sol\":2140:2145  _from */\n          dup7\n            /* \"contracts/BaseToken.sol\":2131:2146  balances[_from] */\n          0xffffffffffffffffffffffffffffffffffffffff\n          and\n          0xffffffffffffffffffffffffffffffffffffffff\n          and\n          dup2\n          mstore\n          0x20\n          add\n          swap1\n          dup2\n          mstore\n          0x20\n          add\n          0x00\n          keccak256\n          sload\n            /* \"contracts/BaseToken.sol\":2131:2156  balances[_from] >= _value */\n          lt\n          iszero\n            /* \"contracts/BaseToken.sol\":2123:2211  require(balances[_from] >= _value ,\"sender value needs to be higher than sending value\") */\n          tag_86\n          jumpi\n          mload(0x40)\n          0x08c379a000000000000000000000000000000000000000000000000000000000\n          dup2\n          mstore\n          0x04\n          add\n          tag_87\n          swap1\n          tag_88\n          jump\t// in\n        tag_87:\n          mload(0x40)\n          dup1\n          swap2\n          sub\n          swap1\n          revert\n        tag_86:\n            /* \"contracts/BaseToken.sol\":2259:2265  _value */\n          dup2\n            /* \"contracts/BaseToken.sol\":2229:2236  allowed */\n          0x01\n            /* \"contracts/BaseToken.sol\":2229:2243  allowed[_from] */\n          0x00\n            /* \"contracts/BaseToken.sol\":2237:2242  _from */\n          dup7\n            /* \"contracts/BaseToken.sol\":2229:2243  allowed[_from] */\n          0xffffffffffffffffffffffffffffffffffffffff\n          and\n          0xffffffffffffffffffffffffffffffffffffffff\n          and\n          dup2\n          mstore\n          0x20\n          add\n          swap1\n          dup2\n          mstore\n          0x20\n          add\n          0x00\n          keccak256\n            /* \"contracts/BaseToken.sol\":2229:2255  allowed[_from][msg.sender] */\n          0x00\n            /* \"contracts/BaseToken.sol\":2244:2254  msg.sender */\n          caller\n            /* \"contracts/BaseToken.sol\":2229:2255  allowed[_from][msg.sender] */\n          0xffffffffffffffffffffffffffffffffffffffff\n          and\n          0xffffffffffffffffffffffffffffffffffffffff\n          and\n          dup2\n          mstore\n          0x20\n          add\n          swap1\n          dup2\n          mstore\n          0x20\n          add\n          0x00\n          keccak256\n          sload\n            /* \"contracts/BaseToken.sol\":2229:2265  allowed[_from][msg.sender] >= _value */\n          lt\n          iszero\n            /* \"contracts/BaseToken.sol\":2221:2302  require(allowed[_from][msg.sender] >= _value, \"allowed value criteria never met\") */\n          tag_89\n          jumpi\n          mload(0x40)\n          0x08c379a000000000000000000000000000000000000000000000000000000000\n          dup2\n          mstore\n          0x04\n          add\n          tag_90\n          swap1\n          tag_91\n          jump\t// in\n        tag_90:\n          mload(0x40)\n          dup1\n          swap2\n          sub\n          swap1\n          revert\n        tag_89:\n            /* \"contracts/BaseToken.sol\":2330:2336  _value */\n          dup2\n            /* \"contracts/BaseToken.sol\":2313:2321  balances */\n          0x00\n            /* \"contracts/BaseToken.sol\":2313:2326  balances[_to] */\n          dup1\n            /* \"contracts/BaseToken.sol\":2322:2325  _to */\n          dup6\n            /* \"contracts/BaseToken.sol\":2313:2326  balances[_to] */\n          0xffffffffffffffffffffffffffffffffffffffff\n          and\n          0xffffffffffffffffffffffffffffffffffffffff\n          and\n          dup2\n          mstore\n          0x20\n          add\n          swap1\n          dup2\n          mstore\n          0x20\n          add\n          0x00\n          keccak256\n          0x00\n            /* \"contracts/BaseToken.sol\":2313:2336  balances[_to] += _value */\n          dup3\n          dup3\n          sload\n          tag_92\n          swap2\n          swap1\n          tag_93\n          jump\t// in\n        tag_92:\n          swap3\n          pop\n          pop\n          dup2\n          swap1\n          sstore\n          pop\n            /* \"contracts/BaseToken.sol\":2365:2371  _value */\n          dup2\n            /* \"contracts/BaseToken.sol\":2346:2354  balances */\n          0x00\n            /* \"contracts/BaseToken.sol\":2346:2361  balances[_from] */\n          dup1\n            /* \"contracts/BaseToken.sol\":2355:2360  _from */\n          dup7\n            /* \"contracts/BaseToken.sol\":2346:2361  balances[_from] */\n          0xffffffffffffffffffffffffffffffffffffffff\n          and\n          0xffffffffffffffffffffffffffffffffffffffff\n          and\n          dup2\n          mstore\n          0x20\n          add\n          swap1\n          dup2\n          mstore\n          0x20\n          add\n          0x00\n          keccak256\n          0x00\n            /* \"contracts/BaseToken.sol\":2346:2371  balances[_from] -= _value */\n          dup3\n          dup3\n          sload\n          tag_94\n          swap2\n          swap1\n          tag_95\n          jump\t// in\n        tag_94:\n          swap3\n          pop\n          pop\n          dup2\n          swap1\n          sstore\n          pop\n            /* \"contracts/BaseToken.sol\":2459:2465  _value */\n          dup2\n            /* \"contracts/BaseToken.sol\":2429:2436  allowed */\n          0x01\n            /* \"contracts/BaseToken.sol\":2429:2443  allowed[_from] */\n          0x00\n            /* \"contracts/BaseToken.sol\":2437:2442  _from */\n          dup7\n            /* \"contracts/BaseToken.sol\":2429:2443  allowed[_from] */\n          0xffffffffffffffffffffffffffffffffffffffff\n          and\n          0xffffffffffffffffffffffffffffffffffffffff\n          and\n          dup2\n          mstore\n          0x20\n          add\n          swap1\n          dup2\n          mstore\n          0x20\n          add\n          0x00\n          keccak256\n            /* \"contracts/BaseToken.sol\":2429:2455  allowed[_from][msg.sender] */\n          0x00\n            /* \"contracts/BaseToken.sol\":2444:2454  msg.sender */\n          caller\n            /* \"contracts/BaseToken.sol\":2429:2455  allowed[_from][msg.sender] */\n          0xffffffffffffffffffffffffffffffffffffffff\n          and\n          0xffffffffffffffffffffffffffffffffffffffff\n          and\n          dup2\n          mstore\n          0x20\n          add\n          swap1\n          dup2\n          mstore\n          0x20\n          add\n          0x00\n          keccak256\n          0x00\n            /* \"contracts/BaseToken.sol\":2429:2465  allowed[_from][msg.sender] -= _value */\n          dup3\n          dup3\n          sload\n          tag_96\n          swap2\n          swap1\n          tag_95\n          jump\t// in\n        tag_96:\n          swap3\n          pop\n          pop\n          dup2\n          swap1\n          sstore\n          pop\n            /* \"contracts/BaseToken.sol\":2496:2499  _to */\n          dup3\n            /* \"contracts/BaseToken.sol\":2480:2508  Transfer(_from, _to, _value) */\n          0xffffffffffffffffffffffffffffffffffffffff\n          and\n            /* \"contracts/BaseToken.sol\":2489:2494  _from */\n          dup5\n            /* \"contracts/BaseToken.sol\":2480:2508  Transfer(_from, _to, _value) */\n          0xffffffffffffffffffffffffffffffffffffffff\n          and\n          0xddf252ad1be2c89b69c2b068fc378daa952ba7f163c4a11628f55a4df523b3ef\n            /* \"contracts/BaseToken.sol\":2501:2507  _value */\n          dup5\n            /* \"contracts/BaseToken.sol\":2480:2508  Transfer(_from, _to, _value) */\n          mload(0x40)\n          tag_97\n          swap2\n          swap1\n          tag_31\n          jump\t// in\n        tag_97:\n          mload(0x40)\n          dup1\n          swap2\n          sub\n          swap1\n          log3\n            /* \"contracts/BaseToken.sol\":2526:2530  true */\n          0x01\n            /* \"contracts/BaseToken.sol\":2519:2530  return true */\n          swap1\n          pop\n            /* \"contracts/BaseToken.sol\":1936:2537  function transferFrom(address _from, address _to, uint256 _value) public override returns(bool success) {... */\n          swap4\n          swap3\n          pop\n          pop\n          pop\n          jump\t// out\n            /* \"contracts/BaseToken.sol\":297:318  uint8 public decimals */\n        tag_42:\n          0x05\n          0x00\n          swap1\n          sload\n          swap1\n          0x0100\n          exp\n          swap1\n          div\n          0xff\n          and\n          dup2\n          jump\t// out\n            /* \"contracts/BaseToken.sol\":324:353  string public version = \"1.0\" */\n        tag_46:\n          0x06\n          dup1\n          sload\n          tag_98\n          swap1\n          tag_74\n          jump\t// in\n        tag_98:\n          dup1\n          0x1f\n          add\n          0x20\n          dup1\n          swap2\n          div\n          mul\n          0x20\n          add\n          mload(0x40)\n          swap1\n          dup2\n          add\n          0x40\n          mstore\n          dup1\n          swap3\n          swap2\n          swap1\n          dup2\n          dup2\n          mstore\n          0x20\n          add\n          dup3\n          dup1\n          sload\n          tag_99\n          swap1\n          tag_74\n          jump\t// in\n        tag_99:\n          dup1\n          iszero\n          tag_100\n          jumpi\n          dup1\n          0x1f\n          lt\n          tag_101\n          jumpi\n          0x0100\n          dup1\n          dup4\n          sload\n          div\n          mul\n          dup4\n          mstore\n          swap2\n          0x20\n          add\n          swap2\n          jump(tag_100)\n        tag_101:\n          dup3\n          add\n          swap2\n          swap1\n          0x00\n          mstore\n          keccak256(0x00, 0x20)\n          swap1\n        tag_102:\n          dup2\n          sload\n          dup2\n          mstore\n          swap1\n          0x01\n          add\n          swap1\n          0x20\n          add\n          dup1\n          dup4\n          gt\n          tag_102\n          jumpi\n          dup3\n          swap1\n          sub\n          0x1f\n          and\n          dup3\n          add\n          swap2\n        tag_100:\n          pop\n          pop\n          pop\n          pop\n          pop\n          dup2\n          jump\t// out\n            /* \"contracts/BaseToken.sol\":2543:2749  function balanceOf(address _owner) public view override returns(uint256 _balance) {... */\n        tag_51:\n            /* \"contracts/BaseToken.sol\":2607:2623  uint256 _balance */\n          0x00\n            /* \"contracts/BaseToken.sol\":2653:2663  msg.sender */\n          caller\n            /* \"contracts/BaseToken.sol\":2643:2663  _owner == msg.sender */\n          0xffffffffffffffffffffffffffffffffffffffff\n          and\n            /* \"contracts/BaseToken.sol\":2643:2649  _owner */\n          dup3\n            /* \"contracts/BaseToken.sol\":2643:2663  _owner == msg.sender */\n          0xffffffffffffffffffffffffffffffffffffffff\n          and\n          eq\n            /* \"contracts/BaseToken.sol\":2635:2709  require(_owner == msg.sender, \"You need to be the owner to query balance\") */\n          tag_104\n          jumpi\n          mload(0x40)\n          0x08c379a000000000000000000000000000000000000000000000000000000000\n          dup2\n          mstore\n          0x04\n          add\n          tag_105\n          swap1\n          tag_106\n          jump\t// in\n        tag_105:\n          mload(0x40)\n          dup1\n          swap2\n          sub\n          swap1\n          revert\n        tag_104:\n            /* \"contracts/BaseToken.sol\":2726:2734  balances */\n          0x00\n            /* \"contracts/BaseToken.sol\":2726:2742  balances[_owner] */\n          dup1\n            /* \"contracts/BaseToken.sol\":2735:2741  _owner */\n          dup4\n            /* \"contracts/BaseToken.sol\":2726:2742  balances[_owner] */\n          0xffffffffffffffffffffffffffffffffffffffff\n          and\n          0xffffffffffffffffffffffffffffffffffffffff\n          and\n          dup2\n          mstore\n          0x20\n          add\n          swap1\n          dup2\n          mstore\n          0x20\n          add\n          0x00\n          keccak256\n          sload\n            /* \"contracts/BaseToken.sol\":2719:2742  return balances[_owner] */\n          swap1\n          pop\n            /* \"contracts/BaseToken.sol\":2543:2749  function balanceOf(address _owner) public view override returns(uint256 _balance) {... */\n          swap2\n          swap1\n          pop\n          jump\t// out\n            /* \"contracts/BaseToken.sol\":271:291  string public symbol */\n        tag_54:\n          0x04\n          dup1\n          sload\n          tag_107\n          swap1\n          tag_74\n          jump\t// in\n        tag_107:\n          dup1\n          0x1f\n          add\n          0x20\n          dup1\n          swap2\n          div\n          mul\n          0x20\n          add\n          mload(0x40)\n          swap1\n          dup2\n          add\n          0x40\n          mstore\n          dup1\n          swap3\n          swap2\n          swap1\n          dup2\n          dup2\n          mstore\n          0x20\n          add\n          dup3\n          dup1\n          sload\n          tag_108\n          swap1\n          tag_74\n          jump\t// in\n        tag_108:\n          dup1\n          iszero\n          tag_109\n          jumpi\n          dup1\n          0x1f\n          lt\n          tag_110\n          jumpi\n          0x0100\n          dup1\n          dup4\n          sload\n          div\n          mul\n          dup4\n          mstore\n          swap2\n          0x20\n          add\n          swap2\n          jump(tag_109)\n        tag_110:\n          dup3\n          add\n          swap2\n          swap1\n          0x00\n          mstore\n          keccak256(0x00, 0x20)\n          swap1\n        tag_111:\n          dup2\n          sload\n          dup2\n          mstore\n          swap1\n          0x01\n          add\n          swap1\n          0x20\n          add\n          dup1\n          dup4\n          gt\n          tag_111\n          jumpi\n          dup3\n          swap1\n          sub\n          0x1f\n          and\n          dup3\n          add\n          swap2\n        tag_109:\n          pop\n          pop\n          pop\n          pop\n          pop\n          dup2\n          jump\t// out\n            /* \"contracts/BaseToken.sol\":1249:1660  function transfer(address _to, uint256 _value) public override returns (bool success) {... */\n        tag_58:\n            /* \"contracts/BaseToken.sol\":1321:1333  bool success */\n          0x00\n            /* \"contracts/BaseToken.sol\":1362:1363  0 */\n          dup1\n            /* \"contracts/BaseToken.sol\":1353:1359  _value */\n          dup3\n            /* \"contracts/BaseToken.sol\":1353:1363  _value > 0 */\n          gt\n            /* \"contracts/BaseToken.sol\":1345:1408  require(_value > 0, \"value is lower than 1, you cant transfer\") */\n          tag_113\n          jumpi\n          mload(0x40)\n          0x08c379a000000000000000000000000000000000000000000000000000000000\n          dup2\n          mstore\n          0x04\n          add\n          tag_114\n          swap1\n          tag_85\n          jump\t// in\n        tag_114:\n          mload(0x40)\n          dup1\n          swap2\n          sub\n          swap1\n          revert\n        tag_113:\n            /* \"contracts/BaseToken.sol\":1450:1456  _value */\n          dup2\n            /* \"contracts/BaseToken.sol\":1426:1434  balances */\n          0x00\n            /* \"contracts/BaseToken.sol\":1426:1446  balances[msg.sender] */\n          dup1\n            /* \"contracts/BaseToken.sol\":1435:1445  msg.sender */\n          caller\n            /* \"contracts/BaseToken.sol\":1426:1446  balances[msg.sender] */\n          0xffffffffffffffffffffffffffffffffffffffff\n          and\n          0xffffffffffffffffffffffffffffffffffffffff\n          and\n          dup2\n          mstore\n          0x20\n          add\n          swap1\n          dup2\n          mstore\n          0x20\n          add\n          0x00\n          keccak256\n          sload\n            /* \"contracts/BaseToken.sol\":1426:1456  balances[msg.sender] >= _value */\n          lt\n          iszero\n            /* \"contracts/BaseToken.sol\":1418:1511  require(balances[msg.sender] >= _value ,\"sender value needs to be higher than sending value\") */\n          tag_115\n          jumpi\n          mload(0x40)\n          0x08c379a000000000000000000000000000000000000000000000000000000000\n          dup2\n          mstore\n          0x04\n          add\n          tag_116\n          swap1\n          tag_88\n          jump\t// in\n        tag_116:\n          mload(0x40)\n          dup1\n          swap2\n          sub\n          swap1\n          revert\n        tag_115:\n            /* \"contracts/BaseToken.sol\":1545:1551  _value */\n          dup2\n            /* \"contracts/BaseToken.sol\":1521:1529  balances */\n          0x00\n            /* \"contracts/BaseToken.sol\":1521:1541  balances[msg.sender] */\n          dup1\n            /* \"contracts/BaseToken.sol\":1530:1540  msg.sender */\n          caller\n            /* \"contracts/BaseToken.sol\":1521:1541  balances[msg.sender] */\n          0xffffffffffffffffffffffffffffffffffffffff\n          and\n          0xffffffffffffffffffffffffffffffffffffffff\n          and\n          dup2\n          mstore\n          0x20\n          add\n          swap1\n          dup2\n          mstore\n          0x20\n          add\n          0x00\n          keccak256\n          0x00\n            /* \"contracts/BaseToken.sol\":1521:1551  balances[msg.sender] -= _value */\n          dup3\n          dup3\n          sload\n          tag_117\n          swap2\n          swap1\n          tag_95\n          jump\t// in\n        tag_117:\n          swap3\n          pop\n          pop\n          dup2\n          swap1\n          sstore\n          pop\n            /* \"contracts/BaseToken.sol\":1578:1584  _value */\n          dup2\n            /* \"contracts/BaseToken.sol\":1561:1569  balances */\n          0x00\n            /* \"contracts/BaseToken.sol\":1561:1574  balances[_to] */\n          dup1\n            /* \"contracts/BaseToken.sol\":1570:1573  _to */\n          dup6\n            /* \"contracts/BaseToken.sol\":1561:1574  balances[_to] */\n          0xffffffffffffffffffffffffffffffffffffffff\n          and\n          0xffffffffffffffffffffffffffffffffffffffff\n          and\n          dup2\n          mstore\n          0x20\n          add\n          swap1\n          dup2\n          mstore\n          0x20\n          add\n          0x00\n          keccak256\n          0x00\n            /* \"contracts/BaseToken.sol\":1561:1584  balances[_to] += _value */\n          dup3\n          dup3\n          sload\n          tag_118\n          swap2\n          swap1\n          tag_93\n          jump\t// in\n        tag_118:\n          swap3\n          pop\n          pop\n          dup2\n          swap1\n          sstore\n          pop\n            /* \"contracts/BaseToken.sol\":1620:1623  _to */\n          dup3\n            /* \"contracts/BaseToken.sol\":1599:1632  Transfer(msg.sender, _to, _value) */\n          0xffffffffffffffffffffffffffffffffffffffff\n          and\n            /* \"contracts/BaseToken.sol\":1608:1618  msg.sender */\n          caller\n            /* \"contracts/BaseToken.sol\":1599:1632  Transfer(msg.sender, _to, _value) */\n          0xffffffffffffffffffffffffffffffffffffffff\n          and\n          0xddf252ad1be2c89b69c2b068fc378daa952ba7f163c4a11628f55a4df523b3ef\n            /* \"contracts/BaseToken.sol\":1625:1631  _value */\n          dup5\n            /* \"contracts/BaseToken.sol\":1599:1632  Transfer(msg.sender, _to, _value) */\n          mload(0x40)\n          tag_119\n          swap2\n          swap1\n          tag_31\n          jump\t// in\n        tag_119:\n          mload(0x40)\n          dup1\n          swap2\n          sub\n          swap1\n          log3\n            /* \"contracts/BaseToken.sol\":1649:1653  true */\n          0x01\n            /* \"contracts/BaseToken.sol\":1642:1653  return true */\n          swap1\n          pop\n            /* \"contracts/BaseToken.sol\":1249:1660  function transfer(address _to, uint256 _value) public override returns (bool success) {... */\n          swap3\n          swap2\n          pop\n          pop\n          jump\t// out\n            /* \"contracts/BaseToken.sol\":212:241  uint256 public totalSupplyVal */\n        tag_61:\n          sload(0x02)\n          dup2\n          jump\t// out\n            /* \"contracts/BaseToken.sol\":1779:1930  function transferEthToOwner(uint256 _amount) public override returns (bool success) {... */\n        tag_66:\n            /* \"contracts/BaseToken.sol\":1849:1861  bool success */\n          0x00\n            /* \"contracts/BaseToken.sol\":1873:1884  fundsWallet */\n          0x07\n          0x00\n          swap1\n          sload\n          swap1\n          0x0100\n          exp\n          swap1\n          div\n          0xffffffffffffffffffffffffffffffffffffffff\n          and\n            /* \"contracts/BaseToken.sol\":1873:1893  fundsWallet.transfer */\n          0xffffffffffffffffffffffffffffffffffffffff\n          and\n            /* \"contracts/BaseToken.sol\":1873:1902  fundsWallet.transfer(_amount) */\n          0x08fc\n            /* \"contracts/BaseToken.sol\":1894:1901  _amount */\n          dup4\n            /* \"contracts/BaseToken.sol\":1873:1902  fundsWallet.transfer(_amount) */\n          swap1\n          dup2\n          iszero\n          mul\n          swap1\n          mload(0x40)\n          0x00\n          mload(0x40)\n          dup1\n          dup4\n          sub\n          dup2\n          dup6\n          dup9\n          dup9\n          call\n          swap4\n          pop\n          pop\n          pop\n          pop\n          iszero\n          dup1\n          iszero\n          tag_122\n          jumpi\n          returndatasize\n          0x00\n          dup1\n          returndatacopy\n          revert(0x00, returndatasize)\n        tag_122:\n          pop\n            /* \"contracts/BaseToken.sol\":1919:1923  true */\n          0x01\n            /* \"contracts/BaseToken.sol\":1912:1923  return true */\n          swap1\n          pop\n            /* \"contracts/BaseToken.sol\":1779:1930  function transferEthToOwner(uint256 _amount) public override returns (bool success) {... */\n          swap2\n          swap1\n          pop\n          jump\t// out\n            /* \"contracts/BaseToken.sol\":2979:3128  function allowance(address _owner, address _spender) public override view returns(uint256 remaining){... */\n        tag_71:\n            /* \"contracts/BaseToken.sol\":3061:3078  uint256 remaining */\n          0x00\n            /* \"contracts/BaseToken.sol\":3096:3103  allowed */\n          0x01\n            /* \"contracts/BaseToken.sol\":3096:3111  allowed[_owner] */\n          0x00\n            /* \"contracts/BaseToken.sol\":3104:3110  _owner */\n          dup5\n            /* \"contracts/BaseToken.sol\":3096:3111  allowed[_owner] */\n          0xffffffffffffffffffffffffffffffffffffffff\n          and\n          0xffffffffffffffffffffffffffffffffffffffff\n          and\n          dup2\n          mstore\n          0x20\n          add\n          swap1\n          dup2\n          mstore\n          0x20\n          add\n          0x00\n          keccak256\n            /* \"contracts/BaseToken.sol\":3096:3121  allowed[_owner][_spender] */\n          0x00\n            /* \"contracts/BaseToken.sol\":3112:3120  _spender */\n          dup4\n            /* \"contracts/BaseToken.sol\":3096:3121  allowed[_owner][_spender] */\n          0xffffffffffffffffffffffffffffffffffffffff\n          and\n          0xffffffffffffffffffffffffffffffffffffffff\n          and\n          dup2\n          mstore\n          0x20\n          add\n          swap1\n          dup2\n          mstore\n          0x20\n          add\n          0x00\n          keccak256\n          sload\n            /* \"contracts/BaseToken.sol\":3089:3121  return allowed[_owner][_spender] */\n          swap1\n          pop\n            /* \"contracts/BaseToken.sol\":2979:3128  function allowance(address _owner, address _spender) public override view returns(uint256 remaining){... */\n          swap3\n          swap2\n          pop\n          pop\n          jump\t// out\n            /* \"#utility.yul\":7:146   */\n        tag_125:\n            /* \"#utility.yul\":53:58   */\n          0x00\n            /* \"#utility.yul\":91:97   */\n          dup2\n            /* \"#utility.yul\":78:98   */\n          calldataload\n            /* \"#utility.yul\":69:98   */\n          swap1\n          pop\n            /* \"#utility.yul\":107:140   */\n          tag_127\n            /* \"#utility.yul\":134:139   */\n          dup2\n            /* \"#utility.yul\":107:140   */\n          tag_128\n          jump\t// in\n        tag_127:\n            /* \"#utility.yul\":7:146   */\n          swap3\n          swap2\n          pop\n          pop\n          jump\t// out\n            /* \"#utility.yul\":152:291   */\n        tag_129:\n            /* \"#utility.yul\":198:203   */\n          0x00\n            /* \"#utility.yul\":236:242   */\n          dup2\n            /* \"#utility.yul\":223:243   */\n          calldataload\n            /* \"#utility.yul\":214:243   */\n          swap1\n          pop\n            /* \"#utility.yul\":252:285   */\n          tag_131\n            /* \"#utility.yul\":279:284   */\n          dup2\n            /* \"#utility.yul\":252:285   */\n          tag_132\n          jump\t// in\n        tag_131:\n            /* \"#utility.yul\":152:291   */\n          swap3\n          swap2\n          pop\n          pop\n          jump\t// out\n            /* \"#utility.yul\":297:626   */\n        tag_50:\n            /* \"#utility.yul\":356:362   */\n          0x00\n            /* \"#utility.yul\":405:407   */\n          0x20\n            /* \"#utility.yul\":393:402   */\n          dup3\n            /* \"#utility.yul\":384:391   */\n          dup5\n            /* \"#utility.yul\":380:403   */\n          sub\n            /* \"#utility.yul\":376:408   */\n          slt\n            /* \"#utility.yul\":373:492   */\n          iszero\n          tag_134\n          jumpi\n            /* \"#utility.yul\":411:490   */\n          tag_135\n          tag_136\n          jump\t// in\n        tag_135:\n            /* \"#utility.yul\":373:492   */\n        tag_134:\n            /* \"#utility.yul\":531:532   */\n          0x00\n            /* \"#utility.yul\":556:609   */\n          tag_137\n            /* \"#utility.yul\":601:608   */\n          dup5\n            /* \"#utility.yul\":592:598   */\n          dup3\n            /* \"#utility.yul\":581:590   */\n          dup6\n            /* \"#utility.yul\":577:599   */\n          add\n            /* \"#utility.yul\":556:609   */\n          tag_125\n          jump\t// in\n        tag_137:\n            /* \"#utility.yul\":546:609   */\n          swap2\n          pop\n            /* \"#utility.yul\":502:619   */\n          pop\n            /* \"#utility.yul\":297:626   */\n          swap3\n          swap2\n          pop\n          pop\n          jump\t// out\n            /* \"#utility.yul\":632:1106   */\n        tag_70:\n            /* \"#utility.yul\":700:706   */\n          0x00\n            /* \"#utility.yul\":708:714   */\n          dup1\n            /* \"#utility.yul\":757:759   */\n          0x40\n            /* \"#utility.yul\":745:754   */\n          dup4\n            /* \"#utility.yul\":736:743   */\n          dup6\n            /* \"#utility.yul\":732:755   */\n          sub\n            /* \"#utility.yul\":728:760   */\n          slt\n            /* \"#utility.yul\":725:844   */\n          iszero\n          tag_139\n          jumpi\n            /* \"#utility.yul\":763:842   */\n          tag_140\n          tag_136\n          jump\t// in\n        tag_140:\n            /* \"#utility.yul\":725:844   */\n        tag_139:\n            /* \"#utility.yul\":883:884   */\n          0x00\n            /* \"#utility.yul\":908:961   */\n          tag_141\n            /* \"#utility.yul\":953:960   */\n          dup6\n            /* \"#utility.yul\":944:950   */\n          dup3\n            /* \"#utility.yul\":933:942   */\n          dup7\n            /* \"#utility.yul\":929:951   */\n          add\n            /* \"#utility.yul\":908:961   */\n          tag_125\n          jump\t// in\n        tag_141:\n            /* \"#utility.yul\":898:961   */\n          swap3\n          pop\n            /* \"#utility.yul\":854:971   */\n          pop\n            /* \"#utility.yul\":1010:1012   */\n          0x20\n            /* \"#utility.yul\":1036:1089   */\n          tag_142\n            /* \"#utility.yul\":1081:1088   */\n          dup6\n            /* \"#utility.yul\":1072:1078   */\n          dup3\n            /* \"#utility.yul\":1061:1070   */\n          dup7\n            /* \"#utility.yul\":1057:1079   */\n          add\n            /* \"#utility.yul\":1036:1089   */\n          tag_125\n          jump\t// in\n        tag_142:\n            /* \"#utility.yul\":1026:1089   */\n          swap2\n          pop\n            /* \"#utility.yul\":981:1099   */\n          pop\n            /* \"#utility.yul\":632:1106   */\n          swap3\n          pop\n          swap3\n          swap1\n          pop\n          jump\t// out\n            /* \"#utility.yul\":1112:1731   */\n        tag_38:\n            /* \"#utility.yul\":1189:1195   */\n          0x00\n            /* \"#utility.yul\":1197:1203   */\n          dup1\n            /* \"#utility.yul\":1205:1211   */\n          0x00\n            /* \"#utility.yul\":1254:1256   */\n          0x60\n            /* \"#utility.yul\":1242:1251   */\n          dup5\n            /* \"#utility.yul\":1233:1240   */\n          dup7\n            /* \"#utility.yul\":1229:1252   */\n          sub\n            /* \"#utility.yul\":1225:1257   */\n          slt\n            /* \"#utility.yul\":1222:1341   */\n          iszero\n          tag_144\n          jumpi\n            /* \"#utility.yul\":1260:1339   */\n          tag_145\n          tag_136\n          jump\t// in\n        tag_145:\n            /* \"#utility.yul\":1222:1341   */\n        tag_144:\n            /* \"#utility.yul\":1380:1381   */\n          0x00\n            /* \"#utility.yul\":1405:1458   */\n          tag_146\n            /* \"#utility.yul\":1450:1457   */\n          dup7\n            /* \"#utility.yul\":1441:1447   */\n          dup3\n            /* \"#utility.yul\":1430:1439   */\n          dup8\n            /* \"#utility.yul\":1426:1448   */\n          add\n            /* \"#utility.yul\":1405:1458   */\n          tag_125\n          jump\t// in\n        tag_146:\n            /* \"#utility.yul\":1395:1458   */\n          swap4\n          pop\n            /* \"#utility.yul\":1351:1468   */\n          pop\n            /* \"#utility.yul\":1507:1509   */\n          0x20\n            /* \"#utility.yul\":1533:1586   */\n          tag_147\n            /* \"#utility.yul\":1578:1585   */\n          dup7\n            /* \"#utility.yul\":1569:1575   */\n          dup3\n            /* \"#utility.yul\":1558:1567   */\n          dup8\n            /* \"#utility.yul\":1554:1576   */\n          add\n            /* \"#utility.yul\":1533:1586   */\n          tag_125\n          jump\t// in\n        tag_147:\n            /* \"#utility.yul\":1523:1586   */\n          swap3\n          pop\n            /* \"#utility.yul\":1478:1596   */\n          pop\n            /* \"#utility.yul\":1635:1637   */\n          0x40\n            /* \"#utility.yul\":1661:1714   */\n          tag_148\n            /* \"#utility.yul\":1706:1713   */\n          dup7\n            /* \"#utility.yul\":1697:1703   */\n          dup3\n            /* \"#utility.yul\":1686:1695   */\n          dup8\n            /* \"#utility.yul\":1682:1704   */\n          add\n            /* \"#utility.yul\":1661:1714   */\n          tag_129\n          jump\t// in\n        tag_148:\n            /* \"#utility.yul\":1651:1714   */\n          swap2\n          pop\n            /* \"#utility.yul\":1606:1724   */\n          pop\n            /* \"#utility.yul\":1112:1731   */\n          swap3\n          pop\n          swap3\n          pop\n          swap3\n          jump\t// out\n            /* \"#utility.yul\":1737:2211   */\n        tag_24:\n            /* \"#utility.yul\":1805:1811   */\n          0x00\n            /* \"#utility.yul\":1813:1819   */\n          dup1\n            /* \"#utility.yul\":1862:1864   */\n          0x40\n            /* \"#utility.yul\":1850:1859   */\n          dup4\n            /* \"#utility.yul\":1841:1848   */\n          dup6\n            /* \"#utility.yul\":1837:1860   */\n          sub\n            /* \"#utility.yul\":1833:1865   */\n          slt\n            /* \"#utility.yul\":1830:1949   */\n          iszero\n          tag_150\n          jumpi\n            /* \"#utility.yul\":1868:1947   */\n          tag_151\n          tag_136\n          jump\t// in\n        tag_151:\n            /* \"#utility.yul\":1830:1949   */\n        tag_150:\n            /* \"#utility.yul\":1988:1989   */\n          0x00\n            /* \"#utility.yul\":2013:2066   */\n          tag_152\n            /* \"#utility.yul\":2058:2065   */\n          dup6\n            /* \"#utility.yul\":2049:2055   */\n          dup3\n            /* \"#utility.yul\":2038:2047   */\n          dup7\n            /* \"#utility.yul\":2034:2056   */\n          add\n            /* \"#utility.yul\":2013:2066   */\n          tag_125\n          jump\t// in\n        tag_152:\n            /* \"#utility.yul\":2003:2066   */\n          swap3\n          pop\n            /* \"#utility.yul\":1959:2076   */\n          pop\n            /* \"#utility.yul\":2115:2117   */\n          0x20\n            /* \"#utility.yul\":2141:2194   */\n          tag_153\n            /* \"#utility.yul\":2186:2193   */\n          dup6\n            /* \"#utility.yul\":2177:2183   */\n          dup3\n            /* \"#utility.yul\":2166:2175   */\n          dup7\n            /* \"#utility.yul\":2162:2184   */\n          add\n            /* \"#utility.yul\":2141:2194   */\n          tag_129\n          jump\t// in\n        tag_153:\n            /* \"#utility.yul\":2131:2194   */\n          swap2\n          pop\n            /* \"#utility.yul\":2086:2204   */\n          pop\n            /* \"#utility.yul\":1737:2211   */\n          swap3\n          pop\n          swap3\n          swap1\n          pop\n          jump\t// out\n            /* \"#utility.yul\":2217:2546   */\n        tag_65:\n            /* \"#utility.yul\":2276:2282   */\n          0x00\n            /* \"#utility.yul\":2325:2327   */\n          0x20\n            /* \"#utility.yul\":2313:2322   */\n          dup3\n            /* \"#utility.yul\":2304:2311   */\n          dup5\n            /* \"#utility.yul\":2300:2323   */\n          sub\n            /* \"#utility.yul\":2296:2328   */\n          slt\n            /* \"#utility.yul\":2293:2412   */\n          iszero\n          tag_155\n          jumpi\n            /* \"#utility.yul\":2331:2410   */\n          tag_156\n          tag_136\n          jump\t// in\n        tag_156:\n            /* \"#utility.yul\":2293:2412   */\n        tag_155:\n            /* \"#utility.yul\":2451:2452   */\n          0x00\n            /* \"#utility.yul\":2476:2529   */\n          tag_157\n            /* \"#utility.yul\":2521:2528   */\n          dup5\n            /* \"#utility.yul\":2512:2518   */\n          dup3\n            /* \"#utility.yul\":2501:2510   */\n          dup6\n            /* \"#utility.yul\":2497:2519   */\n          add\n            /* \"#utility.yul\":2476:2529   */\n          tag_129\n          jump\t// in\n        tag_157:\n            /* \"#utility.yul\":2466:2529   */\n          swap2\n          pop\n            /* \"#utility.yul\":2422:2539   */\n          pop\n            /* \"#utility.yul\":2217:2546   */\n          swap3\n          swap2\n          pop\n          pop\n          jump\t// out\n            /* \"#utility.yul\":2552:2694   */\n        tag_158:\n            /* \"#utility.yul\":2655:2687   */\n          tag_160\n            /* \"#utility.yul\":2681:2686   */\n          dup2\n            /* \"#utility.yul\":2655:2687   */\n          tag_161\n          jump\t// in\n        tag_160:\n            /* \"#utility.yul\":2650:2653   */\n          dup3\n            /* \"#utility.yul\":2643:2688   */\n          mstore\n            /* \"#utility.yul\":2552:2694   */\n          pop\n          pop\n          jump\t// out\n            /* \"#utility.yul\":2700:2809   */\n        tag_162:\n            /* \"#utility.yul\":2781:2802   */\n          tag_164\n            /* \"#utility.yul\":2796:2801   */\n          dup2\n            /* \"#utility.yul\":2781:2802   */\n          tag_165\n          jump\t// in\n        tag_164:\n            /* \"#utility.yul\":2776:2779   */\n          dup3\n            /* \"#utility.yul\":2769:2803   */\n          mstore\n            /* \"#utility.yul\":2700:2809   */\n          pop\n          pop\n          jump\t// out\n            /* \"#utility.yul\":2815:3179   */\n        tag_166:\n            /* \"#utility.yul\":2903:2906   */\n          0x00\n            /* \"#utility.yul\":2931:2970   */\n          tag_168\n            /* \"#utility.yul\":2964:2969   */\n          dup3\n            /* \"#utility.yul\":2931:2970   */\n          tag_169\n          jump\t// in\n        tag_168:\n            /* \"#utility.yul\":2986:3057   */\n          tag_170\n            /* \"#utility.yul\":3050:3056   */\n          dup2\n            /* \"#utility.yul\":3045:3048   */\n          dup6\n            /* \"#utility.yul\":2986:3057   */\n          tag_171\n          jump\t// in\n        tag_170:\n            /* \"#utility.yul\":2979:3057   */\n          swap4\n          pop\n            /* \"#utility.yul\":3066:3118   */\n          tag_172\n            /* \"#utility.yul\":3111:3117   */\n          dup2\n            /* \"#utility.yul\":3106:3109   */\n          dup6\n            /* \"#utility.yul\":3099:3103   */\n          0x20\n            /* \"#utility.yul\":3092:3097   */\n          dup7\n            /* \"#utility.yul\":3088:3104   */\n          add\n            /* \"#utility.yul\":3066:3118   */\n          tag_173\n          jump\t// in\n        tag_172:\n            /* \"#utility.yul\":3143:3172   */\n          tag_174\n            /* \"#utility.yul\":3165:3171   */\n          dup2\n            /* \"#utility.yul\":3143:3172   */\n          tag_175\n          jump\t// in\n        tag_174:\n            /* \"#utility.yul\":3138:3141   */\n          dup5\n            /* \"#utility.yul\":3134:3173   */\n          add\n            /* \"#utility.yul\":3127:3173   */\n          swap2\n          pop\n            /* \"#utility.yul\":2907:3179   */\n          pop\n            /* \"#utility.yul\":2815:3179   */\n          swap3\n          swap2\n          pop\n          pop\n          jump\t// out\n            /* \"#utility.yul\":3185:3551   */\n        tag_176:\n            /* \"#utility.yul\":3327:3330   */\n          0x00\n            /* \"#utility.yul\":3348:3415   */\n          tag_178\n            /* \"#utility.yul\":3412:3414   */\n          0x20\n            /* \"#utility.yul\":3407:3410   */\n          dup4\n            /* \"#utility.yul\":3348:3415   */\n          tag_171\n          jump\t// in\n        tag_178:\n            /* \"#utility.yul\":3341:3415   */\n          swap2\n          pop\n            /* \"#utility.yul\":3424:3517   */\n          tag_179\n            /* \"#utility.yul\":3513:3516   */\n          dup3\n            /* \"#utility.yul\":3424:3517   */\n          tag_180\n          jump\t// in\n        tag_179:\n            /* \"#utility.yul\":3542:3544   */\n          0x20\n            /* \"#utility.yul\":3537:3540   */\n          dup3\n            /* \"#utility.yul\":3533:3545   */\n          add\n            /* \"#utility.yul\":3526:3545   */\n          swap1\n          pop\n            /* \"#utility.yul\":3185:3551   */\n          swap2\n          swap1\n          pop\n          jump\t// out\n            /* \"#utility.yul\":3557:3923   */\n        tag_181:\n            /* \"#utility.yul\":3699:3702   */\n          0x00\n            /* \"#utility.yul\":3720:3787   */\n          tag_183\n            /* \"#utility.yul\":3784:3786   */\n          0x28\n            /* \"#utility.yul\":3779:3782   */\n          dup4\n            /* \"#utility.yul\":3720:3787   */\n          tag_171\n          jump\t// in\n        tag_183:\n            /* \"#utility.yul\":3713:3787   */\n          swap2\n          pop\n            /* \"#utility.yul\":3796:3889   */\n          tag_184\n            /* \"#utility.yul\":3885:3888   */\n          dup3\n            /* \"#utility.yul\":3796:3889   */\n          tag_185\n          jump\t// in\n        tag_184:\n            /* \"#utility.yul\":3914:3916   */\n          0x40\n            /* \"#utility.yul\":3909:3912   */\n          dup3\n            /* \"#utility.yul\":3905:3917   */\n          add\n            /* \"#utility.yul\":3898:3917   */\n          swap1\n          pop\n            /* \"#utility.yul\":3557:3923   */\n          swap2\n          swap1\n          pop\n          jump\t// out\n            /* \"#utility.yul\":3929:4295   */\n        tag_186:\n            /* \"#utility.yul\":4071:4074   */\n          0x00\n            /* \"#utility.yul\":4092:4159   */\n          tag_188\n            /* \"#utility.yul\":4156:4158   */\n          0x29\n            /* \"#utility.yul\":4151:4154   */\n          dup4\n            /* \"#utility.yul\":4092:4159   */\n          tag_171\n          jump\t// in\n        tag_188:\n            /* \"#utility.yul\":4085:4159   */\n          swap2\n          pop\n            /* \"#utility.yul\":4168:4261   */\n          tag_189\n            /* \"#utility.yul\":4257:4260   */\n          dup3\n            /* \"#utility.yul\":4168:4261   */\n          tag_190\n          jump\t// in\n        tag_189:\n            /* \"#utility.yul\":4286:4288   */\n          0x40\n            /* \"#utility.yul\":4281:4284   */\n          dup3\n            /* \"#utility.yul\":4277:4289   */\n          add\n            /* \"#utility.yul\":4270:4289   */\n          swap1\n          pop\n            /* \"#utility.yul\":3929:4295   */\n          swap2\n          swap1\n          pop\n          jump\t// out\n            /* \"#utility.yul\":4301:4667   */\n        tag_191:\n            /* \"#utility.yul\":4443:4446   */\n          0x00\n            /* \"#utility.yul\":4464:4531   */\n          tag_193\n            /* \"#utility.yul\":4528:4530   */\n          0x32\n            /* \"#utility.yul\":4523:4526   */\n          dup4\n            /* \"#utility.yul\":4464:4531   */\n          tag_171\n          jump\t// in\n        tag_193:\n            /* \"#utility.yul\":4457:4531   */\n          swap2\n          pop\n            /* \"#utility.yul\":4540:4633   */\n          tag_194\n            /* \"#utility.yul\":4629:4632   */\n          dup3\n            /* \"#utility.yul\":4540:4633   */\n          tag_195\n          jump\t// in\n        tag_194:\n            /* \"#utility.yul\":4658:4660   */\n          0x40\n            /* \"#utility.yul\":4653:4656   */\n          dup3\n            /* \"#utility.yul\":4649:4661   */\n          add\n            /* \"#utility.yul\":4642:4661   */\n          swap1\n          pop\n            /* \"#utility.yul\":4301:4667   */\n          swap2\n          swap1\n          pop\n          jump\t// out\n            /* \"#utility.yul\":4673:4791   */\n        tag_196:\n            /* \"#utility.yul\":4760:4784   */\n          tag_198\n            /* \"#utility.yul\":4778:4783   */\n          dup2\n            /* \"#utility.yul\":4760:4784   */\n          tag_199\n          jump\t// in\n        tag_198:\n            /* \"#utility.yul\":4755:4758   */\n          dup3\n            /* \"#utility.yul\":4748:4785   */\n          mstore\n            /* \"#utility.yul\":4673:4791   */\n          pop\n          pop\n          jump\t// out\n            /* \"#utility.yul\":4797:4909   */\n        tag_200:\n            /* \"#utility.yul\":4880:4902   */\n          tag_202\n            /* \"#utility.yul\":4896:4901   */\n          dup2\n            /* \"#utility.yul\":4880:4902   */\n          tag_203\n          jump\t// in\n        tag_202:\n            /* \"#utility.yul\":4875:4878   */\n          dup3\n            /* \"#utility.yul\":4868:4903   */\n          mstore\n            /* \"#utility.yul\":4797:4909   */\n          pop\n          pop\n          jump\t// out\n            /* \"#utility.yul\":4915:5169   */\n        tag_35:\n            /* \"#utility.yul\":5024:5028   */\n          0x00\n            /* \"#utility.yul\":5062:5064   */\n          0x20\n            /* \"#utility.yul\":5051:5060   */\n          dup3\n            /* \"#utility.yul\":5047:5065   */\n          add\n            /* \"#utility.yul\":5039:5065   */\n          swap1\n          pop\n            /* \"#utility.yul\":5075:5162   */\n          tag_205\n            /* \"#utility.yul\":5159:5160   */\n          0x00\n            /* \"#utility.yul\":5148:5157   */\n          dup4\n            /* \"#utility.yul\":5144:5161   */\n          add\n            /* \"#utility.yul\":5135:5141   */\n          dup5\n            /* \"#utility.yul\":5075:5162   */\n          tag_158\n          jump\t// in\n        tag_205:\n            /* \"#utility.yul\":4915:5169   */\n          swap3\n          swap2\n          pop\n          pop\n          jump\t// out\n            /* \"#utility.yul\":5175:5385   */\n        tag_27:\n            /* \"#utility.yul\":5262:5266   */\n          0x00\n            /* \"#utility.yul\":5300:5302   */\n          0x20\n            /* \"#utility.yul\":5289:5298   */\n          dup3\n            /* \"#utility.yul\":5285:5303   */\n          add\n            /* \"#utility.yul\":5277:5303   */\n          swap1\n          pop\n            /* \"#utility.yul\":5313:5378   */\n          tag_207\n            /* \"#utility.yul\":5375:5376   */\n          0x00\n            /* \"#utility.yul\":5364:5373   */\n          dup4\n            /* \"#utility.yul\":5360:5377   */\n          add\n            /* \"#utility.yul\":5351:5357   */\n          dup5\n            /* \"#utility.yul\":5313:5378   */\n          tag_162\n          jump\t// in\n        tag_207:\n            /* \"#utility.yul\":5175:5385   */\n          swap3\n          swap2\n          pop\n          pop\n          jump\t// out\n            /* \"#utility.yul\":5391:5704   */\n        tag_21:\n            /* \"#utility.yul\":5504:5508   */\n          0x00\n            /* \"#utility.yul\":5542:5544   */\n          0x20\n            /* \"#utility.yul\":5531:5540   */\n          dup3\n            /* \"#utility.yul\":5527:5545   */\n          add\n            /* \"#utility.yul\":5519:5545   */\n          swap1\n          pop\n            /* \"#utility.yul\":5591:5600   */\n          dup2\n            /* \"#utility.yul\":5585:5589   */\n          dup2\n            /* \"#utility.yul\":5581:5601   */\n          sub\n            /* \"#utility.yul\":5577:5578   */\n          0x00\n            /* \"#utility.yul\":5566:5575   */\n          dup4\n            /* \"#utility.yul\":5562:5579   */\n          add\n            /* \"#utility.yul\":5555:5602   */\n          mstore\n            /* \"#utility.yul\":5619:5697   */\n          tag_209\n            /* \"#utility.yul\":5692:5696   */\n          dup2\n            /* \"#utility.yul\":5683:5689   */\n          dup5\n            /* \"#utility.yul\":5619:5697   */\n          tag_166\n          jump\t// in\n        tag_209:\n            /* \"#utility.yul\":5611:5697   */\n          swap1\n          pop\n            /* \"#utility.yul\":5391:5704   */\n          swap3\n          swap2\n          pop\n          pop\n          jump\t// out\n            /* \"#utility.yul\":5710:6129   */\n        tag_91:\n            /* \"#utility.yul\":5876:5880   */\n          0x00\n            /* \"#utility.yul\":5914:5916   */\n          0x20\n            /* \"#utility.yul\":5903:5912   */\n          dup3\n            /* \"#utility.yul\":5899:5917   */\n          add\n            /* \"#utility.yul\":5891:5917   */\n          swap1\n          pop\n            /* \"#utility.yul\":5963:5972   */\n          dup2\n            /* \"#utility.yul\":5957:5961   */\n          dup2\n            /* \"#utility.yul\":5953:5973   */\n          sub\n            /* \"#utility.yul\":5949:5950   */\n          0x00\n            /* \"#utility.yul\":5938:5947   */\n          dup4\n            /* \"#utility.yul\":5934:5951   */\n          add\n            /* \"#utility.yul\":5927:5974   */\n          mstore\n            /* \"#utility.yul\":5991:6122   */\n          tag_211\n            /* \"#utility.yul\":6117:6121   */\n          dup2\n            /* \"#utility.yul\":5991:6122   */\n          tag_176\n          jump\t// in\n        tag_211:\n            /* \"#utility.yul\":5983:6122   */\n          swap1\n          pop\n            /* \"#utility.yul\":5710:6129   */\n          swap2\n          swap1\n          pop\n          jump\t// out\n            /* \"#utility.yul\":6135:6554   */\n        tag_85:\n            /* \"#utility.yul\":6301:6305   */\n          0x00\n            /* \"#utility.yul\":6339:6341   */\n          0x20\n            /* \"#utility.yul\":6328:6337   */\n          dup3\n            /* \"#utility.yul\":6324:6342   */\n          add\n            /* \"#utility.yul\":6316:6342   */\n          swap1\n          pop\n            /* \"#utility.yul\":6388:6397   */\n          dup2\n            /* \"#utility.yul\":6382:6386   */\n          dup2\n            /* \"#utility.yul\":6378:6398   */\n          sub\n            /* \"#utility.yul\":6374:6375   */\n          0x00\n            /* \"#utility.yul\":6363:6372   */\n          dup4\n            /* \"#utility.yul\":6359:6376   */\n          add\n            /* \"#utility.yul\":6352:6399   */\n          mstore\n            /* \"#utility.yul\":6416:6547   */\n          tag_213\n            /* \"#utility.yul\":6542:6546   */\n          dup2\n            /* \"#utility.yul\":6416:6547   */\n          tag_181\n          jump\t// in\n        tag_213:\n            /* \"#utility.yul\":6408:6547   */\n          swap1\n          pop\n            /* \"#utility.yul\":6135:6554   */\n          swap2\n          swap1\n          pop\n          jump\t// out\n            /* \"#utility.yul\":6560:6979   */\n        tag_106:\n            /* \"#utility.yul\":6726:6730   */\n          0x00\n            /* \"#utility.yul\":6764:6766   */\n          0x20\n            /* \"#utility.yul\":6753:6762   */\n          dup3\n            /* \"#utility.yul\":6749:6767   */\n          add\n            /* \"#utility.yul\":6741:6767   */\n          swap1\n          pop\n            /* \"#utility.yul\":6813:6822   */\n          dup2\n            /* \"#utility.yul\":6807:6811   */\n          dup2\n            /* \"#utility.yul\":6803:6823   */\n          sub\n            /* \"#utility.yul\":6799:6800   */\n          0x00\n            /* \"#utility.yul\":6788:6797   */\n          dup4\n            /* \"#utility.yul\":6784:6801   */\n          add\n            /* \"#utility.yul\":6777:6824   */\n          mstore\n            /* \"#utility.yul\":6841:6972   */\n          tag_215\n            /* \"#utility.yul\":6967:6971   */\n          dup2\n            /* \"#utility.yul\":6841:6972   */\n          tag_186\n          jump\t// in\n        tag_215:\n            /* \"#utility.yul\":6833:6972   */\n          swap1\n          pop\n            /* \"#utility.yul\":6560:6979   */\n          swap2\n          swap1\n          pop\n          jump\t// out\n            /* \"#utility.yul\":6985:7404   */\n        tag_88:\n            /* \"#utility.yul\":7151:7155   */\n          0x00\n            /* \"#utility.yul\":7189:7191   */\n          0x20\n            /* \"#utility.yul\":7178:7187   */\n          dup3\n            /* \"#utility.yul\":7174:7192   */\n          add\n            /* \"#utility.yul\":7166:7192   */\n          swap1\n          pop\n            /* \"#utility.yul\":7238:7247   */\n          dup2\n            /* \"#utility.yul\":7232:7236   */\n          dup2\n            /* \"#utility.yul\":7228:7248   */\n          sub\n            /* \"#utility.yul\":7224:7225   */\n          0x00\n            /* \"#utility.yul\":7213:7222   */\n          dup4\n            /* \"#utility.yul\":7209:7226   */\n          add\n            /* \"#utility.yul\":7202:7249   */\n          mstore\n            /* \"#utility.yul\":7266:7397   */\n          tag_217\n            /* \"#utility.yul\":7392:7396   */\n          dup2\n            /* \"#utility.yul\":7266:7397   */\n          tag_191\n          jump\t// in\n        tag_217:\n            /* \"#utility.yul\":7258:7397   */\n          swap1\n          pop\n            /* \"#utility.yul\":6985:7404   */\n          swap2\n          swap1\n          pop\n          jump\t// out\n            /* \"#utility.yul\":7410:7632   */\n        tag_31:\n            /* \"#utility.yul\":7503:7507   */\n          0x00\n            /* \"#utility.yul\":7541:7543   */\n          0x20\n            /* \"#utility.yul\":7530:7539   */\n          dup3\n            /* \"#utility.yul\":7526:7544   */\n          add\n            /* \"#utility.yul\":7518:7544   */\n          swap1\n          pop\n            /* \"#utility.yul\":7554:7625   */\n          tag_219\n            /* \"#utility.yul\":7622:7623   */\n          0x00\n            /* \"#utility.yul\":7611:7620   */\n          dup4\n            /* \"#utility.yul\":7607:7624   */\n          add\n            /* \"#utility.yul\":7598:7604   */\n          dup5\n            /* \"#utility.yul\":7554:7625   */\n          tag_196\n          jump\t// in\n        tag_219:\n            /* \"#utility.yul\":7410:7632   */\n          swap3\n          swap2\n          pop\n          pop\n          jump\t// out\n            /* \"#utility.yul\":7638:7852   */\n        tag_44:\n            /* \"#utility.yul\":7727:7731   */\n          0x00\n            /* \"#utility.yul\":7765:7767   */\n          0x20\n            /* \"#utility.yul\":7754:7763   */\n          dup3\n            /* \"#utility.yul\":7750:7768   */\n          add\n            /* \"#utility.yul\":7742:7768   */\n          swap1\n          pop\n            /* \"#utility.yul\":7778:7845   */\n          tag_221\n            /* \"#utility.yul\":7842:7843   */\n          0x00\n            /* \"#utility.yul\":7831:7840   */\n          dup4\n            /* \"#utility.yul\":7827:7844   */\n          add\n            /* \"#utility.yul\":7818:7824   */\n          dup5\n            /* \"#utility.yul\":7778:7845   */\n          tag_200\n          jump\t// in\n        tag_221:\n            /* \"#utility.yul\":7638:7852   */\n          swap3\n          swap2\n          pop\n          pop\n          jump\t// out\n            /* \"#utility.yul\":7939:8038   */\n        tag_169:\n            /* \"#utility.yul\":7991:7997   */\n          0x00\n            /* \"#utility.yul\":8025:8030   */\n          dup2\n            /* \"#utility.yul\":8019:8031   */\n          mload\n            /* \"#utility.yul\":8009:8031   */\n          swap1\n          pop\n            /* \"#utility.yul\":7939:8038   */\n          swap2\n          swap1\n          pop\n          jump\t// out\n            /* \"#utility.yul\":8044:8213   */\n        tag_171:\n            /* \"#utility.yul\":8128:8139   */\n          0x00\n            /* \"#utility.yul\":8162:8168   */\n          dup3\n            /* \"#utility.yul\":8157:8160   */\n          dup3\n            /* \"#utility.yul\":8150:8169   */\n          mstore\n            /* \"#utility.yul\":8202:8206   */\n          0x20\n            /* \"#utility.yul\":8197:8200   */\n          dup3\n            /* \"#utility.yul\":8193:8207   */\n          add\n            /* \"#utility.yul\":8178:8207   */\n          swap1\n          pop\n            /* \"#utility.yul\":8044:8213   */\n          swap3\n          swap2\n          pop\n          pop\n          jump\t// out\n            /* \"#utility.yul\":8219:8524   */\n        tag_93:\n            /* \"#utility.yul\":8259:8262   */\n          0x00\n            /* \"#utility.yul\":8278:8298   */\n          tag_227\n            /* \"#utility.yul\":8296:8297   */\n          dup3\n            /* \"#utility.yul\":8278:8298   */\n          tag_199\n          jump\t// in\n        tag_227:\n            /* \"#utility.yul\":8273:8298   */\n          swap2\n          pop\n            /* \"#utility.yul\":8312:8332   */\n          tag_228\n            /* \"#utility.yul\":8330:8331   */\n          dup4\n            /* \"#utility.yul\":8312:8332   */\n          tag_199\n          jump\t// in\n        tag_228:\n            /* \"#utility.yul\":8307:8332   */\n          swap3\n          pop\n            /* \"#utility.yul\":8466:8467   */\n          dup3\n            /* \"#utility.yul\":8398:8464   */\n          0xffffffffffffffffffffffffffffffffffffffffffffffffffffffffffffffff\n            /* \"#utility.yul\":8394:8468   */\n          sub\n            /* \"#utility.yul\":8391:8392   */\n          dup3\n            /* \"#utility.yul\":8388:8469   */\n          gt\n            /* \"#utility.yul\":8385:8492   */\n          iszero\n          tag_229\n          jumpi\n            /* \"#utility.yul\":8472:8490   */\n          tag_230\n          tag_231\n          jump\t// in\n        tag_230:\n            /* \"#utility.yul\":8385:8492   */\n        tag_229:\n            /* \"#utility.yul\":8516:8517   */\n          dup3\n            /* \"#utility.yul\":8513:8514   */\n          dup3\n            /* \"#utility.yul\":8509:8518   */\n          add\n            /* \"#utility.yul\":8502:8518   */\n          swap1\n          pop\n            /* \"#utility.yul\":8219:8524   */\n          swap3\n          swap2\n          pop\n          pop\n          jump\t// out\n            /* \"#utility.yul\":8530:8721   */\n        tag_95:\n            /* \"#utility.yul\":8570:8574   */\n          0x00\n            /* \"#utility.yul\":8590:8610   */\n          tag_233\n            /* \"#utility.yul\":8608:8609   */\n          dup3\n            /* \"#utility.yul\":8590:8610   */\n          tag_199\n          jump\t// in\n        tag_233:\n            /* \"#utility.yul\":8585:8610   */\n          swap2\n          pop\n            /* \"#utility.yul\":8624:8644   */\n          tag_234\n            /* \"#utility.yul\":8642:8643   */\n          dup4\n            /* \"#utility.yul\":8624:8644   */\n          tag_199\n          jump\t// in\n        tag_234:\n            /* \"#utility.yul\":8619:8644   */\n          swap3\n          pop\n            /* \"#utility.yul\":8663:8664   */\n          dup3\n            /* \"#utility.yul\":8660:8661   */\n          dup3\n            /* \"#utility.yul\":8657:8665   */\n          lt\n            /* \"#utility.yul\":8654:8688   */\n          iszero\n          tag_235\n          jumpi\n            /* \"#utility.yul\":8668:8686   */\n          tag_236\n          tag_231\n          jump\t// in\n        tag_236:\n            /* \"#utility.yul\":8654:8688   */\n        tag_235:\n            /* \"#utility.yul\":8713:8714   */\n          dup3\n            /* \"#utility.yul\":8710:8711   */\n          dup3\n            /* \"#utility.yul\":8706:8715   */\n          sub\n            /* \"#utility.yul\":8698:8715   */\n          swap1\n          pop\n            /* \"#utility.yul\":8530:8721   */\n          swap3\n          swap2\n          pop\n          pop\n          jump\t// out\n            /* \"#utility.yul\":8727:8823   */\n        tag_237:\n            /* \"#utility.yul\":8764:8771   */\n          0x00\n            /* \"#utility.yul\":8793:8817   */\n          tag_239\n            /* \"#utility.yul\":8811:8816   */\n          dup3\n            /* \"#utility.yul\":8793:8817   */\n          tag_240\n          jump\t// in\n        tag_239:\n            /* \"#utility.yul\":8782:8817   */\n          swap1\n          pop\n            /* \"#utility.yul\":8727:8823   */\n          swap2\n          swap1\n          pop\n          jump\t// out\n            /* \"#utility.yul\":8829:8933   */\n        tag_161:\n            /* \"#utility.yul\":8874:8881   */\n          0x00\n            /* \"#utility.yul\":8903:8927   */\n          tag_242\n            /* \"#utility.yul\":8921:8926   */\n          dup3\n            /* \"#utility.yul\":8903:8927   */\n          tag_240\n          jump\t// in\n        tag_242:\n            /* \"#utility.yul\":8892:8927   */\n          swap1\n          pop\n            /* \"#utility.yul\":8829:8933   */\n          swap2\n          swap1\n          pop\n          jump\t// out\n            /* \"#utility.yul\":8939:9029   */\n        tag_165:\n            /* \"#utility.yul\":8973:8980   */\n          0x00\n            /* \"#utility.yul\":9016:9021   */\n          dup2\n            /* \"#utility.yul\":9009:9022   */\n          iszero\n            /* \"#utility.yul\":9002:9023   */\n          iszero\n            /* \"#utility.yul\":8991:9023   */\n          swap1\n          pop\n            /* \"#utility.yul\":8939:9029   */\n          swap2\n          swap1\n          pop\n          jump\t// out\n            /* \"#utility.yul\":9035:9161   */\n        tag_240:\n            /* \"#utility.yul\":9072:9079   */\n          0x00\n            /* \"#utility.yul\":9112:9154   */\n          0xffffffffffffffffffffffffffffffffffffffff\n            /* \"#utility.yul\":9105:9110   */\n          dup3\n            /* \"#utility.yul\":9101:9155   */\n          and\n            /* \"#utility.yul\":9090:9155   */\n          swap1\n          pop\n            /* \"#utility.yul\":9035:9161   */\n          swap2\n          swap1\n          pop\n          jump\t// out\n            /* \"#utility.yul\":9167:9244   */\n        tag_199:\n            /* \"#utility.yul\":9204:9211   */\n          0x00\n            /* \"#utility.yul\":9233:9238   */\n          dup2\n            /* \"#utility.yul\":9222:9238   */\n          swap1\n          pop\n            /* \"#utility.yul\":9167:9244   */\n          swap2\n          swap1\n          pop\n          jump\t// out\n            /* \"#utility.yul\":9250:9336   */\n        tag_203:\n            /* \"#utility.yul\":9285:9292   */\n          0x00\n            /* \"#utility.yul\":9325:9329   */\n          0xff\n            /* \"#utility.yul\":9318:9323   */\n          dup3\n            /* \"#utility.yul\":9314:9330   */\n          and\n            /* \"#utility.yul\":9303:9330   */\n          swap1\n          pop\n            /* \"#utility.yul\":9250:9336   */\n          swap2\n          swap1\n          pop\n          jump\t// out\n            /* \"#utility.yul\":9342:9649   */\n        tag_173:\n            /* \"#utility.yul\":9410:9411   */\n          0x00\n            /* \"#utility.yul\":9420:9533   */\n        tag_248:\n            /* \"#utility.yul\":9434:9440   */\n          dup4\n            /* \"#utility.yul\":9431:9432   */\n          dup2\n            /* \"#utility.yul\":9428:9441   */\n          lt\n            /* \"#utility.yul\":9420:9533   */\n          iszero\n          tag_250\n          jumpi\n            /* \"#utility.yul\":9519:9520   */\n          dup1\n            /* \"#utility.yul\":9514:9517   */\n          dup3\n            /* \"#utility.yul\":9510:9521   */\n          add\n            /* \"#utility.yul\":9504:9522   */\n          mload\n            /* \"#utility.yul\":9500:9501   */\n          dup2\n            /* \"#utility.yul\":9495:9498   */\n          dup5\n            /* \"#utility.yul\":9491:9502   */\n          add\n            /* \"#utility.yul\":9484:9523   */\n          mstore\n            /* \"#utility.yul\":9456:9458   */\n          0x20\n            /* \"#utility.yul\":9453:9454   */\n          dup2\n            /* \"#utility.yul\":9449:9459   */\n          add\n            /* \"#utility.yul\":9444:9459   */\n          swap1\n          pop\n            /* \"#utility.yul\":9420:9533   */\n          jump(tag_248)\n        tag_250:\n            /* \"#utility.yul\":9551:9557   */\n          dup4\n            /* \"#utility.yul\":9548:9549   */\n          dup2\n            /* \"#utility.yul\":9545:9558   */\n          gt\n            /* \"#utility.yul\":9542:9643   */\n          iszero\n          tag_251\n          jumpi\n            /* \"#utility.yul\":9631:9632   */\n          0x00\n            /* \"#utility.yul\":9622:9628   */\n          dup5\n            /* \"#utility.yul\":9617:9620   */\n          dup5\n            /* \"#utility.yul\":9613:9629   */\n          add\n            /* \"#utility.yul\":9606:9633   */\n          mstore\n            /* \"#utility.yul\":9542:9643   */\n        tag_251:\n            /* \"#utility.yul\":9391:9649   */\n          pop\n            /* \"#utility.yul\":9342:9649   */\n          pop\n          pop\n          pop\n          jump\t// out\n            /* \"#utility.yul\":9655:9975   */\n        tag_74:\n            /* \"#utility.yul\":9699:9705   */\n          0x00\n            /* \"#utility.yul\":9736:9737   */\n          0x02\n            /* \"#utility.yul\":9730:9734   */\n          dup3\n            /* \"#utility.yul\":9726:9738   */\n          div\n            /* \"#utility.yul\":9716:9738   */\n          swap1\n          pop\n            /* \"#utility.yul\":9783:9784   */\n          0x01\n            /* \"#utility.yul\":9777:9781   */\n          dup3\n            /* \"#utility.yul\":9773:9785   */\n          and\n            /* \"#utility.yul\":9804:9822   */\n          dup1\n            /* \"#utility.yul\":9794:9875   */\n          tag_253\n          jumpi\n            /* \"#utility.yul\":9860:9864   */\n          0x7f\n            /* \"#utility.yul\":9852:9858   */\n          dup3\n            /* \"#utility.yul\":9848:9865   */\n          and\n            /* \"#utility.yul\":9838:9865   */\n          swap2\n          pop\n            /* \"#utility.yul\":9794:9875   */\n        tag_253:\n            /* \"#utility.yul\":9922:9924   */\n          0x20\n            /* \"#utility.yul\":9914:9920   */\n          dup3\n            /* \"#utility.yul\":9911:9925   */\n          lt\n            /* \"#utility.yul\":9891:9909   */\n          dup2\n            /* \"#utility.yul\":9888:9926   */\n          eq\n            /* \"#utility.yul\":9885:9969   */\n          iszero\n          tag_254\n          jumpi\n            /* \"#utility.yul\":9941:9959   */\n          tag_255\n          tag_256\n          jump\t// in\n        tag_255:\n            /* \"#utility.yul\":9885:9969   */\n        tag_254:\n            /* \"#utility.yul\":9706:9975   */\n          pop\n            /* \"#utility.yul\":9655:9975   */\n          swap2\n          swap1\n          pop\n          jump\t// out\n            /* \"#utility.yul\":9981:10161   */\n        tag_231:\n            /* \"#utility.yul\":10029:10106   */\n          0x4e487b7100000000000000000000000000000000000000000000000000000000\n            /* \"#utility.yul\":10026:10027   */\n          0x00\n            /* \"#utility.yul\":10019:10107   */\n          mstore\n            /* \"#utility.yul\":10126:10130   */\n          0x11\n            /* \"#utility.yul\":10123:10124   */\n          0x04\n            /* \"#utility.yul\":10116:10131   */\n          mstore\n            /* \"#utility.yul\":10150:10154   */\n          0x24\n            /* \"#utility.yul\":10147:10148   */\n          0x00\n            /* \"#utility.yul\":10140:10155   */\n          revert\n            /* \"#utility.yul\":10167:10347   */\n        tag_256:\n            /* \"#utility.yul\":10215:10292   */\n          0x4e487b7100000000000000000000000000000000000000000000000000000000\n            /* \"#utility.yul\":10212:10213   */\n          0x00\n            /* \"#utility.yul\":10205:10293   */\n          mstore\n            /* \"#utility.yul\":10312:10316   */\n          0x22\n            /* \"#utility.yul\":10309:10310   */\n          0x04\n            /* \"#utility.yul\":10302:10317   */\n          mstore\n            /* \"#utility.yul\":10336:10340   */\n          0x24\n            /* \"#utility.yul\":10333:10334   */\n          0x00\n            /* \"#utility.yul\":10326:10341   */\n          revert\n            /* \"#utility.yul\":10476:10593   */\n        tag_136:\n            /* \"#utility.yul\":10585:10586   */\n          0x00\n            /* \"#utility.yul\":10582:10583   */\n          dup1\n            /* \"#utility.yul\":10575:10587   */\n          revert\n            /* \"#utility.yul\":10599:10701   */\n        tag_175:\n            /* \"#utility.yul\":10640:10646   */\n          0x00\n            /* \"#utility.yul\":10691:10693   */\n          0x1f\n            /* \"#utility.yul\":10687:10694   */\n          not\n            /* \"#utility.yul\":10682:10684   */\n          0x1f\n            /* \"#utility.yul\":10675:10680   */\n          dup4\n            /* \"#utility.yul\":10671:10685   */\n          add\n            /* \"#utility.yul\":10667:10695   */\n          and\n            /* \"#utility.yul\":10657:10695   */\n          swap1\n          pop\n            /* \"#utility.yul\":10599:10701   */\n          swap2\n          swap1\n          pop\n          jump\t// out\n            /* \"#utility.yul\":10707:10889   */\n        tag_180:\n            /* \"#utility.yul\":10847:10881   */\n          0x616c6c6f7765642076616c7565206372697465726961206e65766572206d6574\n            /* \"#utility.yul\":10843:10844   */\n          0x00\n            /* \"#utility.yul\":10835:10841   */\n          dup3\n            /* \"#utility.yul\":10831:10845   */\n          add\n            /* \"#utility.yul\":10824:10882   */\n          mstore\n            /* \"#utility.yul\":10707:10889   */\n          pop\n          jump\t// out\n            /* \"#utility.yul\":10895:11122   */\n        tag_185:\n            /* \"#utility.yul\":11035:11069   */\n          0x76616c7565206973206c6f776572207468616e20312c20796f752063616e7420\n            /* \"#utility.yul\":11031:11032   */\n          0x00\n            /* \"#utility.yul\":11023:11029   */\n          dup3\n            /* \"#utility.yul\":11019:11033   */\n          add\n            /* \"#utility.yul\":11012:11070   */\n          mstore\n            /* \"#utility.yul\":11104:11114   */\n          0x7472616e73666572000000000000000000000000000000000000000000000000\n            /* \"#utility.yul\":11099:11101   */\n          0x20\n            /* \"#utility.yul\":11091:11097   */\n          dup3\n            /* \"#utility.yul\":11087:11102   */\n          add\n            /* \"#utility.yul\":11080:11115   */\n          mstore\n            /* \"#utility.yul\":10895:11122   */\n          pop\n          jump\t// out\n            /* \"#utility.yul\":11128:11356   */\n        tag_190:\n            /* \"#utility.yul\":11268:11302   */\n          0x596f75206e65656420746f20626520746865206f776e657220746f2071756572\n            /* \"#utility.yul\":11264:11265   */\n          0x00\n            /* \"#utility.yul\":11256:11262   */\n          dup3\n            /* \"#utility.yul\":11252:11266   */\n          add\n            /* \"#utility.yul\":11245:11303   */\n          mstore\n            /* \"#utility.yul\":11337:11348   */\n          0x792062616c616e63650000000000000000000000000000000000000000000000\n            /* \"#utility.yul\":11332:11334   */\n          0x20\n            /* \"#utility.yul\":11324:11330   */\n          dup3\n            /* \"#utility.yul\":11320:11335   */\n          add\n            /* \"#utility.yul\":11313:11349   */\n          mstore\n            /* \"#utility.yul\":11128:11356   */\n          pop\n          jump\t// out\n            /* \"#utility.yul\":11362:11599   */\n        tag_195:\n            /* \"#utility.yul\":11502:11536   */\n          0x73656e6465722076616c7565206e6565647320746f2062652068696768657220\n            /* \"#utility.yul\":11498:11499   */\n          0x00\n            /* \"#utility.yul\":11490:11496   */\n          dup3\n            /* \"#utility.yul\":11486:11500   */\n          add\n            /* \"#utility.yul\":11479:11537   */\n          mstore\n            /* \"#utility.yul\":11571:11591   */\n          0x7468616e2073656e64696e672076616c75650000000000000000000000000000\n            /* \"#utility.yul\":11566:11568   */\n          0x20\n            /* \"#utility.yul\":11558:11564   */\n          dup3\n            /* \"#utility.yul\":11554:11569   */\n          add\n            /* \"#utility.yul\":11547:11592   */\n          mstore\n            /* \"#utility.yul\":11362:11599   */\n          pop\n          jump\t// out\n            /* \"#utility.yul\":11605:11727   */\n        tag_128:\n            /* \"#utility.yul\":11678:11702   */\n          tag_268\n            /* \"#utility.yul\":11696:11701   */\n          dup2\n            /* \"#utility.yul\":11678:11702   */\n          tag_237\n          jump\t// in\n        tag_268:\n            /* \"#utility.yul\":11671:11676   */\n          dup2\n            /* \"#utility.yul\":11668:11703   */\n          eq\n            /* \"#utility.yul\":11658:11721   */\n          tag_269\n          jumpi\n            /* \"#utility.yul\":11717:11718   */\n          0x00\n            /* \"#utility.yul\":11714:11715   */\n          dup1\n            /* \"#utility.yul\":11707:11719   */\n          revert\n            /* \"#utility.yul\":11658:11721   */\n        tag_269:\n            /* \"#utility.yul\":11605:11727   */\n          pop\n          jump\t// out\n            /* \"#utility.yul\":11733:11855   */\n        tag_132:\n            /* \"#utility.yul\":11806:11830   */\n          tag_271\n            /* \"#utility.yul\":11824:11829   */\n          dup2\n            /* \"#utility.yul\":11806:11830   */\n          tag_199\n          jump\t// in\n        tag_271:\n            /* \"#utility.yul\":11799:11804   */\n          dup2\n            /* \"#utility.yul\":11796:11831   */\n          eq\n            /* \"#utility.yul\":11786:11849   */\n          tag_272\n          jumpi\n            /* \"#utility.yul\":11845:11846   */\n          0x00\n            /* \"#utility.yul\":11842:11843   */\n          dup1\n            /* \"#utility.yul\":11835:11847   */\n          revert\n            /* \"#utility.yul\":11786:11849   */\n        tag_272:\n            /* \"#utility.yul\":11733:11855   */\n          pop\n          jump\t// out\n\n        auxdata: 0xa264697066735822122026bcbed46cbee8f72670db34adc960f420e6208bdd545c9f9a5662b9f973578064736f6c63430008070033\n    }\n}\n",
				"bytecode": {
					"linkReferences": {},
					"object": "608060405234801561001057600080fd5b5060405161001d90610087565b604051809103906000f080158015610039573d6000803e3d6000fd5b506000806101000a81548173ffffffffffffffffffffffffffffffffffffffff021916908373ffffffffffffffffffffffffffffffffffffffff160217905550612710600181905550610094565b61161880610bce83390190565b610b2b806100a36000396000f3fe6080604052600436106100345760003560e01c8063a6f2ae3a14610039578063e4849b3214610043578063fc0c546a1461006c575b600080fd5b610041610097565b005b34801561004f57600080fd5b5061006a60048036038101906100659190610673565b61037a565b005b34801561007857600080fd5b506100816105e3565b60405161008e919061082a565b60405180910390f35b600034905060008060009054906101000a900473ffffffffffffffffffffffffffffffffffffffff1673ffffffffffffffffffffffffffffffffffffffff166370a08231306040518263ffffffff1660e01b81526004016100f89190610786565b602060405180830381600087803b15801561011257600080fd5b505af1158015610126573d6000803e3d6000fd5b505050506040513d601f19601f8201168201806040525081019061014a91906106a0565b905060006001543461015c91906108f1565b9050600083116101a1576040517f08c379a000000000000000000000000000000000000000000000000000000000815260040161019890610885565b60405180910390fd5b818111156101e4576040517f08c379a00000000000000000000000000000000000000000000000000000000081526004016101db906108a5565b60405180910390fd5b60008054906101000a900473ffffffffffffffffffffffffffffffffffffffff1673ffffffffffffffffffffffffffffffffffffffff1663a9059cbb33836040518363ffffffff1660e01b815260040161023f929190610801565b602060405180830381600087803b15801561025957600080fd5b505af115801561026d573d6000803e3d6000fd5b505050506040513d601f19601f820116820180604052508101906102919190610646565b5060008054906101000a900473ffffffffffffffffffffffffffffffffffffffff1673ffffffffffffffffffffffffffffffffffffffff1663ce7c5d7f846040518263ffffffff1660e01b81526004016102eb91906108c5565b602060405180830381600087803b15801561030557600080fd5b505af1158015610319573d6000803e3d6000fd5b505050506040513d601f19601f8201168201806040525081019061033d9190610646565b507f4e08ba899977cf7d4c2964bce71c6b9a7ef76ee5166a4c1249a1e08016e33ef18160405161036d91906108c5565b60405180910390a1505050565b600081116103bd576040517f08c379a00000000000000000000000000000000000000000000000000000000081526004016103b490610865565b60405180910390fd5b60008060009054906101000a900473ffffffffffffffffffffffffffffffffffffffff1673ffffffffffffffffffffffffffffffffffffffff1663dd62ed3e33306040518363ffffffff1660e01b815260040161041b9291906107a1565b602060405180830381600087803b15801561043557600080fd5b505af1158015610449573d6000803e3d6000fd5b505050506040513d601f19601f8201168201806040525081019061046d91906106a0565b90508181116104b1576040517f08c379a00000000000000000000000000000000000000000000000000000000081526004016104a890610845565b60405180910390fd5b60008054906101000a900473ffffffffffffffffffffffffffffffffffffffff1673ffffffffffffffffffffffffffffffffffffffff166323b872dd3330856040518463ffffffff1660e01b815260040161050e939291906107ca565b602060405180830381600087803b15801561052857600080fd5b505af115801561053c573d6000803e3d6000fd5b505050506040513d601f19601f820116820180604052508101906105609190610646565b503373ffffffffffffffffffffffffffffffffffffffff166108fc839081150290604051600060405180830381858888f193505050501580156105a7573d6000803e3d6000fd5b507f92f64ca637d023f354075a4be751b169c1a8a9ccb6d33cdd0cb3520543995727826040516105d791906108c5565b60405180910390a15050565b60008054906101000a900473ffffffffffffffffffffffffffffffffffffffff1681565b60008151905061061681610ac7565b92915050565b60008135905061062b81610ade565b92915050565b60008151905061064081610ade565b92915050565b60006020828403121561065c5761065b6109f8565b5b600061066a84828501610607565b91505092915050565b600060208284031215610689576106886109f8565b5b60006106978482850161061c565b91505092915050565b6000602082840312156106b6576106b56109f8565b5b60006106c484828501610631565b91505092915050565b6106d68161094b565b82525050565b6106e581610993565b82525050565b60006106f86020836108e0565b9150610703826109fd565b602082019050919050565b600061071b6024836108e0565b915061072682610a26565b604082019050919050565b600061073e6020836108e0565b915061074982610a75565b602082019050919050565b60006107616019836108e0565b915061076c82610a9e565b602082019050919050565b61078081610989565b82525050565b600060208201905061079b60008301846106cd565b92915050565b60006040820190506107b660008301856106cd565b6107c360208301846106cd565b9392505050565b60006060820190506107df60008301866106cd565b6107ec60208301856106cd565b6107f96040830184610777565b949350505050565b600060408201905061081660008301856106cd565b6108236020830184610777565b9392505050565b600060208201905061083f60008301846106dc565b92915050565b6000602082019050818103600083015261085e816106eb565b9050919050565b6000602082019050818103600083015261087e8161070e565b9050919050565b6000602082019050818103600083015261089e81610731565b9050919050565b600060208201905081810360008301526108be81610754565b9050919050565b60006020820190506108da6000830184610777565b92915050565b600082825260208201905092915050565b60006108fc82610989565b915061090783610989565b9250817fffffffffffffffffffffffffffffffffffffffffffffffffffffffffffffffff04831182151516156109405761093f6109c9565b5b828202905092915050565b600061095682610969565b9050919050565b60008115159050919050565b600073ffffffffffffffffffffffffffffffffffffffff82169050919050565b6000819050919050565b600061099e826109a5565b9050919050565b60006109b0826109b7565b9050919050565b60006109c282610969565b9050919050565b7f4e487b7100000000000000000000000000000000000000000000000000000000600052601160045260246000fd5b600080fd5b7f506c6561736520636865636b2074686520746f6b656e20616c6c6f77616e6365600082015250565b7f596f75206e65656420746f206d656e74696f6e20506f6b656d6f6e544420616d60008201527f6f756e7400000000000000000000000000000000000000000000000000000000602082015250565b7f596f75206e65656420746f206d656e74696f6e20457468657220746f20627579600082015250565b7f4e6f7420456e6f75676820506f6b656d6f6e5444204c65667400000000000000600082015250565b610ad08161095d565b8114610adb57600080fd5b50565b610ae781610989565b8114610af257600080fd5b5056fea2646970667358221220c4c3747285fe74f9bf2ace40272d555ec31b939868d34f8a433da331765c6e3d64736f6c6343000807003360806040526040518060400160405280600381526020017f312e3000000000000000000000000000000000000000000000000000000000008152506006908051906020019062000051929190620001c2565b503480156200005f57600080fd5b50678ac7230489e8000060028190555033600760006101000a81548173ffffffffffffffffffffffffffffffffffffffff021916908373ffffffffffffffffffffffffffffffffffffffff160217905550600254600080600760009054906101000a900473ffffffffffffffffffffffffffffffffffffffff1673ffffffffffffffffffffffffffffffffffffffff1673ffffffffffffffffffffffffffffffffffffffff168152602001908152602001600020819055506040518060400160405280600981526020017f506f6b656d6f6e544400000000000000000000000000000000000000000000008152506003908051906020019062000164929190620001c2565b506040518060400160405280600481526020017f504b54440000000000000000000000000000000000000000000000000000000081525060049080519060200190620001b2929190620001c2565b50612710600881905550620002d7565b828054620001d09062000272565b90600052602060002090601f016020900481019282620001f4576000855562000240565b82601f106200020f57805160ff191683800117855562000240565b8280016001018555821562000240579182015b828111156200023f57825182559160200191906001019062000222565b5b5090506200024f919062000253565b5090565b5b808211156200026e57600081600090555060010162000254565b5090565b600060028204905060018216806200028b57607f821691505b60208210811415620002a257620002a1620002a8565b5b50919050565b7f4e487b7100000000000000000000000000000000000000000000000000000000600052602260045260246000fd5b61133180620002e76000396000f3fe608060405234801561001057600080fd5b50600436106100cf5760003560e01c806354fd4d501161008c578063a9059cbb11610066578063a9059cbb14610218578063b73fd79214610248578063ce7c5d7f14610266578063dd62ed3e14610296576100cf565b806354fd4d50146101ac57806370a08231146101ca57806395d89b41146101fa576100cf565b806306fdde03146100d4578063095ea7b3146100f257806318160ddd146101225780632194f3a21461014057806323b872dd1461015e578063313ce5671461018e575b600080fd5b6100dc6102c6565b6040516100e99190610ef9565b60405180910390f35b61010c60048036038101906101079190610d55565b610354565b6040516101199190610ede565b60405180910390f35b61012a610446565b6040516101379190610f9b565b60405180910390f35b610148610450565b6040516101559190610ec3565b60405180910390f35b61017860048036038101906101739190610d02565b610476565b6040516101859190610ede565b60405180910390f35b6101966107a7565b6040516101a39190610fb6565b60405180910390f35b6101b46107ba565b6040516101c19190610ef9565b60405180910390f35b6101e460048036038101906101df9190610c95565b610848565b6040516101f19190610f9b565b60405180910390f35b6102026108fe565b60405161020f9190610ef9565b60405180910390f35b610232600480360381019061022d9190610d55565b61098c565b60405161023f9190610ede565b60405180910390f35b610250610b6a565b60405161025d9190610f9b565b60405180910390f35b610280600480360381019061027b9190610d95565b610b70565b60405161028d9190610ede565b60405180910390f35b6102b060048036038101906102ab9190610cc2565b610be4565b6040516102bd9190610f9b565b60405180910390f35b600380546102d390611111565b80601f01602080910402602001604051908101604052809291908181526020018280546102ff90611111565b801561034c5780601f106103215761010080835404028352916020019161034c565b820191906000526020600020905b81548152906001019060200180831161032f57829003601f168201915b505050505081565b600081600160003373ffffffffffffffffffffffffffffffffffffffff1673ffffffffffffffffffffffffffffffffffffffff16815260200190815260200160002060008573ffffffffffffffffffffffffffffffffffffffff1673ffffffffffffffffffffffffffffffffffffffff168152602001908152602001600020819055508273ffffffffffffffffffffffffffffffffffffffff163373ffffffffffffffffffffffffffffffffffffffff167f8c5be1e5ebec7d5bd14f71427d1e84f3dd0314c0f7b2291e5b200ac8c7c3b925846040516104349190610f9b565b60405180910390a36001905092915050565b6000600254905090565b600760009054906101000a900473ffffffffffffffffffffffffffffffffffffffff1681565b60008082116104ba576040517f08c379a00000000000000000000000000000000000000000000000000000000081526004016104b190610f3b565b60405180910390fd5b816000808673ffffffffffffffffffffffffffffffffffffffff1673ffffffffffffffffffffffffffffffffffffffff16815260200190815260200160002054101561053b576040517f08c379a000000000000000000000000000000000000000000000000000000000815260040161053290610f7b565b60405180910390fd5b81600160008673ffffffffffffffffffffffffffffffffffffffff1673ffffffffffffffffffffffffffffffffffffffff16815260200190815260200160002060003373ffffffffffffffffffffffffffffffffffffffff1673ffffffffffffffffffffffffffffffffffffffff1681526020019081526020016000205410156105fa576040517f08c379a00000000000000000000000000000000000000000000000000000000081526004016105f190610f1b565b60405180910390fd5b816000808573ffffffffffffffffffffffffffffffffffffffff1673ffffffffffffffffffffffffffffffffffffffff16815260200190815260200160002060008282546106489190610fed565b92505081905550816000808673ffffffffffffffffffffffffffffffffffffffff1673ffffffffffffffffffffffffffffffffffffffff168152602001908152602001600020600082825461069d9190611043565b9250508190555081600160008673ffffffffffffffffffffffffffffffffffffffff1673ffffffffffffffffffffffffffffffffffffffff16815260200190815260200160002060003373ffffffffffffffffffffffffffffffffffffffff1673ffffffffffffffffffffffffffffffffffffffff16815260200190815260200160002060008282546107309190611043565b925050819055508273ffffffffffffffffffffffffffffffffffffffff168473ffffffffffffffffffffffffffffffffffffffff167fddf252ad1be2c89b69c2b068fc378daa952ba7f163c4a11628f55a4df523b3ef846040516107949190610f9b565b60405180910390a3600190509392505050565b600560009054906101000a900460ff1681565b600680546107c790611111565b80601f01602080910402602001604051908101604052809291908181526020018280546107f390611111565b80156108405780601f1061081557610100808354040283529160200191610840565b820191906000526020600020905b81548152906001019060200180831161082357829003601f168201915b505050505081565b60003373ffffffffffffffffffffffffffffffffffffffff168273ffffffffffffffffffffffffffffffffffffffff16146108b8576040517f08c379a00000000000000000000000000000000000000000000000000000000081526004016108af90610f5b565b60405180910390fd5b6000808373ffffffffffffffffffffffffffffffffffffffff1673ffffffffffffffffffffffffffffffffffffffff168152602001908152602001600020549050919050565b6004805461090b90611111565b80601f016020809104026020016040519081016040528092919081815260200182805461093790611111565b80156109845780601f1061095957610100808354040283529160200191610984565b820191906000526020600020905b81548152906001019060200180831161096757829003601f168201915b505050505081565b60008082116109d0576040517f08c379a00000000000000000000000000000000000000000000000000000000081526004016109c790610f3b565b60405180910390fd5b816000803373ffffffffffffffffffffffffffffffffffffffff1673ffffffffffffffffffffffffffffffffffffffff168152602001908152602001600020541015610a51576040517f08c379a0000000000000000000000000000000000000000000000000000000008152600401610a4890610f7b565b60405180910390fd5b816000803373ffffffffffffffffffffffffffffffffffffffff1673ffffffffffffffffffffffffffffffffffffffff1681526020019081526020016000206000828254610a9f9190611043565b92505081905550816000808573ffffffffffffffffffffffffffffffffffffffff1673ffffffffffffffffffffffffffffffffffffffff1681526020019081526020016000206000828254610af49190610fed565b925050819055508273ffffffffffffffffffffffffffffffffffffffff163373ffffffffffffffffffffffffffffffffffffffff167fddf252ad1be2c89b69c2b068fc378daa952ba7f163c4a11628f55a4df523b3ef84604051610b589190610f9b565b60405180910390a36001905092915050565b60025481565b6000600760009054906101000a900473ffffffffffffffffffffffffffffffffffffffff1673ffffffffffffffffffffffffffffffffffffffff166108fc839081150290604051600060405180830381858888f19350505050158015610bda573d6000803e3d6000fd5b5060019050919050565b6000600160008473ffffffffffffffffffffffffffffffffffffffff1673ffffffffffffffffffffffffffffffffffffffff16815260200190815260200160002060008373ffffffffffffffffffffffffffffffffffffffff1673ffffffffffffffffffffffffffffffffffffffff16815260200190815260200160002054905092915050565b600081359050610c7a816112cd565b92915050565b600081359050610c8f816112e4565b92915050565b600060208284031215610cab57610caa6111a1565b5b6000610cb984828501610c6b565b91505092915050565b60008060408385031215610cd957610cd86111a1565b5b6000610ce785828601610c6b565b9250506020610cf885828601610c6b565b9150509250929050565b600080600060608486031215610d1b57610d1a6111a1565b5b6000610d2986828701610c6b565b9350506020610d3a86828701610c6b565b9250506040610d4b86828701610c80565b9150509250925092565b60008060408385031215610d6c57610d6b6111a1565b5b6000610d7a85828601610c6b565b9250506020610d8b85828601610c80565b9150509250929050565b600060208284031215610dab57610daa6111a1565b5b6000610db984828501610c80565b91505092915050565b610dcb81611089565b82525050565b610dda8161109b565b82525050565b6000610deb82610fd1565b610df58185610fdc565b9350610e058185602086016110de565b610e0e816111a6565b840191505092915050565b6000610e26602083610fdc565b9150610e31826111b7565b602082019050919050565b6000610e49602883610fdc565b9150610e54826111e0565b604082019050919050565b6000610e6c602983610fdc565b9150610e778261122f565b604082019050919050565b6000610e8f603283610fdc565b9150610e9a8261127e565b604082019050919050565b610eae816110c7565b82525050565b610ebd816110d1565b82525050565b6000602082019050610ed86000830184610dc2565b92915050565b6000602082019050610ef36000830184610dd1565b92915050565b60006020820190508181036000830152610f138184610de0565b905092915050565b60006020820190508181036000830152610f3481610e19565b9050919050565b60006020820190508181036000830152610f5481610e3c565b9050919050565b60006020820190508181036000830152610f7481610e5f565b9050919050565b60006020820190508181036000830152610f9481610e82565b9050919050565b6000602082019050610fb06000830184610ea5565b92915050565b6000602082019050610fcb6000830184610eb4565b92915050565b600081519050919050565b600082825260208201905092915050565b6000610ff8826110c7565b9150611003836110c7565b9250827fffffffffffffffffffffffffffffffffffffffffffffffffffffffffffffffff0382111561103857611037611143565b5b828201905092915050565b600061104e826110c7565b9150611059836110c7565b92508282101561106c5761106b611143565b5b828203905092915050565b6000611082826110a7565b9050919050565b6000611094826110a7565b9050919050565b60008115159050919050565b600073ffffffffffffffffffffffffffffffffffffffff82169050919050565b6000819050919050565b600060ff82169050919050565b60005b838110156110fc5780820151818401526020810190506110e1565b8381111561110b576000848401525b50505050565b6000600282049050600182168061112957607f821691505b6020821081141561113d5761113c611172565b5b50919050565b7f4e487b7100000000000000000000000000000000000000000000000000000000600052601160045260246000fd5b7f4e487b7100000000000000000000000000000000000000000000000000000000600052602260045260246000fd5b600080fd5b6000601f19601f8301169050919050565b7f616c6c6f7765642076616c7565206372697465726961206e65766572206d6574600082015250565b7f76616c7565206973206c6f776572207468616e20312c20796f752063616e742060008201527f7472616e73666572000000000000000000000000000000000000000000000000602082015250565b7f596f75206e65656420746f20626520746865206f776e657220746f207175657260008201527f792062616c616e63650000000000000000000000000000000000000000000000602082015250565b7f73656e6465722076616c7565206e6565647320746f206265206869676865722060008201527f7468616e2073656e64696e672076616c75650000000000000000000000000000602082015250565b6112d681611077565b81146112e157600080fd5b50565b6112ed816110c7565b81146112f857600080fd5b5056fea264697066735822122026bcbed46cbee8f72670db34adc960f420e6208bdd545c9f9a5662b9f973578064736f6c63430008070033",
					"opcodes": "PUSH1 0x80 PUSH1 0x40 MSTORE CALLVALUE DUP1 ISZERO PUSH2 0x10 JUMPI PUSH1 0x0 DUP1 REVERT JUMPDEST POP PUSH1 0x40 MLOAD PUSH2 0x1D SWAP1 PUSH2 0x87 JUMP JUMPDEST PUSH1 0x40 MLOAD DUP1 SWAP2 SUB SWAP1 PUSH1 0x0 CREATE DUP1 ISZERO DUP1 ISZERO PUSH2 0x39 JUMPI RETURNDATASIZE PUSH1 0x0 DUP1 RETURNDATACOPY RETURNDATASIZE PUSH1 0x0 REVERT JUMPDEST POP PUSH1 0x0 DUP1 PUSH2 0x100 EXP DUP2 SLOAD DUP2 PUSH20 0xFFFFFFFFFFFFFFFFFFFFFFFFFFFFFFFFFFFFFFFF MUL NOT AND SWAP1 DUP4 PUSH20 0xFFFFFFFFFFFFFFFFFFFFFFFFFFFFFFFFFFFFFFFF AND MUL OR SWAP1 SSTORE POP PUSH2 0x2710 PUSH1 0x1 DUP2 SWAP1 SSTORE POP PUSH2 0x94 JUMP JUMPDEST PUSH2 0x1618 DUP1 PUSH2 0xBCE DUP4 CODECOPY ADD SWAP1 JUMP JUMPDEST PUSH2 0xB2B DUP1 PUSH2 0xA3 PUSH1 0x0 CODECOPY PUSH1 0x0 RETURN INVALID PUSH1 0x80 PUSH1 0x40 MSTORE PUSH1 0x4 CALLDATASIZE LT PUSH2 0x34 JUMPI PUSH1 0x0 CALLDATALOAD PUSH1 0xE0 SHR DUP1 PUSH4 0xA6F2AE3A EQ PUSH2 0x39 JUMPI DUP1 PUSH4 0xE4849B32 EQ PUSH2 0x43 JUMPI DUP1 PUSH4 0xFC0C546A EQ PUSH2 0x6C JUMPI JUMPDEST PUSH1 0x0 DUP1 REVERT JUMPDEST PUSH2 0x41 PUSH2 0x97 JUMP JUMPDEST STOP JUMPDEST CALLVALUE DUP1 ISZERO PUSH2 0x4F JUMPI PUSH1 0x0 DUP1 REVERT JUMPDEST POP PUSH2 0x6A PUSH1 0x4 DUP1 CALLDATASIZE SUB DUP2 ADD SWAP1 PUSH2 0x65 SWAP2 SWAP1 PUSH2 0x673 JUMP JUMPDEST PUSH2 0x37A JUMP JUMPDEST STOP JUMPDEST CALLVALUE DUP1 ISZERO PUSH2 0x78 JUMPI PUSH1 0x0 DUP1 REVERT JUMPDEST POP PUSH2 0x81 PUSH2 0x5E3 JUMP JUMPDEST PUSH1 0x40 MLOAD PUSH2 0x8E SWAP2 SWAP1 PUSH2 0x82A JUMP JUMPDEST PUSH1 0x40 MLOAD DUP1 SWAP2 SUB SWAP1 RETURN JUMPDEST PUSH1 0x0 CALLVALUE SWAP1 POP PUSH1 0x0 DUP1 PUSH1 0x0 SWAP1 SLOAD SWAP1 PUSH2 0x100 EXP SWAP1 DIV PUSH20 0xFFFFFFFFFFFFFFFFFFFFFFFFFFFFFFFFFFFFFFFF AND PUSH20 0xFFFFFFFFFFFFFFFFFFFFFFFFFFFFFFFFFFFFFFFF AND PUSH4 0x70A08231 ADDRESS PUSH1 0x40 MLOAD DUP3 PUSH4 0xFFFFFFFF AND PUSH1 0xE0 SHL DUP2 MSTORE PUSH1 0x4 ADD PUSH2 0xF8 SWAP2 SWAP1 PUSH2 0x786 JUMP JUMPDEST PUSH1 0x20 PUSH1 0x40 MLOAD DUP1 DUP4 SUB DUP2 PUSH1 0x0 DUP8 DUP1 EXTCODESIZE ISZERO DUP1 ISZERO PUSH2 0x112 JUMPI PUSH1 0x0 DUP1 REVERT JUMPDEST POP GAS CALL ISZERO DUP1 ISZERO PUSH2 0x126 JUMPI RETURNDATASIZE PUSH1 0x0 DUP1 RETURNDATACOPY RETURNDATASIZE PUSH1 0x0 REVERT JUMPDEST POP POP POP POP PUSH1 0x40 MLOAD RETURNDATASIZE PUSH1 0x1F NOT PUSH1 0x1F DUP3 ADD AND DUP3 ADD DUP1 PUSH1 0x40 MSTORE POP DUP2 ADD SWAP1 PUSH2 0x14A SWAP2 SWAP1 PUSH2 0x6A0 JUMP JUMPDEST SWAP1 POP PUSH1 0x0 PUSH1 0x1 SLOAD CALLVALUE PUSH2 0x15C SWAP2 SWAP1 PUSH2 0x8F1 JUMP JUMPDEST SWAP1 POP PUSH1 0x0 DUP4 GT PUSH2 0x1A1 JUMPI PUSH1 0x40 MLOAD PUSH32 0x8C379A000000000000000000000000000000000000000000000000000000000 DUP2 MSTORE PUSH1 0x4 ADD PUSH2 0x198 SWAP1 PUSH2 0x885 JUMP JUMPDEST PUSH1 0x40 MLOAD DUP1 SWAP2 SUB SWAP1 REVERT JUMPDEST DUP2 DUP2 GT ISZERO PUSH2 0x1E4 JUMPI PUSH1 0x40 MLOAD PUSH32 0x8C379A000000000000000000000000000000000000000000000000000000000 DUP2 MSTORE PUSH1 0x4 ADD PUSH2 0x1DB SWAP1 PUSH2 0x8A5 JUMP JUMPDEST PUSH1 0x40 MLOAD DUP1 SWAP2 SUB SWAP1 REVERT JUMPDEST PUSH1 0x0 DUP1 SLOAD SWAP1 PUSH2 0x100 EXP SWAP1 DIV PUSH20 0xFFFFFFFFFFFFFFFFFFFFFFFFFFFFFFFFFFFFFFFF AND PUSH20 0xFFFFFFFFFFFFFFFFFFFFFFFFFFFFFFFFFFFFFFFF AND PUSH4 0xA9059CBB CALLER DUP4 PUSH1 0x40 MLOAD DUP4 PUSH4 0xFFFFFFFF AND PUSH1 0xE0 SHL DUP2 MSTORE PUSH1 0x4 ADD PUSH2 0x23F SWAP3 SWAP2 SWAP1 PUSH2 0x801 JUMP JUMPDEST PUSH1 0x20 PUSH1 0x40 MLOAD DUP1 DUP4 SUB DUP2 PUSH1 0x0 DUP8 DUP1 EXTCODESIZE ISZERO DUP1 ISZERO PUSH2 0x259 JUMPI PUSH1 0x0 DUP1 REVERT JUMPDEST POP GAS CALL ISZERO DUP1 ISZERO PUSH2 0x26D JUMPI RETURNDATASIZE PUSH1 0x0 DUP1 RETURNDATACOPY RETURNDATASIZE PUSH1 0x0 REVERT JUMPDEST POP POP POP POP PUSH1 0x40 MLOAD RETURNDATASIZE PUSH1 0x1F NOT PUSH1 0x1F DUP3 ADD AND DUP3 ADD DUP1 PUSH1 0x40 MSTORE POP DUP2 ADD SWAP1 PUSH2 0x291 SWAP2 SWAP1 PUSH2 0x646 JUMP JUMPDEST POP PUSH1 0x0 DUP1 SLOAD SWAP1 PUSH2 0x100 EXP SWAP1 DIV PUSH20 0xFFFFFFFFFFFFFFFFFFFFFFFFFFFFFFFFFFFFFFFF AND PUSH20 0xFFFFFFFFFFFFFFFFFFFFFFFFFFFFFFFFFFFFFFFF AND PUSH4 0xCE7C5D7F DUP5 PUSH1 0x40 MLOAD DUP3 PUSH4 0xFFFFFFFF AND PUSH1 0xE0 SHL DUP2 MSTORE PUSH1 0x4 ADD PUSH2 0x2EB SWAP2 SWAP1 PUSH2 0x8C5 JUMP JUMPDEST PUSH1 0x20 PUSH1 0x40 MLOAD DUP1 DUP4 SUB DUP2 PUSH1 0x0 DUP8 DUP1 EXTCODESIZE ISZERO DUP1 ISZERO PUSH2 0x305 JUMPI PUSH1 0x0 DUP1 REVERT JUMPDEST POP GAS CALL ISZERO DUP1 ISZERO PUSH2 0x319 JUMPI RETURNDATASIZE PUSH1 0x0 DUP1 RETURNDATACOPY RETURNDATASIZE PUSH1 0x0 REVERT JUMPDEST POP POP POP POP PUSH1 0x40 MLOAD RETURNDATASIZE PUSH1 0x1F NOT PUSH1 0x1F DUP3 ADD AND DUP3 ADD DUP1 PUSH1 0x40 MSTORE POP DUP2 ADD SWAP1 PUSH2 0x33D SWAP2 SWAP1 PUSH2 0x646 JUMP JUMPDEST POP PUSH32 0x4E08BA899977CF7D4C2964BCE71C6B9A7EF76EE5166A4C1249A1E08016E33EF1 DUP2 PUSH1 0x40 MLOAD PUSH2 0x36D SWAP2 SWAP1 PUSH2 0x8C5 JUMP JUMPDEST PUSH1 0x40 MLOAD DUP1 SWAP2 SUB SWAP1 LOG1 POP POP POP JUMP JUMPDEST PUSH1 0x0 DUP2 GT PUSH2 0x3BD JUMPI PUSH1 0x40 MLOAD PUSH32 0x8C379A000000000000000000000000000000000000000000000000000000000 DUP2 MSTORE PUSH1 0x4 ADD PUSH2 0x3B4 SWAP1 PUSH2 0x865 JUMP JUMPDEST PUSH1 0x40 MLOAD DUP1 SWAP2 SUB SWAP1 REVERT JUMPDEST PUSH1 0x0 DUP1 PUSH1 0x0 SWAP1 SLOAD SWAP1 PUSH2 0x100 EXP SWAP1 DIV PUSH20 0xFFFFFFFFFFFFFFFFFFFFFFFFFFFFFFFFFFFFFFFF AND PUSH20 0xFFFFFFFFFFFFFFFFFFFFFFFFFFFFFFFFFFFFFFFF AND PUSH4 0xDD62ED3E CALLER ADDRESS PUSH1 0x40 MLOAD DUP4 PUSH4 0xFFFFFFFF AND PUSH1 0xE0 SHL DUP2 MSTORE PUSH1 0x4 ADD PUSH2 0x41B SWAP3 SWAP2 SWAP1 PUSH2 0x7A1 JUMP JUMPDEST PUSH1 0x20 PUSH1 0x40 MLOAD DUP1 DUP4 SUB DUP2 PUSH1 0x0 DUP8 DUP1 EXTCODESIZE ISZERO DUP1 ISZERO PUSH2 0x435 JUMPI PUSH1 0x0 DUP1 REVERT JUMPDEST POP GAS CALL ISZERO DUP1 ISZERO PUSH2 0x449 JUMPI RETURNDATASIZE PUSH1 0x0 DUP1 RETURNDATACOPY RETURNDATASIZE PUSH1 0x0 REVERT JUMPDEST POP POP POP POP PUSH1 0x40 MLOAD RETURNDATASIZE PUSH1 0x1F NOT PUSH1 0x1F DUP3 ADD AND DUP3 ADD DUP1 PUSH1 0x40 MSTORE POP DUP2 ADD SWAP1 PUSH2 0x46D SWAP2 SWAP1 PUSH2 0x6A0 JUMP JUMPDEST SWAP1 POP DUP2 DUP2 GT PUSH2 0x4B1 JUMPI PUSH1 0x40 MLOAD PUSH32 0x8C379A000000000000000000000000000000000000000000000000000000000 DUP2 MSTORE PUSH1 0x4 ADD PUSH2 0x4A8 SWAP1 PUSH2 0x845 JUMP JUMPDEST PUSH1 0x40 MLOAD DUP1 SWAP2 SUB SWAP1 REVERT JUMPDEST PUSH1 0x0 DUP1 SLOAD SWAP1 PUSH2 0x100 EXP SWAP1 DIV PUSH20 0xFFFFFFFFFFFFFFFFFFFFFFFFFFFFFFFFFFFFFFFF AND PUSH20 0xFFFFFFFFFFFFFFFFFFFFFFFFFFFFFFFFFFFFFFFF AND PUSH4 0x23B872DD CALLER ADDRESS DUP6 PUSH1 0x40 MLOAD DUP5 PUSH4 0xFFFFFFFF AND PUSH1 0xE0 SHL DUP2 MSTORE PUSH1 0x4 ADD PUSH2 0x50E SWAP4 SWAP3 SWAP2 SWAP1 PUSH2 0x7CA JUMP JUMPDEST PUSH1 0x20 PUSH1 0x40 MLOAD DUP1 DUP4 SUB DUP2 PUSH1 0x0 DUP8 DUP1 EXTCODESIZE ISZERO DUP1 ISZERO PUSH2 0x528 JUMPI PUSH1 0x0 DUP1 REVERT JUMPDEST POP GAS CALL ISZERO DUP1 ISZERO PUSH2 0x53C JUMPI RETURNDATASIZE PUSH1 0x0 DUP1 RETURNDATACOPY RETURNDATASIZE PUSH1 0x0 REVERT JUMPDEST POP POP POP POP PUSH1 0x40 MLOAD RETURNDATASIZE PUSH1 0x1F NOT PUSH1 0x1F DUP3 ADD AND DUP3 ADD DUP1 PUSH1 0x40 MSTORE POP DUP2 ADD SWAP1 PUSH2 0x560 SWAP2 SWAP1 PUSH2 0x646 JUMP JUMPDEST POP CALLER PUSH20 0xFFFFFFFFFFFFFFFFFFFFFFFFFFFFFFFFFFFFFFFF AND PUSH2 0x8FC DUP4 SWAP1 DUP2 ISZERO MUL SWAP1 PUSH1 0x40 MLOAD PUSH1 0x0 PUSH1 0x40 MLOAD DUP1 DUP4 SUB DUP2 DUP6 DUP9 DUP9 CALL SWAP4 POP POP POP POP ISZERO DUP1 ISZERO PUSH2 0x5A7 JUMPI RETURNDATASIZE PUSH1 0x0 DUP1 RETURNDATACOPY RETURNDATASIZE PUSH1 0x0 REVERT JUMPDEST POP PUSH32 0x92F64CA637D023F354075A4BE751B169C1A8A9CCB6D33CDD0CB3520543995727 DUP3 PUSH1 0x40 MLOAD PUSH2 0x5D7 SWAP2 SWAP1 PUSH2 0x8C5 JUMP JUMPDEST PUSH1 0x40 MLOAD DUP1 SWAP2 SUB SWAP1 LOG1 POP POP JUMP JUMPDEST PUSH1 0x0 DUP1 SLOAD SWAP1 PUSH2 0x100 EXP SWAP1 DIV PUSH20 0xFFFFFFFFFFFFFFFFFFFFFFFFFFFFFFFFFFFFFFFF AND DUP2 JUMP JUMPDEST PUSH1 0x0 DUP2 MLOAD SWAP1 POP PUSH2 0x616 DUP2 PUSH2 0xAC7 JUMP JUMPDEST SWAP3 SWAP2 POP POP JUMP JUMPDEST PUSH1 0x0 DUP2 CALLDATALOAD SWAP1 POP PUSH2 0x62B DUP2 PUSH2 0xADE JUMP JUMPDEST SWAP3 SWAP2 POP POP JUMP JUMPDEST PUSH1 0x0 DUP2 MLOAD SWAP1 POP PUSH2 0x640 DUP2 PUSH2 0xADE JUMP JUMPDEST SWAP3 SWAP2 POP POP JUMP JUMPDEST PUSH1 0x0 PUSH1 0x20 DUP3 DUP5 SUB SLT ISZERO PUSH2 0x65C JUMPI PUSH2 0x65B PUSH2 0x9F8 JUMP JUMPDEST JUMPDEST PUSH1 0x0 PUSH2 0x66A DUP5 DUP3 DUP6 ADD PUSH2 0x607 JUMP JUMPDEST SWAP2 POP POP SWAP3 SWAP2 POP POP JUMP JUMPDEST PUSH1 0x0 PUSH1 0x20 DUP3 DUP5 SUB SLT ISZERO PUSH2 0x689 JUMPI PUSH2 0x688 PUSH2 0x9F8 JUMP JUMPDEST JUMPDEST PUSH1 0x0 PUSH2 0x697 DUP5 DUP3 DUP6 ADD PUSH2 0x61C JUMP JUMPDEST SWAP2 POP POP SWAP3 SWAP2 POP POP JUMP JUMPDEST PUSH1 0x0 PUSH1 0x20 DUP3 DUP5 SUB SLT ISZERO PUSH2 0x6B6 JUMPI PUSH2 0x6B5 PUSH2 0x9F8 JUMP JUMPDEST JUMPDEST PUSH1 0x0 PUSH2 0x6C4 DUP5 DUP3 DUP6 ADD PUSH2 0x631 JUMP JUMPDEST SWAP2 POP POP SWAP3 SWAP2 POP POP JUMP JUMPDEST PUSH2 0x6D6 DUP2 PUSH2 0x94B JUMP JUMPDEST DUP3 MSTORE POP POP JUMP JUMPDEST PUSH2 0x6E5 DUP2 PUSH2 0x993 JUMP JUMPDEST DUP3 MSTORE POP POP JUMP JUMPDEST PUSH1 0x0 PUSH2 0x6F8 PUSH1 0x20 DUP4 PUSH2 0x8E0 JUMP JUMPDEST SWAP2 POP PUSH2 0x703 DUP3 PUSH2 0x9FD JUMP JUMPDEST PUSH1 0x20 DUP3 ADD SWAP1 POP SWAP2 SWAP1 POP JUMP JUMPDEST PUSH1 0x0 PUSH2 0x71B PUSH1 0x24 DUP4 PUSH2 0x8E0 JUMP JUMPDEST SWAP2 POP PUSH2 0x726 DUP3 PUSH2 0xA26 JUMP JUMPDEST PUSH1 0x40 DUP3 ADD SWAP1 POP SWAP2 SWAP1 POP JUMP JUMPDEST PUSH1 0x0 PUSH2 0x73E PUSH1 0x20 DUP4 PUSH2 0x8E0 JUMP JUMPDEST SWAP2 POP PUSH2 0x749 DUP3 PUSH2 0xA75 JUMP JUMPDEST PUSH1 0x20 DUP3 ADD SWAP1 POP SWAP2 SWAP1 POP JUMP JUMPDEST PUSH1 0x0 PUSH2 0x761 PUSH1 0x19 DUP4 PUSH2 0x8E0 JUMP JUMPDEST SWAP2 POP PUSH2 0x76C DUP3 PUSH2 0xA9E JUMP JUMPDEST PUSH1 0x20 DUP3 ADD SWAP1 POP SWAP2 SWAP1 POP JUMP JUMPDEST PUSH2 0x780 DUP2 PUSH2 0x989 JUMP JUMPDEST DUP3 MSTORE POP POP JUMP JUMPDEST PUSH1 0x0 PUSH1 0x20 DUP3 ADD SWAP1 POP PUSH2 0x79B PUSH1 0x0 DUP4 ADD DUP5 PUSH2 0x6CD JUMP JUMPDEST SWAP3 SWAP2 POP POP JUMP JUMPDEST PUSH1 0x0 PUSH1 0x40 DUP3 ADD SWAP1 POP PUSH2 0x7B6 PUSH1 0x0 DUP4 ADD DUP6 PUSH2 0x6CD JUMP JUMPDEST PUSH2 0x7C3 PUSH1 0x20 DUP4 ADD DUP5 PUSH2 0x6CD JUMP JUMPDEST SWAP4 SWAP3 POP POP POP JUMP JUMPDEST PUSH1 0x0 PUSH1 0x60 DUP3 ADD SWAP1 POP PUSH2 0x7DF PUSH1 0x0 DUP4 ADD DUP7 PUSH2 0x6CD JUMP JUMPDEST PUSH2 0x7EC PUSH1 0x20 DUP4 ADD DUP6 PUSH2 0x6CD JUMP JUMPDEST PUSH2 0x7F9 PUSH1 0x40 DUP4 ADD DUP5 PUSH2 0x777 JUMP JUMPDEST SWAP5 SWAP4 POP POP POP POP JUMP JUMPDEST PUSH1 0x0 PUSH1 0x40 DUP3 ADD SWAP1 POP PUSH2 0x816 PUSH1 0x0 DUP4 ADD DUP6 PUSH2 0x6CD JUMP JUMPDEST PUSH2 0x823 PUSH1 0x20 DUP4 ADD DUP5 PUSH2 0x777 JUMP JUMPDEST SWAP4 SWAP3 POP POP POP JUMP JUMPDEST PUSH1 0x0 PUSH1 0x20 DUP3 ADD SWAP1 POP PUSH2 0x83F PUSH1 0x0 DUP4 ADD DUP5 PUSH2 0x6DC JUMP JUMPDEST SWAP3 SWAP2 POP POP JUMP JUMPDEST PUSH1 0x0 PUSH1 0x20 DUP3 ADD SWAP1 POP DUP2 DUP2 SUB PUSH1 0x0 DUP4 ADD MSTORE PUSH2 0x85E DUP2 PUSH2 0x6EB JUMP JUMPDEST SWAP1 POP SWAP2 SWAP1 POP JUMP JUMPDEST PUSH1 0x0 PUSH1 0x20 DUP3 ADD SWAP1 POP DUP2 DUP2 SUB PUSH1 0x0 DUP4 ADD MSTORE PUSH2 0x87E DUP2 PUSH2 0x70E JUMP JUMPDEST SWAP1 POP SWAP2 SWAP1 POP JUMP JUMPDEST PUSH1 0x0 PUSH1 0x20 DUP3 ADD SWAP1 POP DUP2 DUP2 SUB PUSH1 0x0 DUP4 ADD MSTORE PUSH2 0x89E DUP2 PUSH2 0x731 JUMP JUMPDEST SWAP1 POP SWAP2 SWAP1 POP JUMP JUMPDEST PUSH1 0x0 PUSH1 0x20 DUP3 ADD SWAP1 POP DUP2 DUP2 SUB PUSH1 0x0 DUP4 ADD MSTORE PUSH2 0x8BE DUP2 PUSH2 0x754 JUMP JUMPDEST SWAP1 POP SWAP2 SWAP1 POP JUMP JUMPDEST PUSH1 0x0 PUSH1 0x20 DUP3 ADD SWAP1 POP PUSH2 0x8DA PUSH1 0x0 DUP4 ADD DUP5 PUSH2 0x777 JUMP JUMPDEST SWAP3 SWAP2 POP POP JUMP JUMPDEST PUSH1 0x0 DUP3 DUP3 MSTORE PUSH1 0x20 DUP3 ADD SWAP1 POP SWAP3 SWAP2 POP POP JUMP JUMPDEST PUSH1 0x0 PUSH2 0x8FC DUP3 PUSH2 0x989 JUMP JUMPDEST SWAP2 POP PUSH2 0x907 DUP4 PUSH2 0x989 JUMP JUMPDEST SWAP3 POP DUP2 PUSH32 0xFFFFFFFFFFFFFFFFFFFFFFFFFFFFFFFFFFFFFFFFFFFFFFFFFFFFFFFFFFFFFFFF DIV DUP4 GT DUP3 ISZERO ISZERO AND ISZERO PUSH2 0x940 JUMPI PUSH2 0x93F PUSH2 0x9C9 JUMP JUMPDEST JUMPDEST DUP3 DUP3 MUL SWAP1 POP SWAP3 SWAP2 POP POP JUMP JUMPDEST PUSH1 0x0 PUSH2 0x956 DUP3 PUSH2 0x969 JUMP JUMPDEST SWAP1 POP SWAP2 SWAP1 POP JUMP JUMPDEST PUSH1 0x0 DUP2 ISZERO ISZERO SWAP1 POP SWAP2 SWAP1 POP JUMP JUMPDEST PUSH1 0x0 PUSH20 0xFFFFFFFFFFFFFFFFFFFFFFFFFFFFFFFFFFFFFFFF DUP3 AND SWAP1 POP SWAP2 SWAP1 POP JUMP JUMPDEST PUSH1 0x0 DUP2 SWAP1 POP SWAP2 SWAP1 POP JUMP JUMPDEST PUSH1 0x0 PUSH2 0x99E DUP3 PUSH2 0x9A5 JUMP JUMPDEST SWAP1 POP SWAP2 SWAP1 POP JUMP JUMPDEST PUSH1 0x0 PUSH2 0x9B0 DUP3 PUSH2 0x9B7 JUMP JUMPDEST SWAP1 POP SWAP2 SWAP1 POP JUMP JUMPDEST PUSH1 0x0 PUSH2 0x9C2 DUP3 PUSH2 0x969 JUMP JUMPDEST SWAP1 POP SWAP2 SWAP1 POP JUMP JUMPDEST PUSH32 0x4E487B7100000000000000000000000000000000000000000000000000000000 PUSH1 0x0 MSTORE PUSH1 0x11 PUSH1 0x4 MSTORE PUSH1 0x24 PUSH1 0x0 REVERT JUMPDEST PUSH1 0x0 DUP1 REVERT JUMPDEST PUSH32 0x506C6561736520636865636B2074686520746F6B656E20616C6C6F77616E6365 PUSH1 0x0 DUP3 ADD MSTORE POP JUMP JUMPDEST PUSH32 0x596F75206E65656420746F206D656E74696F6E20506F6B656D6F6E544420616D PUSH1 0x0 DUP3 ADD MSTORE PUSH32 0x6F756E7400000000000000000000000000000000000000000000000000000000 PUSH1 0x20 DUP3 ADD MSTORE POP JUMP JUMPDEST PUSH32 0x596F75206E65656420746F206D656E74696F6E20457468657220746F20627579 PUSH1 0x0 DUP3 ADD MSTORE POP JUMP JUMPDEST PUSH32 0x4E6F7420456E6F75676820506F6B656D6F6E5444204C65667400000000000000 PUSH1 0x0 DUP3 ADD MSTORE POP JUMP JUMPDEST PUSH2 0xAD0 DUP2 PUSH2 0x95D JUMP JUMPDEST DUP2 EQ PUSH2 0xADB JUMPI PUSH1 0x0 DUP1 REVERT JUMPDEST POP JUMP JUMPDEST PUSH2 0xAE7 DUP2 PUSH2 0x989 JUMP JUMPDEST DUP2 EQ PUSH2 0xAF2 JUMPI PUSH1 0x0 DUP1 REVERT JUMPDEST POP JUMP INVALID LOG2 PUSH5 0x6970667358 0x22 SLT KECCAK256 0xC4 0xC3 PUSH21 0x7285FE74F9BF2ACE40272D555EC31B939868D34F8A NUMBER RETURNDATASIZE LOG3 BALANCE PUSH23 0x5C6E3D64736F6C63430008070033608060405260405180 PUSH1 0x40 ADD PUSH1 0x40 MSTORE DUP1 PUSH1 0x3 DUP2 MSTORE PUSH1 0x20 ADD PUSH32 0x312E300000000000000000000000000000000000000000000000000000000000 DUP2 MSTORE POP PUSH1 0x6 SWAP1 DUP1 MLOAD SWAP1 PUSH1 0x20 ADD SWAP1 PUSH3 0x51 SWAP3 SWAP2 SWAP1 PUSH3 0x1C2 JUMP JUMPDEST POP CALLVALUE DUP1 ISZERO PUSH3 0x5F JUMPI PUSH1 0x0 DUP1 REVERT JUMPDEST POP PUSH8 0x8AC7230489E80000 PUSH1 0x2 DUP2 SWAP1 SSTORE POP CALLER PUSH1 0x7 PUSH1 0x0 PUSH2 0x100 EXP DUP2 SLOAD DUP2 PUSH20 0xFFFFFFFFFFFFFFFFFFFFFFFFFFFFFFFFFFFFFFFF MUL NOT AND SWAP1 DUP4 PUSH20 0xFFFFFFFFFFFFFFFFFFFFFFFFFFFFFFFFFFFFFFFF AND MUL OR SWAP1 SSTORE POP PUSH1 0x2 SLOAD PUSH1 0x0 DUP1 PUSH1 0x7 PUSH1 0x0 SWAP1 SLOAD SWAP1 PUSH2 0x100 EXP SWAP1 DIV PUSH20 0xFFFFFFFFFFFFFFFFFFFFFFFFFFFFFFFFFFFFFFFF AND PUSH20 0xFFFFFFFFFFFFFFFFFFFFFFFFFFFFFFFFFFFFFFFF AND PUSH20 0xFFFFFFFFFFFFFFFFFFFFFFFFFFFFFFFFFFFFFFFF AND DUP2 MSTORE PUSH1 0x20 ADD SWAP1 DUP2 MSTORE PUSH1 0x20 ADD PUSH1 0x0 KECCAK256 DUP2 SWAP1 SSTORE POP PUSH1 0x40 MLOAD DUP1 PUSH1 0x40 ADD PUSH1 0x40 MSTORE DUP1 PUSH1 0x9 DUP2 MSTORE PUSH1 0x20 ADD PUSH32 0x506F6B656D6F6E54440000000000000000000000000000000000000000000000 DUP2 MSTORE POP PUSH1 0x3 SWAP1 DUP1 MLOAD SWAP1 PUSH1 0x20 ADD SWAP1 PUSH3 0x164 SWAP3 SWAP2 SWAP1 PUSH3 0x1C2 JUMP JUMPDEST POP PUSH1 0x40 MLOAD DUP1 PUSH1 0x40 ADD PUSH1 0x40 MSTORE DUP1 PUSH1 0x4 DUP2 MSTORE PUSH1 0x20 ADD PUSH32 0x504B544400000000000000000000000000000000000000000000000000000000 DUP2 MSTORE POP PUSH1 0x4 SWAP1 DUP1 MLOAD SWAP1 PUSH1 0x20 ADD SWAP1 PUSH3 0x1B2 SWAP3 SWAP2 SWAP1 PUSH3 0x1C2 JUMP JUMPDEST POP PUSH2 0x2710 PUSH1 0x8 DUP2 SWAP1 SSTORE POP PUSH3 0x2D7 JUMP JUMPDEST DUP3 DUP1 SLOAD PUSH3 0x1D0 SWAP1 PUSH3 0x272 JUMP JUMPDEST SWAP1 PUSH1 0x0 MSTORE PUSH1 0x20 PUSH1 0x0 KECCAK256 SWAP1 PUSH1 0x1F ADD PUSH1 0x20 SWAP1 DIV DUP2 ADD SWAP3 DUP3 PUSH3 0x1F4 JUMPI PUSH1 0x0 DUP6 SSTORE PUSH3 0x240 JUMP JUMPDEST DUP3 PUSH1 0x1F LT PUSH3 0x20F JUMPI DUP1 MLOAD PUSH1 0xFF NOT AND DUP4 DUP1 ADD OR DUP6 SSTORE PUSH3 0x240 JUMP JUMPDEST DUP3 DUP1 ADD PUSH1 0x1 ADD DUP6 SSTORE DUP3 ISZERO PUSH3 0x240 JUMPI SWAP2 DUP3 ADD JUMPDEST DUP3 DUP2 GT ISZERO PUSH3 0x23F JUMPI DUP3 MLOAD DUP3 SSTORE SWAP2 PUSH1 0x20 ADD SWAP2 SWAP1 PUSH1 0x1 ADD SWAP1 PUSH3 0x222 JUMP JUMPDEST JUMPDEST POP SWAP1 POP PUSH3 0x24F SWAP2 SWAP1 PUSH3 0x253 JUMP JUMPDEST POP SWAP1 JUMP JUMPDEST JUMPDEST DUP1 DUP3 GT ISZERO PUSH3 0x26E JUMPI PUSH1 0x0 DUP2 PUSH1 0x0 SWAP1 SSTORE POP PUSH1 0x1 ADD PUSH3 0x254 JUMP JUMPDEST POP SWAP1 JUMP JUMPDEST PUSH1 0x0 PUSH1 0x2 DUP3 DIV SWAP1 POP PUSH1 0x1 DUP3 AND DUP1 PUSH3 0x28B JUMPI PUSH1 0x7F DUP3 AND SWAP2 POP JUMPDEST PUSH1 0x20 DUP3 LT DUP2 EQ ISZERO PUSH3 0x2A2 JUMPI PUSH3 0x2A1 PUSH3 0x2A8 JUMP JUMPDEST JUMPDEST POP SWAP2 SWAP1 POP JUMP JUMPDEST PUSH32 0x4E487B7100000000000000000000000000000000000000000000000000000000 PUSH1 0x0 MSTORE PUSH1 0x22 PUSH1 0x4 MSTORE PUSH1 0x24 PUSH1 0x0 REVERT JUMPDEST PUSH2 0x1331 DUP1 PUSH3 0x2E7 PUSH1 0x0 CODECOPY PUSH1 0x0 RETURN INVALID PUSH1 0x80 PUSH1 0x40 MSTORE CALLVALUE DUP1 ISZERO PUSH2 0x10 JUMPI PUSH1 0x0 DUP1 REVERT JUMPDEST POP PUSH1 0x4 CALLDATASIZE LT PUSH2 0xCF JUMPI PUSH1 0x0 CALLDATALOAD PUSH1 0xE0 SHR DUP1 PUSH4 0x54FD4D50 GT PUSH2 0x8C JUMPI DUP1 PUSH4 0xA9059CBB GT PUSH2 0x66 JUMPI DUP1 PUSH4 0xA9059CBB EQ PUSH2 0x218 JUMPI DUP1 PUSH4 0xB73FD792 EQ PUSH2 0x248 JUMPI DUP1 PUSH4 0xCE7C5D7F EQ PUSH2 0x266 JUMPI DUP1 PUSH4 0xDD62ED3E EQ PUSH2 0x296 JUMPI PUSH2 0xCF JUMP JUMPDEST DUP1 PUSH4 0x54FD4D50 EQ PUSH2 0x1AC JUMPI DUP1 PUSH4 0x70A08231 EQ PUSH2 0x1CA JUMPI DUP1 PUSH4 0x95D89B41 EQ PUSH2 0x1FA JUMPI PUSH2 0xCF JUMP JUMPDEST DUP1 PUSH4 0x6FDDE03 EQ PUSH2 0xD4 JUMPI DUP1 PUSH4 0x95EA7B3 EQ PUSH2 0xF2 JUMPI DUP1 PUSH4 0x18160DDD EQ PUSH2 0x122 JUMPI DUP1 PUSH4 0x2194F3A2 EQ PUSH2 0x140 JUMPI DUP1 PUSH4 0x23B872DD EQ PUSH2 0x15E JUMPI DUP1 PUSH4 0x313CE567 EQ PUSH2 0x18E JUMPI JUMPDEST PUSH1 0x0 DUP1 REVERT JUMPDEST PUSH2 0xDC PUSH2 0x2C6 JUMP JUMPDEST PUSH1 0x40 MLOAD PUSH2 0xE9 SWAP2 SWAP1 PUSH2 0xEF9 JUMP JUMPDEST PUSH1 0x40 MLOAD DUP1 SWAP2 SUB SWAP1 RETURN JUMPDEST PUSH2 0x10C PUSH1 0x4 DUP1 CALLDATASIZE SUB DUP2 ADD SWAP1 PUSH2 0x107 SWAP2 SWAP1 PUSH2 0xD55 JUMP JUMPDEST PUSH2 0x354 JUMP JUMPDEST PUSH1 0x40 MLOAD PUSH2 0x119 SWAP2 SWAP1 PUSH2 0xEDE JUMP JUMPDEST PUSH1 0x40 MLOAD DUP1 SWAP2 SUB SWAP1 RETURN JUMPDEST PUSH2 0x12A PUSH2 0x446 JUMP JUMPDEST PUSH1 0x40 MLOAD PUSH2 0x137 SWAP2 SWAP1 PUSH2 0xF9B JUMP JUMPDEST PUSH1 0x40 MLOAD DUP1 SWAP2 SUB SWAP1 RETURN JUMPDEST PUSH2 0x148 PUSH2 0x450 JUMP JUMPDEST PUSH1 0x40 MLOAD PUSH2 0x155 SWAP2 SWAP1 PUSH2 0xEC3 JUMP JUMPDEST PUSH1 0x40 MLOAD DUP1 SWAP2 SUB SWAP1 RETURN JUMPDEST PUSH2 0x178 PUSH1 0x4 DUP1 CALLDATASIZE SUB DUP2 ADD SWAP1 PUSH2 0x173 SWAP2 SWAP1 PUSH2 0xD02 JUMP JUMPDEST PUSH2 0x476 JUMP JUMPDEST PUSH1 0x40 MLOAD PUSH2 0x185 SWAP2 SWAP1 PUSH2 0xEDE JUMP JUMPDEST PUSH1 0x40 MLOAD DUP1 SWAP2 SUB SWAP1 RETURN JUMPDEST PUSH2 0x196 PUSH2 0x7A7 JUMP JUMPDEST PUSH1 0x40 MLOAD PUSH2 0x1A3 SWAP2 SWAP1 PUSH2 0xFB6 JUMP JUMPDEST PUSH1 0x40 MLOAD DUP1 SWAP2 SUB SWAP1 RETURN JUMPDEST PUSH2 0x1B4 PUSH2 0x7BA JUMP JUMPDEST PUSH1 0x40 MLOAD PUSH2 0x1C1 SWAP2 SWAP1 PUSH2 0xEF9 JUMP JUMPDEST PUSH1 0x40 MLOAD DUP1 SWAP2 SUB SWAP1 RETURN JUMPDEST PUSH2 0x1E4 PUSH1 0x4 DUP1 CALLDATASIZE SUB DUP2 ADD SWAP1 PUSH2 0x1DF SWAP2 SWAP1 PUSH2 0xC95 JUMP JUMPDEST PUSH2 0x848 JUMP JUMPDEST PUSH1 0x40 MLOAD PUSH2 0x1F1 SWAP2 SWAP1 PUSH2 0xF9B JUMP JUMPDEST PUSH1 0x40 MLOAD DUP1 SWAP2 SUB SWAP1 RETURN JUMPDEST PUSH2 0x202 PUSH2 0x8FE JUMP JUMPDEST PUSH1 0x40 MLOAD PUSH2 0x20F SWAP2 SWAP1 PUSH2 0xEF9 JUMP JUMPDEST PUSH1 0x40 MLOAD DUP1 SWAP2 SUB SWAP1 RETURN JUMPDEST PUSH2 0x232 PUSH1 0x4 DUP1 CALLDATASIZE SUB DUP2 ADD SWAP1 PUSH2 0x22D SWAP2 SWAP1 PUSH2 0xD55 JUMP JUMPDEST PUSH2 0x98C JUMP JUMPDEST PUSH1 0x40 MLOAD PUSH2 0x23F SWAP2 SWAP1 PUSH2 0xEDE JUMP JUMPDEST PUSH1 0x40 MLOAD DUP1 SWAP2 SUB SWAP1 RETURN JUMPDEST PUSH2 0x250 PUSH2 0xB6A JUMP JUMPDEST PUSH1 0x40 MLOAD PUSH2 0x25D SWAP2 SWAP1 PUSH2 0xF9B JUMP JUMPDEST PUSH1 0x40 MLOAD DUP1 SWAP2 SUB SWAP1 RETURN JUMPDEST PUSH2 0x280 PUSH1 0x4 DUP1 CALLDATASIZE SUB DUP2 ADD SWAP1 PUSH2 0x27B SWAP2 SWAP1 PUSH2 0xD95 JUMP JUMPDEST PUSH2 0xB70 JUMP JUMPDEST PUSH1 0x40 MLOAD PUSH2 0x28D SWAP2 SWAP1 PUSH2 0xEDE JUMP JUMPDEST PUSH1 0x40 MLOAD DUP1 SWAP2 SUB SWAP1 RETURN JUMPDEST PUSH2 0x2B0 PUSH1 0x4 DUP1 CALLDATASIZE SUB DUP2 ADD SWAP1 PUSH2 0x2AB SWAP2 SWAP1 PUSH2 0xCC2 JUMP JUMPDEST PUSH2 0xBE4 JUMP JUMPDEST PUSH1 0x40 MLOAD PUSH2 0x2BD SWAP2 SWAP1 PUSH2 0xF9B JUMP JUMPDEST PUSH1 0x40 MLOAD DUP1 SWAP2 SUB SWAP1 RETURN JUMPDEST PUSH1 0x3 DUP1 SLOAD PUSH2 0x2D3 SWAP1 PUSH2 0x1111 JUMP JUMPDEST DUP1 PUSH1 0x1F ADD PUSH1 0x20 DUP1 SWAP2 DIV MUL PUSH1 0x20 ADD PUSH1 0x40 MLOAD SWAP1 DUP2 ADD PUSH1 0x40 MSTORE DUP1 SWAP3 SWAP2 SWAP1 DUP2 DUP2 MSTORE PUSH1 0x20 ADD DUP3 DUP1 SLOAD PUSH2 0x2FF SWAP1 PUSH2 0x1111 JUMP JUMPDEST DUP1 ISZERO PUSH2 0x34C JUMPI DUP1 PUSH1 0x1F LT PUSH2 0x321 JUMPI PUSH2 0x100 DUP1 DUP4 SLOAD DIV MUL DUP4 MSTORE SWAP2 PUSH1 0x20 ADD SWAP2 PUSH2 0x34C JUMP JUMPDEST DUP3 ADD SWAP2 SWAP1 PUSH1 0x0 MSTORE PUSH1 0x20 PUSH1 0x0 KECCAK256 SWAP1 JUMPDEST DUP2 SLOAD DUP2 MSTORE SWAP1 PUSH1 0x1 ADD SWAP1 PUSH1 0x20 ADD DUP1 DUP4 GT PUSH2 0x32F JUMPI DUP3 SWAP1 SUB PUSH1 0x1F AND DUP3 ADD SWAP2 JUMPDEST POP POP POP POP POP DUP2 JUMP JUMPDEST PUSH1 0x0 DUP2 PUSH1 0x1 PUSH1 0x0 CALLER PUSH20 0xFFFFFFFFFFFFFFFFFFFFFFFFFFFFFFFFFFFFFFFF AND PUSH20 0xFFFFFFFFFFFFFFFFFFFFFFFFFFFFFFFFFFFFFFFF AND DUP2 MSTORE PUSH1 0x20 ADD SWAP1 DUP2 MSTORE PUSH1 0x20 ADD PUSH1 0x0 KECCAK256 PUSH1 0x0 DUP6 PUSH20 0xFFFFFFFFFFFFFFFFFFFFFFFFFFFFFFFFFFFFFFFF AND PUSH20 0xFFFFFFFFFFFFFFFFFFFFFFFFFFFFFFFFFFFFFFFF AND DUP2 MSTORE PUSH1 0x20 ADD SWAP1 DUP2 MSTORE PUSH1 0x20 ADD PUSH1 0x0 KECCAK256 DUP2 SWAP1 SSTORE POP DUP3 PUSH20 0xFFFFFFFFFFFFFFFFFFFFFFFFFFFFFFFFFFFFFFFF AND CALLER PUSH20 0xFFFFFFFFFFFFFFFFFFFFFFFFFFFFFFFFFFFFFFFF AND PUSH32 0x8C5BE1E5EBEC7D5BD14F71427D1E84F3DD0314C0F7B2291E5B200AC8C7C3B925 DUP5 PUSH1 0x40 MLOAD PUSH2 0x434 SWAP2 SWAP1 PUSH2 0xF9B JUMP JUMPDEST PUSH1 0x40 MLOAD DUP1 SWAP2 SUB SWAP1 LOG3 PUSH1 0x1 SWAP1 POP SWAP3 SWAP2 POP POP JUMP JUMPDEST PUSH1 0x0 PUSH1 0x2 SLOAD SWAP1 POP SWAP1 JUMP JUMPDEST PUSH1 0x7 PUSH1 0x0 SWAP1 SLOAD SWAP1 PUSH2 0x100 EXP SWAP1 DIV PUSH20 0xFFFFFFFFFFFFFFFFFFFFFFFFFFFFFFFFFFFFFFFF AND DUP2 JUMP JUMPDEST PUSH1 0x0 DUP1 DUP3 GT PUSH2 0x4BA JUMPI PUSH1 0x40 MLOAD PUSH32 0x8C379A000000000000000000000000000000000000000000000000000000000 DUP2 MSTORE PUSH1 0x4 ADD PUSH2 0x4B1 SWAP1 PUSH2 0xF3B JUMP JUMPDEST PUSH1 0x40 MLOAD DUP1 SWAP2 SUB SWAP1 REVERT JUMPDEST DUP2 PUSH1 0x0 DUP1 DUP7 PUSH20 0xFFFFFFFFFFFFFFFFFFFFFFFFFFFFFFFFFFFFFFFF AND PUSH20 0xFFFFFFFFFFFFFFFFFFFFFFFFFFFFFFFFFFFFFFFF AND DUP2 MSTORE PUSH1 0x20 ADD SWAP1 DUP2 MSTORE PUSH1 0x20 ADD PUSH1 0x0 KECCAK256 SLOAD LT ISZERO PUSH2 0x53B JUMPI PUSH1 0x40 MLOAD PUSH32 0x8C379A000000000000000000000000000000000000000000000000000000000 DUP2 MSTORE PUSH1 0x4 ADD PUSH2 0x532 SWAP1 PUSH2 0xF7B JUMP JUMPDEST PUSH1 0x40 MLOAD DUP1 SWAP2 SUB SWAP1 REVERT JUMPDEST DUP2 PUSH1 0x1 PUSH1 0x0 DUP7 PUSH20 0xFFFFFFFFFFFFFFFFFFFFFFFFFFFFFFFFFFFFFFFF AND PUSH20 0xFFFFFFFFFFFFFFFFFFFFFFFFFFFFFFFFFFFFFFFF AND DUP2 MSTORE PUSH1 0x20 ADD SWAP1 DUP2 MSTORE PUSH1 0x20 ADD PUSH1 0x0 KECCAK256 PUSH1 0x0 CALLER PUSH20 0xFFFFFFFFFFFFFFFFFFFFFFFFFFFFFFFFFFFFFFFF AND PUSH20 0xFFFFFFFFFFFFFFFFFFFFFFFFFFFFFFFFFFFFFFFF AND DUP2 MSTORE PUSH1 0x20 ADD SWAP1 DUP2 MSTORE PUSH1 0x20 ADD PUSH1 0x0 KECCAK256 SLOAD LT ISZERO PUSH2 0x5FA JUMPI PUSH1 0x40 MLOAD PUSH32 0x8C379A000000000000000000000000000000000000000000000000000000000 DUP2 MSTORE PUSH1 0x4 ADD PUSH2 0x5F1 SWAP1 PUSH2 0xF1B JUMP JUMPDEST PUSH1 0x40 MLOAD DUP1 SWAP2 SUB SWAP1 REVERT JUMPDEST DUP2 PUSH1 0x0 DUP1 DUP6 PUSH20 0xFFFFFFFFFFFFFFFFFFFFFFFFFFFFFFFFFFFFFFFF AND PUSH20 0xFFFFFFFFFFFFFFFFFFFFFFFFFFFFFFFFFFFFFFFF AND DUP2 MSTORE PUSH1 0x20 ADD SWAP1 DUP2 MSTORE PUSH1 0x20 ADD PUSH1 0x0 KECCAK256 PUSH1 0x0 DUP3 DUP3 SLOAD PUSH2 0x648 SWAP2 SWAP1 PUSH2 0xFED JUMP JUMPDEST SWAP3 POP POP DUP2 SWAP1 SSTORE POP DUP2 PUSH1 0x0 DUP1 DUP7 PUSH20 0xFFFFFFFFFFFFFFFFFFFFFFFFFFFFFFFFFFFFFFFF AND PUSH20 0xFFFFFFFFFFFFFFFFFFFFFFFFFFFFFFFFFFFFFFFF AND DUP2 MSTORE PUSH1 0x20 ADD SWAP1 DUP2 MSTORE PUSH1 0x20 ADD PUSH1 0x0 KECCAK256 PUSH1 0x0 DUP3 DUP3 SLOAD PUSH2 0x69D SWAP2 SWAP1 PUSH2 0x1043 JUMP JUMPDEST SWAP3 POP POP DUP2 SWAP1 SSTORE POP DUP2 PUSH1 0x1 PUSH1 0x0 DUP7 PUSH20 0xFFFFFFFFFFFFFFFFFFFFFFFFFFFFFFFFFFFFFFFF AND PUSH20 0xFFFFFFFFFFFFFFFFFFFFFFFFFFFFFFFFFFFFFFFF AND DUP2 MSTORE PUSH1 0x20 ADD SWAP1 DUP2 MSTORE PUSH1 0x20 ADD PUSH1 0x0 KECCAK256 PUSH1 0x0 CALLER PUSH20 0xFFFFFFFFFFFFFFFFFFFFFFFFFFFFFFFFFFFFFFFF AND PUSH20 0xFFFFFFFFFFFFFFFFFFFFFFFFFFFFFFFFFFFFFFFF AND DUP2 MSTORE PUSH1 0x20 ADD SWAP1 DUP2 MSTORE PUSH1 0x20 ADD PUSH1 0x0 KECCAK256 PUSH1 0x0 DUP3 DUP3 SLOAD PUSH2 0x730 SWAP2 SWAP1 PUSH2 0x1043 JUMP JUMPDEST SWAP3 POP POP DUP2 SWAP1 SSTORE POP DUP3 PUSH20 0xFFFFFFFFFFFFFFFFFFFFFFFFFFFFFFFFFFFFFFFF AND DUP5 PUSH20 0xFFFFFFFFFFFFFFFFFFFFFFFFFFFFFFFFFFFFFFFF AND PUSH32 0xDDF252AD1BE2C89B69C2B068FC378DAA952BA7F163C4A11628F55A4DF523B3EF DUP5 PUSH1 0x40 MLOAD PUSH2 0x794 SWAP2 SWAP1 PUSH2 0xF9B JUMP JUMPDEST PUSH1 0x40 MLOAD DUP1 SWAP2 SUB SWAP1 LOG3 PUSH1 0x1 SWAP1 POP SWAP4 SWAP3 POP POP POP JUMP JUMPDEST PUSH1 0x5 PUSH1 0x0 SWAP1 SLOAD SWAP1 PUSH2 0x100 EXP SWAP1 DIV PUSH1 0xFF AND DUP2 JUMP JUMPDEST PUSH1 0x6 DUP1 SLOAD PUSH2 0x7C7 SWAP1 PUSH2 0x1111 JUMP JUMPDEST DUP1 PUSH1 0x1F ADD PUSH1 0x20 DUP1 SWAP2 DIV MUL PUSH1 0x20 ADD PUSH1 0x40 MLOAD SWAP1 DUP2 ADD PUSH1 0x40 MSTORE DUP1 SWAP3 SWAP2 SWAP1 DUP2 DUP2 MSTORE PUSH1 0x20 ADD DUP3 DUP1 SLOAD PUSH2 0x7F3 SWAP1 PUSH2 0x1111 JUMP JUMPDEST DUP1 ISZERO PUSH2 0x840 JUMPI DUP1 PUSH1 0x1F LT PUSH2 0x815 JUMPI PUSH2 0x100 DUP1 DUP4 SLOAD DIV MUL DUP4 MSTORE SWAP2 PUSH1 0x20 ADD SWAP2 PUSH2 0x840 JUMP JUMPDEST DUP3 ADD SWAP2 SWAP1 PUSH1 0x0 MSTORE PUSH1 0x20 PUSH1 0x0 KECCAK256 SWAP1 JUMPDEST DUP2 SLOAD DUP2 MSTORE SWAP1 PUSH1 0x1 ADD SWAP1 PUSH1 0x20 ADD DUP1 DUP4 GT PUSH2 0x823 JUMPI DUP3 SWAP1 SUB PUSH1 0x1F AND DUP3 ADD SWAP2 JUMPDEST POP POP POP POP POP DUP2 JUMP JUMPDEST PUSH1 0x0 CALLER PUSH20 0xFFFFFFFFFFFFFFFFFFFFFFFFFFFFFFFFFFFFFFFF AND DUP3 PUSH20 0xFFFFFFFFFFFFFFFFFFFFFFFFFFFFFFFFFFFFFFFF AND EQ PUSH2 0x8B8 JUMPI PUSH1 0x40 MLOAD PUSH32 0x8C379A000000000000000000000000000000000000000000000000000000000 DUP2 MSTORE PUSH1 0x4 ADD PUSH2 0x8AF SWAP1 PUSH2 0xF5B JUMP JUMPDEST PUSH1 0x40 MLOAD DUP1 SWAP2 SUB SWAP1 REVERT JUMPDEST PUSH1 0x0 DUP1 DUP4 PUSH20 0xFFFFFFFFFFFFFFFFFFFFFFFFFFFFFFFFFFFFFFFF AND PUSH20 0xFFFFFFFFFFFFFFFFFFFFFFFFFFFFFFFFFFFFFFFF AND DUP2 MSTORE PUSH1 0x20 ADD SWAP1 DUP2 MSTORE PUSH1 0x20 ADD PUSH1 0x0 KECCAK256 SLOAD SWAP1 POP SWAP2 SWAP1 POP JUMP JUMPDEST PUSH1 0x4 DUP1 SLOAD PUSH2 0x90B SWAP1 PUSH2 0x1111 JUMP JUMPDEST DUP1 PUSH1 0x1F ADD PUSH1 0x20 DUP1 SWAP2 DIV MUL PUSH1 0x20 ADD PUSH1 0x40 MLOAD SWAP1 DUP2 ADD PUSH1 0x40 MSTORE DUP1 SWAP3 SWAP2 SWAP1 DUP2 DUP2 MSTORE PUSH1 0x20 ADD DUP3 DUP1 SLOAD PUSH2 0x937 SWAP1 PUSH2 0x1111 JUMP JUMPDEST DUP1 ISZERO PUSH2 0x984 JUMPI DUP1 PUSH1 0x1F LT PUSH2 0x959 JUMPI PUSH2 0x100 DUP1 DUP4 SLOAD DIV MUL DUP4 MSTORE SWAP2 PUSH1 0x20 ADD SWAP2 PUSH2 0x984 JUMP JUMPDEST DUP3 ADD SWAP2 SWAP1 PUSH1 0x0 MSTORE PUSH1 0x20 PUSH1 0x0 KECCAK256 SWAP1 JUMPDEST DUP2 SLOAD DUP2 MSTORE SWAP1 PUSH1 0x1 ADD SWAP1 PUSH1 0x20 ADD DUP1 DUP4 GT PUSH2 0x967 JUMPI DUP3 SWAP1 SUB PUSH1 0x1F AND DUP3 ADD SWAP2 JUMPDEST POP POP POP POP POP DUP2 JUMP JUMPDEST PUSH1 0x0 DUP1 DUP3 GT PUSH2 0x9D0 JUMPI PUSH1 0x40 MLOAD PUSH32 0x8C379A000000000000000000000000000000000000000000000000000000000 DUP2 MSTORE PUSH1 0x4 ADD PUSH2 0x9C7 SWAP1 PUSH2 0xF3B JUMP JUMPDEST PUSH1 0x40 MLOAD DUP1 SWAP2 SUB SWAP1 REVERT JUMPDEST DUP2 PUSH1 0x0 DUP1 CALLER PUSH20 0xFFFFFFFFFFFFFFFFFFFFFFFFFFFFFFFFFFFFFFFF AND PUSH20 0xFFFFFFFFFFFFFFFFFFFFFFFFFFFFFFFFFFFFFFFF AND DUP2 MSTORE PUSH1 0x20 ADD SWAP1 DUP2 MSTORE PUSH1 0x20 ADD PUSH1 0x0 KECCAK256 SLOAD LT ISZERO PUSH2 0xA51 JUMPI PUSH1 0x40 MLOAD PUSH32 0x8C379A000000000000000000000000000000000000000000000000000000000 DUP2 MSTORE PUSH1 0x4 ADD PUSH2 0xA48 SWAP1 PUSH2 0xF7B JUMP JUMPDEST PUSH1 0x40 MLOAD DUP1 SWAP2 SUB SWAP1 REVERT JUMPDEST DUP2 PUSH1 0x0 DUP1 CALLER PUSH20 0xFFFFFFFFFFFFFFFFFFFFFFFFFFFFFFFFFFFFFFFF AND PUSH20 0xFFFFFFFFFFFFFFFFFFFFFFFFFFFFFFFFFFFFFFFF AND DUP2 MSTORE PUSH1 0x20 ADD SWAP1 DUP2 MSTORE PUSH1 0x20 ADD PUSH1 0x0 KECCAK256 PUSH1 0x0 DUP3 DUP3 SLOAD PUSH2 0xA9F SWAP2 SWAP1 PUSH2 0x1043 JUMP JUMPDEST SWAP3 POP POP DUP2 SWAP1 SSTORE POP DUP2 PUSH1 0x0 DUP1 DUP6 PUSH20 0xFFFFFFFFFFFFFFFFFFFFFFFFFFFFFFFFFFFFFFFF AND PUSH20 0xFFFFFFFFFFFFFFFFFFFFFFFFFFFFFFFFFFFFFFFF AND DUP2 MSTORE PUSH1 0x20 ADD SWAP1 DUP2 MSTORE PUSH1 0x20 ADD PUSH1 0x0 KECCAK256 PUSH1 0x0 DUP3 DUP3 SLOAD PUSH2 0xAF4 SWAP2 SWAP1 PUSH2 0xFED JUMP JUMPDEST SWAP3 POP POP DUP2 SWAP1 SSTORE POP DUP3 PUSH20 0xFFFFFFFFFFFFFFFFFFFFFFFFFFFFFFFFFFFFFFFF AND CALLER PUSH20 0xFFFFFFFFFFFFFFFFFFFFFFFFFFFFFFFFFFFFFFFF AND PUSH32 0xDDF252AD1BE2C89B69C2B068FC378DAA952BA7F163C4A11628F55A4DF523B3EF DUP5 PUSH1 0x40 MLOAD PUSH2 0xB58 SWAP2 SWAP1 PUSH2 0xF9B JUMP JUMPDEST PUSH1 0x40 MLOAD DUP1 SWAP2 SUB SWAP1 LOG3 PUSH1 0x1 SWAP1 POP SWAP3 SWAP2 POP POP JUMP JUMPDEST PUSH1 0x2 SLOAD DUP2 JUMP JUMPDEST PUSH1 0x0 PUSH1 0x7 PUSH1 0x0 SWAP1 SLOAD SWAP1 PUSH2 0x100 EXP SWAP1 DIV PUSH20 0xFFFFFFFFFFFFFFFFFFFFFFFFFFFFFFFFFFFFFFFF AND PUSH20 0xFFFFFFFFFFFFFFFFFFFFFFFFFFFFFFFFFFFFFFFF AND PUSH2 0x8FC DUP4 SWAP1 DUP2 ISZERO MUL SWAP1 PUSH1 0x40 MLOAD PUSH1 0x0 PUSH1 0x40 MLOAD DUP1 DUP4 SUB DUP2 DUP6 DUP9 DUP9 CALL SWAP4 POP POP POP POP ISZERO DUP1 ISZERO PUSH2 0xBDA JUMPI RETURNDATASIZE PUSH1 0x0 DUP1 RETURNDATACOPY RETURNDATASIZE PUSH1 0x0 REVERT JUMPDEST POP PUSH1 0x1 SWAP1 POP SWAP2 SWAP1 POP JUMP JUMPDEST PUSH1 0x0 PUSH1 0x1 PUSH1 0x0 DUP5 PUSH20 0xFFFFFFFFFFFFFFFFFFFFFFFFFFFFFFFFFFFFFFFF AND PUSH20 0xFFFFFFFFFFFFFFFFFFFFFFFFFFFFFFFFFFFFFFFF AND DUP2 MSTORE PUSH1 0x20 ADD SWAP1 DUP2 MSTORE PUSH1 0x20 ADD PUSH1 0x0 KECCAK256 PUSH1 0x0 DUP4 PUSH20 0xFFFFFFFFFFFFFFFFFFFFFFFFFFFFFFFFFFFFFFFF AND PUSH20 0xFFFFFFFFFFFFFFFFFFFFFFFFFFFFFFFFFFFFFFFF AND DUP2 MSTORE PUSH1 0x20 ADD SWAP1 DUP2 MSTORE PUSH1 0x20 ADD PUSH1 0x0 KECCAK256 SLOAD SWAP1 POP SWAP3 SWAP2 POP POP JUMP JUMPDEST PUSH1 0x0 DUP2 CALLDATALOAD SWAP1 POP PUSH2 0xC7A DUP2 PUSH2 0x12CD JUMP JUMPDEST SWAP3 SWAP2 POP POP JUMP JUMPDEST PUSH1 0x0 DUP2 CALLDATALOAD SWAP1 POP PUSH2 0xC8F DUP2 PUSH2 0x12E4 JUMP JUMPDEST SWAP3 SWAP2 POP POP JUMP JUMPDEST PUSH1 0x0 PUSH1 0x20 DUP3 DUP5 SUB SLT ISZERO PUSH2 0xCAB JUMPI PUSH2 0xCAA PUSH2 0x11A1 JUMP JUMPDEST JUMPDEST PUSH1 0x0 PUSH2 0xCB9 DUP5 DUP3 DUP6 ADD PUSH2 0xC6B JUMP JUMPDEST SWAP2 POP POP SWAP3 SWAP2 POP POP JUMP JUMPDEST PUSH1 0x0 DUP1 PUSH1 0x40 DUP4 DUP6 SUB SLT ISZERO PUSH2 0xCD9 JUMPI PUSH2 0xCD8 PUSH2 0x11A1 JUMP JUMPDEST JUMPDEST PUSH1 0x0 PUSH2 0xCE7 DUP6 DUP3 DUP7 ADD PUSH2 0xC6B JUMP JUMPDEST SWAP3 POP POP PUSH1 0x20 PUSH2 0xCF8 DUP6 DUP3 DUP7 ADD PUSH2 0xC6B JUMP JUMPDEST SWAP2 POP POP SWAP3 POP SWAP3 SWAP1 POP JUMP JUMPDEST PUSH1 0x0 DUP1 PUSH1 0x0 PUSH1 0x60 DUP5 DUP7 SUB SLT ISZERO PUSH2 0xD1B JUMPI PUSH2 0xD1A PUSH2 0x11A1 JUMP JUMPDEST JUMPDEST PUSH1 0x0 PUSH2 0xD29 DUP7 DUP3 DUP8 ADD PUSH2 0xC6B JUMP JUMPDEST SWAP4 POP POP PUSH1 0x20 PUSH2 0xD3A DUP7 DUP3 DUP8 ADD PUSH2 0xC6B JUMP JUMPDEST SWAP3 POP POP PUSH1 0x40 PUSH2 0xD4B DUP7 DUP3 DUP8 ADD PUSH2 0xC80 JUMP JUMPDEST SWAP2 POP POP SWAP3 POP SWAP3 POP SWAP3 JUMP JUMPDEST PUSH1 0x0 DUP1 PUSH1 0x40 DUP4 DUP6 SUB SLT ISZERO PUSH2 0xD6C JUMPI PUSH2 0xD6B PUSH2 0x11A1 JUMP JUMPDEST JUMPDEST PUSH1 0x0 PUSH2 0xD7A DUP6 DUP3 DUP7 ADD PUSH2 0xC6B JUMP JUMPDEST SWAP3 POP POP PUSH1 0x20 PUSH2 0xD8B DUP6 DUP3 DUP7 ADD PUSH2 0xC80 JUMP JUMPDEST SWAP2 POP POP SWAP3 POP SWAP3 SWAP1 POP JUMP JUMPDEST PUSH1 0x0 PUSH1 0x20 DUP3 DUP5 SUB SLT ISZERO PUSH2 0xDAB JUMPI PUSH2 0xDAA PUSH2 0x11A1 JUMP JUMPDEST JUMPDEST PUSH1 0x0 PUSH2 0xDB9 DUP5 DUP3 DUP6 ADD PUSH2 0xC80 JUMP JUMPDEST SWAP2 POP POP SWAP3 SWAP2 POP POP JUMP JUMPDEST PUSH2 0xDCB DUP2 PUSH2 0x1089 JUMP JUMPDEST DUP3 MSTORE POP POP JUMP JUMPDEST PUSH2 0xDDA DUP2 PUSH2 0x109B JUMP JUMPDEST DUP3 MSTORE POP POP JUMP JUMPDEST PUSH1 0x0 PUSH2 0xDEB DUP3 PUSH2 0xFD1 JUMP JUMPDEST PUSH2 0xDF5 DUP2 DUP6 PUSH2 0xFDC JUMP JUMPDEST SWAP4 POP PUSH2 0xE05 DUP2 DUP6 PUSH1 0x20 DUP7 ADD PUSH2 0x10DE JUMP JUMPDEST PUSH2 0xE0E DUP2 PUSH2 0x11A6 JUMP JUMPDEST DUP5 ADD SWAP2 POP POP SWAP3 SWAP2 POP POP JUMP JUMPDEST PUSH1 0x0 PUSH2 0xE26 PUSH1 0x20 DUP4 PUSH2 0xFDC JUMP JUMPDEST SWAP2 POP PUSH2 0xE31 DUP3 PUSH2 0x11B7 JUMP JUMPDEST PUSH1 0x20 DUP3 ADD SWAP1 POP SWAP2 SWAP1 POP JUMP JUMPDEST PUSH1 0x0 PUSH2 0xE49 PUSH1 0x28 DUP4 PUSH2 0xFDC JUMP JUMPDEST SWAP2 POP PUSH2 0xE54 DUP3 PUSH2 0x11E0 JUMP JUMPDEST PUSH1 0x40 DUP3 ADD SWAP1 POP SWAP2 SWAP1 POP JUMP JUMPDEST PUSH1 0x0 PUSH2 0xE6C PUSH1 0x29 DUP4 PUSH2 0xFDC JUMP JUMPDEST SWAP2 POP PUSH2 0xE77 DUP3 PUSH2 0x122F JUMP JUMPDEST PUSH1 0x40 DUP3 ADD SWAP1 POP SWAP2 SWAP1 POP JUMP JUMPDEST PUSH1 0x0 PUSH2 0xE8F PUSH1 0x32 DUP4 PUSH2 0xFDC JUMP JUMPDEST SWAP2 POP PUSH2 0xE9A DUP3 PUSH2 0x127E JUMP JUMPDEST PUSH1 0x40 DUP3 ADD SWAP1 POP SWAP2 SWAP1 POP JUMP JUMPDEST PUSH2 0xEAE DUP2 PUSH2 0x10C7 JUMP JUMPDEST DUP3 MSTORE POP POP JUMP JUMPDEST PUSH2 0xEBD DUP2 PUSH2 0x10D1 JUMP JUMPDEST DUP3 MSTORE POP POP JUMP JUMPDEST PUSH1 0x0 PUSH1 0x20 DUP3 ADD SWAP1 POP PUSH2 0xED8 PUSH1 0x0 DUP4 ADD DUP5 PUSH2 0xDC2 JUMP JUMPDEST SWAP3 SWAP2 POP POP JUMP JUMPDEST PUSH1 0x0 PUSH1 0x20 DUP3 ADD SWAP1 POP PUSH2 0xEF3 PUSH1 0x0 DUP4 ADD DUP5 PUSH2 0xDD1 JUMP JUMPDEST SWAP3 SWAP2 POP POP JUMP JUMPDEST PUSH1 0x0 PUSH1 0x20 DUP3 ADD SWAP1 POP DUP2 DUP2 SUB PUSH1 0x0 DUP4 ADD MSTORE PUSH2 0xF13 DUP2 DUP5 PUSH2 0xDE0 JUMP JUMPDEST SWAP1 POP SWAP3 SWAP2 POP POP JUMP JUMPDEST PUSH1 0x0 PUSH1 0x20 DUP3 ADD SWAP1 POP DUP2 DUP2 SUB PUSH1 0x0 DUP4 ADD MSTORE PUSH2 0xF34 DUP2 PUSH2 0xE19 JUMP JUMPDEST SWAP1 POP SWAP2 SWAP1 POP JUMP JUMPDEST PUSH1 0x0 PUSH1 0x20 DUP3 ADD SWAP1 POP DUP2 DUP2 SUB PUSH1 0x0 DUP4 ADD MSTORE PUSH2 0xF54 DUP2 PUSH2 0xE3C JUMP JUMPDEST SWAP1 POP SWAP2 SWAP1 POP JUMP JUMPDEST PUSH1 0x0 PUSH1 0x20 DUP3 ADD SWAP1 POP DUP2 DUP2 SUB PUSH1 0x0 DUP4 ADD MSTORE PUSH2 0xF74 DUP2 PUSH2 0xE5F JUMP JUMPDEST SWAP1 POP SWAP2 SWAP1 POP JUMP JUMPDEST PUSH1 0x0 PUSH1 0x20 DUP3 ADD SWAP1 POP DUP2 DUP2 SUB PUSH1 0x0 DUP4 ADD MSTORE PUSH2 0xF94 DUP2 PUSH2 0xE82 JUMP JUMPDEST SWAP1 POP SWAP2 SWAP1 POP JUMP JUMPDEST PUSH1 0x0 PUSH1 0x20 DUP3 ADD SWAP1 POP PUSH2 0xFB0 PUSH1 0x0 DUP4 ADD DUP5 PUSH2 0xEA5 JUMP JUMPDEST SWAP3 SWAP2 POP POP JUMP JUMPDEST PUSH1 0x0 PUSH1 0x20 DUP3 ADD SWAP1 POP PUSH2 0xFCB PUSH1 0x0 DUP4 ADD DUP5 PUSH2 0xEB4 JUMP JUMPDEST SWAP3 SWAP2 POP POP JUMP JUMPDEST PUSH1 0x0 DUP2 MLOAD SWAP1 POP SWAP2 SWAP1 POP JUMP JUMPDEST PUSH1 0x0 DUP3 DUP3 MSTORE PUSH1 0x20 DUP3 ADD SWAP1 POP SWAP3 SWAP2 POP POP JUMP JUMPDEST PUSH1 0x0 PUSH2 0xFF8 DUP3 PUSH2 0x10C7 JUMP JUMPDEST SWAP2 POP PUSH2 0x1003 DUP4 PUSH2 0x10C7 JUMP JUMPDEST SWAP3 POP DUP3 PUSH32 0xFFFFFFFFFFFFFFFFFFFFFFFFFFFFFFFFFFFFFFFFFFFFFFFFFFFFFFFFFFFFFFFF SUB DUP3 GT ISZERO PUSH2 0x1038 JUMPI PUSH2 0x1037 PUSH2 0x1143 JUMP JUMPDEST JUMPDEST DUP3 DUP3 ADD SWAP1 POP SWAP3 SWAP2 POP POP JUMP JUMPDEST PUSH1 0x0 PUSH2 0x104E DUP3 PUSH2 0x10C7 JUMP JUMPDEST SWAP2 POP PUSH2 0x1059 DUP4 PUSH2 0x10C7 JUMP JUMPDEST SWAP3 POP DUP3 DUP3 LT ISZERO PUSH2 0x106C JUMPI PUSH2 0x106B PUSH2 0x1143 JUMP JUMPDEST JUMPDEST DUP3 DUP3 SUB SWAP1 POP SWAP3 SWAP2 POP POP JUMP JUMPDEST PUSH1 0x0 PUSH2 0x1082 DUP3 PUSH2 0x10A7 JUMP JUMPDEST SWAP1 POP SWAP2 SWAP1 POP JUMP JUMPDEST PUSH1 0x0 PUSH2 0x1094 DUP3 PUSH2 0x10A7 JUMP JUMPDEST SWAP1 POP SWAP2 SWAP1 POP JUMP JUMPDEST PUSH1 0x0 DUP2 ISZERO ISZERO SWAP1 POP SWAP2 SWAP1 POP JUMP JUMPDEST PUSH1 0x0 PUSH20 0xFFFFFFFFFFFFFFFFFFFFFFFFFFFFFFFFFFFFFFFF DUP3 AND SWAP1 POP SWAP2 SWAP1 POP JUMP JUMPDEST PUSH1 0x0 DUP2 SWAP1 POP SWAP2 SWAP1 POP JUMP JUMPDEST PUSH1 0x0 PUSH1 0xFF DUP3 AND SWAP1 POP SWAP2 SWAP1 POP JUMP JUMPDEST PUSH1 0x0 JUMPDEST DUP4 DUP2 LT ISZERO PUSH2 0x10FC JUMPI DUP1 DUP3 ADD MLOAD DUP2 DUP5 ADD MSTORE PUSH1 0x20 DUP2 ADD SWAP1 POP PUSH2 0x10E1 JUMP JUMPDEST DUP4 DUP2 GT ISZERO PUSH2 0x110B JUMPI PUSH1 0x0 DUP5 DUP5 ADD MSTORE JUMPDEST POP POP POP POP JUMP JUMPDEST PUSH1 0x0 PUSH1 0x2 DUP3 DIV SWAP1 POP PUSH1 0x1 DUP3 AND DUP1 PUSH2 0x1129 JUMPI PUSH1 0x7F DUP3 AND SWAP2 POP JUMPDEST PUSH1 0x20 DUP3 LT DUP2 EQ ISZERO PUSH2 0x113D JUMPI PUSH2 0x113C PUSH2 0x1172 JUMP JUMPDEST JUMPDEST POP SWAP2 SWAP1 POP JUMP JUMPDEST PUSH32 0x4E487B7100000000000000000000000000000000000000000000000000000000 PUSH1 0x0 MSTORE PUSH1 0x11 PUSH1 0x4 MSTORE PUSH1 0x24 PUSH1 0x0 REVERT JUMPDEST PUSH32 0x4E487B7100000000000000000000000000000000000000000000000000000000 PUSH1 0x0 MSTORE PUSH1 0x22 PUSH1 0x4 MSTORE PUSH1 0x24 PUSH1 0x0 REVERT JUMPDEST PUSH1 0x0 DUP1 REVERT JUMPDEST PUSH1 0x0 PUSH1 0x1F NOT PUSH1 0x1F DUP4 ADD AND SWAP1 POP SWAP2 SWAP1 POP JUMP JUMPDEST PUSH32 0x616C6C6F7765642076616C7565206372697465726961206E65766572206D6574 PUSH1 0x0 DUP3 ADD MSTORE POP JUMP JUMPDEST PUSH32 0x76616C7565206973206C6F776572207468616E20312C20796F752063616E7420 PUSH1 0x0 DUP3 ADD MSTORE PUSH32 0x7472616E73666572000000000000000000000000000000000000000000000000 PUSH1 0x20 DUP3 ADD MSTORE POP JUMP JUMPDEST PUSH32 0x596F75206E65656420746F20626520746865206F776E657220746F2071756572 PUSH1 0x0 DUP3 ADD MSTORE PUSH32 0x792062616C616E63650000000000000000000000000000000000000000000000 PUSH1 0x20 DUP3 ADD MSTORE POP JUMP JUMPDEST PUSH32 0x73656E6465722076616C7565206E6565647320746F2062652068696768657220 PUSH1 0x0 DUP3 ADD MSTORE PUSH32 0x7468616E2073656E64696E672076616C75650000000000000000000000000000 PUSH1 0x20 DUP3 ADD MSTORE POP JUMP JUMPDEST PUSH2 0x12D6 DUP2 PUSH2 0x1077 JUMP JUMPDEST DUP2 EQ PUSH2 0x12E1 JUMPI PUSH1 0x0 DUP1 REVERT JUMPDEST POP JUMP JUMPDEST PUSH2 0x12ED DUP2 PUSH2 0x10C7 JUMP JUMPDEST DUP2 EQ PUSH2 0x12F8 JUMPI PUSH1 0x0 DUP1 REVERT JUMPDEST POP JUMP INVALID LOG2 PUSH5 0x6970667358 0x22 SLT KECCAK256 0x26 0xBC 0xBE 0xD4 PUSH13 0xBEE8F72670DB34ADC960F420E6 KECCAK256 DUP12 0xDD SLOAD 0x5C SWAP16 SWAP11 JUMP PUSH3 0xB9F973 JUMPI DUP1 PUSH5 0x736F6C6343 STOP ADDMOD SMOD STOP CALLER "
				},
				"gasEstimates": {
					"creation": {
						"codeDepositCost": "571800",
						"executionCost": "infinite",
						"totalCost": "infinite"
					},
					"external": {
						"buy()": "infinite",
						"sell(uint256)": "infinite",
						"token()": "2619"
					}
				},
				"methodIdentifiers": {
					"buy()": "a6f2ae3a",
					"sell(uint256)": "e4849b32",
					"token()": "fc0c546a"
				}
			},
			"storageLayout": {
				"storage": [
					{
						"astId": 301,
						"contract": "contracts/PokemonTDToken.sol:PokemonTDToken",
						"label": "token",
						"offset": 0,
						"slot": "0",
						"type": "t_contract(Token)502"
					},
					{
						"astId": 303,
						"contract": "contracts/PokemonTDToken.sol:PokemonTDToken",
						"label": "uintOfEthCanBuy",
						"offset": 0,
						"slot": "1",
						"type": "t_uint256"
					}
				],
				"types": {
					"t_contract(Token)502": {
						"encoding": "inplace",
						"label": "contract Token",
						"numberOfBytes": "20"
					},
					"t_uint256": {
						"encoding": "inplace",
						"label": "uint256",
						"numberOfBytes": "32"
					}
				}
			},
			"userdoc": {
				"kind": "user",
				"methods": {},
				"version": 1
			}
		}
	}
}