{
	"contracts/BaseToken.sol": {
		"BaseToken": {
			"abi": [
				{
					"inputs": [],
					"stateMutability": "nonpayable",
					"type": "constructor"
				},
				{
					"anonymous": false,
					"inputs": [
						{
							"indexed": true,
							"internalType": "address",
							"name": "_owner",
							"type": "address"
						},
						{
							"indexed": true,
							"internalType": "address",
							"name": "_spender",
							"type": "address"
						},
						{
							"indexed": false,
							"internalType": "uint256",
							"name": "_value",
							"type": "uint256"
						}
					],
					"name": "Approval",
					"type": "event"
				},
				{
					"anonymous": false,
					"inputs": [
						{
							"indexed": true,
							"internalType": "address",
							"name": "_from",
							"type": "address"
						},
						{
							"indexed": true,
							"internalType": "address",
							"name": "_to",
							"type": "address"
						},
						{
							"indexed": false,
							"internalType": "uint256",
							"name": "_value",
							"type": "uint256"
						}
					],
					"name": "Transfer",
					"type": "event"
				},
				{
					"inputs": [
						{
							"internalType": "address",
							"name": "_owner",
							"type": "address"
						},
						{
							"internalType": "address",
							"name": "_spender",
							"type": "address"
						}
					],
					"name": "allowance",
					"outputs": [
						{
							"internalType": "uint256",
							"name": "remaining",
							"type": "uint256"
						}
					],
					"stateMutability": "view",
					"type": "function"
				},
				{
					"inputs": [
						{
							"internalType": "address",
							"name": "_spender",
							"type": "address"
						},
						{
							"internalType": "uint256",
							"name": "_value",
							"type": "uint256"
						}
					],
					"name": "approve",
					"outputs": [
						{
							"internalType": "bool",
							"name": "success",
							"type": "bool"
						}
					],
					"stateMutability": "nonpayable",
					"type": "function"
				},
				{
					"inputs": [
						{
							"internalType": "address",
							"name": "_owner",
							"type": "address"
						}
					],
					"name": "balanceOf",
					"outputs": [
						{
							"internalType": "uint256",
							"name": "_balance",
							"type": "uint256"
						}
					],
					"stateMutability": "view",
					"type": "function"
				},
				{
					"inputs": [],
					"name": "decimals",
					"outputs": [
						{
							"internalType": "uint8",
							"name": "",
							"type": "uint8"
						}
					],
					"stateMutability": "view",
					"type": "function"
				},
				{
					"inputs": [],
					"name": "fundsWallet",
					"outputs": [
						{
							"internalType": "address payable",
							"name": "",
							"type": "address"
						}
					],
					"stateMutability": "view",
					"type": "function"
				},
				{
					"inputs": [],
					"name": "name",
					"outputs": [
						{
							"internalType": "string",
							"name": "",
							"type": "string"
						}
					],
					"stateMutability": "view",
					"type": "function"
				},
				{
					"inputs": [],
					"name": "symbol",
					"outputs": [
						{
							"internalType": "string",
							"name": "",
							"type": "string"
						}
					],
					"stateMutability": "view",
					"type": "function"
				},
				{
					"inputs": [],
					"name": "totalSupply",
					"outputs": [
						{
							"internalType": "uint256",
							"name": "supply",
							"type": "uint256"
						}
					],
					"stateMutability": "view",
					"type": "function"
				},
				{
					"inputs": [],
					"name": "totalSupplyVal",
					"outputs": [
						{
							"internalType": "uint256",
							"name": "",
							"type": "uint256"
						}
					],
					"stateMutability": "view",
					"type": "function"
				},
				{
					"inputs": [
						{
							"internalType": "address",
							"name": "_to",
							"type": "address"
						},
						{
							"internalType": "uint256",
							"name": "_value",
							"type": "uint256"
						}
					],
					"name": "transfer",
					"outputs": [
						{
							"internalType": "bool",
							"name": "success",
							"type": "bool"
						}
					],
					"stateMutability": "nonpayable",
					"type": "function"
				},
				{
					"inputs": [
						{
							"internalType": "uint256",
							"name": "_amount",
							"type": "uint256"
						}
					],
					"name": "transferEthToOwner",
					"outputs": [
						{
							"internalType": "bool",
							"name": "success",
							"type": "bool"
						}
					],
					"stateMutability": "payable",
					"type": "function"
				},
				{
					"inputs": [
						{
							"internalType": "address",
							"name": "_from",
							"type": "address"
						},
						{
							"internalType": "address",
							"name": "_to",
							"type": "address"
						},
						{
							"internalType": "uint256",
							"name": "_value",
							"type": "uint256"
						}
					],
					"name": "transferFrom",
					"outputs": [
						{
							"internalType": "bool",
							"name": "success",
							"type": "bool"
						}
					],
					"stateMutability": "nonpayable",
					"type": "function"
				},
				{
					"inputs": [],
					"name": "version",
					"outputs": [
						{
							"internalType": "string",
							"name": "",
							"type": "string"
						}
					],
					"stateMutability": "view",
					"type": "function"
				}
			],
			"devdoc": {
				"kind": "dev",
				"methods": {},
				"version": 1
			},
			"evm": {
				"assembly": "    /* \"contracts/BaseToken.sol\":80:3056  contract BaseToken is Token {... */\n  mstore(0x40, 0x80)\n    /* \"contracts/BaseToken.sol\":324:353  string public version = \"1.0\" */\n  mload(0x40)\n  dup1\n  0x40\n  add\n  0x40\n  mstore\n  dup1\n  0x03\n  dup2\n  mstore\n  0x20\n  add\n  0x312e300000000000000000000000000000000000000000000000000000000000\n  dup2\n  mstore\n  pop\n  0x06\n  swap1\n  dup1\n  mload\n  swap1\n  0x20\n  add\n  swap1\n  tag_1\n  swap3\n  swap2\n  swap1\n  tag_2\n  jump\t// in\ntag_1:\n  pop\n    /* \"contracts/BaseToken.sol\":596:830  constructor() {... */\n  callvalue\n  dup1\n  iszero\n  tag_3\n  jumpi\n  0x00\n  dup1\n  revert\ntag_3:\n  pop\n    /* \"contracts/BaseToken.sol\":637:646  100 ether */\n  0x056bc75e2d63100000\n    /* \"contracts/BaseToken.sol\":620:634  totalSupplyVal */\n  0x02\n    /* \"contracts/BaseToken.sol\":620:646  totalSupplyVal = 100 ether */\n  dup2\n  swap1\n  sstore\n  pop\n    /* \"contracts/BaseToken.sol\":678:688  msg.sender */\n  caller\n    /* \"contracts/BaseToken.sol\":656:667  fundsWallet */\n  0x07\n  0x00\n    /* \"contracts/BaseToken.sol\":656:689  fundsWallet = payable(msg.sender) */\n  0x0100\n  exp\n  dup2\n  sload\n  dup2\n  0xffffffffffffffffffffffffffffffffffffffff\n  mul\n  not\n  and\n  swap1\n  dup4\n  0xffffffffffffffffffffffffffffffffffffffff\n  and\n  mul\n  or\n  swap1\n  sstore\n  pop\n    /* \"contracts/BaseToken.sol\":723:737  totalSupplyVal */\n  sload(0x02)\n    /* \"contracts/BaseToken.sol\":699:707  balances */\n  0x00\n    /* \"contracts/BaseToken.sol\":699:720  balances[fundsWallet] */\n  dup1\n    /* \"contracts/BaseToken.sol\":708:719  fundsWallet */\n  0x07\n  0x00\n  swap1\n  sload\n  swap1\n  0x0100\n  exp\n  swap1\n  div\n  0xffffffffffffffffffffffffffffffffffffffff\n  and\n    /* \"contracts/BaseToken.sol\":699:720  balances[fundsWallet] */\n  0xffffffffffffffffffffffffffffffffffffffff\n  and\n  0xffffffffffffffffffffffffffffffffffffffff\n  and\n  dup2\n  mstore\n  0x20\n  add\n  swap1\n  dup2\n  mstore\n  0x20\n  add\n  0x00\n  keccak256\n    /* \"contracts/BaseToken.sol\":699:737  balances[fundsWallet] = totalSupplyVal */\n  dup2\n  swap1\n  sstore\n  pop\n    /* \"contracts/BaseToken.sol\":747:765  name = \"PokemonTD\" */\n  mload(0x40)\n  dup1\n  0x40\n  add\n  0x40\n  mstore\n  dup1\n  0x09\n  dup2\n  mstore\n  0x20\n  add\n  0x506f6b656d6f6e54440000000000000000000000000000000000000000000000\n  dup2\n  mstore\n  pop\n    /* \"contracts/BaseToken.sol\":747:751  name */\n  0x03\n    /* \"contracts/BaseToken.sol\":747:765  name = \"PokemonTD\" */\n  swap1\n  dup1\n  mload\n  swap1\n  0x20\n  add\n  swap1\n  tag_6\n  swap3\n  swap2\n  swap1\n  tag_2\n  jump\t// in\ntag_6:\n  pop\n    /* \"contracts/BaseToken.sol\":775:790  symbol = \"PKTD\" */\n  mload(0x40)\n  dup1\n  0x40\n  add\n  0x40\n  mstore\n  dup1\n  0x04\n  dup2\n  mstore\n  0x20\n  add\n  0x504b544400000000000000000000000000000000000000000000000000000000\n  dup2\n  mstore\n  pop\n    /* \"contracts/BaseToken.sol\":775:781  symbol */\n  0x04\n    /* \"contracts/BaseToken.sol\":775:790  symbol = \"PKTD\" */\n  swap1\n  dup1\n  mload\n  swap1\n  0x20\n  add\n  swap1\n  tag_7\n  swap3\n  swap2\n  swap1\n  tag_2\n  jump\t// in\ntag_7:\n  pop\n    /* \"contracts/BaseToken.sol\":818:823  10000 */\n  0x2710\n    /* \"contracts/BaseToken.sol\":800:815  uintOfEthCanBuy */\n  0x08\n    /* \"contracts/BaseToken.sol\":800:823  uintOfEthCanBuy = 10000 */\n  dup2\n  swap1\n  sstore\n  pop\n    /* \"contracts/BaseToken.sol\":80:3056  contract BaseToken is Token {... */\n  jump(tag_8)\ntag_2:\n  dup3\n  dup1\n  sload\n  tag_9\n  swap1\n  tag_10\n  jump\t// in\ntag_9:\n  swap1\n  0x00\n  mstore\n  keccak256(0x00, 0x20)\n  swap1\n  0x1f\n  add\n  0x20\n  swap1\n  div\n  dup2\n  add\n  swap3\n  dup3\n  tag_12\n  jumpi\n  0x00\n  dup6\n  sstore\n  jump(tag_11)\ntag_12:\n  dup3\n  0x1f\n  lt\n  tag_13\n  jumpi\n  dup1\n  mload\n  not(0xff)\n  and\n  dup4\n  dup1\n  add\n  or\n  dup6\n  sstore\n  jump(tag_11)\ntag_13:\n  dup3\n  dup1\n  add\n  0x01\n  add\n  dup6\n  sstore\n  dup3\n  iszero\n  tag_11\n  jumpi\n  swap2\n  dup3\n  add\ntag_14:\n  dup3\n  dup2\n  gt\n  iszero\n  tag_15\n  jumpi\n  dup3\n  mload\n  dup3\n  sstore\n  swap2\n  0x20\n  add\n  swap2\n  swap1\n  0x01\n  add\n  swap1\n  jump(tag_14)\ntag_15:\ntag_11:\n  pop\n  swap1\n  pop\n  tag_16\n  swap2\n  swap1\n  tag_17\n  jump\t// in\ntag_16:\n  pop\n  swap1\n  jump\t// out\ntag_17:\ntag_18:\n  dup1\n  dup3\n  gt\n  iszero\n  tag_19\n  jumpi\n  0x00\n  dup2\n  0x00\n  swap1\n  sstore\n  pop\n  0x01\n  add\n  jump(tag_18)\ntag_19:\n  pop\n  swap1\n  jump\t// out\n    /* \"#utility.yul\":7:327   */\ntag_10:\n    /* \"#utility.yul\":51:57   */\n  0x00\n    /* \"#utility.yul\":88:89   */\n  0x02\n    /* \"#utility.yul\":82:86   */\n  dup3\n    /* \"#utility.yul\":78:90   */\n  div\n    /* \"#utility.yul\":68:90   */\n  swap1\n  pop\n    /* \"#utility.yul\":135:136   */\n  0x01\n    /* \"#utility.yul\":129:133   */\n  dup3\n    /* \"#utility.yul\":125:137   */\n  and\n    /* \"#utility.yul\":156:174   */\n  dup1\n    /* \"#utility.yul\":146:227   */\n  tag_22\n  jumpi\n    /* \"#utility.yul\":212:216   */\n  0x7f\n    /* \"#utility.yul\":204:210   */\n  dup3\n    /* \"#utility.yul\":200:217   */\n  and\n    /* \"#utility.yul\":190:217   */\n  swap2\n  pop\n    /* \"#utility.yul\":146:227   */\ntag_22:\n    /* \"#utility.yul\":274:276   */\n  0x20\n    /* \"#utility.yul\":266:272   */\n  dup3\n    /* \"#utility.yul\":263:277   */\n  lt\n    /* \"#utility.yul\":243:261   */\n  dup2\n    /* \"#utility.yul\":240:278   */\n  eq\n    /* \"#utility.yul\":237:321   */\n  iszero\n  tag_23\n  jumpi\n    /* \"#utility.yul\":293:311   */\n  tag_24\n  tag_25\n  jump\t// in\ntag_24:\n    /* \"#utility.yul\":237:321   */\ntag_23:\n    /* \"#utility.yul\":58:327   */\n  pop\n    /* \"#utility.yul\":7:327   */\n  swap2\n  swap1\n  pop\n  jump\t// out\n    /* \"#utility.yul\":333:513   */\ntag_25:\n    /* \"#utility.yul\":381:458   */\n  0x4e487b7100000000000000000000000000000000000000000000000000000000\n    /* \"#utility.yul\":378:379   */\n  0x00\n    /* \"#utility.yul\":371:459   */\n  mstore\n    /* \"#utility.yul\":478:482   */\n  0x22\n    /* \"#utility.yul\":475:476   */\n  0x04\n    /* \"#utility.yul\":468:483   */\n  mstore\n    /* \"#utility.yul\":502:506   */\n  0x24\n    /* \"#utility.yul\":499:500   */\n  0x00\n    /* \"#utility.yul\":492:507   */\n  revert\n    /* \"contracts/BaseToken.sol\":80:3056  contract BaseToken is Token {... */\ntag_8:\n  dataSize(sub_0)\n  dup1\n  dataOffset(sub_0)\n  0x00\n  codecopy\n  0x00\n  return\nstop\n\nsub_0: assembly {\n        /* \"contracts/BaseToken.sol\":80:3056  contract BaseToken is Token {... */\n      mstore(0x40, 0x80)\n      jumpi(tag_1, lt(calldatasize, 0x04))\n      shr(0xe0, calldataload(0x00))\n      dup1\n      0x54fd4d50\n      gt\n      tag_15\n      jumpi\n      dup1\n      0xa9059cbb\n      gt\n      tag_16\n      jumpi\n      dup1\n      0xa9059cbb\n      eq\n      tag_11\n      jumpi\n      dup1\n      0xb73fd792\n      eq\n      tag_12\n      jumpi\n      dup1\n      0xce7c5d7f\n      eq\n      tag_13\n      jumpi\n      dup1\n      0xdd62ed3e\n      eq\n      tag_14\n      jumpi\n      jump(tag_1)\n    tag_16:\n      dup1\n      0x54fd4d50\n      eq\n      tag_8\n      jumpi\n      dup1\n      0x70a08231\n      eq\n      tag_9\n      jumpi\n      dup1\n      0x95d89b41\n      eq\n      tag_10\n      jumpi\n      jump(tag_1)\n    tag_15:\n      dup1\n      0x06fdde03\n      eq\n      tag_2\n      jumpi\n      dup1\n      0x095ea7b3\n      eq\n      tag_3\n      jumpi\n      dup1\n      0x18160ddd\n      eq\n      tag_4\n      jumpi\n      dup1\n      0x2194f3a2\n      eq\n      tag_5\n      jumpi\n      dup1\n      0x23b872dd\n      eq\n      tag_6\n      jumpi\n      dup1\n      0x313ce567\n      eq\n      tag_7\n      jumpi\n    tag_1:\n      0x00\n      dup1\n      revert\n        /* \"contracts/BaseToken.sol\":247:265  string public name */\n    tag_2:\n      callvalue\n      dup1\n      iszero\n      tag_17\n      jumpi\n      0x00\n      dup1\n      revert\n    tag_17:\n      pop\n      tag_18\n      tag_19\n      jump\t// in\n    tag_18:\n      mload(0x40)\n      tag_20\n      swap2\n      swap1\n      tag_21\n      jump\t// in\n    tag_20:\n      mload(0x40)\n      dup1\n      swap2\n      sub\n      swap1\n      return\n        /* \"contracts/BaseToken.sol\":2680:2898  function approve(address _spender, uint256 _value) public override returns(bool success) {... */\n    tag_3:\n      callvalue\n      dup1\n      iszero\n      tag_22\n      jumpi\n      0x00\n      dup1\n      revert\n    tag_22:\n      pop\n      tag_23\n      0x04\n      dup1\n      calldatasize\n      sub\n      dup2\n      add\n      swap1\n      tag_24\n      swap2\n      swap1\n      tag_25\n      jump\t// in\n    tag_24:\n      tag_26\n      jump\t// in\n    tag_23:\n      mload(0x40)\n      tag_27\n      swap2\n      swap1\n      tag_28\n      jump\t// in\n    tag_27:\n      mload(0x40)\n      dup1\n      swap2\n      sub\n      swap1\n      return\n        /* \"contracts/BaseToken.sol\":1667:1774  function totalSupply() public override view returns (uint256 supply) {... */\n    tag_4:\n      callvalue\n      dup1\n      iszero\n      tag_29\n      jumpi\n      0x00\n      dup1\n      revert\n    tag_29:\n      pop\n      tag_30\n      tag_31\n      jump\t// in\n    tag_30:\n      mload(0x40)\n      tag_32\n      swap2\n      swap1\n      tag_33\n      jump\t// in\n    tag_32:\n      mload(0x40)\n      dup1\n      swap2\n      sub\n      swap1\n      return\n        /* \"contracts/BaseToken.sol\":359:393  address payable public fundsWallet */\n    tag_5:\n      callvalue\n      dup1\n      iszero\n      tag_34\n      jumpi\n      0x00\n      dup1\n      revert\n    tag_34:\n      pop\n      tag_35\n      tag_36\n      jump\t// in\n    tag_35:\n      mload(0x40)\n      tag_37\n      swap2\n      swap1\n      tag_38\n      jump\t// in\n    tag_37:\n      mload(0x40)\n      dup1\n      swap2\n      sub\n      swap1\n      return\n        /* \"contracts/BaseToken.sol\":1945:2546  function transferFrom(address _from, address _to, uint256 _value) public override returns(bool success) {... */\n    tag_6:\n      callvalue\n      dup1\n      iszero\n      tag_39\n      jumpi\n      0x00\n      dup1\n      revert\n    tag_39:\n      pop\n      tag_40\n      0x04\n      dup1\n      calldatasize\n      sub\n      dup2\n      add\n      swap1\n      tag_41\n      swap2\n      swap1\n      tag_42\n      jump\t// in\n    tag_41:\n      tag_43\n      jump\t// in\n    tag_40:\n      mload(0x40)\n      tag_44\n      swap2\n      swap1\n      tag_28\n      jump\t// in\n    tag_44:\n      mload(0x40)\n      dup1\n      swap2\n      sub\n      swap1\n      return\n        /* \"contracts/BaseToken.sol\":297:318  uint8 public decimals */\n    tag_7:\n      callvalue\n      dup1\n      iszero\n      tag_45\n      jumpi\n      0x00\n      dup1\n      revert\n    tag_45:\n      pop\n      tag_46\n      tag_47\n      jump\t// in\n    tag_46:\n      mload(0x40)\n      tag_48\n      swap2\n      swap1\n      tag_49\n      jump\t// in\n    tag_48:\n      mload(0x40)\n      dup1\n      swap2\n      sub\n      swap1\n      return\n        /* \"contracts/BaseToken.sol\":324:353  string public version = \"1.0\" */\n    tag_8:\n      callvalue\n      dup1\n      iszero\n      tag_50\n      jumpi\n      0x00\n      dup1\n      revert\n    tag_50:\n      pop\n      tag_51\n      tag_52\n      jump\t// in\n    tag_51:\n      mload(0x40)\n      tag_53\n      swap2\n      swap1\n      tag_21\n      jump\t// in\n    tag_53:\n      mload(0x40)\n      dup1\n      swap2\n      sub\n      swap1\n      return\n        /* \"contracts/BaseToken.sol\":2552:2674  function balanceOf(address _owner) public view override returns(uint256 _balance) {... */\n    tag_9:\n      callvalue\n      dup1\n      iszero\n      tag_54\n      jumpi\n      0x00\n      dup1\n      revert\n    tag_54:\n      pop\n      tag_55\n      0x04\n      dup1\n      calldatasize\n      sub\n      dup2\n      add\n      swap1\n      tag_56\n      swap2\n      swap1\n      tag_57\n      jump\t// in\n    tag_56:\n      tag_58\n      jump\t// in\n    tag_55:\n      mload(0x40)\n      tag_59\n      swap2\n      swap1\n      tag_33\n      jump\t// in\n    tag_59:\n      mload(0x40)\n      dup1\n      swap2\n      sub\n      swap1\n      return\n        /* \"contracts/BaseToken.sol\":271:291  string public symbol */\n    tag_10:\n      callvalue\n      dup1\n      iszero\n      tag_60\n      jumpi\n      0x00\n      dup1\n      revert\n    tag_60:\n      pop\n      tag_61\n      tag_62\n      jump\t// in\n    tag_61:\n      mload(0x40)\n      tag_63\n      swap2\n      swap1\n      tag_21\n      jump\t// in\n    tag_63:\n      mload(0x40)\n      dup1\n      swap2\n      sub\n      swap1\n      return\n        /* \"contracts/BaseToken.sol\":1250:1661  function transfer(address _to, uint256 _value) public override returns (bool success) {... */\n    tag_11:\n      callvalue\n      dup1\n      iszero\n      tag_64\n      jumpi\n      0x00\n      dup1\n      revert\n    tag_64:\n      pop\n      tag_65\n      0x04\n      dup1\n      calldatasize\n      sub\n      dup2\n      add\n      swap1\n      tag_66\n      swap2\n      swap1\n      tag_25\n      jump\t// in\n    tag_66:\n      tag_67\n      jump\t// in\n    tag_65:\n      mload(0x40)\n      tag_68\n      swap2\n      swap1\n      tag_28\n      jump\t// in\n    tag_68:\n      mload(0x40)\n      dup1\n      swap2\n      sub\n      swap1\n      return\n        /* \"contracts/BaseToken.sol\":212:241  uint256 public totalSupplyVal */\n    tag_12:\n      callvalue\n      dup1\n      iszero\n      tag_69\n      jumpi\n      0x00\n      dup1\n      revert\n    tag_69:\n      pop\n      tag_70\n      tag_71\n      jump\t// in\n    tag_70:\n      mload(0x40)\n      tag_72\n      swap2\n      swap1\n      tag_33\n      jump\t// in\n    tag_72:\n      mload(0x40)\n      dup1\n      swap2\n      sub\n      swap1\n      return\n        /* \"contracts/BaseToken.sol\":1780:1939  function transferEthToOwner(uint256 _amount) public payable override returns (bool success) {... */\n    tag_13:\n      tag_73\n      0x04\n      dup1\n      calldatasize\n      sub\n      dup2\n      add\n      swap1\n      tag_74\n      swap2\n      swap1\n      tag_75\n      jump\t// in\n    tag_74:\n      tag_76\n      jump\t// in\n    tag_73:\n      mload(0x40)\n      tag_77\n      swap2\n      swap1\n      tag_28\n      jump\t// in\n    tag_77:\n      mload(0x40)\n      dup1\n      swap2\n      sub\n      swap1\n      return\n        /* \"contracts/BaseToken.sol\":2904:3053  function allowance(address _owner, address _spender) public override view returns(uint256 remaining){... */\n    tag_14:\n      callvalue\n      dup1\n      iszero\n      tag_78\n      jumpi\n      0x00\n      dup1\n      revert\n    tag_78:\n      pop\n      tag_79\n      0x04\n      dup1\n      calldatasize\n      sub\n      dup2\n      add\n      swap1\n      tag_80\n      swap2\n      swap1\n      tag_81\n      jump\t// in\n    tag_80:\n      tag_82\n      jump\t// in\n    tag_79:\n      mload(0x40)\n      tag_83\n      swap2\n      swap1\n      tag_33\n      jump\t// in\n    tag_83:\n      mload(0x40)\n      dup1\n      swap2\n      sub\n      swap1\n      return\n        /* \"contracts/BaseToken.sol\":247:265  string public name */\n    tag_19:\n      0x03\n      dup1\n      sload\n      tag_84\n      swap1\n      tag_85\n      jump\t// in\n    tag_84:\n      dup1\n      0x1f\n      add\n      0x20\n      dup1\n      swap2\n      div\n      mul\n      0x20\n      add\n      mload(0x40)\n      swap1\n      dup2\n      add\n      0x40\n      mstore\n      dup1\n      swap3\n      swap2\n      swap1\n      dup2\n      dup2\n      mstore\n      0x20\n      add\n      dup3\n      dup1\n      sload\n      tag_86\n      swap1\n      tag_85\n      jump\t// in\n    tag_86:\n      dup1\n      iszero\n      tag_87\n      jumpi\n      dup1\n      0x1f\n      lt\n      tag_88\n      jumpi\n      0x0100\n      dup1\n      dup4\n      sload\n      div\n      mul\n      dup4\n      mstore\n      swap2\n      0x20\n      add\n      swap2\n      jump(tag_87)\n    tag_88:\n      dup3\n      add\n      swap2\n      swap1\n      0x00\n      mstore\n      keccak256(0x00, 0x20)\n      swap1\n    tag_89:\n      dup2\n      sload\n      dup2\n      mstore\n      swap1\n      0x01\n      add\n      swap1\n      0x20\n      add\n      dup1\n      dup4\n      gt\n      tag_89\n      jumpi\n      dup3\n      swap1\n      sub\n      0x1f\n      and\n      dup3\n      add\n      swap2\n    tag_87:\n      pop\n      pop\n      pop\n      pop\n      pop\n      dup2\n      jump\t// out\n        /* \"contracts/BaseToken.sol\":2680:2898  function approve(address _spender, uint256 _value) public override returns(bool success) {... */\n    tag_26:\n        /* \"contracts/BaseToken.sol\":2755:2767  bool success */\n      0x00\n        /* \"contracts/BaseToken.sol\":2811:2817  _value */\n      dup2\n        /* \"contracts/BaseToken.sol\":2779:2786  allowed */\n      0x01\n        /* \"contracts/BaseToken.sol\":2779:2798  allowed[msg.sender] */\n      0x00\n        /* \"contracts/BaseToken.sol\":2787:2797  msg.sender */\n      caller\n        /* \"contracts/BaseToken.sol\":2779:2798  allowed[msg.sender] */\n      0xffffffffffffffffffffffffffffffffffffffff\n      and\n      0xffffffffffffffffffffffffffffffffffffffff\n      and\n      dup2\n      mstore\n      0x20\n      add\n      swap1\n      dup2\n      mstore\n      0x20\n      add\n      0x00\n      keccak256\n        /* \"contracts/BaseToken.sol\":2779:2808  allowed[msg.sender][_spender] */\n      0x00\n        /* \"contracts/BaseToken.sol\":2799:2807  _spender */\n      dup6\n        /* \"contracts/BaseToken.sol\":2779:2808  allowed[msg.sender][_spender] */\n      0xffffffffffffffffffffffffffffffffffffffff\n      and\n      0xffffffffffffffffffffffffffffffffffffffff\n      and\n      dup2\n      mstore\n      0x20\n      add\n      swap1\n      dup2\n      mstore\n      0x20\n      add\n      0x00\n      keccak256\n        /* \"contracts/BaseToken.sol\":2779:2817  allowed[msg.sender][_spender] = _value */\n      dup2\n      swap1\n      sstore\n      pop\n        /* \"contracts/BaseToken.sol\":2853:2861  _spender */\n      dup3\n        /* \"contracts/BaseToken.sol\":2832:2870  Approval(msg.sender, _spender, _value) */\n      0xffffffffffffffffffffffffffffffffffffffff\n      and\n        /* \"contracts/BaseToken.sol\":2841:2851  msg.sender */\n      caller\n        /* \"contracts/BaseToken.sol\":2832:2870  Approval(msg.sender, _spender, _value) */\n      0xffffffffffffffffffffffffffffffffffffffff\n      and\n      0x8c5be1e5ebec7d5bd14f71427d1e84f3dd0314c0f7b2291e5b200ac8c7c3b925\n        /* \"contracts/BaseToken.sol\":2863:2869  _value */\n      dup5\n        /* \"contracts/BaseToken.sol\":2832:2870  Approval(msg.sender, _spender, _value) */\n      mload(0x40)\n      tag_91\n      swap2\n      swap1\n      tag_33\n      jump\t// in\n    tag_91:\n      mload(0x40)\n      dup1\n      swap2\n      sub\n      swap1\n      log3\n        /* \"contracts/BaseToken.sol\":2887:2891  true */\n      0x01\n        /* \"contracts/BaseToken.sol\":2880:2891  return true */\n      swap1\n      pop\n        /* \"contracts/BaseToken.sol\":2680:2898  function approve(address _spender, uint256 _value) public override returns(bool success) {... */\n      swap3\n      swap2\n      pop\n      pop\n      jump\t// out\n        /* \"contracts/BaseToken.sol\":1667:1774  function totalSupply() public override view returns (uint256 supply) {... */\n    tag_31:\n        /* \"contracts/BaseToken.sol\":1720:1734  uint256 supply */\n      0x00\n        /* \"contracts/BaseToken.sol\":1753:1767  totalSupplyVal */\n      sload(0x02)\n        /* \"contracts/BaseToken.sol\":1746:1767  return totalSupplyVal */\n      swap1\n      pop\n        /* \"contracts/BaseToken.sol\":1667:1774  function totalSupply() public override view returns (uint256 supply) {... */\n      swap1\n      jump\t// out\n        /* \"contracts/BaseToken.sol\":359:393  address payable public fundsWallet */\n    tag_36:\n      0x07\n      0x00\n      swap1\n      sload\n      swap1\n      0x0100\n      exp\n      swap1\n      div\n      0xffffffffffffffffffffffffffffffffffffffff\n      and\n      dup2\n      jump\t// out\n        /* \"contracts/BaseToken.sol\":1945:2546  function transferFrom(address _from, address _to, uint256 _value) public override returns(bool success) {... */\n    tag_43:\n        /* \"contracts/BaseToken.sol\":2035:2047  bool success */\n      0x00\n        /* \"contracts/BaseToken.sol\":2076:2077  0 */\n      dup1\n        /* \"contracts/BaseToken.sol\":2067:2073  _value */\n      dup3\n        /* \"contracts/BaseToken.sol\":2067:2077  _value > 0 */\n      gt\n        /* \"contracts/BaseToken.sol\":2059:2122  require(_value > 0, \"value is lower than 1, you cant transfer\") */\n      tag_94\n      jumpi\n      mload(0x40)\n      0x08c379a000000000000000000000000000000000000000000000000000000000\n      dup2\n      mstore\n      0x04\n      add\n      tag_95\n      swap1\n      tag_96\n      jump\t// in\n    tag_95:\n      mload(0x40)\n      dup1\n      swap2\n      sub\n      swap1\n      revert\n    tag_94:\n        /* \"contracts/BaseToken.sol\":2159:2165  _value */\n      dup2\n        /* \"contracts/BaseToken.sol\":2140:2148  balances */\n      0x00\n        /* \"contracts/BaseToken.sol\":2140:2155  balances[_from] */\n      dup1\n        /* \"contracts/BaseToken.sol\":2149:2154  _from */\n      dup7\n        /* \"contracts/BaseToken.sol\":2140:2155  balances[_from] */\n      0xffffffffffffffffffffffffffffffffffffffff\n      and\n      0xffffffffffffffffffffffffffffffffffffffff\n      and\n      dup2\n      mstore\n      0x20\n      add\n      swap1\n      dup2\n      mstore\n      0x20\n      add\n      0x00\n      keccak256\n      sload\n        /* \"contracts/BaseToken.sol\":2140:2165  balances[_from] >= _value */\n      lt\n      iszero\n        /* \"contracts/BaseToken.sol\":2132:2220  require(balances[_from] >= _value ,\"sender value needs to be higher than sending value\") */\n      tag_97\n      jumpi\n      mload(0x40)\n      0x08c379a000000000000000000000000000000000000000000000000000000000\n      dup2\n      mstore\n      0x04\n      add\n      tag_98\n      swap1\n      tag_99\n      jump\t// in\n    tag_98:\n      mload(0x40)\n      dup1\n      swap2\n      sub\n      swap1\n      revert\n    tag_97:\n        /* \"contracts/BaseToken.sol\":2268:2274  _value */\n      dup2\n        /* \"contracts/BaseToken.sol\":2238:2245  allowed */\n      0x01\n        /* \"contracts/BaseToken.sol\":2238:2252  allowed[_from] */\n      0x00\n        /* \"contracts/BaseToken.sol\":2246:2251  _from */\n      dup7\n        /* \"contracts/BaseToken.sol\":2238:2252  allowed[_from] */\n      0xffffffffffffffffffffffffffffffffffffffff\n      and\n      0xffffffffffffffffffffffffffffffffffffffff\n      and\n      dup2\n      mstore\n      0x20\n      add\n      swap1\n      dup2\n      mstore\n      0x20\n      add\n      0x00\n      keccak256\n        /* \"contracts/BaseToken.sol\":2238:2264  allowed[_from][msg.sender] */\n      0x00\n        /* \"contracts/BaseToken.sol\":2253:2263  msg.sender */\n      caller\n        /* \"contracts/BaseToken.sol\":2238:2264  allowed[_from][msg.sender] */\n      0xffffffffffffffffffffffffffffffffffffffff\n      and\n      0xffffffffffffffffffffffffffffffffffffffff\n      and\n      dup2\n      mstore\n      0x20\n      add\n      swap1\n      dup2\n      mstore\n      0x20\n      add\n      0x00\n      keccak256\n      sload\n        /* \"contracts/BaseToken.sol\":2238:2274  allowed[_from][msg.sender] >= _value */\n      lt\n      iszero\n        /* \"contracts/BaseToken.sol\":2230:2311  require(allowed[_from][msg.sender] >= _value, \"allowed value criteria never met\") */\n      tag_100\n      jumpi\n      mload(0x40)\n      0x08c379a000000000000000000000000000000000000000000000000000000000\n      dup2\n      mstore\n      0x04\n      add\n      tag_101\n      swap1\n      tag_102\n      jump\t// in\n    tag_101:\n      mload(0x40)\n      dup1\n      swap2\n      sub\n      swap1\n      revert\n    tag_100:\n        /* \"contracts/BaseToken.sol\":2339:2345  _value */\n      dup2\n        /* \"contracts/BaseToken.sol\":2322:2330  balances */\n      0x00\n        /* \"contracts/BaseToken.sol\":2322:2335  balances[_to] */\n      dup1\n        /* \"contracts/BaseToken.sol\":2331:2334  _to */\n      dup6\n        /* \"contracts/BaseToken.sol\":2322:2335  balances[_to] */\n      0xffffffffffffffffffffffffffffffffffffffff\n      and\n      0xffffffffffffffffffffffffffffffffffffffff\n      and\n      dup2\n      mstore\n      0x20\n      add\n      swap1\n      dup2\n      mstore\n      0x20\n      add\n      0x00\n      keccak256\n      0x00\n        /* \"contracts/BaseToken.sol\":2322:2345  balances[_to] += _value */\n      dup3\n      dup3\n      sload\n      tag_103\n      swap2\n      swap1\n      tag_104\n      jump\t// in\n    tag_103:\n      swap3\n      pop\n      pop\n      dup2\n      swap1\n      sstore\n      pop\n        /* \"contracts/BaseToken.sol\":2374:2380  _value */\n      dup2\n        /* \"contracts/BaseToken.sol\":2355:2363  balances */\n      0x00\n        /* \"contracts/BaseToken.sol\":2355:2370  balances[_from] */\n      dup1\n        /* \"contracts/BaseToken.sol\":2364:2369  _from */\n      dup7\n        /* \"contracts/BaseToken.sol\":2355:2370  balances[_from] */\n      0xffffffffffffffffffffffffffffffffffffffff\n      and\n      0xffffffffffffffffffffffffffffffffffffffff\n      and\n      dup2\n      mstore\n      0x20\n      add\n      swap1\n      dup2\n      mstore\n      0x20\n      add\n      0x00\n      keccak256\n      0x00\n        /* \"contracts/BaseToken.sol\":2355:2380  balances[_from] -= _value */\n      dup3\n      dup3\n      sload\n      tag_105\n      swap2\n      swap1\n      tag_106\n      jump\t// in\n    tag_105:\n      swap3\n      pop\n      pop\n      dup2\n      swap1\n      sstore\n      pop\n        /* \"contracts/BaseToken.sol\":2468:2474  _value */\n      dup2\n        /* \"contracts/BaseToken.sol\":2438:2445  allowed */\n      0x01\n        /* \"contracts/BaseToken.sol\":2438:2452  allowed[_from] */\n      0x00\n        /* \"contracts/BaseToken.sol\":2446:2451  _from */\n      dup7\n        /* \"contracts/BaseToken.sol\":2438:2452  allowed[_from] */\n      0xffffffffffffffffffffffffffffffffffffffff\n      and\n      0xffffffffffffffffffffffffffffffffffffffff\n      and\n      dup2\n      mstore\n      0x20\n      add\n      swap1\n      dup2\n      mstore\n      0x20\n      add\n      0x00\n      keccak256\n        /* \"contracts/BaseToken.sol\":2438:2464  allowed[_from][msg.sender] */\n      0x00\n        /* \"contracts/BaseToken.sol\":2453:2463  msg.sender */\n      caller\n        /* \"contracts/BaseToken.sol\":2438:2464  allowed[_from][msg.sender] */\n      0xffffffffffffffffffffffffffffffffffffffff\n      and\n      0xffffffffffffffffffffffffffffffffffffffff\n      and\n      dup2\n      mstore\n      0x20\n      add\n      swap1\n      dup2\n      mstore\n      0x20\n      add\n      0x00\n      keccak256\n      0x00\n        /* \"contracts/BaseToken.sol\":2438:2474  allowed[_from][msg.sender] -= _value */\n      dup3\n      dup3\n      sload\n      tag_107\n      swap2\n      swap1\n      tag_106\n      jump\t// in\n    tag_107:\n      swap3\n      pop\n      pop\n      dup2\n      swap1\n      sstore\n      pop\n        /* \"contracts/BaseToken.sol\":2505:2508  _to */\n      dup3\n        /* \"contracts/BaseToken.sol\":2489:2517  Transfer(_from, _to, _value) */\n      0xffffffffffffffffffffffffffffffffffffffff\n      and\n        /* \"contracts/BaseToken.sol\":2498:2503  _from */\n      dup5\n        /* \"contracts/BaseToken.sol\":2489:2517  Transfer(_from, _to, _value) */\n      0xffffffffffffffffffffffffffffffffffffffff\n      and\n      0xddf252ad1be2c89b69c2b068fc378daa952ba7f163c4a11628f55a4df523b3ef\n        /* \"contracts/BaseToken.sol\":2510:2516  _value */\n      dup5\n        /* \"contracts/BaseToken.sol\":2489:2517  Transfer(_from, _to, _value) */\n      mload(0x40)\n      tag_108\n      swap2\n      swap1\n      tag_33\n      jump\t// in\n    tag_108:\n      mload(0x40)\n      dup1\n      swap2\n      sub\n      swap1\n      log3\n        /* \"contracts/BaseToken.sol\":2535:2539  true */\n      0x01\n        /* \"contracts/BaseToken.sol\":2528:2539  return true */\n      swap1\n      pop\n        /* \"contracts/BaseToken.sol\":1945:2546  function transferFrom(address _from, address _to, uint256 _value) public override returns(bool success) {... */\n      swap4\n      swap3\n      pop\n      pop\n      pop\n      jump\t// out\n        /* \"contracts/BaseToken.sol\":297:318  uint8 public decimals */\n    tag_47:\n      0x05\n      0x00\n      swap1\n      sload\n      swap1\n      0x0100\n      exp\n      swap1\n      div\n      0xff\n      and\n      dup2\n      jump\t// out\n        /* \"contracts/BaseToken.sol\":324:353  string public version = \"1.0\" */\n    tag_52:\n      0x06\n      dup1\n      sload\n      tag_109\n      swap1\n      tag_85\n      jump\t// in\n    tag_109:\n      dup1\n      0x1f\n      add\n      0x20\n      dup1\n      swap2\n      div\n      mul\n      0x20\n      add\n      mload(0x40)\n      swap1\n      dup2\n      add\n      0x40\n      mstore\n      dup1\n      swap3\n      swap2\n      swap1\n      dup2\n      dup2\n      mstore\n      0x20\n      add\n      dup3\n      dup1\n      sload\n      tag_110\n      swap1\n      tag_85\n      jump\t// in\n    tag_110:\n      dup1\n      iszero\n      tag_111\n      jumpi\n      dup1\n      0x1f\n      lt\n      tag_112\n      jumpi\n      0x0100\n      dup1\n      dup4\n      sload\n      div\n      mul\n      dup4\n      mstore\n      swap2\n      0x20\n      add\n      swap2\n      jump(tag_111)\n    tag_112:\n      dup3\n      add\n      swap2\n      swap1\n      0x00\n      mstore\n      keccak256(0x00, 0x20)\n      swap1\n    tag_113:\n      dup2\n      sload\n      dup2\n      mstore\n      swap1\n      0x01\n      add\n      swap1\n      0x20\n      add\n      dup1\n      dup4\n      gt\n      tag_113\n      jumpi\n      dup3\n      swap1\n      sub\n      0x1f\n      and\n      dup3\n      add\n      swap2\n    tag_111:\n      pop\n      pop\n      pop\n      pop\n      pop\n      dup2\n      jump\t// out\n        /* \"contracts/BaseToken.sol\":2552:2674  function balanceOf(address _owner) public view override returns(uint256 _balance) {... */\n    tag_58:\n        /* \"contracts/BaseToken.sol\":2616:2632  uint256 _balance */\n      0x00\n        /* \"contracts/BaseToken.sol\":2651:2659  balances */\n      dup1\n        /* \"contracts/BaseToken.sol\":2651:2667  balances[_owner] */\n      0x00\n        /* \"contracts/BaseToken.sol\":2660:2666  _owner */\n      dup4\n        /* \"contracts/BaseToken.sol\":2651:2667  balances[_owner] */\n      0xffffffffffffffffffffffffffffffffffffffff\n      and\n      0xffffffffffffffffffffffffffffffffffffffff\n      and\n      dup2\n      mstore\n      0x20\n      add\n      swap1\n      dup2\n      mstore\n      0x20\n      add\n      0x00\n      keccak256\n      sload\n        /* \"contracts/BaseToken.sol\":2644:2667  return balances[_owner] */\n      swap1\n      pop\n        /* \"contracts/BaseToken.sol\":2552:2674  function balanceOf(address _owner) public view override returns(uint256 _balance) {... */\n      swap2\n      swap1\n      pop\n      jump\t// out\n        /* \"contracts/BaseToken.sol\":271:291  string public symbol */\n    tag_62:\n      0x04\n      dup1\n      sload\n      tag_115\n      swap1\n      tag_85\n      jump\t// in\n    tag_115:\n      dup1\n      0x1f\n      add\n      0x20\n      dup1\n      swap2\n      div\n      mul\n      0x20\n      add\n      mload(0x40)\n      swap1\n      dup2\n      add\n      0x40\n      mstore\n      dup1\n      swap3\n      swap2\n      swap1\n      dup2\n      dup2\n      mstore\n      0x20\n      add\n      dup3\n      dup1\n      sload\n      tag_116\n      swap1\n      tag_85\n      jump\t// in\n    tag_116:\n      dup1\n      iszero\n      tag_117\n      jumpi\n      dup1\n      0x1f\n      lt\n      tag_118\n      jumpi\n      0x0100\n      dup1\n      dup4\n      sload\n      div\n      mul\n      dup4\n      mstore\n      swap2\n      0x20\n      add\n      swap2\n      jump(tag_117)\n    tag_118:\n      dup3\n      add\n      swap2\n      swap1\n      0x00\n      mstore\n      keccak256(0x00, 0x20)\n      swap1\n    tag_119:\n      dup2\n      sload\n      dup2\n      mstore\n      swap1\n      0x01\n      add\n      swap1\n      0x20\n      add\n      dup1\n      dup4\n      gt\n      tag_119\n      jumpi\n      dup3\n      swap1\n      sub\n      0x1f\n      and\n      dup3\n      add\n      swap2\n    tag_117:\n      pop\n      pop\n      pop\n      pop\n      pop\n      dup2\n      jump\t// out\n        /* \"contracts/BaseToken.sol\":1250:1661  function transfer(address _to, uint256 _value) public override returns (bool success) {... */\n    tag_67:\n        /* \"contracts/BaseToken.sol\":1322:1334  bool success */\n      0x00\n        /* \"contracts/BaseToken.sol\":1363:1364  0 */\n      dup1\n        /* \"contracts/BaseToken.sol\":1354:1360  _value */\n      dup3\n        /* \"contracts/BaseToken.sol\":1354:1364  _value > 0 */\n      gt\n        /* \"contracts/BaseToken.sol\":1346:1409  require(_value > 0, \"value is lower than 1, you cant transfer\") */\n      tag_121\n      jumpi\n      mload(0x40)\n      0x08c379a000000000000000000000000000000000000000000000000000000000\n      dup2\n      mstore\n      0x04\n      add\n      tag_122\n      swap1\n      tag_96\n      jump\t// in\n    tag_122:\n      mload(0x40)\n      dup1\n      swap2\n      sub\n      swap1\n      revert\n    tag_121:\n        /* \"contracts/BaseToken.sol\":1451:1457  _value */\n      dup2\n        /* \"contracts/BaseToken.sol\":1427:1435  balances */\n      0x00\n        /* \"contracts/BaseToken.sol\":1427:1447  balances[msg.sender] */\n      dup1\n        /* \"contracts/BaseToken.sol\":1436:1446  msg.sender */\n      caller\n        /* \"contracts/BaseToken.sol\":1427:1447  balances[msg.sender] */\n      0xffffffffffffffffffffffffffffffffffffffff\n      and\n      0xffffffffffffffffffffffffffffffffffffffff\n      and\n      dup2\n      mstore\n      0x20\n      add\n      swap1\n      dup2\n      mstore\n      0x20\n      add\n      0x00\n      keccak256\n      sload\n        /* \"contracts/BaseToken.sol\":1427:1457  balances[msg.sender] >= _value */\n      lt\n      iszero\n        /* \"contracts/BaseToken.sol\":1419:1512  require(balances[msg.sender] >= _value ,\"sender value needs to be higher than sending value\") */\n      tag_123\n      jumpi\n      mload(0x40)\n      0x08c379a000000000000000000000000000000000000000000000000000000000\n      dup2\n      mstore\n      0x04\n      add\n      tag_124\n      swap1\n      tag_99\n      jump\t// in\n    tag_124:\n      mload(0x40)\n      dup1\n      swap2\n      sub\n      swap1\n      revert\n    tag_123:\n        /* \"contracts/BaseToken.sol\":1546:1552  _value */\n      dup2\n        /* \"contracts/BaseToken.sol\":1522:1530  balances */\n      0x00\n        /* \"contracts/BaseToken.sol\":1522:1542  balances[msg.sender] */\n      dup1\n        /* \"contracts/BaseToken.sol\":1531:1541  msg.sender */\n      caller\n        /* \"contracts/BaseToken.sol\":1522:1542  balances[msg.sender] */\n      0xffffffffffffffffffffffffffffffffffffffff\n      and\n      0xffffffffffffffffffffffffffffffffffffffff\n      and\n      dup2\n      mstore\n      0x20\n      add\n      swap1\n      dup2\n      mstore\n      0x20\n      add\n      0x00\n      keccak256\n      0x00\n        /* \"contracts/BaseToken.sol\":1522:1552  balances[msg.sender] -= _value */\n      dup3\n      dup3\n      sload\n      tag_125\n      swap2\n      swap1\n      tag_106\n      jump\t// in\n    tag_125:\n      swap3\n      pop\n      pop\n      dup2\n      swap1\n      sstore\n      pop\n        /* \"contracts/BaseToken.sol\":1579:1585  _value */\n      dup2\n        /* \"contracts/BaseToken.sol\":1562:1570  balances */\n      0x00\n        /* \"contracts/BaseToken.sol\":1562:1575  balances[_to] */\n      dup1\n        /* \"contracts/BaseToken.sol\":1571:1574  _to */\n      dup6\n        /* \"contracts/BaseToken.sol\":1562:1575  balances[_to] */\n      0xffffffffffffffffffffffffffffffffffffffff\n      and\n      0xffffffffffffffffffffffffffffffffffffffff\n      and\n      dup2\n      mstore\n      0x20\n      add\n      swap1\n      dup2\n      mstore\n      0x20\n      add\n      0x00\n      keccak256\n      0x00\n        /* \"contracts/BaseToken.sol\":1562:1585  balances[_to] += _value */\n      dup3\n      dup3\n      sload\n      tag_126\n      swap2\n      swap1\n      tag_104\n      jump\t// in\n    tag_126:\n      swap3\n      pop\n      pop\n      dup2\n      swap1\n      sstore\n      pop\n        /* \"contracts/BaseToken.sol\":1621:1624  _to */\n      dup3\n        /* \"contracts/BaseToken.sol\":1600:1633  Transfer(msg.sender, _to, _value) */\n      0xffffffffffffffffffffffffffffffffffffffff\n      and\n        /* \"contracts/BaseToken.sol\":1609:1619  msg.sender */\n      caller\n        /* \"contracts/BaseToken.sol\":1600:1633  Transfer(msg.sender, _to, _value) */\n      0xffffffffffffffffffffffffffffffffffffffff\n      and\n      0xddf252ad1be2c89b69c2b068fc378daa952ba7f163c4a11628f55a4df523b3ef\n        /* \"contracts/BaseToken.sol\":1626:1632  _value */\n      dup5\n        /* \"contracts/BaseToken.sol\":1600:1633  Transfer(msg.sender, _to, _value) */\n      mload(0x40)\n      tag_127\n      swap2\n      swap1\n      tag_33\n      jump\t// in\n    tag_127:\n      mload(0x40)\n      dup1\n      swap2\n      sub\n      swap1\n      log3\n        /* \"contracts/BaseToken.sol\":1650:1654  true */\n      0x01\n        /* \"contracts/BaseToken.sol\":1643:1654  return true */\n      swap1\n      pop\n        /* \"contracts/BaseToken.sol\":1250:1661  function transfer(address _to, uint256 _value) public override returns (bool success) {... */\n      swap3\n      swap2\n      pop\n      pop\n      jump\t// out\n        /* \"contracts/BaseToken.sol\":212:241  uint256 public totalSupplyVal */\n    tag_71:\n      sload(0x02)\n      dup2\n      jump\t// out\n        /* \"contracts/BaseToken.sol\":1780:1939  function transferEthToOwner(uint256 _amount) public payable override returns (bool success) {... */\n    tag_76:\n        /* \"contracts/BaseToken.sol\":1858:1870  bool success */\n      0x00\n        /* \"contracts/BaseToken.sol\":1882:1893  fundsWallet */\n      0x07\n      0x00\n      swap1\n      sload\n      swap1\n      0x0100\n      exp\n      swap1\n      div\n      0xffffffffffffffffffffffffffffffffffffffff\n      and\n        /* \"contracts/BaseToken.sol\":1882:1902  fundsWallet.transfer */\n      0xffffffffffffffffffffffffffffffffffffffff\n      and\n        /* \"contracts/BaseToken.sol\":1882:1911  fundsWallet.transfer(_amount) */\n      0x08fc\n        /* \"contracts/BaseToken.sol\":1903:1910  _amount */\n      dup4\n        /* \"contracts/BaseToken.sol\":1882:1911  fundsWallet.transfer(_amount) */\n      swap1\n      dup2\n      iszero\n      mul\n      swap1\n      mload(0x40)\n      0x00\n      mload(0x40)\n      dup1\n      dup4\n      sub\n      dup2\n      dup6\n      dup9\n      dup9\n      call\n      swap4\n      pop\n      pop\n      pop\n      pop\n      iszero\n      dup1\n      iszero\n      tag_130\n      jumpi\n      returndatasize\n      0x00\n      dup1\n      returndatacopy\n      revert(0x00, returndatasize)\n    tag_130:\n      pop\n        /* \"contracts/BaseToken.sol\":1928:1932  true */\n      0x01\n        /* \"contracts/BaseToken.sol\":1921:1932  return true */\n      swap1\n      pop\n        /* \"contracts/BaseToken.sol\":1780:1939  function transferEthToOwner(uint256 _amount) public payable override returns (bool success) {... */\n      swap2\n      swap1\n      pop\n      jump\t// out\n        /* \"contracts/BaseToken.sol\":2904:3053  function allowance(address _owner, address _spender) public override view returns(uint256 remaining){... */\n    tag_82:\n        /* \"contracts/BaseToken.sol\":2986:3003  uint256 remaining */\n      0x00\n        /* \"contracts/BaseToken.sol\":3021:3028  allowed */\n      0x01\n        /* \"contracts/BaseToken.sol\":3021:3036  allowed[_owner] */\n      0x00\n        /* \"contracts/BaseToken.sol\":3029:3035  _owner */\n      dup5\n        /* \"contracts/BaseToken.sol\":3021:3036  allowed[_owner] */\n      0xffffffffffffffffffffffffffffffffffffffff\n      and\n      0xffffffffffffffffffffffffffffffffffffffff\n      and\n      dup2\n      mstore\n      0x20\n      add\n      swap1\n      dup2\n      mstore\n      0x20\n      add\n      0x00\n      keccak256\n        /* \"contracts/BaseToken.sol\":3021:3046  allowed[_owner][_spender] */\n      0x00\n        /* \"contracts/BaseToken.sol\":3037:3045  _spender */\n      dup4\n        /* \"contracts/BaseToken.sol\":3021:3046  allowed[_owner][_spender] */\n      0xffffffffffffffffffffffffffffffffffffffff\n      and\n      0xffffffffffffffffffffffffffffffffffffffff\n      and\n      dup2\n      mstore\n      0x20\n      add\n      swap1\n      dup2\n      mstore\n      0x20\n      add\n      0x00\n      keccak256\n      sload\n        /* \"contracts/BaseToken.sol\":3014:3046  return allowed[_owner][_spender] */\n      swap1\n      pop\n        /* \"contracts/BaseToken.sol\":2904:3053  function allowance(address _owner, address _spender) public override view returns(uint256 remaining){... */\n      swap3\n      swap2\n      pop\n      pop\n      jump\t// out\n        /* \"#utility.yul\":7:146   */\n    tag_133:\n        /* \"#utility.yul\":53:58   */\n      0x00\n        /* \"#utility.yul\":91:97   */\n      dup2\n        /* \"#utility.yul\":78:98   */\n      calldataload\n        /* \"#utility.yul\":69:98   */\n      swap1\n      pop\n        /* \"#utility.yul\":107:140   */\n      tag_135\n        /* \"#utility.yul\":134:139   */\n      dup2\n        /* \"#utility.yul\":107:140   */\n      tag_136\n      jump\t// in\n    tag_135:\n        /* \"#utility.yul\":7:146   */\n      swap3\n      swap2\n      pop\n      pop\n      jump\t// out\n        /* \"#utility.yul\":152:291   */\n    tag_137:\n        /* \"#utility.yul\":198:203   */\n      0x00\n        /* \"#utility.yul\":236:242   */\n      dup2\n        /* \"#utility.yul\":223:243   */\n      calldataload\n        /* \"#utility.yul\":214:243   */\n      swap1\n      pop\n        /* \"#utility.yul\":252:285   */\n      tag_139\n        /* \"#utility.yul\":279:284   */\n      dup2\n        /* \"#utility.yul\":252:285   */\n      tag_140\n      jump\t// in\n    tag_139:\n        /* \"#utility.yul\":152:291   */\n      swap3\n      swap2\n      pop\n      pop\n      jump\t// out\n        /* \"#utility.yul\":297:626   */\n    tag_57:\n        /* \"#utility.yul\":356:362   */\n      0x00\n        /* \"#utility.yul\":405:407   */\n      0x20\n        /* \"#utility.yul\":393:402   */\n      dup3\n        /* \"#utility.yul\":384:391   */\n      dup5\n        /* \"#utility.yul\":380:403   */\n      sub\n        /* \"#utility.yul\":376:408   */\n      slt\n        /* \"#utility.yul\":373:492   */\n      iszero\n      tag_142\n      jumpi\n        /* \"#utility.yul\":411:490   */\n      tag_143\n      tag_144\n      jump\t// in\n    tag_143:\n        /* \"#utility.yul\":373:492   */\n    tag_142:\n        /* \"#utility.yul\":531:532   */\n      0x00\n        /* \"#utility.yul\":556:609   */\n      tag_145\n        /* \"#utility.yul\":601:608   */\n      dup5\n        /* \"#utility.yul\":592:598   */\n      dup3\n        /* \"#utility.yul\":581:590   */\n      dup6\n        /* \"#utility.yul\":577:599   */\n      add\n        /* \"#utility.yul\":556:609   */\n      tag_133\n      jump\t// in\n    tag_145:\n        /* \"#utility.yul\":546:609   */\n      swap2\n      pop\n        /* \"#utility.yul\":502:619   */\n      pop\n        /* \"#utility.yul\":297:626   */\n      swap3\n      swap2\n      pop\n      pop\n      jump\t// out\n        /* \"#utility.yul\":632:1106   */\n    tag_81:\n        /* \"#utility.yul\":700:706   */\n      0x00\n        /* \"#utility.yul\":708:714   */\n      dup1\n        /* \"#utility.yul\":757:759   */\n      0x40\n        /* \"#utility.yul\":745:754   */\n      dup4\n        /* \"#utility.yul\":736:743   */\n      dup6\n        /* \"#utility.yul\":732:755   */\n      sub\n        /* \"#utility.yul\":728:760   */\n      slt\n        /* \"#utility.yul\":725:844   */\n      iszero\n      tag_147\n      jumpi\n        /* \"#utility.yul\":763:842   */\n      tag_148\n      tag_144\n      jump\t// in\n    tag_148:\n        /* \"#utility.yul\":725:844   */\n    tag_147:\n        /* \"#utility.yul\":883:884   */\n      0x00\n        /* \"#utility.yul\":908:961   */\n      tag_149\n        /* \"#utility.yul\":953:960   */\n      dup6\n        /* \"#utility.yul\":944:950   */\n      dup3\n        /* \"#utility.yul\":933:942   */\n      dup7\n        /* \"#utility.yul\":929:951   */\n      add\n        /* \"#utility.yul\":908:961   */\n      tag_133\n      jump\t// in\n    tag_149:\n        /* \"#utility.yul\":898:961   */\n      swap3\n      pop\n        /* \"#utility.yul\":854:971   */\n      pop\n        /* \"#utility.yul\":1010:1012   */\n      0x20\n        /* \"#utility.yul\":1036:1089   */\n      tag_150\n        /* \"#utility.yul\":1081:1088   */\n      dup6\n        /* \"#utility.yul\":1072:1078   */\n      dup3\n        /* \"#utility.yul\":1061:1070   */\n      dup7\n        /* \"#utility.yul\":1057:1079   */\n      add\n        /* \"#utility.yul\":1036:1089   */\n      tag_133\n      jump\t// in\n    tag_150:\n        /* \"#utility.yul\":1026:1089   */\n      swap2\n      pop\n        /* \"#utility.yul\":981:1099   */\n      pop\n        /* \"#utility.yul\":632:1106   */\n      swap3\n      pop\n      swap3\n      swap1\n      pop\n      jump\t// out\n        /* \"#utility.yul\":1112:1731   */\n    tag_42:\n        /* \"#utility.yul\":1189:1195   */\n      0x00\n        /* \"#utility.yul\":1197:1203   */\n      dup1\n        /* \"#utility.yul\":1205:1211   */\n      0x00\n        /* \"#utility.yul\":1254:1256   */\n      0x60\n        /* \"#utility.yul\":1242:1251   */\n      dup5\n        /* \"#utility.yul\":1233:1240   */\n      dup7\n        /* \"#utility.yul\":1229:1252   */\n      sub\n        /* \"#utility.yul\":1225:1257   */\n      slt\n        /* \"#utility.yul\":1222:1341   */\n      iszero\n      tag_152\n      jumpi\n        /* \"#utility.yul\":1260:1339   */\n      tag_153\n      tag_144\n      jump\t// in\n    tag_153:\n        /* \"#utility.yul\":1222:1341   */\n    tag_152:\n        /* \"#utility.yul\":1380:1381   */\n      0x00\n        /* \"#utility.yul\":1405:1458   */\n      tag_154\n        /* \"#utility.yul\":1450:1457   */\n      dup7\n        /* \"#utility.yul\":1441:1447   */\n      dup3\n        /* \"#utility.yul\":1430:1439   */\n      dup8\n        /* \"#utility.yul\":1426:1448   */\n      add\n        /* \"#utility.yul\":1405:1458   */\n      tag_133\n      jump\t// in\n    tag_154:\n        /* \"#utility.yul\":1395:1458   */\n      swap4\n      pop\n        /* \"#utility.yul\":1351:1468   */\n      pop\n        /* \"#utility.yul\":1507:1509   */\n      0x20\n        /* \"#utility.yul\":1533:1586   */\n      tag_155\n        /* \"#utility.yul\":1578:1585   */\n      dup7\n        /* \"#utility.yul\":1569:1575   */\n      dup3\n        /* \"#utility.yul\":1558:1567   */\n      dup8\n        /* \"#utility.yul\":1554:1576   */\n      add\n        /* \"#utility.yul\":1533:1586   */\n      tag_133\n      jump\t// in\n    tag_155:\n        /* \"#utility.yul\":1523:1586   */\n      swap3\n      pop\n        /* \"#utility.yul\":1478:1596   */\n      pop\n        /* \"#utility.yul\":1635:1637   */\n      0x40\n        /* \"#utility.yul\":1661:1714   */\n      tag_156\n        /* \"#utility.yul\":1706:1713   */\n      dup7\n        /* \"#utility.yul\":1697:1703   */\n      dup3\n        /* \"#utility.yul\":1686:1695   */\n      dup8\n        /* \"#utility.yul\":1682:1704   */\n      add\n        /* \"#utility.yul\":1661:1714   */\n      tag_137\n      jump\t// in\n    tag_156:\n        /* \"#utility.yul\":1651:1714   */\n      swap2\n      pop\n        /* \"#utility.yul\":1606:1724   */\n      pop\n        /* \"#utility.yul\":1112:1731   */\n      swap3\n      pop\n      swap3\n      pop\n      swap3\n      jump\t// out\n        /* \"#utility.yul\":1737:2211   */\n    tag_25:\n        /* \"#utility.yul\":1805:1811   */\n      0x00\n        /* \"#utility.yul\":1813:1819   */\n      dup1\n        /* \"#utility.yul\":1862:1864   */\n      0x40\n        /* \"#utility.yul\":1850:1859   */\n      dup4\n        /* \"#utility.yul\":1841:1848   */\n      dup6\n        /* \"#utility.yul\":1837:1860   */\n      sub\n        /* \"#utility.yul\":1833:1865   */\n      slt\n        /* \"#utility.yul\":1830:1949   */\n      iszero\n      tag_158\n      jumpi\n        /* \"#utility.yul\":1868:1947   */\n      tag_159\n      tag_144\n      jump\t// in\n    tag_159:\n        /* \"#utility.yul\":1830:1949   */\n    tag_158:\n        /* \"#utility.yul\":1988:1989   */\n      0x00\n        /* \"#utility.yul\":2013:2066   */\n      tag_160\n        /* \"#utility.yul\":2058:2065   */\n      dup6\n        /* \"#utility.yul\":2049:2055   */\n      dup3\n        /* \"#utility.yul\":2038:2047   */\n      dup7\n        /* \"#utility.yul\":2034:2056   */\n      add\n        /* \"#utility.yul\":2013:2066   */\n      tag_133\n      jump\t// in\n    tag_160:\n        /* \"#utility.yul\":2003:2066   */\n      swap3\n      pop\n        /* \"#utility.yul\":1959:2076   */\n      pop\n        /* \"#utility.yul\":2115:2117   */\n      0x20\n        /* \"#utility.yul\":2141:2194   */\n      tag_161\n        /* \"#utility.yul\":2186:2193   */\n      dup6\n        /* \"#utility.yul\":2177:2183   */\n      dup3\n        /* \"#utility.yul\":2166:2175   */\n      dup7\n        /* \"#utility.yul\":2162:2184   */\n      add\n        /* \"#utility.yul\":2141:2194   */\n      tag_137\n      jump\t// in\n    tag_161:\n        /* \"#utility.yul\":2131:2194   */\n      swap2\n      pop\n        /* \"#utility.yul\":2086:2204   */\n      pop\n        /* \"#utility.yul\":1737:2211   */\n      swap3\n      pop\n      swap3\n      swap1\n      pop\n      jump\t// out\n        /* \"#utility.yul\":2217:2546   */\n    tag_75:\n        /* \"#utility.yul\":2276:2282   */\n      0x00\n        /* \"#utility.yul\":2325:2327   */\n      0x20\n        /* \"#utility.yul\":2313:2322   */\n      dup3\n        /* \"#utility.yul\":2304:2311   */\n      dup5\n        /* \"#utility.yul\":2300:2323   */\n      sub\n        /* \"#utility.yul\":2296:2328   */\n      slt\n        /* \"#utility.yul\":2293:2412   */\n      iszero\n      tag_163\n      jumpi\n        /* \"#utility.yul\":2331:2410   */\n      tag_164\n      tag_144\n      jump\t// in\n    tag_164:\n        /* \"#utility.yul\":2293:2412   */\n    tag_163:\n        /* \"#utility.yul\":2451:2452   */\n      0x00\n        /* \"#utility.yul\":2476:2529   */\n      tag_165\n        /* \"#utility.yul\":2521:2528   */\n      dup5\n        /* \"#utility.yul\":2512:2518   */\n      dup3\n        /* \"#utility.yul\":2501:2510   */\n      dup6\n        /* \"#utility.yul\":2497:2519   */\n      add\n        /* \"#utility.yul\":2476:2529   */\n      tag_137\n      jump\t// in\n    tag_165:\n        /* \"#utility.yul\":2466:2529   */\n      swap2\n      pop\n        /* \"#utility.yul\":2422:2539   */\n      pop\n        /* \"#utility.yul\":2217:2546   */\n      swap3\n      swap2\n      pop\n      pop\n      jump\t// out\n        /* \"#utility.yul\":2552:2694   */\n    tag_166:\n        /* \"#utility.yul\":2655:2687   */\n      tag_168\n        /* \"#utility.yul\":2681:2686   */\n      dup2\n        /* \"#utility.yul\":2655:2687   */\n      tag_169\n      jump\t// in\n    tag_168:\n        /* \"#utility.yul\":2650:2653   */\n      dup3\n        /* \"#utility.yul\":2643:2688   */\n      mstore\n        /* \"#utility.yul\":2552:2694   */\n      pop\n      pop\n      jump\t// out\n        /* \"#utility.yul\":2700:2809   */\n    tag_170:\n        /* \"#utility.yul\":2781:2802   */\n      tag_172\n        /* \"#utility.yul\":2796:2801   */\n      dup2\n        /* \"#utility.yul\":2781:2802   */\n      tag_173\n      jump\t// in\n    tag_172:\n        /* \"#utility.yul\":2776:2779   */\n      dup3\n        /* \"#utility.yul\":2769:2803   */\n      mstore\n        /* \"#utility.yul\":2700:2809   */\n      pop\n      pop\n      jump\t// out\n        /* \"#utility.yul\":2815:3179   */\n    tag_174:\n        /* \"#utility.yul\":2903:2906   */\n      0x00\n        /* \"#utility.yul\":2931:2970   */\n      tag_176\n        /* \"#utility.yul\":2964:2969   */\n      dup3\n        /* \"#utility.yul\":2931:2970   */\n      tag_177\n      jump\t// in\n    tag_176:\n        /* \"#utility.yul\":2986:3057   */\n      tag_178\n        /* \"#utility.yul\":3050:3056   */\n      dup2\n        /* \"#utility.yul\":3045:3048   */\n      dup6\n        /* \"#utility.yul\":2986:3057   */\n      tag_179\n      jump\t// in\n    tag_178:\n        /* \"#utility.yul\":2979:3057   */\n      swap4\n      pop\n        /* \"#utility.yul\":3066:3118   */\n      tag_180\n        /* \"#utility.yul\":3111:3117   */\n      dup2\n        /* \"#utility.yul\":3106:3109   */\n      dup6\n        /* \"#utility.yul\":3099:3103   */\n      0x20\n        /* \"#utility.yul\":3092:3097   */\n      dup7\n        /* \"#utility.yul\":3088:3104   */\n      add\n        /* \"#utility.yul\":3066:3118   */\n      tag_181\n      jump\t// in\n    tag_180:\n        /* \"#utility.yul\":3143:3172   */\n      tag_182\n        /* \"#utility.yul\":3165:3171   */\n      dup2\n        /* \"#utility.yul\":3143:3172   */\n      tag_183\n      jump\t// in\n    tag_182:\n        /* \"#utility.yul\":3138:3141   */\n      dup5\n        /* \"#utility.yul\":3134:3173   */\n      add\n        /* \"#utility.yul\":3127:3173   */\n      swap2\n      pop\n        /* \"#utility.yul\":2907:3179   */\n      pop\n        /* \"#utility.yul\":2815:3179   */\n      swap3\n      swap2\n      pop\n      pop\n      jump\t// out\n        /* \"#utility.yul\":3185:3551   */\n    tag_184:\n        /* \"#utility.yul\":3327:3330   */\n      0x00\n        /* \"#utility.yul\":3348:3415   */\n      tag_186\n        /* \"#utility.yul\":3412:3414   */\n      0x20\n        /* \"#utility.yul\":3407:3410   */\n      dup4\n        /* \"#utility.yul\":3348:3415   */\n      tag_179\n      jump\t// in\n    tag_186:\n        /* \"#utility.yul\":3341:3415   */\n      swap2\n      pop\n        /* \"#utility.yul\":3424:3517   */\n      tag_187\n        /* \"#utility.yul\":3513:3516   */\n      dup3\n        /* \"#utility.yul\":3424:3517   */\n      tag_188\n      jump\t// in\n    tag_187:\n        /* \"#utility.yul\":3542:3544   */\n      0x20\n        /* \"#utility.yul\":3537:3540   */\n      dup3\n        /* \"#utility.yul\":3533:3545   */\n      add\n        /* \"#utility.yul\":3526:3545   */\n      swap1\n      pop\n        /* \"#utility.yul\":3185:3551   */\n      swap2\n      swap1\n      pop\n      jump\t// out\n        /* \"#utility.yul\":3557:3923   */\n    tag_189:\n        /* \"#utility.yul\":3699:3702   */\n      0x00\n        /* \"#utility.yul\":3720:3787   */\n      tag_191\n        /* \"#utility.yul\":3784:3786   */\n      0x28\n        /* \"#utility.yul\":3779:3782   */\n      dup4\n        /* \"#utility.yul\":3720:3787   */\n      tag_179\n      jump\t// in\n    tag_191:\n        /* \"#utility.yul\":3713:3787   */\n      swap2\n      pop\n        /* \"#utility.yul\":3796:3889   */\n      tag_192\n        /* \"#utility.yul\":3885:3888   */\n      dup3\n        /* \"#utility.yul\":3796:3889   */\n      tag_193\n      jump\t// in\n    tag_192:\n        /* \"#utility.yul\":3914:3916   */\n      0x40\n        /* \"#utility.yul\":3909:3912   */\n      dup3\n        /* \"#utility.yul\":3905:3917   */\n      add\n        /* \"#utility.yul\":3898:3917   */\n      swap1\n      pop\n        /* \"#utility.yul\":3557:3923   */\n      swap2\n      swap1\n      pop\n      jump\t// out\n        /* \"#utility.yul\":3929:4295   */\n    tag_194:\n        /* \"#utility.yul\":4071:4074   */\n      0x00\n        /* \"#utility.yul\":4092:4159   */\n      tag_196\n        /* \"#utility.yul\":4156:4158   */\n      0x32\n        /* \"#utility.yul\":4151:4154   */\n      dup4\n        /* \"#utility.yul\":4092:4159   */\n      tag_179\n      jump\t// in\n    tag_196:\n        /* \"#utility.yul\":4085:4159   */\n      swap2\n      pop\n        /* \"#utility.yul\":4168:4261   */\n      tag_197\n        /* \"#utility.yul\":4257:4260   */\n      dup3\n        /* \"#utility.yul\":4168:4261   */\n      tag_198\n      jump\t// in\n    tag_197:\n        /* \"#utility.yul\":4286:4288   */\n      0x40\n        /* \"#utility.yul\":4281:4284   */\n      dup3\n        /* \"#utility.yul\":4277:4289   */\n      add\n        /* \"#utility.yul\":4270:4289   */\n      swap1\n      pop\n        /* \"#utility.yul\":3929:4295   */\n      swap2\n      swap1\n      pop\n      jump\t// out\n        /* \"#utility.yul\":4301:4419   */\n    tag_199:\n        /* \"#utility.yul\":4388:4412   */\n      tag_201\n        /* \"#utility.yul\":4406:4411   */\n      dup2\n        /* \"#utility.yul\":4388:4412   */\n      tag_202\n      jump\t// in\n    tag_201:\n        /* \"#utility.yul\":4383:4386   */\n      dup3\n        /* \"#utility.yul\":4376:4413   */\n      mstore\n        /* \"#utility.yul\":4301:4419   */\n      pop\n      pop\n      jump\t// out\n        /* \"#utility.yul\":4425:4537   */\n    tag_203:\n        /* \"#utility.yul\":4508:4530   */\n      tag_205\n        /* \"#utility.yul\":4524:4529   */\n      dup2\n        /* \"#utility.yul\":4508:4530   */\n      tag_206\n      jump\t// in\n    tag_205:\n        /* \"#utility.yul\":4503:4506   */\n      dup3\n        /* \"#utility.yul\":4496:4531   */\n      mstore\n        /* \"#utility.yul\":4425:4537   */\n      pop\n      pop\n      jump\t// out\n        /* \"#utility.yul\":4543:4797   */\n    tag_38:\n        /* \"#utility.yul\":4652:4656   */\n      0x00\n        /* \"#utility.yul\":4690:4692   */\n      0x20\n        /* \"#utility.yul\":4679:4688   */\n      dup3\n        /* \"#utility.yul\":4675:4693   */\n      add\n        /* \"#utility.yul\":4667:4693   */\n      swap1\n      pop\n        /* \"#utility.yul\":4703:4790   */\n      tag_208\n        /* \"#utility.yul\":4787:4788   */\n      0x00\n        /* \"#utility.yul\":4776:4785   */\n      dup4\n        /* \"#utility.yul\":4772:4789   */\n      add\n        /* \"#utility.yul\":4763:4769   */\n      dup5\n        /* \"#utility.yul\":4703:4790   */\n      tag_166\n      jump\t// in\n    tag_208:\n        /* \"#utility.yul\":4543:4797   */\n      swap3\n      swap2\n      pop\n      pop\n      jump\t// out\n        /* \"#utility.yul\":4803:5013   */\n    tag_28:\n        /* \"#utility.yul\":4890:4894   */\n      0x00\n        /* \"#utility.yul\":4928:4930   */\n      0x20\n        /* \"#utility.yul\":4917:4926   */\n      dup3\n        /* \"#utility.yul\":4913:4931   */\n      add\n        /* \"#utility.yul\":4905:4931   */\n      swap1\n      pop\n        /* \"#utility.yul\":4941:5006   */\n      tag_210\n        /* \"#utility.yul\":5003:5004   */\n      0x00\n        /* \"#utility.yul\":4992:5001   */\n      dup4\n        /* \"#utility.yul\":4988:5005   */\n      add\n        /* \"#utility.yul\":4979:4985   */\n      dup5\n        /* \"#utility.yul\":4941:5006   */\n      tag_170\n      jump\t// in\n    tag_210:\n        /* \"#utility.yul\":4803:5013   */\n      swap3\n      swap2\n      pop\n      pop\n      jump\t// out\n        /* \"#utility.yul\":5019:5332   */\n    tag_21:\n        /* \"#utility.yul\":5132:5136   */\n      0x00\n        /* \"#utility.yul\":5170:5172   */\n      0x20\n        /* \"#utility.yul\":5159:5168   */\n      dup3\n        /* \"#utility.yul\":5155:5173   */\n      add\n        /* \"#utility.yul\":5147:5173   */\n      swap1\n      pop\n        /* \"#utility.yul\":5219:5228   */\n      dup2\n        /* \"#utility.yul\":5213:5217   */\n      dup2\n        /* \"#utility.yul\":5209:5229   */\n      sub\n        /* \"#utility.yul\":5205:5206   */\n      0x00\n        /* \"#utility.yul\":5194:5203   */\n      dup4\n        /* \"#utility.yul\":5190:5207   */\n      add\n        /* \"#utility.yul\":5183:5230   */\n      mstore\n        /* \"#utility.yul\":5247:5325   */\n      tag_212\n        /* \"#utility.yul\":5320:5324   */\n      dup2\n        /* \"#utility.yul\":5311:5317   */\n      dup5\n        /* \"#utility.yul\":5247:5325   */\n      tag_174\n      jump\t// in\n    tag_212:\n        /* \"#utility.yul\":5239:5325   */\n      swap1\n      pop\n        /* \"#utility.yul\":5019:5332   */\n      swap3\n      swap2\n      pop\n      pop\n      jump\t// out\n        /* \"#utility.yul\":5338:5757   */\n    tag_102:\n        /* \"#utility.yul\":5504:5508   */\n      0x00\n        /* \"#utility.yul\":5542:5544   */\n      0x20\n        /* \"#utility.yul\":5531:5540   */\n      dup3\n        /* \"#utility.yul\":5527:5545   */\n      add\n        /* \"#utility.yul\":5519:5545   */\n      swap1\n      pop\n        /* \"#utility.yul\":5591:5600   */\n      dup2\n        /* \"#utility.yul\":5585:5589   */\n      dup2\n        /* \"#utility.yul\":5581:5601   */\n      sub\n        /* \"#utility.yul\":5577:5578   */\n      0x00\n        /* \"#utility.yul\":5566:5575   */\n      dup4\n        /* \"#utility.yul\":5562:5579   */\n      add\n        /* \"#utility.yul\":5555:5602   */\n      mstore\n        /* \"#utility.yul\":5619:5750   */\n      tag_214\n        /* \"#utility.yul\":5745:5749   */\n      dup2\n        /* \"#utility.yul\":5619:5750   */\n      tag_184\n      jump\t// in\n    tag_214:\n        /* \"#utility.yul\":5611:5750   */\n      swap1\n      pop\n        /* \"#utility.yul\":5338:5757   */\n      swap2\n      swap1\n      pop\n      jump\t// out\n        /* \"#utility.yul\":5763:6182   */\n    tag_96:\n        /* \"#utility.yul\":5929:5933   */\n      0x00\n        /* \"#utility.yul\":5967:5969   */\n      0x20\n        /* \"#utility.yul\":5956:5965   */\n      dup3\n        /* \"#utility.yul\":5952:5970   */\n      add\n        /* \"#utility.yul\":5944:5970   */\n      swap1\n      pop\n        /* \"#utility.yul\":6016:6025   */\n      dup2\n        /* \"#utility.yul\":6010:6014   */\n      dup2\n        /* \"#utility.yul\":6006:6026   */\n      sub\n        /* \"#utility.yul\":6002:6003   */\n      0x00\n        /* \"#utility.yul\":5991:6000   */\n      dup4\n        /* \"#utility.yul\":5987:6004   */\n      add\n        /* \"#utility.yul\":5980:6027   */\n      mstore\n        /* \"#utility.yul\":6044:6175   */\n      tag_216\n        /* \"#utility.yul\":6170:6174   */\n      dup2\n        /* \"#utility.yul\":6044:6175   */\n      tag_189\n      jump\t// in\n    tag_216:\n        /* \"#utility.yul\":6036:6175   */\n      swap1\n      pop\n        /* \"#utility.yul\":5763:6182   */\n      swap2\n      swap1\n      pop\n      jump\t// out\n        /* \"#utility.yul\":6188:6607   */\n    tag_99:\n        /* \"#utility.yul\":6354:6358   */\n      0x00\n        /* \"#utility.yul\":6392:6394   */\n      0x20\n        /* \"#utility.yul\":6381:6390   */\n      dup3\n        /* \"#utility.yul\":6377:6395   */\n      add\n        /* \"#utility.yul\":6369:6395   */\n      swap1\n      pop\n        /* \"#utility.yul\":6441:6450   */\n      dup2\n        /* \"#utility.yul\":6435:6439   */\n      dup2\n        /* \"#utility.yul\":6431:6451   */\n      sub\n        /* \"#utility.yul\":6427:6428   */\n      0x00\n        /* \"#utility.yul\":6416:6425   */\n      dup4\n        /* \"#utility.yul\":6412:6429   */\n      add\n        /* \"#utility.yul\":6405:6452   */\n      mstore\n        /* \"#utility.yul\":6469:6600   */\n      tag_218\n        /* \"#utility.yul\":6595:6599   */\n      dup2\n        /* \"#utility.yul\":6469:6600   */\n      tag_194\n      jump\t// in\n    tag_218:\n        /* \"#utility.yul\":6461:6600   */\n      swap1\n      pop\n        /* \"#utility.yul\":6188:6607   */\n      swap2\n      swap1\n      pop\n      jump\t// out\n        /* \"#utility.yul\":6613:6835   */\n    tag_33:\n        /* \"#utility.yul\":6706:6710   */\n      0x00\n        /* \"#utility.yul\":6744:6746   */\n      0x20\n        /* \"#utility.yul\":6733:6742   */\n      dup3\n        /* \"#utility.yul\":6729:6747   */\n      add\n        /* \"#utility.yul\":6721:6747   */\n      swap1\n      pop\n        /* \"#utility.yul\":6757:6828   */\n      tag_220\n        /* \"#utility.yul\":6825:6826   */\n      0x00\n        /* \"#utility.yul\":6814:6823   */\n      dup4\n        /* \"#utility.yul\":6810:6827   */\n      add\n        /* \"#utility.yul\":6801:6807   */\n      dup5\n        /* \"#utility.yul\":6757:6828   */\n      tag_199\n      jump\t// in\n    tag_220:\n        /* \"#utility.yul\":6613:6835   */\n      swap3\n      swap2\n      pop\n      pop\n      jump\t// out\n        /* \"#utility.yul\":6841:7055   */\n    tag_49:\n        /* \"#utility.yul\":6930:6934   */\n      0x00\n        /* \"#utility.yul\":6968:6970   */\n      0x20\n        /* \"#utility.yul\":6957:6966   */\n      dup3\n        /* \"#utility.yul\":6953:6971   */\n      add\n        /* \"#utility.yul\":6945:6971   */\n      swap1\n      pop\n        /* \"#utility.yul\":6981:7048   */\n      tag_222\n        /* \"#utility.yul\":7045:7046   */\n      0x00\n        /* \"#utility.yul\":7034:7043   */\n      dup4\n        /* \"#utility.yul\":7030:7047   */\n      add\n        /* \"#utility.yul\":7021:7027   */\n      dup5\n        /* \"#utility.yul\":6981:7048   */\n      tag_203\n      jump\t// in\n    tag_222:\n        /* \"#utility.yul\":6841:7055   */\n      swap3\n      swap2\n      pop\n      pop\n      jump\t// out\n        /* \"#utility.yul\":7142:7241   */\n    tag_177:\n        /* \"#utility.yul\":7194:7200   */\n      0x00\n        /* \"#utility.yul\":7228:7233   */\n      dup2\n        /* \"#utility.yul\":7222:7234   */\n      mload\n        /* \"#utility.yul\":7212:7234   */\n      swap1\n      pop\n        /* \"#utility.yul\":7142:7241   */\n      swap2\n      swap1\n      pop\n      jump\t// out\n        /* \"#utility.yul\":7247:7416   */\n    tag_179:\n        /* \"#utility.yul\":7331:7342   */\n      0x00\n        /* \"#utility.yul\":7365:7371   */\n      dup3\n        /* \"#utility.yul\":7360:7363   */\n      dup3\n        /* \"#utility.yul\":7353:7372   */\n      mstore\n        /* \"#utility.yul\":7405:7409   */\n      0x20\n        /* \"#utility.yul\":7400:7403   */\n      dup3\n        /* \"#utility.yul\":7396:7410   */\n      add\n        /* \"#utility.yul\":7381:7410   */\n      swap1\n      pop\n        /* \"#utility.yul\":7247:7416   */\n      swap3\n      swap2\n      pop\n      pop\n      jump\t// out\n        /* \"#utility.yul\":7422:7727   */\n    tag_104:\n        /* \"#utility.yul\":7462:7465   */\n      0x00\n        /* \"#utility.yul\":7481:7501   */\n      tag_228\n        /* \"#utility.yul\":7499:7500   */\n      dup3\n        /* \"#utility.yul\":7481:7501   */\n      tag_202\n      jump\t// in\n    tag_228:\n        /* \"#utility.yul\":7476:7501   */\n      swap2\n      pop\n        /* \"#utility.yul\":7515:7535   */\n      tag_229\n        /* \"#utility.yul\":7533:7534   */\n      dup4\n        /* \"#utility.yul\":7515:7535   */\n      tag_202\n      jump\t// in\n    tag_229:\n        /* \"#utility.yul\":7510:7535   */\n      swap3\n      pop\n        /* \"#utility.yul\":7669:7670   */\n      dup3\n        /* \"#utility.yul\":7601:7667   */\n      0xffffffffffffffffffffffffffffffffffffffffffffffffffffffffffffffff\n        /* \"#utility.yul\":7597:7671   */\n      sub\n        /* \"#utility.yul\":7594:7595   */\n      dup3\n        /* \"#utility.yul\":7591:7672   */\n      gt\n        /* \"#utility.yul\":7588:7695   */\n      iszero\n      tag_230\n      jumpi\n        /* \"#utility.yul\":7675:7693   */\n      tag_231\n      tag_232\n      jump\t// in\n    tag_231:\n        /* \"#utility.yul\":7588:7695   */\n    tag_230:\n        /* \"#utility.yul\":7719:7720   */\n      dup3\n        /* \"#utility.yul\":7716:7717   */\n      dup3\n        /* \"#utility.yul\":7712:7721   */\n      add\n        /* \"#utility.yul\":7705:7721   */\n      swap1\n      pop\n        /* \"#utility.yul\":7422:7727   */\n      swap3\n      swap2\n      pop\n      pop\n      jump\t// out\n        /* \"#utility.yul\":7733:7924   */\n    tag_106:\n        /* \"#utility.yul\":7773:7777   */\n      0x00\n        /* \"#utility.yul\":7793:7813   */\n      tag_234\n        /* \"#utility.yul\":7811:7812   */\n      dup3\n        /* \"#utility.yul\":7793:7813   */\n      tag_202\n      jump\t// in\n    tag_234:\n        /* \"#utility.yul\":7788:7813   */\n      swap2\n      pop\n        /* \"#utility.yul\":7827:7847   */\n      tag_235\n        /* \"#utility.yul\":7845:7846   */\n      dup4\n        /* \"#utility.yul\":7827:7847   */\n      tag_202\n      jump\t// in\n    tag_235:\n        /* \"#utility.yul\":7822:7847   */\n      swap3\n      pop\n        /* \"#utility.yul\":7866:7867   */\n      dup3\n        /* \"#utility.yul\":7863:7864   */\n      dup3\n        /* \"#utility.yul\":7860:7868   */\n      lt\n        /* \"#utility.yul\":7857:7891   */\n      iszero\n      tag_236\n      jumpi\n        /* \"#utility.yul\":7871:7889   */\n      tag_237\n      tag_232\n      jump\t// in\n    tag_237:\n        /* \"#utility.yul\":7857:7891   */\n    tag_236:\n        /* \"#utility.yul\":7916:7917   */\n      dup3\n        /* \"#utility.yul\":7913:7914   */\n      dup3\n        /* \"#utility.yul\":7909:7918   */\n      sub\n        /* \"#utility.yul\":7901:7918   */\n      swap1\n      pop\n        /* \"#utility.yul\":7733:7924   */\n      swap3\n      swap2\n      pop\n      pop\n      jump\t// out\n        /* \"#utility.yul\":7930:8026   */\n    tag_238:\n        /* \"#utility.yul\":7967:7974   */\n      0x00\n        /* \"#utility.yul\":7996:8020   */\n      tag_240\n        /* \"#utility.yul\":8014:8019   */\n      dup3\n        /* \"#utility.yul\":7996:8020   */\n      tag_241\n      jump\t// in\n    tag_240:\n        /* \"#utility.yul\":7985:8020   */\n      swap1\n      pop\n        /* \"#utility.yul\":7930:8026   */\n      swap2\n      swap1\n      pop\n      jump\t// out\n        /* \"#utility.yul\":8032:8136   */\n    tag_169:\n        /* \"#utility.yul\":8077:8084   */\n      0x00\n        /* \"#utility.yul\":8106:8130   */\n      tag_243\n        /* \"#utility.yul\":8124:8129   */\n      dup3\n        /* \"#utility.yul\":8106:8130   */\n      tag_241\n      jump\t// in\n    tag_243:\n        /* \"#utility.yul\":8095:8130   */\n      swap1\n      pop\n        /* \"#utility.yul\":8032:8136   */\n      swap2\n      swap1\n      pop\n      jump\t// out\n        /* \"#utility.yul\":8142:8232   */\n    tag_173:\n        /* \"#utility.yul\":8176:8183   */\n      0x00\n        /* \"#utility.yul\":8219:8224   */\n      dup2\n        /* \"#utility.yul\":8212:8225   */\n      iszero\n        /* \"#utility.yul\":8205:8226   */\n      iszero\n        /* \"#utility.yul\":8194:8226   */\n      swap1\n      pop\n        /* \"#utility.yul\":8142:8232   */\n      swap2\n      swap1\n      pop\n      jump\t// out\n        /* \"#utility.yul\":8238:8364   */\n    tag_241:\n        /* \"#utility.yul\":8275:8282   */\n      0x00\n        /* \"#utility.yul\":8315:8357   */\n      0xffffffffffffffffffffffffffffffffffffffff\n        /* \"#utility.yul\":8308:8313   */\n      dup3\n        /* \"#utility.yul\":8304:8358   */\n      and\n        /* \"#utility.yul\":8293:8358   */\n      swap1\n      pop\n        /* \"#utility.yul\":8238:8364   */\n      swap2\n      swap1\n      pop\n      jump\t// out\n        /* \"#utility.yul\":8370:8447   */\n    tag_202:\n        /* \"#utility.yul\":8407:8414   */\n      0x00\n        /* \"#utility.yul\":8436:8441   */\n      dup2\n        /* \"#utility.yul\":8425:8441   */\n      swap1\n      pop\n        /* \"#utility.yul\":8370:8447   */\n      swap2\n      swap1\n      pop\n      jump\t// out\n        /* \"#utility.yul\":8453:8539   */\n    tag_206:\n        /* \"#utility.yul\":8488:8495   */\n      0x00\n        /* \"#utility.yul\":8528:8532   */\n      0xff\n        /* \"#utility.yul\":8521:8526   */\n      dup3\n        /* \"#utility.yul\":8517:8533   */\n      and\n        /* \"#utility.yul\":8506:8533   */\n      swap1\n      pop\n        /* \"#utility.yul\":8453:8539   */\n      swap2\n      swap1\n      pop\n      jump\t// out\n        /* \"#utility.yul\":8545:8852   */\n    tag_181:\n        /* \"#utility.yul\":8613:8614   */\n      0x00\n        /* \"#utility.yul\":8623:8736   */\n    tag_249:\n        /* \"#utility.yul\":8637:8643   */\n      dup4\n        /* \"#utility.yul\":8634:8635   */\n      dup2\n        /* \"#utility.yul\":8631:8644   */\n      lt\n        /* \"#utility.yul\":8623:8736   */\n      iszero\n      tag_251\n      jumpi\n        /* \"#utility.yul\":8722:8723   */\n      dup1\n        /* \"#utility.yul\":8717:8720   */\n      dup3\n        /* \"#utility.yul\":8713:8724   */\n      add\n        /* \"#utility.yul\":8707:8725   */\n      mload\n        /* \"#utility.yul\":8703:8704   */\n      dup2\n        /* \"#utility.yul\":8698:8701   */\n      dup5\n        /* \"#utility.yul\":8694:8705   */\n      add\n        /* \"#utility.yul\":8687:8726   */\n      mstore\n        /* \"#utility.yul\":8659:8661   */\n      0x20\n        /* \"#utility.yul\":8656:8657   */\n      dup2\n        /* \"#utility.yul\":8652:8662   */\n      add\n        /* \"#utility.yul\":8647:8662   */\n      swap1\n      pop\n        /* \"#utility.yul\":8623:8736   */\n      jump(tag_249)\n    tag_251:\n        /* \"#utility.yul\":8754:8760   */\n      dup4\n        /* \"#utility.yul\":8751:8752   */\n      dup2\n        /* \"#utility.yul\":8748:8761   */\n      gt\n        /* \"#utility.yul\":8745:8846   */\n      iszero\n      tag_252\n      jumpi\n        /* \"#utility.yul\":8834:8835   */\n      0x00\n        /* \"#utility.yul\":8825:8831   */\n      dup5\n        /* \"#utility.yul\":8820:8823   */\n      dup5\n        /* \"#utility.yul\":8816:8832   */\n      add\n        /* \"#utility.yul\":8809:8836   */\n      mstore\n        /* \"#utility.yul\":8745:8846   */\n    tag_252:\n        /* \"#utility.yul\":8594:8852   */\n      pop\n        /* \"#utility.yul\":8545:8852   */\n      pop\n      pop\n      pop\n      jump\t// out\n        /* \"#utility.yul\":8858:9178   */\n    tag_85:\n        /* \"#utility.yul\":8902:8908   */\n      0x00\n        /* \"#utility.yul\":8939:8940   */\n      0x02\n        /* \"#utility.yul\":8933:8937   */\n      dup3\n        /* \"#utility.yul\":8929:8941   */\n      div\n        /* \"#utility.yul\":8919:8941   */\n      swap1\n      pop\n        /* \"#utility.yul\":8986:8987   */\n      0x01\n        /* \"#utility.yul\":8980:8984   */\n      dup3\n        /* \"#utility.yul\":8976:8988   */\n      and\n        /* \"#utility.yul\":9007:9025   */\n      dup1\n        /* \"#utility.yul\":8997:9078   */\n      tag_254\n      jumpi\n        /* \"#utility.yul\":9063:9067   */\n      0x7f\n        /* \"#utility.yul\":9055:9061   */\n      dup3\n        /* \"#utility.yul\":9051:9068   */\n      and\n        /* \"#utility.yul\":9041:9068   */\n      swap2\n      pop\n        /* \"#utility.yul\":8997:9078   */\n    tag_254:\n        /* \"#utility.yul\":9125:9127   */\n      0x20\n        /* \"#utility.yul\":9117:9123   */\n      dup3\n        /* \"#utility.yul\":9114:9128   */\n      lt\n        /* \"#utility.yul\":9094:9112   */\n      dup2\n        /* \"#utility.yul\":9091:9129   */\n      eq\n        /* \"#utility.yul\":9088:9172   */\n      iszero\n      tag_255\n      jumpi\n        /* \"#utility.yul\":9144:9162   */\n      tag_256\n      tag_257\n      jump\t// in\n    tag_256:\n        /* \"#utility.yul\":9088:9172   */\n    tag_255:\n        /* \"#utility.yul\":8909:9178   */\n      pop\n        /* \"#utility.yul\":8858:9178   */\n      swap2\n      swap1\n      pop\n      jump\t// out\n        /* \"#utility.yul\":9184:9364   */\n    tag_232:\n        /* \"#utility.yul\":9232:9309   */\n      0x4e487b7100000000000000000000000000000000000000000000000000000000\n        /* \"#utility.yul\":9229:9230   */\n      0x00\n        /* \"#utility.yul\":9222:9310   */\n      mstore\n        /* \"#utility.yul\":9329:9333   */\n      0x11\n        /* \"#utility.yul\":9326:9327   */\n      0x04\n        /* \"#utility.yul\":9319:9334   */\n      mstore\n        /* \"#utility.yul\":9353:9357   */\n      0x24\n        /* \"#utility.yul\":9350:9351   */\n      0x00\n        /* \"#utility.yul\":9343:9358   */\n      revert\n        /* \"#utility.yul\":9370:9550   */\n    tag_257:\n        /* \"#utility.yul\":9418:9495   */\n      0x4e487b7100000000000000000000000000000000000000000000000000000000\n        /* \"#utility.yul\":9415:9416   */\n      0x00\n        /* \"#utility.yul\":9408:9496   */\n      mstore\n        /* \"#utility.yul\":9515:9519   */\n      0x22\n        /* \"#utility.yul\":9512:9513   */\n      0x04\n        /* \"#utility.yul\":9505:9520   */\n      mstore\n        /* \"#utility.yul\":9539:9543   */\n      0x24\n        /* \"#utility.yul\":9536:9537   */\n      0x00\n        /* \"#utility.yul\":9529:9544   */\n      revert\n        /* \"#utility.yul\":9679:9796   */\n    tag_144:\n        /* \"#utility.yul\":9788:9789   */\n      0x00\n        /* \"#utility.yul\":9785:9786   */\n      dup1\n        /* \"#utility.yul\":9778:9790   */\n      revert\n        /* \"#utility.yul\":9802:9904   */\n    tag_183:\n        /* \"#utility.yul\":9843:9849   */\n      0x00\n        /* \"#utility.yul\":9894:9896   */\n      0x1f\n        /* \"#utility.yul\":9890:9897   */\n      not\n        /* \"#utility.yul\":9885:9887   */\n      0x1f\n        /* \"#utility.yul\":9878:9883   */\n      dup4\n        /* \"#utility.yul\":9874:9888   */\n      add\n        /* \"#utility.yul\":9870:9898   */\n      and\n        /* \"#utility.yul\":9860:9898   */\n      swap1\n      pop\n        /* \"#utility.yul\":9802:9904   */\n      swap2\n      swap1\n      pop\n      jump\t// out\n        /* \"#utility.yul\":9910:10092   */\n    tag_188:\n        /* \"#utility.yul\":10050:10084   */\n      0x616c6c6f7765642076616c7565206372697465726961206e65766572206d6574\n        /* \"#utility.yul\":10046:10047   */\n      0x00\n        /* \"#utility.yul\":10038:10044   */\n      dup3\n        /* \"#utility.yul\":10034:10048   */\n      add\n        /* \"#utility.yul\":10027:10085   */\n      mstore\n        /* \"#utility.yul\":9910:10092   */\n      pop\n      jump\t// out\n        /* \"#utility.yul\":10098:10325   */\n    tag_193:\n        /* \"#utility.yul\":10238:10272   */\n      0x76616c7565206973206c6f776572207468616e20312c20796f752063616e7420\n        /* \"#utility.yul\":10234:10235   */\n      0x00\n        /* \"#utility.yul\":10226:10232   */\n      dup3\n        /* \"#utility.yul\":10222:10236   */\n      add\n        /* \"#utility.yul\":10215:10273   */\n      mstore\n        /* \"#utility.yul\":10307:10317   */\n      0x7472616e73666572000000000000000000000000000000000000000000000000\n        /* \"#utility.yul\":10302:10304   */\n      0x20\n        /* \"#utility.yul\":10294:10300   */\n      dup3\n        /* \"#utility.yul\":10290:10305   */\n      add\n        /* \"#utility.yul\":10283:10318   */\n      mstore\n        /* \"#utility.yul\":10098:10325   */\n      pop\n      jump\t// out\n        /* \"#utility.yul\":10331:10568   */\n    tag_198:\n        /* \"#utility.yul\":10471:10505   */\n      0x73656e6465722076616c7565206e6565647320746f2062652068696768657220\n        /* \"#utility.yul\":10467:10468   */\n      0x00\n        /* \"#utility.yul\":10459:10465   */\n      dup3\n        /* \"#utility.yul\":10455:10469   */\n      add\n        /* \"#utility.yul\":10448:10506   */\n      mstore\n        /* \"#utility.yul\":10540:10560   */\n      0x7468616e2073656e64696e672076616c75650000000000000000000000000000\n        /* \"#utility.yul\":10535:10537   */\n      0x20\n        /* \"#utility.yul\":10527:10533   */\n      dup3\n        /* \"#utility.yul\":10523:10538   */\n      add\n        /* \"#utility.yul\":10516:10561   */\n      mstore\n        /* \"#utility.yul\":10331:10568   */\n      pop\n      jump\t// out\n        /* \"#utility.yul\":10574:10696   */\n    tag_136:\n        /* \"#utility.yul\":10647:10671   */\n      tag_268\n        /* \"#utility.yul\":10665:10670   */\n      dup2\n        /* \"#utility.yul\":10647:10671   */\n      tag_238\n      jump\t// in\n    tag_268:\n        /* \"#utility.yul\":10640:10645   */\n      dup2\n        /* \"#utility.yul\":10637:10672   */\n      eq\n        /* \"#utility.yul\":10627:10690   */\n      tag_269\n      jumpi\n        /* \"#utility.yul\":10686:10687   */\n      0x00\n        /* \"#utility.yul\":10683:10684   */\n      dup1\n        /* \"#utility.yul\":10676:10688   */\n      revert\n        /* \"#utility.yul\":10627:10690   */\n    tag_269:\n        /* \"#utility.yul\":10574:10696   */\n      pop\n      jump\t// out\n        /* \"#utility.yul\":10702:10824   */\n    tag_140:\n        /* \"#utility.yul\":10775:10799   */\n      tag_271\n        /* \"#utility.yul\":10793:10798   */\n      dup2\n        /* \"#utility.yul\":10775:10799   */\n      tag_202\n      jump\t// in\n    tag_271:\n        /* \"#utility.yul\":10768:10773   */\n      dup2\n        /* \"#utility.yul\":10765:10800   */\n      eq\n        /* \"#utility.yul\":10755:10818   */\n      tag_272\n      jumpi\n        /* \"#utility.yul\":10814:10815   */\n      0x00\n        /* \"#utility.yul\":10811:10812   */\n      dup1\n        /* \"#utility.yul\":10804:10816   */\n      revert\n        /* \"#utility.yul\":10755:10818   */\n    tag_272:\n        /* \"#utility.yul\":10702:10824   */\n      pop\n      jump\t// out\n\n    auxdata: 0xa2646970667358221220de084a43bd912941e1a8bad8a842cb8bc4c84f38da0ca51b31f0034ad3abfa4c64736f6c63430008070033\n}\n",
				"bytecode": {
					"linkReferences": {},
					"object": "60806040526040518060400160405280600381526020017f312e3000000000000000000000000000000000000000000000000000000000008152506006908051906020019062000051929190620001c3565b503480156200005f57600080fd5b5068056bc75e2d6310000060028190555033600760006101000a81548173ffffffffffffffffffffffffffffffffffffffff021916908373ffffffffffffffffffffffffffffffffffffffff160217905550600254600080600760009054906101000a900473ffffffffffffffffffffffffffffffffffffffff1673ffffffffffffffffffffffffffffffffffffffff1673ffffffffffffffffffffffffffffffffffffffff168152602001908152602001600020819055506040518060400160405280600981526020017f506f6b656d6f6e544400000000000000000000000000000000000000000000008152506003908051906020019062000165929190620001c3565b506040518060400160405280600481526020017f504b54440000000000000000000000000000000000000000000000000000000081525060049080519060200190620001b3929190620001c3565b50612710600881905550620002d8565b828054620001d19062000273565b90600052602060002090601f016020900481019282620001f5576000855562000241565b82601f106200021057805160ff191683800117855562000241565b8280016001018555821562000241579182015b828111156200024057825182559160200191906001019062000223565b5b50905062000250919062000254565b5090565b5b808211156200026f57600081600090555060010162000255565b5090565b600060028204905060018216806200028c57607f821691505b60208210811415620002a357620002a2620002a9565b5b50919050565b7f4e487b7100000000000000000000000000000000000000000000000000000000600052602260045260246000fd5b6112c080620002e86000396000f3fe6080604052600436106100c25760003560e01c806354fd4d501161007f578063a9059cbb11610059578063a9059cbb14610280578063b73fd792146102bd578063ce7c5d7f146102e8578063dd62ed3e14610318576100c2565b806354fd4d50146101ed57806370a082311461021857806395d89b4114610255576100c2565b806306fdde03146100c7578063095ea7b3146100f257806318160ddd1461012f5780632194f3a21461015a57806323b872dd14610185578063313ce567146101c2575b600080fd5b3480156100d357600080fd5b506100dc610355565b6040516100e99190610ef7565b60405180910390f35b3480156100fe57600080fd5b5061011960048036038101906101149190610d76565b6103e3565b6040516101269190610edc565b60405180910390f35b34801561013b57600080fd5b506101446104d5565b6040516101519190610f79565b60405180910390f35b34801561016657600080fd5b5061016f6104df565b60405161017c9190610ec1565b60405180910390f35b34801561019157600080fd5b506101ac60048036038101906101a79190610d23565b610505565b6040516101b99190610edc565b60405180910390f35b3480156101ce57600080fd5b506101d7610836565b6040516101e49190610f94565b60405180910390f35b3480156101f957600080fd5b50610202610849565b60405161020f9190610ef7565b60405180910390f35b34801561022457600080fd5b5061023f600480360381019061023a9190610cb6565b6108d7565b60405161024c9190610f79565b60405180910390f35b34801561026157600080fd5b5061026a61091f565b6040516102779190610ef7565b60405180910390f35b34801561028c57600080fd5b506102a760048036038101906102a29190610d76565b6109ad565b6040516102b49190610edc565b60405180910390f35b3480156102c957600080fd5b506102d2610b8b565b6040516102df9190610f79565b60405180910390f35b61030260048036038101906102fd9190610db6565b610b91565b60405161030f9190610edc565b60405180910390f35b34801561032457600080fd5b5061033f600480360381019061033a9190610ce3565b610c05565b60405161034c9190610f79565b60405180910390f35b60038054610362906110ef565b80601f016020809104026020016040519081016040528092919081815260200182805461038e906110ef565b80156103db5780601f106103b0576101008083540402835291602001916103db565b820191906000526020600020905b8154815290600101906020018083116103be57829003601f168201915b505050505081565b600081600160003373ffffffffffffffffffffffffffffffffffffffff1673ffffffffffffffffffffffffffffffffffffffff16815260200190815260200160002060008573ffffffffffffffffffffffffffffffffffffffff1673ffffffffffffffffffffffffffffffffffffffff168152602001908152602001600020819055508273ffffffffffffffffffffffffffffffffffffffff163373ffffffffffffffffffffffffffffffffffffffff167f8c5be1e5ebec7d5bd14f71427d1e84f3dd0314c0f7b2291e5b200ac8c7c3b925846040516104c39190610f79565b60405180910390a36001905092915050565b6000600254905090565b600760009054906101000a900473ffffffffffffffffffffffffffffffffffffffff1681565b6000808211610549576040517f08c379a000000000000000000000000000000000000000000000000000000000815260040161054090610f39565b60405180910390fd5b816000808673ffffffffffffffffffffffffffffffffffffffff1673ffffffffffffffffffffffffffffffffffffffff1681526020019081526020016000205410156105ca576040517f08c379a00000000000000000000000000000000000000000000000000000000081526004016105c190610f59565b60405180910390fd5b81600160008673ffffffffffffffffffffffffffffffffffffffff1673ffffffffffffffffffffffffffffffffffffffff16815260200190815260200160002060003373ffffffffffffffffffffffffffffffffffffffff1673ffffffffffffffffffffffffffffffffffffffff168152602001908152602001600020541015610689576040517f08c379a000000000000000000000000000000000000000000000000000000000815260040161068090610f19565b60405180910390fd5b816000808573ffffffffffffffffffffffffffffffffffffffff1673ffffffffffffffffffffffffffffffffffffffff16815260200190815260200160002060008282546106d79190610fcb565b92505081905550816000808673ffffffffffffffffffffffffffffffffffffffff1673ffffffffffffffffffffffffffffffffffffffff168152602001908152602001600020600082825461072c9190611021565b9250508190555081600160008673ffffffffffffffffffffffffffffffffffffffff1673ffffffffffffffffffffffffffffffffffffffff16815260200190815260200160002060003373ffffffffffffffffffffffffffffffffffffffff1673ffffffffffffffffffffffffffffffffffffffff16815260200190815260200160002060008282546107bf9190611021565b925050819055508273ffffffffffffffffffffffffffffffffffffffff168473ffffffffffffffffffffffffffffffffffffffff167fddf252ad1be2c89b69c2b068fc378daa952ba7f163c4a11628f55a4df523b3ef846040516108239190610f79565b60405180910390a3600190509392505050565b600560009054906101000a900460ff1681565b60068054610856906110ef565b80601f0160208091040260200160405190810160405280929190818152602001828054610882906110ef565b80156108cf5780601f106108a4576101008083540402835291602001916108cf565b820191906000526020600020905b8154815290600101906020018083116108b257829003601f168201915b505050505081565b60008060008373ffffffffffffffffffffffffffffffffffffffff1673ffffffffffffffffffffffffffffffffffffffff168152602001908152602001600020549050919050565b6004805461092c906110ef565b80601f0160208091040260200160405190810160405280929190818152602001828054610958906110ef565b80156109a55780601f1061097a576101008083540402835291602001916109a5565b820191906000526020600020905b81548152906001019060200180831161098857829003601f168201915b505050505081565b60008082116109f1576040517f08c379a00000000000000000000000000000000000000000000000000000000081526004016109e890610f39565b60405180910390fd5b816000803373ffffffffffffffffffffffffffffffffffffffff1673ffffffffffffffffffffffffffffffffffffffff168152602001908152602001600020541015610a72576040517f08c379a0000000000000000000000000000000000000000000000000000000008152600401610a6990610f59565b60405180910390fd5b816000803373ffffffffffffffffffffffffffffffffffffffff1673ffffffffffffffffffffffffffffffffffffffff1681526020019081526020016000206000828254610ac09190611021565b92505081905550816000808573ffffffffffffffffffffffffffffffffffffffff1673ffffffffffffffffffffffffffffffffffffffff1681526020019081526020016000206000828254610b159190610fcb565b925050819055508273ffffffffffffffffffffffffffffffffffffffff163373ffffffffffffffffffffffffffffffffffffffff167fddf252ad1be2c89b69c2b068fc378daa952ba7f163c4a11628f55a4df523b3ef84604051610b799190610f79565b60405180910390a36001905092915050565b60025481565b6000600760009054906101000a900473ffffffffffffffffffffffffffffffffffffffff1673ffffffffffffffffffffffffffffffffffffffff166108fc839081150290604051600060405180830381858888f19350505050158015610bfb573d6000803e3d6000fd5b5060019050919050565b6000600160008473ffffffffffffffffffffffffffffffffffffffff1673ffffffffffffffffffffffffffffffffffffffff16815260200190815260200160002060008373ffffffffffffffffffffffffffffffffffffffff1673ffffffffffffffffffffffffffffffffffffffff16815260200190815260200160002054905092915050565b600081359050610c9b8161125c565b92915050565b600081359050610cb081611273565b92915050565b600060208284031215610ccc57610ccb61117f565b5b6000610cda84828501610c8c565b91505092915050565b60008060408385031215610cfa57610cf961117f565b5b6000610d0885828601610c8c565b9250506020610d1985828601610c8c565b9150509250929050565b600080600060608486031215610d3c57610d3b61117f565b5b6000610d4a86828701610c8c565b9350506020610d5b86828701610c8c565b9250506040610d6c86828701610ca1565b9150509250925092565b60008060408385031215610d8d57610d8c61117f565b5b6000610d9b85828601610c8c565b9250506020610dac85828601610ca1565b9150509250929050565b600060208284031215610dcc57610dcb61117f565b5b6000610dda84828501610ca1565b91505092915050565b610dec81611067565b82525050565b610dfb81611079565b82525050565b6000610e0c82610faf565b610e168185610fba565b9350610e268185602086016110bc565b610e2f81611184565b840191505092915050565b6000610e47602083610fba565b9150610e5282611195565b602082019050919050565b6000610e6a602883610fba565b9150610e75826111be565b604082019050919050565b6000610e8d603283610fba565b9150610e988261120d565b604082019050919050565b610eac816110a5565b82525050565b610ebb816110af565b82525050565b6000602082019050610ed66000830184610de3565b92915050565b6000602082019050610ef16000830184610df2565b92915050565b60006020820190508181036000830152610f118184610e01565b905092915050565b60006020820190508181036000830152610f3281610e3a565b9050919050565b60006020820190508181036000830152610f5281610e5d565b9050919050565b60006020820190508181036000830152610f7281610e80565b9050919050565b6000602082019050610f8e6000830184610ea3565b92915050565b6000602082019050610fa96000830184610eb2565b92915050565b600081519050919050565b600082825260208201905092915050565b6000610fd6826110a5565b9150610fe1836110a5565b9250827fffffffffffffffffffffffffffffffffffffffffffffffffffffffffffffffff0382111561101657611015611121565b5b828201905092915050565b600061102c826110a5565b9150611037836110a5565b92508282101561104a57611049611121565b5b828203905092915050565b600061106082611085565b9050919050565b600061107282611085565b9050919050565b60008115159050919050565b600073ffffffffffffffffffffffffffffffffffffffff82169050919050565b6000819050919050565b600060ff82169050919050565b60005b838110156110da5780820151818401526020810190506110bf565b838111156110e9576000848401525b50505050565b6000600282049050600182168061110757607f821691505b6020821081141561111b5761111a611150565b5b50919050565b7f4e487b7100000000000000000000000000000000000000000000000000000000600052601160045260246000fd5b7f4e487b7100000000000000000000000000000000000000000000000000000000600052602260045260246000fd5b600080fd5b6000601f19601f8301169050919050565b7f616c6c6f7765642076616c7565206372697465726961206e65766572206d6574600082015250565b7f76616c7565206973206c6f776572207468616e20312c20796f752063616e742060008201527f7472616e73666572000000000000000000000000000000000000000000000000602082015250565b7f73656e6465722076616c7565206e6565647320746f206265206869676865722060008201527f7468616e2073656e64696e672076616c75650000000000000000000000000000602082015250565b61126581611055565b811461127057600080fd5b50565b61127c816110a5565b811461128757600080fd5b5056fea2646970667358221220de084a43bd912941e1a8bad8a842cb8bc4c84f38da0ca51b31f0034ad3abfa4c64736f6c63430008070033",
					"opcodes": "PUSH1 0x80 PUSH1 0x40 MSTORE PUSH1 0x40 MLOAD DUP1 PUSH1 0x40 ADD PUSH1 0x40 MSTORE DUP1 PUSH1 0x3 DUP2 MSTORE PUSH1 0x20 ADD PUSH32 0x312E300000000000000000000000000000000000000000000000000000000000 DUP2 MSTORE POP PUSH1 0x6 SWAP1 DUP1 MLOAD SWAP1 PUSH1 0x20 ADD SWAP1 PUSH3 0x51 SWAP3 SWAP2 SWAP1 PUSH3 0x1C3 JUMP JUMPDEST POP CALLVALUE DUP1 ISZERO PUSH3 0x5F JUMPI PUSH1 0x0 DUP1 REVERT JUMPDEST POP PUSH9 0x56BC75E2D63100000 PUSH1 0x2 DUP2 SWAP1 SSTORE POP CALLER PUSH1 0x7 PUSH1 0x0 PUSH2 0x100 EXP DUP2 SLOAD DUP2 PUSH20 0xFFFFFFFFFFFFFFFFFFFFFFFFFFFFFFFFFFFFFFFF MUL NOT AND SWAP1 DUP4 PUSH20 0xFFFFFFFFFFFFFFFFFFFFFFFFFFFFFFFFFFFFFFFF AND MUL OR SWAP1 SSTORE POP PUSH1 0x2 SLOAD PUSH1 0x0 DUP1 PUSH1 0x7 PUSH1 0x0 SWAP1 SLOAD SWAP1 PUSH2 0x100 EXP SWAP1 DIV PUSH20 0xFFFFFFFFFFFFFFFFFFFFFFFFFFFFFFFFFFFFFFFF AND PUSH20 0xFFFFFFFFFFFFFFFFFFFFFFFFFFFFFFFFFFFFFFFF AND PUSH20 0xFFFFFFFFFFFFFFFFFFFFFFFFFFFFFFFFFFFFFFFF AND DUP2 MSTORE PUSH1 0x20 ADD SWAP1 DUP2 MSTORE PUSH1 0x20 ADD PUSH1 0x0 KECCAK256 DUP2 SWAP1 SSTORE POP PUSH1 0x40 MLOAD DUP1 PUSH1 0x40 ADD PUSH1 0x40 MSTORE DUP1 PUSH1 0x9 DUP2 MSTORE PUSH1 0x20 ADD PUSH32 0x506F6B656D6F6E54440000000000000000000000000000000000000000000000 DUP2 MSTORE POP PUSH1 0x3 SWAP1 DUP1 MLOAD SWAP1 PUSH1 0x20 ADD SWAP1 PUSH3 0x165 SWAP3 SWAP2 SWAP1 PUSH3 0x1C3 JUMP JUMPDEST POP PUSH1 0x40 MLOAD DUP1 PUSH1 0x40 ADD PUSH1 0x40 MSTORE DUP1 PUSH1 0x4 DUP2 MSTORE PUSH1 0x20 ADD PUSH32 0x504B544400000000000000000000000000000000000000000000000000000000 DUP2 MSTORE POP PUSH1 0x4 SWAP1 DUP1 MLOAD SWAP1 PUSH1 0x20 ADD SWAP1 PUSH3 0x1B3 SWAP3 SWAP2 SWAP1 PUSH3 0x1C3 JUMP JUMPDEST POP PUSH2 0x2710 PUSH1 0x8 DUP2 SWAP1 SSTORE POP PUSH3 0x2D8 JUMP JUMPDEST DUP3 DUP1 SLOAD PUSH3 0x1D1 SWAP1 PUSH3 0x273 JUMP JUMPDEST SWAP1 PUSH1 0x0 MSTORE PUSH1 0x20 PUSH1 0x0 KECCAK256 SWAP1 PUSH1 0x1F ADD PUSH1 0x20 SWAP1 DIV DUP2 ADD SWAP3 DUP3 PUSH3 0x1F5 JUMPI PUSH1 0x0 DUP6 SSTORE PUSH3 0x241 JUMP JUMPDEST DUP3 PUSH1 0x1F LT PUSH3 0x210 JUMPI DUP1 MLOAD PUSH1 0xFF NOT AND DUP4 DUP1 ADD OR DUP6 SSTORE PUSH3 0x241 JUMP JUMPDEST DUP3 DUP1 ADD PUSH1 0x1 ADD DUP6 SSTORE DUP3 ISZERO PUSH3 0x241 JUMPI SWAP2 DUP3 ADD JUMPDEST DUP3 DUP2 GT ISZERO PUSH3 0x240 JUMPI DUP3 MLOAD DUP3 SSTORE SWAP2 PUSH1 0x20 ADD SWAP2 SWAP1 PUSH1 0x1 ADD SWAP1 PUSH3 0x223 JUMP JUMPDEST JUMPDEST POP SWAP1 POP PUSH3 0x250 SWAP2 SWAP1 PUSH3 0x254 JUMP JUMPDEST POP SWAP1 JUMP JUMPDEST JUMPDEST DUP1 DUP3 GT ISZERO PUSH3 0x26F JUMPI PUSH1 0x0 DUP2 PUSH1 0x0 SWAP1 SSTORE POP PUSH1 0x1 ADD PUSH3 0x255 JUMP JUMPDEST POP SWAP1 JUMP JUMPDEST PUSH1 0x0 PUSH1 0x2 DUP3 DIV SWAP1 POP PUSH1 0x1 DUP3 AND DUP1 PUSH3 0x28C JUMPI PUSH1 0x7F DUP3 AND SWAP2 POP JUMPDEST PUSH1 0x20 DUP3 LT DUP2 EQ ISZERO PUSH3 0x2A3 JUMPI PUSH3 0x2A2 PUSH3 0x2A9 JUMP JUMPDEST JUMPDEST POP SWAP2 SWAP1 POP JUMP JUMPDEST PUSH32 0x4E487B7100000000000000000000000000000000000000000000000000000000 PUSH1 0x0 MSTORE PUSH1 0x22 PUSH1 0x4 MSTORE PUSH1 0x24 PUSH1 0x0 REVERT JUMPDEST PUSH2 0x12C0 DUP1 PUSH3 0x2E8 PUSH1 0x0 CODECOPY PUSH1 0x0 RETURN INVALID PUSH1 0x80 PUSH1 0x40 MSTORE PUSH1 0x4 CALLDATASIZE LT PUSH2 0xC2 JUMPI PUSH1 0x0 CALLDATALOAD PUSH1 0xE0 SHR DUP1 PUSH4 0x54FD4D50 GT PUSH2 0x7F JUMPI DUP1 PUSH4 0xA9059CBB GT PUSH2 0x59 JUMPI DUP1 PUSH4 0xA9059CBB EQ PUSH2 0x280 JUMPI DUP1 PUSH4 0xB73FD792 EQ PUSH2 0x2BD JUMPI DUP1 PUSH4 0xCE7C5D7F EQ PUSH2 0x2E8 JUMPI DUP1 PUSH4 0xDD62ED3E EQ PUSH2 0x318 JUMPI PUSH2 0xC2 JUMP JUMPDEST DUP1 PUSH4 0x54FD4D50 EQ PUSH2 0x1ED JUMPI DUP1 PUSH4 0x70A08231 EQ PUSH2 0x218 JUMPI DUP1 PUSH4 0x95D89B41 EQ PUSH2 0x255 JUMPI PUSH2 0xC2 JUMP JUMPDEST DUP1 PUSH4 0x6FDDE03 EQ PUSH2 0xC7 JUMPI DUP1 PUSH4 0x95EA7B3 EQ PUSH2 0xF2 JUMPI DUP1 PUSH4 0x18160DDD EQ PUSH2 0x12F JUMPI DUP1 PUSH4 0x2194F3A2 EQ PUSH2 0x15A JUMPI DUP1 PUSH4 0x23B872DD EQ PUSH2 0x185 JUMPI DUP1 PUSH4 0x313CE567 EQ PUSH2 0x1C2 JUMPI JUMPDEST PUSH1 0x0 DUP1 REVERT JUMPDEST CALLVALUE DUP1 ISZERO PUSH2 0xD3 JUMPI PUSH1 0x0 DUP1 REVERT JUMPDEST POP PUSH2 0xDC PUSH2 0x355 JUMP JUMPDEST PUSH1 0x40 MLOAD PUSH2 0xE9 SWAP2 SWAP1 PUSH2 0xEF7 JUMP JUMPDEST PUSH1 0x40 MLOAD DUP1 SWAP2 SUB SWAP1 RETURN JUMPDEST CALLVALUE DUP1 ISZERO PUSH2 0xFE JUMPI PUSH1 0x0 DUP1 REVERT JUMPDEST POP PUSH2 0x119 PUSH1 0x4 DUP1 CALLDATASIZE SUB DUP2 ADD SWAP1 PUSH2 0x114 SWAP2 SWAP1 PUSH2 0xD76 JUMP JUMPDEST PUSH2 0x3E3 JUMP JUMPDEST PUSH1 0x40 MLOAD PUSH2 0x126 SWAP2 SWAP1 PUSH2 0xEDC JUMP JUMPDEST PUSH1 0x40 MLOAD DUP1 SWAP2 SUB SWAP1 RETURN JUMPDEST CALLVALUE DUP1 ISZERO PUSH2 0x13B JUMPI PUSH1 0x0 DUP1 REVERT JUMPDEST POP PUSH2 0x144 PUSH2 0x4D5 JUMP JUMPDEST PUSH1 0x40 MLOAD PUSH2 0x151 SWAP2 SWAP1 PUSH2 0xF79 JUMP JUMPDEST PUSH1 0x40 MLOAD DUP1 SWAP2 SUB SWAP1 RETURN JUMPDEST CALLVALUE DUP1 ISZERO PUSH2 0x166 JUMPI PUSH1 0x0 DUP1 REVERT JUMPDEST POP PUSH2 0x16F PUSH2 0x4DF JUMP JUMPDEST PUSH1 0x40 MLOAD PUSH2 0x17C SWAP2 SWAP1 PUSH2 0xEC1 JUMP JUMPDEST PUSH1 0x40 MLOAD DUP1 SWAP2 SUB SWAP1 RETURN JUMPDEST CALLVALUE DUP1 ISZERO PUSH2 0x191 JUMPI PUSH1 0x0 DUP1 REVERT JUMPDEST POP PUSH2 0x1AC PUSH1 0x4 DUP1 CALLDATASIZE SUB DUP2 ADD SWAP1 PUSH2 0x1A7 SWAP2 SWAP1 PUSH2 0xD23 JUMP JUMPDEST PUSH2 0x505 JUMP JUMPDEST PUSH1 0x40 MLOAD PUSH2 0x1B9 SWAP2 SWAP1 PUSH2 0xEDC JUMP JUMPDEST PUSH1 0x40 MLOAD DUP1 SWAP2 SUB SWAP1 RETURN JUMPDEST CALLVALUE DUP1 ISZERO PUSH2 0x1CE JUMPI PUSH1 0x0 DUP1 REVERT JUMPDEST POP PUSH2 0x1D7 PUSH2 0x836 JUMP JUMPDEST PUSH1 0x40 MLOAD PUSH2 0x1E4 SWAP2 SWAP1 PUSH2 0xF94 JUMP JUMPDEST PUSH1 0x40 MLOAD DUP1 SWAP2 SUB SWAP1 RETURN JUMPDEST CALLVALUE DUP1 ISZERO PUSH2 0x1F9 JUMPI PUSH1 0x0 DUP1 REVERT JUMPDEST POP PUSH2 0x202 PUSH2 0x849 JUMP JUMPDEST PUSH1 0x40 MLOAD PUSH2 0x20F SWAP2 SWAP1 PUSH2 0xEF7 JUMP JUMPDEST PUSH1 0x40 MLOAD DUP1 SWAP2 SUB SWAP1 RETURN JUMPDEST CALLVALUE DUP1 ISZERO PUSH2 0x224 JUMPI PUSH1 0x0 DUP1 REVERT JUMPDEST POP PUSH2 0x23F PUSH1 0x4 DUP1 CALLDATASIZE SUB DUP2 ADD SWAP1 PUSH2 0x23A SWAP2 SWAP1 PUSH2 0xCB6 JUMP JUMPDEST PUSH2 0x8D7 JUMP JUMPDEST PUSH1 0x40 MLOAD PUSH2 0x24C SWAP2 SWAP1 PUSH2 0xF79 JUMP JUMPDEST PUSH1 0x40 MLOAD DUP1 SWAP2 SUB SWAP1 RETURN JUMPDEST CALLVALUE DUP1 ISZERO PUSH2 0x261 JUMPI PUSH1 0x0 DUP1 REVERT JUMPDEST POP PUSH2 0x26A PUSH2 0x91F JUMP JUMPDEST PUSH1 0x40 MLOAD PUSH2 0x277 SWAP2 SWAP1 PUSH2 0xEF7 JUMP JUMPDEST PUSH1 0x40 MLOAD DUP1 SWAP2 SUB SWAP1 RETURN JUMPDEST CALLVALUE DUP1 ISZERO PUSH2 0x28C JUMPI PUSH1 0x0 DUP1 REVERT JUMPDEST POP PUSH2 0x2A7 PUSH1 0x4 DUP1 CALLDATASIZE SUB DUP2 ADD SWAP1 PUSH2 0x2A2 SWAP2 SWAP1 PUSH2 0xD76 JUMP JUMPDEST PUSH2 0x9AD JUMP JUMPDEST PUSH1 0x40 MLOAD PUSH2 0x2B4 SWAP2 SWAP1 PUSH2 0xEDC JUMP JUMPDEST PUSH1 0x40 MLOAD DUP1 SWAP2 SUB SWAP1 RETURN JUMPDEST CALLVALUE DUP1 ISZERO PUSH2 0x2C9 JUMPI PUSH1 0x0 DUP1 REVERT JUMPDEST POP PUSH2 0x2D2 PUSH2 0xB8B JUMP JUMPDEST PUSH1 0x40 MLOAD PUSH2 0x2DF SWAP2 SWAP1 PUSH2 0xF79 JUMP JUMPDEST PUSH1 0x40 MLOAD DUP1 SWAP2 SUB SWAP1 RETURN JUMPDEST PUSH2 0x302 PUSH1 0x4 DUP1 CALLDATASIZE SUB DUP2 ADD SWAP1 PUSH2 0x2FD SWAP2 SWAP1 PUSH2 0xDB6 JUMP JUMPDEST PUSH2 0xB91 JUMP JUMPDEST PUSH1 0x40 MLOAD PUSH2 0x30F SWAP2 SWAP1 PUSH2 0xEDC JUMP JUMPDEST PUSH1 0x40 MLOAD DUP1 SWAP2 SUB SWAP1 RETURN JUMPDEST CALLVALUE DUP1 ISZERO PUSH2 0x324 JUMPI PUSH1 0x0 DUP1 REVERT JUMPDEST POP PUSH2 0x33F PUSH1 0x4 DUP1 CALLDATASIZE SUB DUP2 ADD SWAP1 PUSH2 0x33A SWAP2 SWAP1 PUSH2 0xCE3 JUMP JUMPDEST PUSH2 0xC05 JUMP JUMPDEST PUSH1 0x40 MLOAD PUSH2 0x34C SWAP2 SWAP1 PUSH2 0xF79 JUMP JUMPDEST PUSH1 0x40 MLOAD DUP1 SWAP2 SUB SWAP1 RETURN JUMPDEST PUSH1 0x3 DUP1 SLOAD PUSH2 0x362 SWAP1 PUSH2 0x10EF JUMP JUMPDEST DUP1 PUSH1 0x1F ADD PUSH1 0x20 DUP1 SWAP2 DIV MUL PUSH1 0x20 ADD PUSH1 0x40 MLOAD SWAP1 DUP2 ADD PUSH1 0x40 MSTORE DUP1 SWAP3 SWAP2 SWAP1 DUP2 DUP2 MSTORE PUSH1 0x20 ADD DUP3 DUP1 SLOAD PUSH2 0x38E SWAP1 PUSH2 0x10EF JUMP JUMPDEST DUP1 ISZERO PUSH2 0x3DB JUMPI DUP1 PUSH1 0x1F LT PUSH2 0x3B0 JUMPI PUSH2 0x100 DUP1 DUP4 SLOAD DIV MUL DUP4 MSTORE SWAP2 PUSH1 0x20 ADD SWAP2 PUSH2 0x3DB JUMP JUMPDEST DUP3 ADD SWAP2 SWAP1 PUSH1 0x0 MSTORE PUSH1 0x20 PUSH1 0x0 KECCAK256 SWAP1 JUMPDEST DUP2 SLOAD DUP2 MSTORE SWAP1 PUSH1 0x1 ADD SWAP1 PUSH1 0x20 ADD DUP1 DUP4 GT PUSH2 0x3BE JUMPI DUP3 SWAP1 SUB PUSH1 0x1F AND DUP3 ADD SWAP2 JUMPDEST POP POP POP POP POP DUP2 JUMP JUMPDEST PUSH1 0x0 DUP2 PUSH1 0x1 PUSH1 0x0 CALLER PUSH20 0xFFFFFFFFFFFFFFFFFFFFFFFFFFFFFFFFFFFFFFFF AND PUSH20 0xFFFFFFFFFFFFFFFFFFFFFFFFFFFFFFFFFFFFFFFF AND DUP2 MSTORE PUSH1 0x20 ADD SWAP1 DUP2 MSTORE PUSH1 0x20 ADD PUSH1 0x0 KECCAK256 PUSH1 0x0 DUP6 PUSH20 0xFFFFFFFFFFFFFFFFFFFFFFFFFFFFFFFFFFFFFFFF AND PUSH20 0xFFFFFFFFFFFFFFFFFFFFFFFFFFFFFFFFFFFFFFFF AND DUP2 MSTORE PUSH1 0x20 ADD SWAP1 DUP2 MSTORE PUSH1 0x20 ADD PUSH1 0x0 KECCAK256 DUP2 SWAP1 SSTORE POP DUP3 PUSH20 0xFFFFFFFFFFFFFFFFFFFFFFFFFFFFFFFFFFFFFFFF AND CALLER PUSH20 0xFFFFFFFFFFFFFFFFFFFFFFFFFFFFFFFFFFFFFFFF AND PUSH32 0x8C5BE1E5EBEC7D5BD14F71427D1E84F3DD0314C0F7B2291E5B200AC8C7C3B925 DUP5 PUSH1 0x40 MLOAD PUSH2 0x4C3 SWAP2 SWAP1 PUSH2 0xF79 JUMP JUMPDEST PUSH1 0x40 MLOAD DUP1 SWAP2 SUB SWAP1 LOG3 PUSH1 0x1 SWAP1 POP SWAP3 SWAP2 POP POP JUMP JUMPDEST PUSH1 0x0 PUSH1 0x2 SLOAD SWAP1 POP SWAP1 JUMP JUMPDEST PUSH1 0x7 PUSH1 0x0 SWAP1 SLOAD SWAP1 PUSH2 0x100 EXP SWAP1 DIV PUSH20 0xFFFFFFFFFFFFFFFFFFFFFFFFFFFFFFFFFFFFFFFF AND DUP2 JUMP JUMPDEST PUSH1 0x0 DUP1 DUP3 GT PUSH2 0x549 JUMPI PUSH1 0x40 MLOAD PUSH32 0x8C379A000000000000000000000000000000000000000000000000000000000 DUP2 MSTORE PUSH1 0x4 ADD PUSH2 0x540 SWAP1 PUSH2 0xF39 JUMP JUMPDEST PUSH1 0x40 MLOAD DUP1 SWAP2 SUB SWAP1 REVERT JUMPDEST DUP2 PUSH1 0x0 DUP1 DUP7 PUSH20 0xFFFFFFFFFFFFFFFFFFFFFFFFFFFFFFFFFFFFFFFF AND PUSH20 0xFFFFFFFFFFFFFFFFFFFFFFFFFFFFFFFFFFFFFFFF AND DUP2 MSTORE PUSH1 0x20 ADD SWAP1 DUP2 MSTORE PUSH1 0x20 ADD PUSH1 0x0 KECCAK256 SLOAD LT ISZERO PUSH2 0x5CA JUMPI PUSH1 0x40 MLOAD PUSH32 0x8C379A000000000000000000000000000000000000000000000000000000000 DUP2 MSTORE PUSH1 0x4 ADD PUSH2 0x5C1 SWAP1 PUSH2 0xF59 JUMP JUMPDEST PUSH1 0x40 MLOAD DUP1 SWAP2 SUB SWAP1 REVERT JUMPDEST DUP2 PUSH1 0x1 PUSH1 0x0 DUP7 PUSH20 0xFFFFFFFFFFFFFFFFFFFFFFFFFFFFFFFFFFFFFFFF AND PUSH20 0xFFFFFFFFFFFFFFFFFFFFFFFFFFFFFFFFFFFFFFFF AND DUP2 MSTORE PUSH1 0x20 ADD SWAP1 DUP2 MSTORE PUSH1 0x20 ADD PUSH1 0x0 KECCAK256 PUSH1 0x0 CALLER PUSH20 0xFFFFFFFFFFFFFFFFFFFFFFFFFFFFFFFFFFFFFFFF AND PUSH20 0xFFFFFFFFFFFFFFFFFFFFFFFFFFFFFFFFFFFFFFFF AND DUP2 MSTORE PUSH1 0x20 ADD SWAP1 DUP2 MSTORE PUSH1 0x20 ADD PUSH1 0x0 KECCAK256 SLOAD LT ISZERO PUSH2 0x689 JUMPI PUSH1 0x40 MLOAD PUSH32 0x8C379A000000000000000000000000000000000000000000000000000000000 DUP2 MSTORE PUSH1 0x4 ADD PUSH2 0x680 SWAP1 PUSH2 0xF19 JUMP JUMPDEST PUSH1 0x40 MLOAD DUP1 SWAP2 SUB SWAP1 REVERT JUMPDEST DUP2 PUSH1 0x0 DUP1 DUP6 PUSH20 0xFFFFFFFFFFFFFFFFFFFFFFFFFFFFFFFFFFFFFFFF AND PUSH20 0xFFFFFFFFFFFFFFFFFFFFFFFFFFFFFFFFFFFFFFFF AND DUP2 MSTORE PUSH1 0x20 ADD SWAP1 DUP2 MSTORE PUSH1 0x20 ADD PUSH1 0x0 KECCAK256 PUSH1 0x0 DUP3 DUP3 SLOAD PUSH2 0x6D7 SWAP2 SWAP1 PUSH2 0xFCB JUMP JUMPDEST SWAP3 POP POP DUP2 SWAP1 SSTORE POP DUP2 PUSH1 0x0 DUP1 DUP7 PUSH20 0xFFFFFFFFFFFFFFFFFFFFFFFFFFFFFFFFFFFFFFFF AND PUSH20 0xFFFFFFFFFFFFFFFFFFFFFFFFFFFFFFFFFFFFFFFF AND DUP2 MSTORE PUSH1 0x20 ADD SWAP1 DUP2 MSTORE PUSH1 0x20 ADD PUSH1 0x0 KECCAK256 PUSH1 0x0 DUP3 DUP3 SLOAD PUSH2 0x72C SWAP2 SWAP1 PUSH2 0x1021 JUMP JUMPDEST SWAP3 POP POP DUP2 SWAP1 SSTORE POP DUP2 PUSH1 0x1 PUSH1 0x0 DUP7 PUSH20 0xFFFFFFFFFFFFFFFFFFFFFFFFFFFFFFFFFFFFFFFF AND PUSH20 0xFFFFFFFFFFFFFFFFFFFFFFFFFFFFFFFFFFFFFFFF AND DUP2 MSTORE PUSH1 0x20 ADD SWAP1 DUP2 MSTORE PUSH1 0x20 ADD PUSH1 0x0 KECCAK256 PUSH1 0x0 CALLER PUSH20 0xFFFFFFFFFFFFFFFFFFFFFFFFFFFFFFFFFFFFFFFF AND PUSH20 0xFFFFFFFFFFFFFFFFFFFFFFFFFFFFFFFFFFFFFFFF AND DUP2 MSTORE PUSH1 0x20 ADD SWAP1 DUP2 MSTORE PUSH1 0x20 ADD PUSH1 0x0 KECCAK256 PUSH1 0x0 DUP3 DUP3 SLOAD PUSH2 0x7BF SWAP2 SWAP1 PUSH2 0x1021 JUMP JUMPDEST SWAP3 POP POP DUP2 SWAP1 SSTORE POP DUP3 PUSH20 0xFFFFFFFFFFFFFFFFFFFFFFFFFFFFFFFFFFFFFFFF AND DUP5 PUSH20 0xFFFFFFFFFFFFFFFFFFFFFFFFFFFFFFFFFFFFFFFF AND PUSH32 0xDDF252AD1BE2C89B69C2B068FC378DAA952BA7F163C4A11628F55A4DF523B3EF DUP5 PUSH1 0x40 MLOAD PUSH2 0x823 SWAP2 SWAP1 PUSH2 0xF79 JUMP JUMPDEST PUSH1 0x40 MLOAD DUP1 SWAP2 SUB SWAP1 LOG3 PUSH1 0x1 SWAP1 POP SWAP4 SWAP3 POP POP POP JUMP JUMPDEST PUSH1 0x5 PUSH1 0x0 SWAP1 SLOAD SWAP1 PUSH2 0x100 EXP SWAP1 DIV PUSH1 0xFF AND DUP2 JUMP JUMPDEST PUSH1 0x6 DUP1 SLOAD PUSH2 0x856 SWAP1 PUSH2 0x10EF JUMP JUMPDEST DUP1 PUSH1 0x1F ADD PUSH1 0x20 DUP1 SWAP2 DIV MUL PUSH1 0x20 ADD PUSH1 0x40 MLOAD SWAP1 DUP2 ADD PUSH1 0x40 MSTORE DUP1 SWAP3 SWAP2 SWAP1 DUP2 DUP2 MSTORE PUSH1 0x20 ADD DUP3 DUP1 SLOAD PUSH2 0x882 SWAP1 PUSH2 0x10EF JUMP JUMPDEST DUP1 ISZERO PUSH2 0x8CF JUMPI DUP1 PUSH1 0x1F LT PUSH2 0x8A4 JUMPI PUSH2 0x100 DUP1 DUP4 SLOAD DIV MUL DUP4 MSTORE SWAP2 PUSH1 0x20 ADD SWAP2 PUSH2 0x8CF JUMP JUMPDEST DUP3 ADD SWAP2 SWAP1 PUSH1 0x0 MSTORE PUSH1 0x20 PUSH1 0x0 KECCAK256 SWAP1 JUMPDEST DUP2 SLOAD DUP2 MSTORE SWAP1 PUSH1 0x1 ADD SWAP1 PUSH1 0x20 ADD DUP1 DUP4 GT PUSH2 0x8B2 JUMPI DUP3 SWAP1 SUB PUSH1 0x1F AND DUP3 ADD SWAP2 JUMPDEST POP POP POP POP POP DUP2 JUMP JUMPDEST PUSH1 0x0 DUP1 PUSH1 0x0 DUP4 PUSH20 0xFFFFFFFFFFFFFFFFFFFFFFFFFFFFFFFFFFFFFFFF AND PUSH20 0xFFFFFFFFFFFFFFFFFFFFFFFFFFFFFFFFFFFFFFFF AND DUP2 MSTORE PUSH1 0x20 ADD SWAP1 DUP2 MSTORE PUSH1 0x20 ADD PUSH1 0x0 KECCAK256 SLOAD SWAP1 POP SWAP2 SWAP1 POP JUMP JUMPDEST PUSH1 0x4 DUP1 SLOAD PUSH2 0x92C SWAP1 PUSH2 0x10EF JUMP JUMPDEST DUP1 PUSH1 0x1F ADD PUSH1 0x20 DUP1 SWAP2 DIV MUL PUSH1 0x20 ADD PUSH1 0x40 MLOAD SWAP1 DUP2 ADD PUSH1 0x40 MSTORE DUP1 SWAP3 SWAP2 SWAP1 DUP2 DUP2 MSTORE PUSH1 0x20 ADD DUP3 DUP1 SLOAD PUSH2 0x958 SWAP1 PUSH2 0x10EF JUMP JUMPDEST DUP1 ISZERO PUSH2 0x9A5 JUMPI DUP1 PUSH1 0x1F LT PUSH2 0x97A JUMPI PUSH2 0x100 DUP1 DUP4 SLOAD DIV MUL DUP4 MSTORE SWAP2 PUSH1 0x20 ADD SWAP2 PUSH2 0x9A5 JUMP JUMPDEST DUP3 ADD SWAP2 SWAP1 PUSH1 0x0 MSTORE PUSH1 0x20 PUSH1 0x0 KECCAK256 SWAP1 JUMPDEST DUP2 SLOAD DUP2 MSTORE SWAP1 PUSH1 0x1 ADD SWAP1 PUSH1 0x20 ADD DUP1 DUP4 GT PUSH2 0x988 JUMPI DUP3 SWAP1 SUB PUSH1 0x1F AND DUP3 ADD SWAP2 JUMPDEST POP POP POP POP POP DUP2 JUMP JUMPDEST PUSH1 0x0 DUP1 DUP3 GT PUSH2 0x9F1 JUMPI PUSH1 0x40 MLOAD PUSH32 0x8C379A000000000000000000000000000000000000000000000000000000000 DUP2 MSTORE PUSH1 0x4 ADD PUSH2 0x9E8 SWAP1 PUSH2 0xF39 JUMP JUMPDEST PUSH1 0x40 MLOAD DUP1 SWAP2 SUB SWAP1 REVERT JUMPDEST DUP2 PUSH1 0x0 DUP1 CALLER PUSH20 0xFFFFFFFFFFFFFFFFFFFFFFFFFFFFFFFFFFFFFFFF AND PUSH20 0xFFFFFFFFFFFFFFFFFFFFFFFFFFFFFFFFFFFFFFFF AND DUP2 MSTORE PUSH1 0x20 ADD SWAP1 DUP2 MSTORE PUSH1 0x20 ADD PUSH1 0x0 KECCAK256 SLOAD LT ISZERO PUSH2 0xA72 JUMPI PUSH1 0x40 MLOAD PUSH32 0x8C379A000000000000000000000000000000000000000000000000000000000 DUP2 MSTORE PUSH1 0x4 ADD PUSH2 0xA69 SWAP1 PUSH2 0xF59 JUMP JUMPDEST PUSH1 0x40 MLOAD DUP1 SWAP2 SUB SWAP1 REVERT JUMPDEST DUP2 PUSH1 0x0 DUP1 CALLER PUSH20 0xFFFFFFFFFFFFFFFFFFFFFFFFFFFFFFFFFFFFFFFF AND PUSH20 0xFFFFFFFFFFFFFFFFFFFFFFFFFFFFFFFFFFFFFFFF AND DUP2 MSTORE PUSH1 0x20 ADD SWAP1 DUP2 MSTORE PUSH1 0x20 ADD PUSH1 0x0 KECCAK256 PUSH1 0x0 DUP3 DUP3 SLOAD PUSH2 0xAC0 SWAP2 SWAP1 PUSH2 0x1021 JUMP JUMPDEST SWAP3 POP POP DUP2 SWAP1 SSTORE POP DUP2 PUSH1 0x0 DUP1 DUP6 PUSH20 0xFFFFFFFFFFFFFFFFFFFFFFFFFFFFFFFFFFFFFFFF AND PUSH20 0xFFFFFFFFFFFFFFFFFFFFFFFFFFFFFFFFFFFFFFFF AND DUP2 MSTORE PUSH1 0x20 ADD SWAP1 DUP2 MSTORE PUSH1 0x20 ADD PUSH1 0x0 KECCAK256 PUSH1 0x0 DUP3 DUP3 SLOAD PUSH2 0xB15 SWAP2 SWAP1 PUSH2 0xFCB JUMP JUMPDEST SWAP3 POP POP DUP2 SWAP1 SSTORE POP DUP3 PUSH20 0xFFFFFFFFFFFFFFFFFFFFFFFFFFFFFFFFFFFFFFFF AND CALLER PUSH20 0xFFFFFFFFFFFFFFFFFFFFFFFFFFFFFFFFFFFFFFFF AND PUSH32 0xDDF252AD1BE2C89B69C2B068FC378DAA952BA7F163C4A11628F55A4DF523B3EF DUP5 PUSH1 0x40 MLOAD PUSH2 0xB79 SWAP2 SWAP1 PUSH2 0xF79 JUMP JUMPDEST PUSH1 0x40 MLOAD DUP1 SWAP2 SUB SWAP1 LOG3 PUSH1 0x1 SWAP1 POP SWAP3 SWAP2 POP POP JUMP JUMPDEST PUSH1 0x2 SLOAD DUP2 JUMP JUMPDEST PUSH1 0x0 PUSH1 0x7 PUSH1 0x0 SWAP1 SLOAD SWAP1 PUSH2 0x100 EXP SWAP1 DIV PUSH20 0xFFFFFFFFFFFFFFFFFFFFFFFFFFFFFFFFFFFFFFFF AND PUSH20 0xFFFFFFFFFFFFFFFFFFFFFFFFFFFFFFFFFFFFFFFF AND PUSH2 0x8FC DUP4 SWAP1 DUP2 ISZERO MUL SWAP1 PUSH1 0x40 MLOAD PUSH1 0x0 PUSH1 0x40 MLOAD DUP1 DUP4 SUB DUP2 DUP6 DUP9 DUP9 CALL SWAP4 POP POP POP POP ISZERO DUP1 ISZERO PUSH2 0xBFB JUMPI RETURNDATASIZE PUSH1 0x0 DUP1 RETURNDATACOPY RETURNDATASIZE PUSH1 0x0 REVERT JUMPDEST POP PUSH1 0x1 SWAP1 POP SWAP2 SWAP1 POP JUMP JUMPDEST PUSH1 0x0 PUSH1 0x1 PUSH1 0x0 DUP5 PUSH20 0xFFFFFFFFFFFFFFFFFFFFFFFFFFFFFFFFFFFFFFFF AND PUSH20 0xFFFFFFFFFFFFFFFFFFFFFFFFFFFFFFFFFFFFFFFF AND DUP2 MSTORE PUSH1 0x20 ADD SWAP1 DUP2 MSTORE PUSH1 0x20 ADD PUSH1 0x0 KECCAK256 PUSH1 0x0 DUP4 PUSH20 0xFFFFFFFFFFFFFFFFFFFFFFFFFFFFFFFFFFFFFFFF AND PUSH20 0xFFFFFFFFFFFFFFFFFFFFFFFFFFFFFFFFFFFFFFFF AND DUP2 MSTORE PUSH1 0x20 ADD SWAP1 DUP2 MSTORE PUSH1 0x20 ADD PUSH1 0x0 KECCAK256 SLOAD SWAP1 POP SWAP3 SWAP2 POP POP JUMP JUMPDEST PUSH1 0x0 DUP2 CALLDATALOAD SWAP1 POP PUSH2 0xC9B DUP2 PUSH2 0x125C JUMP JUMPDEST SWAP3 SWAP2 POP POP JUMP JUMPDEST PUSH1 0x0 DUP2 CALLDATALOAD SWAP1 POP PUSH2 0xCB0 DUP2 PUSH2 0x1273 JUMP JUMPDEST SWAP3 SWAP2 POP POP JUMP JUMPDEST PUSH1 0x0 PUSH1 0x20 DUP3 DUP5 SUB SLT ISZERO PUSH2 0xCCC JUMPI PUSH2 0xCCB PUSH2 0x117F JUMP JUMPDEST JUMPDEST PUSH1 0x0 PUSH2 0xCDA DUP5 DUP3 DUP6 ADD PUSH2 0xC8C JUMP JUMPDEST SWAP2 POP POP SWAP3 SWAP2 POP POP JUMP JUMPDEST PUSH1 0x0 DUP1 PUSH1 0x40 DUP4 DUP6 SUB SLT ISZERO PUSH2 0xCFA JUMPI PUSH2 0xCF9 PUSH2 0x117F JUMP JUMPDEST JUMPDEST PUSH1 0x0 PUSH2 0xD08 DUP6 DUP3 DUP7 ADD PUSH2 0xC8C JUMP JUMPDEST SWAP3 POP POP PUSH1 0x20 PUSH2 0xD19 DUP6 DUP3 DUP7 ADD PUSH2 0xC8C JUMP JUMPDEST SWAP2 POP POP SWAP3 POP SWAP3 SWAP1 POP JUMP JUMPDEST PUSH1 0x0 DUP1 PUSH1 0x0 PUSH1 0x60 DUP5 DUP7 SUB SLT ISZERO PUSH2 0xD3C JUMPI PUSH2 0xD3B PUSH2 0x117F JUMP JUMPDEST JUMPDEST PUSH1 0x0 PUSH2 0xD4A DUP7 DUP3 DUP8 ADD PUSH2 0xC8C JUMP JUMPDEST SWAP4 POP POP PUSH1 0x20 PUSH2 0xD5B DUP7 DUP3 DUP8 ADD PUSH2 0xC8C JUMP JUMPDEST SWAP3 POP POP PUSH1 0x40 PUSH2 0xD6C DUP7 DUP3 DUP8 ADD PUSH2 0xCA1 JUMP JUMPDEST SWAP2 POP POP SWAP3 POP SWAP3 POP SWAP3 JUMP JUMPDEST PUSH1 0x0 DUP1 PUSH1 0x40 DUP4 DUP6 SUB SLT ISZERO PUSH2 0xD8D JUMPI PUSH2 0xD8C PUSH2 0x117F JUMP JUMPDEST JUMPDEST PUSH1 0x0 PUSH2 0xD9B DUP6 DUP3 DUP7 ADD PUSH2 0xC8C JUMP JUMPDEST SWAP3 POP POP PUSH1 0x20 PUSH2 0xDAC DUP6 DUP3 DUP7 ADD PUSH2 0xCA1 JUMP JUMPDEST SWAP2 POP POP SWAP3 POP SWAP3 SWAP1 POP JUMP JUMPDEST PUSH1 0x0 PUSH1 0x20 DUP3 DUP5 SUB SLT ISZERO PUSH2 0xDCC JUMPI PUSH2 0xDCB PUSH2 0x117F JUMP JUMPDEST JUMPDEST PUSH1 0x0 PUSH2 0xDDA DUP5 DUP3 DUP6 ADD PUSH2 0xCA1 JUMP JUMPDEST SWAP2 POP POP SWAP3 SWAP2 POP POP JUMP JUMPDEST PUSH2 0xDEC DUP2 PUSH2 0x1067 JUMP JUMPDEST DUP3 MSTORE POP POP JUMP JUMPDEST PUSH2 0xDFB DUP2 PUSH2 0x1079 JUMP JUMPDEST DUP3 MSTORE POP POP JUMP JUMPDEST PUSH1 0x0 PUSH2 0xE0C DUP3 PUSH2 0xFAF JUMP JUMPDEST PUSH2 0xE16 DUP2 DUP6 PUSH2 0xFBA JUMP JUMPDEST SWAP4 POP PUSH2 0xE26 DUP2 DUP6 PUSH1 0x20 DUP7 ADD PUSH2 0x10BC JUMP JUMPDEST PUSH2 0xE2F DUP2 PUSH2 0x1184 JUMP JUMPDEST DUP5 ADD SWAP2 POP POP SWAP3 SWAP2 POP POP JUMP JUMPDEST PUSH1 0x0 PUSH2 0xE47 PUSH1 0x20 DUP4 PUSH2 0xFBA JUMP JUMPDEST SWAP2 POP PUSH2 0xE52 DUP3 PUSH2 0x1195 JUMP JUMPDEST PUSH1 0x20 DUP3 ADD SWAP1 POP SWAP2 SWAP1 POP JUMP JUMPDEST PUSH1 0x0 PUSH2 0xE6A PUSH1 0x28 DUP4 PUSH2 0xFBA JUMP JUMPDEST SWAP2 POP PUSH2 0xE75 DUP3 PUSH2 0x11BE JUMP JUMPDEST PUSH1 0x40 DUP3 ADD SWAP1 POP SWAP2 SWAP1 POP JUMP JUMPDEST PUSH1 0x0 PUSH2 0xE8D PUSH1 0x32 DUP4 PUSH2 0xFBA JUMP JUMPDEST SWAP2 POP PUSH2 0xE98 DUP3 PUSH2 0x120D JUMP JUMPDEST PUSH1 0x40 DUP3 ADD SWAP1 POP SWAP2 SWAP1 POP JUMP JUMPDEST PUSH2 0xEAC DUP2 PUSH2 0x10A5 JUMP JUMPDEST DUP3 MSTORE POP POP JUMP JUMPDEST PUSH2 0xEBB DUP2 PUSH2 0x10AF JUMP JUMPDEST DUP3 MSTORE POP POP JUMP JUMPDEST PUSH1 0x0 PUSH1 0x20 DUP3 ADD SWAP1 POP PUSH2 0xED6 PUSH1 0x0 DUP4 ADD DUP5 PUSH2 0xDE3 JUMP JUMPDEST SWAP3 SWAP2 POP POP JUMP JUMPDEST PUSH1 0x0 PUSH1 0x20 DUP3 ADD SWAP1 POP PUSH2 0xEF1 PUSH1 0x0 DUP4 ADD DUP5 PUSH2 0xDF2 JUMP JUMPDEST SWAP3 SWAP2 POP POP JUMP JUMPDEST PUSH1 0x0 PUSH1 0x20 DUP3 ADD SWAP1 POP DUP2 DUP2 SUB PUSH1 0x0 DUP4 ADD MSTORE PUSH2 0xF11 DUP2 DUP5 PUSH2 0xE01 JUMP JUMPDEST SWAP1 POP SWAP3 SWAP2 POP POP JUMP JUMPDEST PUSH1 0x0 PUSH1 0x20 DUP3 ADD SWAP1 POP DUP2 DUP2 SUB PUSH1 0x0 DUP4 ADD MSTORE PUSH2 0xF32 DUP2 PUSH2 0xE3A JUMP JUMPDEST SWAP1 POP SWAP2 SWAP1 POP JUMP JUMPDEST PUSH1 0x0 PUSH1 0x20 DUP3 ADD SWAP1 POP DUP2 DUP2 SUB PUSH1 0x0 DUP4 ADD MSTORE PUSH2 0xF52 DUP2 PUSH2 0xE5D JUMP JUMPDEST SWAP1 POP SWAP2 SWAP1 POP JUMP JUMPDEST PUSH1 0x0 PUSH1 0x20 DUP3 ADD SWAP1 POP DUP2 DUP2 SUB PUSH1 0x0 DUP4 ADD MSTORE PUSH2 0xF72 DUP2 PUSH2 0xE80 JUMP JUMPDEST SWAP1 POP SWAP2 SWAP1 POP JUMP JUMPDEST PUSH1 0x0 PUSH1 0x20 DUP3 ADD SWAP1 POP PUSH2 0xF8E PUSH1 0x0 DUP4 ADD DUP5 PUSH2 0xEA3 JUMP JUMPDEST SWAP3 SWAP2 POP POP JUMP JUMPDEST PUSH1 0x0 PUSH1 0x20 DUP3 ADD SWAP1 POP PUSH2 0xFA9 PUSH1 0x0 DUP4 ADD DUP5 PUSH2 0xEB2 JUMP JUMPDEST SWAP3 SWAP2 POP POP JUMP JUMPDEST PUSH1 0x0 DUP2 MLOAD SWAP1 POP SWAP2 SWAP1 POP JUMP JUMPDEST PUSH1 0x0 DUP3 DUP3 MSTORE PUSH1 0x20 DUP3 ADD SWAP1 POP SWAP3 SWAP2 POP POP JUMP JUMPDEST PUSH1 0x0 PUSH2 0xFD6 DUP3 PUSH2 0x10A5 JUMP JUMPDEST SWAP2 POP PUSH2 0xFE1 DUP4 PUSH2 0x10A5 JUMP JUMPDEST SWAP3 POP DUP3 PUSH32 0xFFFFFFFFFFFFFFFFFFFFFFFFFFFFFFFFFFFFFFFFFFFFFFFFFFFFFFFFFFFFFFFF SUB DUP3 GT ISZERO PUSH2 0x1016 JUMPI PUSH2 0x1015 PUSH2 0x1121 JUMP JUMPDEST JUMPDEST DUP3 DUP3 ADD SWAP1 POP SWAP3 SWAP2 POP POP JUMP JUMPDEST PUSH1 0x0 PUSH2 0x102C DUP3 PUSH2 0x10A5 JUMP JUMPDEST SWAP2 POP PUSH2 0x1037 DUP4 PUSH2 0x10A5 JUMP JUMPDEST SWAP3 POP DUP3 DUP3 LT ISZERO PUSH2 0x104A JUMPI PUSH2 0x1049 PUSH2 0x1121 JUMP JUMPDEST JUMPDEST DUP3 DUP3 SUB SWAP1 POP SWAP3 SWAP2 POP POP JUMP JUMPDEST PUSH1 0x0 PUSH2 0x1060 DUP3 PUSH2 0x1085 JUMP JUMPDEST SWAP1 POP SWAP2 SWAP1 POP JUMP JUMPDEST PUSH1 0x0 PUSH2 0x1072 DUP3 PUSH2 0x1085 JUMP JUMPDEST SWAP1 POP SWAP2 SWAP1 POP JUMP JUMPDEST PUSH1 0x0 DUP2 ISZERO ISZERO SWAP1 POP SWAP2 SWAP1 POP JUMP JUMPDEST PUSH1 0x0 PUSH20 0xFFFFFFFFFFFFFFFFFFFFFFFFFFFFFFFFFFFFFFFF DUP3 AND SWAP1 POP SWAP2 SWAP1 POP JUMP JUMPDEST PUSH1 0x0 DUP2 SWAP1 POP SWAP2 SWAP1 POP JUMP JUMPDEST PUSH1 0x0 PUSH1 0xFF DUP3 AND SWAP1 POP SWAP2 SWAP1 POP JUMP JUMPDEST PUSH1 0x0 JUMPDEST DUP4 DUP2 LT ISZERO PUSH2 0x10DA JUMPI DUP1 DUP3 ADD MLOAD DUP2 DUP5 ADD MSTORE PUSH1 0x20 DUP2 ADD SWAP1 POP PUSH2 0x10BF JUMP JUMPDEST DUP4 DUP2 GT ISZERO PUSH2 0x10E9 JUMPI PUSH1 0x0 DUP5 DUP5 ADD MSTORE JUMPDEST POP POP POP POP JUMP JUMPDEST PUSH1 0x0 PUSH1 0x2 DUP3 DIV SWAP1 POP PUSH1 0x1 DUP3 AND DUP1 PUSH2 0x1107 JUMPI PUSH1 0x7F DUP3 AND SWAP2 POP JUMPDEST PUSH1 0x20 DUP3 LT DUP2 EQ ISZERO PUSH2 0x111B JUMPI PUSH2 0x111A PUSH2 0x1150 JUMP JUMPDEST JUMPDEST POP SWAP2 SWAP1 POP JUMP JUMPDEST PUSH32 0x4E487B7100000000000000000000000000000000000000000000000000000000 PUSH1 0x0 MSTORE PUSH1 0x11 PUSH1 0x4 MSTORE PUSH1 0x24 PUSH1 0x0 REVERT JUMPDEST PUSH32 0x4E487B7100000000000000000000000000000000000000000000000000000000 PUSH1 0x0 MSTORE PUSH1 0x22 PUSH1 0x4 MSTORE PUSH1 0x24 PUSH1 0x0 REVERT JUMPDEST PUSH1 0x0 DUP1 REVERT JUMPDEST PUSH1 0x0 PUSH1 0x1F NOT PUSH1 0x1F DUP4 ADD AND SWAP1 POP SWAP2 SWAP1 POP JUMP JUMPDEST PUSH32 0x616C6C6F7765642076616C7565206372697465726961206E65766572206D6574 PUSH1 0x0 DUP3 ADD MSTORE POP JUMP JUMPDEST PUSH32 0x76616C7565206973206C6F776572207468616E20312C20796F752063616E7420 PUSH1 0x0 DUP3 ADD MSTORE PUSH32 0x7472616E73666572000000000000000000000000000000000000000000000000 PUSH1 0x20 DUP3 ADD MSTORE POP JUMP JUMPDEST PUSH32 0x73656E6465722076616C7565206E6565647320746F2062652068696768657220 PUSH1 0x0 DUP3 ADD MSTORE PUSH32 0x7468616E2073656E64696E672076616C75650000000000000000000000000000 PUSH1 0x20 DUP3 ADD MSTORE POP JUMP JUMPDEST PUSH2 0x1265 DUP2 PUSH2 0x1055 JUMP JUMPDEST DUP2 EQ PUSH2 0x1270 JUMPI PUSH1 0x0 DUP1 REVERT JUMPDEST POP JUMP JUMPDEST PUSH2 0x127C DUP2 PUSH2 0x10A5 JUMP JUMPDEST DUP2 EQ PUSH2 0x1287 JUMPI PUSH1 0x0 DUP1 REVERT JUMPDEST POP JUMP INVALID LOG2 PUSH5 0x6970667358 0x22 SLT KECCAK256 0xDE ADDMOD 0x4A NUMBER 0xBD SWAP2 0x29 COINBASE 0xE1 0xA8 0xBA 0xD8 0xA8 TIMESTAMP 0xCB DUP12 0xC4 0xC8 0x4F CODESIZE 0xDA 0xC 0xA5 SHL BALANCE CREATE SUB 0x4A 0xD3 0xAB STATICCALL 0x4C PUSH5 0x736F6C6343 STOP ADDMOD SMOD STOP CALLER "
				},
				"gasEstimates": {
					"creation": {
						"codeDepositCost": "960000",
						"executionCost": "infinite",
						"totalCost": "infinite"
					},
					"external": {
						"allowance(address,address)": "infinite",
						"approve(address,uint256)": "infinite",
						"balanceOf(address)": "2886",
						"decimals()": "2582",
						"fundsWallet()": "2581",
						"name()": "infinite",
						"symbol()": "infinite",
						"totalSupply()": "2482",
						"totalSupplyVal()": "2473",
						"transfer(address,uint256)": "infinite",
						"transferEthToOwner(uint256)": "infinite",
						"transferFrom(address,address,uint256)": "infinite",
						"version()": "infinite"
					}
				},
				"methodIdentifiers": {
					"allowance(address,address)": "dd62ed3e",
					"approve(address,uint256)": "095ea7b3",
					"balanceOf(address)": "70a08231",
					"decimals()": "313ce567",
					"fundsWallet()": "2194f3a2",
					"name()": "06fdde03",
					"symbol()": "95d89b41",
					"totalSupply()": "18160ddd",
					"totalSupplyVal()": "b73fd792",
					"transfer(address,uint256)": "a9059cbb",
					"transferEthToOwner(uint256)": "ce7c5d7f",
					"transferFrom(address,address,uint256)": "23b872dd",
					"version()": "54fd4d50"
				}
			},
			"storageLayout": {
				"storage": [
					{
						"astId": 8,
						"contract": "contracts/BaseToken.sol:BaseToken",
						"label": "balances",
						"offset": 0,
						"slot": "0",
						"type": "t_mapping(t_address,t_uint256)"
					},
					{
						"astId": 14,
						"contract": "contracts/BaseToken.sol:BaseToken",
						"label": "allowed",
						"offset": 0,
						"slot": "1",
						"type": "t_mapping(t_address,t_mapping(t_address,t_uint256))"
					},
					{
						"astId": 16,
						"contract": "contracts/BaseToken.sol:BaseToken",
						"label": "totalSupplyVal",
						"offset": 0,
						"slot": "2",
						"type": "t_uint256"
					},
					{
						"astId": 18,
						"contract": "contracts/BaseToken.sol:BaseToken",
						"label": "name",
						"offset": 0,
						"slot": "3",
						"type": "t_string_storage"
					},
					{
						"astId": 20,
						"contract": "contracts/BaseToken.sol:BaseToken",
						"label": "symbol",
						"offset": 0,
						"slot": "4",
						"type": "t_string_storage"
					},
					{
						"astId": 22,
						"contract": "contracts/BaseToken.sol:BaseToken",
						"label": "decimals",
						"offset": 0,
						"slot": "5",
						"type": "t_uint8"
					},
					{
						"astId": 25,
						"contract": "contracts/BaseToken.sol:BaseToken",
						"label": "version",
						"offset": 0,
						"slot": "6",
						"type": "t_string_storage"
					},
					{
						"astId": 27,
						"contract": "contracts/BaseToken.sol:BaseToken",
						"label": "fundsWallet",
						"offset": 0,
						"slot": "7",
						"type": "t_address_payable"
					},
					{
						"astId": 29,
						"contract": "contracts/BaseToken.sol:BaseToken",
						"label": "uintOfEthCanBuy",
						"offset": 0,
						"slot": "8",
						"type": "t_uint256"
					}
				],
				"types": {
					"t_address": {
						"encoding": "inplace",
						"label": "address",
						"numberOfBytes": "20"
					},
					"t_address_payable": {
						"encoding": "inplace",
						"label": "address payable",
						"numberOfBytes": "20"
					},
					"t_mapping(t_address,t_mapping(t_address,t_uint256))": {
						"encoding": "mapping",
						"key": "t_address",
						"label": "mapping(address => mapping(address => uint256))",
						"numberOfBytes": "32",
						"value": "t_mapping(t_address,t_uint256)"
					},
					"t_mapping(t_address,t_uint256)": {
						"encoding": "mapping",
						"key": "t_address",
						"label": "mapping(address => uint256)",
						"numberOfBytes": "32",
						"value": "t_uint256"
					},
					"t_string_storage": {
						"encoding": "bytes",
						"label": "string",
						"numberOfBytes": "32"
					},
					"t_uint256": {
						"encoding": "inplace",
						"label": "uint256",
						"numberOfBytes": "32"
					},
					"t_uint8": {
						"encoding": "inplace",
						"label": "uint8",
						"numberOfBytes": "1"
					}
				}
			},
			"userdoc": {
				"kind": "user",
				"methods": {
					"transfer(address,uint256)": {
						"notice": "function approveAndCall(address _spender, uint256 _value, bytes memory _extraData) public returns(bool success) { allowed[msg.sender][_spender] = _value; emit Approval(msg.sender, _spender, _value); //if(!_spender.call(bytes4(bytes32(sha3(\"receiveApproval(address,uint256,address,bytes)\"))), msg.sender, _value, this, _extraData)) { throw; } return true; }"
					}
				},
				"version": 1
			}
		}
	}
}